{"abi":[{"type":"constructor","inputs":[{"name":"compact","type":"address","internalType":"address"}],"stateMutability":"nonpayable"},{"type":"function","name":"COMPACT","inputs":[],"outputs":[{"name":"","type":"address","internalType":"contract TheCompact"}],"stateMutability":"view"},{"type":"function","name":"DOMAIN_SEPARATOR","inputs":[],"outputs":[{"name":"","type":"bytes32","internalType":"bytes32"}],"stateMutability":"view"},{"type":"function","name":"eip712Domain","inputs":[],"outputs":[{"name":"fields","type":"bytes1","internalType":"bytes1"},{"name":"name","type":"string","internalType":"string"},{"name":"version","type":"string","internalType":"string"},{"name":"chainId","type":"uint256","internalType":"uint256"},{"name":"verifyingContract","type":"address","internalType":"address"},{"name":"salt","type":"bytes32","internalType":"bytes32"},{"name":"extensions","type":"uint256[]","internalType":"uint256[]"}],"stateMutability":"view"},{"type":"function","name":"finalise","inputs":[{"name":"order","type":"tuple","internalType":"struct StandardOrder","components":[{"name":"user","type":"address","internalType":"address"},{"name":"nonce","type":"uint256","internalType":"uint256"},{"name":"originChainId","type":"uint256","internalType":"uint256"},{"name":"expires","type":"uint32","internalType":"uint32"},{"name":"fillDeadline","type":"uint32","internalType":"uint32"},{"name":"inputOracle","type":"address","internalType":"address"},{"name":"inputs","type":"uint256[2][]","internalType":"uint256[2][]"},{"name":"outputs","type":"tuple[]","internalType":"struct MandateOutput[]","components":[{"name":"oracle","type":"bytes32","internalType":"bytes32"},{"name":"settler","type":"bytes32","internalType":"bytes32"},{"name":"chainId","type":"uint256","internalType":"uint256"},{"name":"token","type":"bytes32","internalType":"bytes32"},{"name":"amount","type":"uint256","internalType":"uint256"},{"name":"recipient","type":"bytes32","internalType":"bytes32"},{"name":"callbackData","type":"bytes","internalType":"bytes"},{"name":"context","type":"bytes","internalType":"bytes"}]}]},{"name":"signatures","type":"bytes","internalType":"bytes"},{"name":"solveParams","type":"tuple[]","internalType":"struct InputSettlerBase.SolveParams[]","components":[{"name":"timestamp","type":"uint32","internalType":"uint32"},{"name":"solver","type":"bytes32","internalType":"bytes32"}]},{"name":"destination","type":"bytes32","internalType":"bytes32"},{"name":"call","type":"bytes","internalType":"bytes"}],"outputs":[],"stateMutability":"nonpayable"},{"type":"function","name":"finaliseWithSignature","inputs":[{"name":"order","type":"tuple","internalType":"struct StandardOrder","components":[{"name":"user","type":"address","internalType":"address"},{"name":"nonce","type":"uint256","internalType":"uint256"},{"name":"originChainId","type":"uint256","internalType":"uint256"},{"name":"expires","type":"uint32","internalType":"uint32"},{"name":"fillDeadline","type":"uint32","internalType":"uint32"},{"name":"inputOracle","type":"address","internalType":"address"},{"name":"inputs","type":"uint256[2][]","internalType":"uint256[2][]"},{"name":"outputs","type":"tuple[]","internalType":"struct MandateOutput[]","components":[{"name":"oracle","type":"bytes32","internalType":"bytes32"},{"name":"settler","type":"bytes32","internalType":"bytes32"},{"name":"chainId","type":"uint256","internalType":"uint256"},{"name":"token","type":"bytes32","internalType":"bytes32"},{"name":"amount","type":"uint256","internalType":"uint256"},{"name":"recipient","type":"bytes32","internalType":"bytes32"},{"name":"callbackData","type":"bytes","internalType":"bytes"},{"name":"context","type":"bytes","internalType":"bytes"}]}]},{"name":"signatures","type":"bytes","internalType":"bytes"},{"name":"solveParams","type":"tuple[]","internalType":"struct InputSettlerBase.SolveParams[]","components":[{"name":"timestamp","type":"uint32","internalType":"uint32"},{"name":"solver","type":"bytes32","internalType":"bytes32"}]},{"name":"destination","type":"bytes32","internalType":"bytes32"},{"name":"call","type":"bytes","internalType":"bytes"},{"name":"orderOwnerSignature","type":"bytes","internalType":"bytes"}],"outputs":[],"stateMutability":"nonpayable"},{"type":"function","name":"orderIdentifier","inputs":[{"name":"order","type":"tuple","internalType":"struct StandardOrder","components":[{"name":"user","type":"address","internalType":"address"},{"name":"nonce","type":"uint256","internalType":"uint256"},{"name":"originChainId","type":"uint256","internalType":"uint256"},{"name":"expires","type":"uint32","internalType":"uint32"},{"name":"fillDeadline","type":"uint32","internalType":"uint32"},{"name":"inputOracle","type":"address","internalType":"address"},{"name":"inputs","type":"uint256[2][]","internalType":"uint256[2][]"},{"name":"outputs","type":"tuple[]","internalType":"struct MandateOutput[]","components":[{"name":"oracle","type":"bytes32","internalType":"bytes32"},{"name":"settler","type":"bytes32","internalType":"bytes32"},{"name":"chainId","type":"uint256","internalType":"uint256"},{"name":"token","type":"bytes32","internalType":"bytes32"},{"name":"amount","type":"uint256","internalType":"uint256"},{"name":"recipient","type":"bytes32","internalType":"bytes32"},{"name":"callbackData","type":"bytes","internalType":"bytes"},{"name":"context","type":"bytes","internalType":"bytes"}]}]}],"outputs":[{"name":"","type":"bytes32","internalType":"bytes32"}],"stateMutability":"view"},{"type":"function","name":"purchaseOrder","inputs":[{"name":"orderPurchase","type":"tuple","internalType":"struct OrderPurchase","components":[{"name":"orderId","type":"bytes32","internalType":"bytes32"},{"name":"destination","type":"address","internalType":"address"},{"name":"callData","type":"bytes","internalType":"bytes"},{"name":"discount","type":"uint64","internalType":"uint64"},{"name":"timeToBuy","type":"uint32","internalType":"uint32"}]},{"name":"order","type":"tuple","internalType":"struct StandardOrder","components":[{"name":"user","type":"address","internalType":"address"},{"name":"nonce","type":"uint256","internalType":"uint256"},{"name":"originChainId","type":"uint256","internalType":"uint256"},{"name":"expires","type":"uint32","internalType":"uint32"},{"name":"fillDeadline","type":"uint32","internalType":"uint32"},{"name":"inputOracle","type":"address","internalType":"address"},{"name":"inputs","type":"uint256[2][]","internalType":"uint256[2][]"},{"name":"outputs","type":"tuple[]","internalType":"struct MandateOutput[]","components":[{"name":"oracle","type":"bytes32","internalType":"bytes32"},{"name":"settler","type":"bytes32","internalType":"bytes32"},{"name":"chainId","type":"uint256","internalType":"uint256"},{"name":"token","type":"bytes32","internalType":"bytes32"},{"name":"amount","type":"uint256","internalType":"uint256"},{"name":"recipient","type":"bytes32","internalType":"bytes32"},{"name":"callbackData","type":"bytes","internalType":"bytes"},{"name":"context","type":"bytes","internalType":"bytes"}]}]},{"name":"orderSolvedByIdentifier","type":"bytes32","internalType":"bytes32"},{"name":"purchaser","type":"bytes32","internalType":"bytes32"},{"name":"expiryTimestamp","type":"uint256","internalType":"uint256"},{"name":"solverSignature","type":"bytes","internalType":"bytes"}],"outputs":[],"stateMutability":"nonpayable"},{"type":"function","name":"purchasedOrders","inputs":[{"name":"solver","type":"bytes32","internalType":"bytes32"},{"name":"orderId","type":"bytes32","internalType":"bytes32"}],"outputs":[{"name":"lastOrderTimestamp","type":"uint32","internalType":"uint32"},{"name":"purchaser","type":"bytes32","internalType":"bytes32"}],"stateMutability":"view"},{"type":"event","name":"EIP712DomainChanged","inputs":[],"anonymous":false},{"type":"event","name":"Finalised","inputs":[{"name":"orderId","type":"bytes32","indexed":true,"internalType":"bytes32"},{"name":"solver","type":"bytes32","indexed":false,"internalType":"bytes32"},{"name":"destination","type":"bytes32","indexed":false,"internalType":"bytes32"}],"anonymous":false},{"type":"event","name":"OrderPurchased","inputs":[{"name":"orderId","type":"bytes32","indexed":true,"internalType":"bytes32"},{"name":"solver","type":"bytes32","indexed":false,"internalType":"bytes32"},{"name":"purchaser","type":"bytes32","indexed":false,"internalType":"bytes32"}],"anonymous":false},{"type":"error","name":"AlreadyPurchased","inputs":[]},{"type":"error","name":"CallOutOfRange","inputs":[]},{"type":"error","name":"ContextOutOfRange","inputs":[]},{"type":"error","name":"Expired","inputs":[]},{"type":"error","name":"FillDeadlineAfterExpiry","inputs":[{"name":"fillDeadline","type":"uint32","internalType":"uint32"},{"name":"expires","type":"uint32","internalType":"uint32"}]},{"type":"error","name":"FilledTooLate","inputs":[{"name":"expected","type":"uint32","internalType":"uint32"},{"name":"actual","type":"uint32","internalType":"uint32"}]},{"type":"error","name":"HasDirtyBits","inputs":[]},{"type":"error","name":"InvalidPurchaser","inputs":[]},{"type":"error","name":"InvalidShortString","inputs":[]},{"type":"error","name":"InvalidSigner","inputs":[]},{"type":"error","name":"InvalidTimestampLength","inputs":[]},{"type":"error","name":"NoDestination","inputs":[]},{"type":"error","name":"NotOrderOwner","inputs":[]},{"type":"error","name":"OrderIdMismatch","inputs":[{"name":"provided","type":"bytes32","internalType":"bytes32"},{"name":"computed","type":"bytes32","internalType":"bytes32"}]},{"type":"error","name":"SafeERC20FailedOperation","inputs":[{"name":"token","type":"address","internalType":"address"}]},{"type":"error","name":"StringTooLong","inputs":[{"name":"str","type":"string","internalType":"string"}]},{"type":"error","name":"TimestampNotPassed","inputs":[]},{"type":"error","name":"TimestampPassed","inputs":[]},{"type":"error","name":"UserCannotBeSettler","inputs":[]},{"type":"error","name":"WrongChain","inputs":[{"name":"expected","type":"uint256","internalType":"uint256"},{"name":"actual","type":"uint256","internalType":"uint256"}]}],"bytecode":{"object":"0x610180806040523461017257602081612e2480380380916100208285610176565b83398101031261017257516001600160a01b038116908190036101725760405161004b604082610176565b600a815260208101906913d25190dbdb5c1858dd60b21b825260405191610073604084610176565b600183526020830191603160f81b835261008c816101ad565b6101205261009984610343565b61014052519020918260e05251902080610100524660a0526040519060208201927f8b73c3c69bb8fe3d512ecc4cf759cc79239f7b179b0ffacaa9a75d522b39400f8452604083015260608201524660808201523060a082015260a0815261010260c082610176565b5190206080523060c052610160526040516129a8908161047c8239608051816111d8015260a05181611295015260c051816111a9015260e051816112270152610100518161124d015261012051816106450152610140518161066f0152610160518181816104230152611da10152f35b5f80fd5b601f909101601f19168101906001600160401b0382119082101761019957604052565b634e487b7160e01b5f52604160045260245ffd5b908151602081105f14610227575090601f8151116101e75760208151910151602082106101d8571790565b5f198260200360031b1b161790565b604460209160405192839163305a27a960e01b83528160048401528051918291826024860152018484015e5f828201840152601f01601f19168101030190fd5b6001600160401b038111610199575f54600181811c91168015610339575b602082101461032557601f81116102f3575b50602092601f821160011461029457928192935f92610289575b50508160011b915f199060031b1c1916175f5560ff90565b015190505f80610271565b601f198216935f8052805f20915f5b8681106102db57508360019596106102c3575b505050811b015f5560ff90565b01515f1960f88460031b161c191690555f80806102b6565b919260206001819286850151815501940192016102a3565b5f8052601f60205f20910160051c810190601f830160051c015b81811061031a5750610257565b5f815560010161030d565b634e487b7160e01b5f52602260045260245ffd5b90607f1690610245565b908151602081105f1461036e575090601f8151116101e75760208151910151602082106101d8571790565b6001600160401b03811161019957600154600181811c91168015610471575b602082101461032557601f811161043e575b50602092601f82116001146103dd57928192935f926103d2575b50508160011b915f199060031b1c19161760015560ff90565b015190505f806103b9565b601f1982169360015f52805f20915f5b868110610426575083600195961061040e575b505050811b0160015560ff90565b01515f1960f88460031b161c191690555f8080610400565b919260206001819286850151815501940192016103ed565b60015f52601f60205f20910160051c810190601f830160051c015b818110610466575061039f565b5f8155600101610459565b90607f169061038d56fe60806040526004361015610011575f80fd5b5f5f3560e01c80633644e51514610e55578063609dbfa014610dd157806372903ef81461074357806384b0196e1461060d5780639efa6120146105aa578063acdfa75514610447578063c2f749b9146103d85763ddebc3e714610072575f80fd5b3461035d5760c07ffffffffffffffffffffffffffffffffffffffffffffffffffffffffffffffffc36011261035d576004359067ffffffffffffffff821161035d57816004016101007ffffffffffffffffffffffffffffffffffffffffffffffffffffffffffffffffc84360301126103d45760243567ffffffffffffffff81116103d057610105903690600401610e8d565b60449491943567ffffffffffffffff81116103cc57610128903690600401610efe565b9190936064359160843567ffffffffffffffff81116103c85761014f903690600401610e8d565b96909460a43567ffffffffffffffff81116103c4579061017861026d9493923690600401610e8d565b6101848896929661135a565b61019160448b01356112bb565b61019a876121c0565b9573ffffffffffffffffffffffffffffffffffffffff6101bb85878a61138c565b166102678d61022d8d60396040516101d4606082610fe8565b8181527f322064657374696e6174696f6e2c62797465732063616c6c2900000000000000604060208301927f416c6c6f774f70656e2862797465733332206f7264657249642c62797465733384520152209236916124db565b6020815191012060405190602082019283528b60408301528d606083015260808201526080815261025f60a082610fe8565b519020612511565b90612552565b1561039c576102a68183868b61028560848201611041565b61029e60e461029660a48501611052565b93018c611073565b929091611525565b1561036f57986102bf92859260208b9c0135928661183b565b846102c8578580f35b60c473ffffffffffffffffffffffffffffffffffffffff6102ec9316940190610f2f565b8391933b1561036b57858094610331604051978896879586947f73e57c2700000000000000000000000000000000000000000000000000000000865260048601611142565b03925af1801561036057610348575b808080808580f35b8161035291610fe8565b61035d57805f610340565b80fd5b6040513d84823e3d90fd5b8580fd5b6024897f4e487b710000000000000000000000000000000000000000000000000000000081526032600452fd5b60048a7f815e1d64000000000000000000000000000000000000000000000000000000008152fd5b8980fd5b8780fd5b8480fd5b8280fd5b5080fd5b503461035d57807ffffffffffffffffffffffffffffffffffffffffffffffffffffffffffffffffc36011261035d57602060405173ffffffffffffffffffffffffffffffffffffffff7f0000000000000000000000000000000000000000000000000000000000000000168152f35b503461035d5760a07ffffffffffffffffffffffffffffffffffffffffffffffffffffffffffffffffc36011261035d576004359067ffffffffffffffff821161035d5781600401916101007ffffffffffffffffffffffffffffffffffffffffffffffffffffffffffffffffc82360301126103d45760243567ffffffffffffffff81116103d0576104dc903690600401610e8d565b91909360443567ffffffffffffffff81116103cc576104ff903690600401610efe565b90916064359160843567ffffffffffffffff81116103c857610525903690600401610e8d565b9690946105318561135a565b61053e60448801356112bb565b610547846121c0565b9273ffffffffffffffffffffffffffffffffffffffff61056882848761138c565b163303610582576102a68183868b61028560848201611041565b60048a7ff6412b5a000000000000000000000000000000000000000000000000000000008152fd5b503461035d5760407ffffffffffffffffffffffffffffffffffffffffffffffffffffffffffffffffc36011261035d576040809160043581526002602052818120602435825260205220600163ffffffff82541691015482519182526020820152f35b503461035d57807ffffffffffffffffffffffffffffffffffffffffffffffffffffffffffffffffc36011261035d576106e7906106697f000000000000000000000000000000000000000000000000000000000000000061264b565b906106937f00000000000000000000000000000000000000000000000000000000000000006127be565b9060206106f5604051936106a78386610fe8565b8385525f3681376040519687967f0f00000000000000000000000000000000000000000000000000000000000000885260e08589015260e0880190610ebb565b908682036040880152610ebb565b904660608601523060808601528260a086015284820360c08601528080855193848152019401925b82811061072c57505050500390f35b83518552869550938101939281019260010161071d565b5034610b9f5760c07ffffffffffffffffffffffffffffffffffffffffffffffffffffffffffffffffc360112610b9f5760043567ffffffffffffffff8111610b9f578060040160a07ffffffffffffffffffffffffffffffffffffffffffffffffffffffffffffffffc8336030112610b9f5760243567ffffffffffffffff8111610b9f5780600401926101007ffffffffffffffffffffffffffffffffffffffffffffffffffffffffffffffffc8336030112610b9f57604435926064359260a43567ffffffffffffffff8111610b9f57610821903690600401610e8d565b95909661083160448401356112bb565b61083a816121c0565b92843593848103610da257509060c4610854920190610f2f565b9590968115610d7a574260843510610d5257825f52600260205260405f20845f5260205260405f2090600182018054610d2a578390608489019361089785611041565b63ffffffff42168063ffffffff8316105f14610d1d5763ffffffff91829103165b1681547fffffffffffffffffffffffffffffffffffffffffffffffffffffffff00000000161790555560a0996040516108f260a082610fe8565b606281527f4f7264657250757263686173652862797465733332206f7264657249642c616460208201527f64726573732064657374696e6174696f6e2c62797465732063616c6c4461746160408201527f2c75696e74363420646973636f756e742c75696e7433322074696d65546f427560608201527f792900000000000000000000000000000000000000000000000000000000000060809091015260248801917ffdfed33ca51f7f5656e8607cbef4b775fbfea6c69e452b6c45c0438e1096d21f6109be84611052565b60448b019a6109cd8c8c611309565b36906109d8926124db565b8051906020012090606401966109ed886112f4565b906109f790611041565b9160405193602085019586528c604086015273ffffffffffffffffffffffffffffffffffffffff166060850152608084015267ffffffffffffffff1660a083015263ffffffff1660c082015260c08152610a5260e082610fe8565b519020610a5e90612511565b610a7f929073ffffffffffffffffffffffffffffffffffffffff8816612552565b15610cf557610a9f610a9967ffffffffffffffff92611052565b926112f4565b16985f99670de0b6b3a7640000039173ffffffffffffffffffffffffffffffffffffffff670de0b6b3a7640000841191169a5b898b818310610ba3575050505050506040610b1c959493927f4cdacd323f9cdecf06f8a27bbdd8d66110c7a2d97ea8430a8c3c67d6eb2f6cc09282519182526020820152a2611309565b93909184610b28578580f35b813b15610b9f575f8094610b6b604051978896879586947f73e57c2700000000000000000000000000000000000000000000000000000000865260048601611142565b03925af18015610b9457610b8157808080808580f35b610b8d91505f90610fe8565b5f5f610340565b6040513d5f823e3d90fd5b5f80fd5b828492610baf926110c7565b6020813591013591610cc85785820291808304871490151715610cc85780851c610ca057670de0b6b3a764000073ffffffffffffffffffffffffffffffffffffffff8f921692604051927f23b872dd000000000000000000000000000000000000000000000000000000005f52336004526024520460445260205f60648180865af19060015f5114821615610c7f575b6040525f60605215610c545750600101610ad2565b7f5274afe7000000000000000000000000000000000000000000000000000000005f5260045260245ffd5b906001811516610c9757823b15153d15161690610c3f565b503d5f823e3d90fd5b7f5f3d6d4f000000000000000000000000000000000000000000000000000000005f5260045ffd5b7f4e487b71000000000000000000000000000000000000000000000000000000005f52601160045260245ffd5b7f815e1d64000000000000000000000000000000000000000000000000000000005f5260045ffd5b505063ffffffff5f6108b8565b7f3367b554000000000000000000000000000000000000000000000000000000005f5260045ffd5b7f203d82d8000000000000000000000000000000000000000000000000000000005f5260045ffd5b7fcf7899a1000000000000000000000000000000000000000000000000000000005f5260045ffd5b847f0517adf9000000000000000000000000000000000000000000000000000000005f5260045260245260445ffd5b34610b9f5760207ffffffffffffffffffffffffffffffffffffffffffffffffffffffffffffffffc360112610b9f5760043567ffffffffffffffff8111610b9f576101007ffffffffffffffffffffffffffffffffffffffffffffffffffffffffffffffffc8236030112610b9f57610e4d6020916004016121c0565b604051908152f35b34610b9f575f7ffffffffffffffffffffffffffffffffffffffffffffffffffffffffffffffffc360112610b9f576020610e4d611192565b9181601f84011215610b9f5782359167ffffffffffffffff8311610b9f5760208381860195010111610b9f57565b907fffffffffffffffffffffffffffffffffffffffffffffffffffffffffffffffe0601f602080948051918291828752018686015e5f8582860101520116010190565b9181601f84011215610b9f5782359167ffffffffffffffff8311610b9f576020808501948460061b010111610b9f57565b9035907fffffffffffffffffffffffffffffffffffffffffffffffffffffffffffffffe181360301821215610b9f570180359067ffffffffffffffff8211610b9f57602001918160061b36038313610b9f57565b6060810190811067ffffffffffffffff821117610f9f57604052565b7f4e487b71000000000000000000000000000000000000000000000000000000005f52604160045260245ffd5b6040810190811067ffffffffffffffff821117610f9f57604052565b90601f7fffffffffffffffffffffffffffffffffffffffffffffffffffffffffffffffe0910116810190811067ffffffffffffffff821117610f9f57604052565b67ffffffffffffffff8111610f9f5760051b60200190565b3563ffffffff81168103610b9f5790565b3573ffffffffffffffffffffffffffffffffffffffff81168103610b9f5790565b9035907fffffffffffffffffffffffffffffffffffffffffffffffffffffffffffffffe181360301821215610b9f570180359067ffffffffffffffff8211610b9f57602001918160051b36038313610b9f57565b91908110156110d75760061b0190565b7f4e487b71000000000000000000000000000000000000000000000000000000005f52603260045260245ffd5b601f82602094937fffffffffffffffffffffffffffffffffffffffffffffffffffffffffffffffe093818652868601375f8582860101520116010190565b949391949290928560408201604083525260608101935f965b80881061117a5750506111779495506020818503910152611104565b90565b9094604080828189600195370196019701969061115b565b73ffffffffffffffffffffffffffffffffffffffff7f000000000000000000000000000000000000000000000000000000000000000016301480611292575b156111fa577f000000000000000000000000000000000000000000000000000000000000000090565b60405160208101907f8b73c3c69bb8fe3d512ecc4cf759cc79239f7b179b0ffacaa9a75d522b39400f82527f000000000000000000000000000000000000000000000000000000000000000060408201527f000000000000000000000000000000000000000000000000000000000000000060608201524660808201523060a082015260a0815261128c60c082610fe8565b51902090565b507f000000000000000000000000000000000000000000000000000000000000000046146111d1565b4681036112c55750565b7f24497bc3000000000000000000000000000000000000000000000000000000005f526004524660245260445ffd5b3567ffffffffffffffff81168103610b9f5790565b9035907fffffffffffffffffffffffffffffffffffffffffffffffffffffffffffffffe181360301821215610b9f570180359067ffffffffffffffff8211610b9f57602001918136038313610b9f57565b60601b1561136457565b7fb8e78e80000000000000000000000000000000000000000000000000000000005f5260045ffd5b9180156110d757602082013592835f52600260205260405f20905f5260205260405f208054906001810190815494856113c9575b50505050505090565b63ffffffff6113d782611041565b169460015b818110611429575050507fffffffffffffffffffffffffffffffffffffffffffffffffffffffff00000000831690555f905563ffffffff1611156114245780808080806113c0565b905090565b63ffffffff61144161143c8385876110c7565b611041565b16808810611453575b506001016113dc565b9650600161144a565b67ffffffffffffffff8111610f9f57601f017fffffffffffffffffffffffffffffffffffffffffffffffffffffffffffffffe01660200190565b906114a08261145c565b6114ad6040519182610fe8565b8281527fffffffffffffffffffffffffffffffffffffffffffffffffffffffffffffffe06114db829461145c565b0190602036910137565b91908110156110d75760051b810135907fffffffffffffffffffffffffffffffffffffffffffffffffffffffffffffff0181360301821215610b9f570190565b90949295939193868103611813577f01ffffffffffffffffffffffffffffffffffffffffffffffffffffffffffffff87168703610cc8576115688760071b611496565b965f5b8181106115f5575050505050505073ffffffffffffffffffffffffffffffffffffffff16803b15610b9f576115d8915f9160405180809581947fae0dd770000000000000000000000000000000000000000000000000000000008352602060048401526024830190610ebb565b03915afa8015610b94576115e95750565b5f6115f391610fe8565b565b61160361143c8285896110c7565b63ffffffff811663ffffffff86168181106117e557505061162582848a6114e5565b90602061163384878b6110c7565b01359061164360c0840184611309565b9061165160e0860186611309565b9161ffff84116117bd5761ffff831161179557838c948492604051978897602089019a8b52604089015260e01b7fffffffff0000000000000000000000000000000000000000000000000000000016606088015260608a0135606488015260808a0135608488015260a08a013560a48801528160f01b7fffff0000000000000000000000000000000000000000000000000000000000001660c488015260c68701378401918160f01b7fffff0000000000000000000000000000000000000000000000000000000000001660c684015260c88301370160c601600281015f9052036002017fffffffffffffffffffffffffffffffffffffffffffffffffffffffffffffffe0810182526117649082610fe8565b519020908260071b8b019060408101356020830152803560408301526020013560608201526080015260010161156b565b7fd94d6ce6000000000000000000000000000000000000000000000000000000005f5260045ffd5b7f4fe9ad23000000000000000000000000000000000000000000000000000000005f5260045ffd5b7f0ad67c09000000000000000000000000000000000000000000000000000000005f5260045260245260445ffd5b7f12d48609000000000000000000000000000000000000000000000000000000005f5260045ffd5b9294939150803581019060208101350160c084019061185a8286610f2f565b95905061186686611029565b926118746040519485610fe8565b8684527fffffffffffffffffffffffffffffffffffffffffffffffffffffffffffffffe06118a188611029565b015f5b8181106121465750506118b79082610f2f565b60409791602091905f5b84811061208d57505050505073ffffffffffffffffffffffffffffffffffffffff6118eb82611052565b16903082146120655761190060608201611041565b875160208101907f4d616e646174652875696e7433322066696c6c446561646c696e652c6164647282527f65737320696e7075744f7261636c652c4d616e646174654f75747075745b5d208a8201527f6f757470757473294d616e646174654f75747075742862797465733332206f7260608201527f61636c652c6279746573333220736574746c65722c75696e743235362063686160808201527f696e49642c6279746573333220746f6b656e2c75696e7432353620616d6f756e60a08201527f742c6279746573333220726563697069656e742c62797465732063616c6c626160c08201527f636b446174612c627974657320636f6e7465787429000000000000000000000060e082015260d58152611a1c60f582610fe8565b519020611a2b60808401611041565b611a3760a08501611052565b611a4460e0860186611073565b90611a518260051b611496565b915f8e5b828210611ede575050505080602073ffffffffffffffffffffffffffffffffffffffff92519101209163ffffffff8d519460208601968752168d850152166060830152608082015260808152611aac60a082610fe8565b5190209061010092895193611ac18186610fe8565b60cc85527f75696e7433322066696c6c446561646c696e652c6164647265737320696e707560208601527f744f7261636c652c4d616e646174654f75747075745b5d206f757470757473298b8601527f4d616e646174654f75747075742862797465733332206f7261636c652c62797460608601527f6573333220736574746c65722c75696e7432353620636861696e49642c62797460808601527f6573333220746f6b656e2c75696e7432353620616d6f756e742c62797465733360a08601527f3220726563697069656e742c62797465732063616c6c6261636b446174612c6260c08601527f7974657320636f6e74657874000000000000000000000000000000000000000060e08601528a519681880199888b1067ffffffffffffffff8c1117610f9f578c611cb360249b9a611c39611ce494611d2e9c9b9a9998979f73ffffffffffffffffffffffffffffffffffffffff97611c2a91875236906020813591016124db565b835236906020813591016124db565b92602082019384528082019a8b52602060608301970135875263ffffffff608083019816885260a0820198895260c08201998a5260e082019c8d52519d8e9d8e927f6428cb5900000000000000000000000000000000000000000000000000000000845260206004850152519201526101248d0190610ebb565b90517fffffffffffffffffffffffffffffffffffffffffffffffffffffffffffffffdc8c83030160448d0152610ebb565b95511660648901525160848801525160a48701525160c4860152517fffffffffffffffffffffffffffffffffffffffffffffffffffffffffffffffdc8583030160e4860152610ebb565b9051907fffffffffffffffffffffffffffffffffffffffffffffffffffffffffffffffdc83820301610104840152815180825260208201916020808360051b8301019401925f915b838310611e42575050505050908060209203815f73ffffffffffffffffffffffffffffffffffffffff7f0000000000000000000000000000000000000000000000000000000000000000165af1908115611e38575f91611e06575b5015610b9f577f6d1ab3c99edb0b034244c4a410afdfc12e0fef57313ad9bc936138f2b080025b9282519182526020820152a2565b90506020813d602011611e30575b81611e2160209383610fe8565b81010312610b9f57515f611dd1565b3d9150611e14565b83513d5f823e3d90fd5b9193955091937fffffffffffffffffffffffffffffffffffffffffffffffffffffffffffffffe08282030183528551602060808b606085019380518652838101518487015201519360608d8201528451809452019201905f5b8b828210611ebf575050505060208060019297019301930190928695949293611d76565b8351805186526020908101518187015294019390920191600101611e9b565b90600191611eed8285876114e5565b9060c0608d8251611efe8382610fe8565b8181527f7974657320636f6e74657874290000000000000000000000000000000000000060a060208301927f4d616e646174654f75747075742862797465733332206f7261636c652c62797484527f6573333220736574746c65722c75696e7432353620636861696e49642c627974878201527f6573333220746f6b656e2c75696e7432353620616d6f756e742c62797465733360608201527f3220726563697069656e742c62797465732063616c6c6261636b446174612c6260808201520152209260a0611fd9611fd284840184611309565b36916124db565b6020815191012091611ff1611fd260e0830183611309565b602081519101209385519560208701978852823581880152602083013560608801528201356080870152606082013583870152608082013590860152013560e0840152610100830152610120820152610120815261205161014082610fe8565b51902060208260051b87010152018e611a55565b7fa6f1b2e1000000000000000000000000000000000000000000000000000000005f5260045ffd5b8061209a8d9285856110c7565b8c5160208201358e6120ac8184610fe8565b600183525f5b898110612117575080516001966120c882610fcc565b81528260208201526120d98461288e565b526120e38361288e565b5051926120ef84610f83565b35835260208301528d820152612105828b61289b565b52612110818a61289b565b50016118c1565b9060209293949596505161212a81610fcc565b5f81525f8382015282828601015201908f949392918f906120b2565b60209060405161215581610f83565b5f81525f8382015260606040820152828289010152016118a4565b90357fffffffffffffffffffffffffffffffffffffffffffffffffffffffffffffffe182360301811215610b9f57016020813591019167ffffffffffffffff8211610b9f578136038313610b9f57565b6121c981611052565b906121d660608201611041565b906121e360808201611041565b6121ef60a08301611052565b6121fc60c0840184610f2f565b906040519060208201928391905f5b8181106124bd575050508161224691037fffffffffffffffffffffffffffffffffffffffffffffffffffffffffffffffe08101835282610fe8565b51902061225660e0850185611073565b92909360405180946020820196816040840160208a52526060830160608360051b85010192825f907fffffffffffffffffffffffffffffffffffffffffffffffffffffffffffffff0181360301935b8383106123f357505050505050037fffffffffffffffffffffffffffffffffffffffffffffffffffffffffffffffe0810185526122e29085610fe8565b6040519687966020880199468b523060601b60408a015260601b7fffffffffffffffffffffffffffffffffffffffff00000000000000000000000016605489015260200135606888015260e01b7fffffffff0000000000000000000000000000000000000000000000000000000016608887015260e01b7fffffffff0000000000000000000000000000000000000000000000000000000016608c86015260601b7fffffffffffffffffffffffffffffffffffffffff00000000000000000000000016609085015260a484015251809160c484015e810160c481015f90520360c4017fffffffffffffffffffffffffffffffffffffffffffffffffffffffffffffffe08101825261128c9082610fe8565b919395909294967fffffffffffffffffffffffffffffffffffffffffffffffffffffffffffffffa0908203018252863586811215610b9f5760206124ab600193868394019081358152838201358482015260408201356040820152606082013560608201526080820135608082015260a082013560a082015261249d61249261247f60c0850185612170565b61010060c0860152610100850191611104565b9260e0810190612170565b9160e0818503910152611104565b9801920193019093918a9695936122a5565b9091926040808281876001959c9b9c3798999801940192910161220b565b9291926124e78261145c565b916124f56040519384610fe8565b829481845281830111610b9f578281602093845f960137010152565b60429061251c611192565b90604051917f19010000000000000000000000000000000000000000000000000000000000008352600283015260228201522090565b929190833b6125c9579061256692916128af565b50600481101561259c5715918261257c57505090565b73ffffffffffffffffffffffffffffffffffffffff919250811691161490565b7f4e487b71000000000000000000000000000000000000000000000000000000005f52602160045260245ffd5b60646125db602095935f9536916124db565b805190604051937f1626ba7e00000000000000000000000000000000000000000000000000000000855260048501526040602485015286820190604485015e01915afa7f1626ba7e000000000000000000000000000000000000000000000000000000005f5114601f3d11161690565b60ff81146126aa5760ff811690601f8211612682576040519161266f604084610fe8565b6020808452838101919036833783525290565b7fb3512b0c000000000000000000000000000000000000000000000000000000005f5260045ffd5b506040515f5f548060011c91600182169182156127b4575b60208410831461278757838552849290811561274a57506001146126ed575b61117792500382610fe8565b505f80805290917f290decd9548b62a8d60345a988386fc84ba6bc95484008f6362f93160ef3e5635b81831061272e575050906020611177928201016126e1565b6020919350806001915483858801015201910190918392612716565b602092506111779491507fffffffffffffffffffffffffffffffffffffffffffffffffffffffffffffff001682840152151560051b8201016126e1565b7f4e487b71000000000000000000000000000000000000000000000000000000005f52602260045260245ffd5b92607f16926126c2565b60ff81146127e25760ff811690601f8211612682576040519161266f604084610fe8565b506040515f6001548060011c9160018216918215612884575b60208410831461278757838552849290811561274a57506001146128255761117792500382610fe8565b5060015f90815290917fb10e2d527612073b26eecdfd717e6a320cf44b4afac2b0732d9fcbe2b7fa0cf65b818310612868575050906020611177928201016126e1565b6020919350806001915483858801015201910190918392612850565b92607f16926127fb565b8051156110d75760200190565b80518210156110d75760209160051b010190565b90604183036128d9576128d29250602081013591604082359201355f1a906128e3565b9192909190565b50505f9160029190565b91907f7fffffffffffffffffffffffffffffff5d576e7357a4501ddfe92f46681b20a08411612967579160209360809260ff5f9560405194855216868401526040830152606082015282805260015afa15610b94575f5173ffffffffffffffffffffffffffffffffffffffff81161561295d57905f905f90565b505f906001905f90565b5050505f916003919056fea264697066735822122066160ac24d3ccef8c7c51979943f1dbfe57fce5bea531ae8b178fa732a4088ec64736f6c634300081e0033","linkReferences":{}},"methodIdentifiers":{"COMPACT()":"c2f749b9","DOMAIN_SEPARATOR()":"3644e515","eip712Domain()":"84b0196e","finalise((address,uint256,uint256,uint32,uint32,address,uint256[2][],(bytes32,bytes32,uint256,bytes32,uint256,bytes32,bytes,bytes)[]),bytes,(uint32,bytes32)[],bytes32,bytes)":"acdfa755","finaliseWithSignature((address,uint256,uint256,uint32,uint32,address,uint256[2][],(bytes32,bytes32,uint256,bytes32,uint256,bytes32,bytes,bytes)[]),bytes,(uint32,bytes32)[],bytes32,bytes,bytes)":"ddebc3e7","orderIdentifier((address,uint256,uint256,uint32,uint32,address,uint256[2][],(bytes32,bytes32,uint256,bytes32,uint256,bytes32,bytes,bytes)[]))":"609dbfa0","purchaseOrder((bytes32,address,bytes,uint64,uint32),(address,uint256,uint256,uint32,uint32,address,uint256[2][],(bytes32,bytes32,uint256,bytes32,uint256,bytes32,bytes,bytes)[]),bytes32,bytes32,uint256,bytes)":"72903ef8","purchasedOrders(bytes32,bytes32)":"9efa6120"},"id":114}