{"abi":[{"type":"constructor","inputs":[{"name":"_prover","type":"address","internalType":"address"}],"stateMutability":"nonpayable"},{"type":"function","name":"executeValidateEvent","inputs":[{"name":"proof","type":"bytes","internalType":"bytes"},{"name":"expectedTopics","type":"bytes","internalType":"bytes"}],"outputs":[],"stateMutability":"nonpayable"},{"type":"function","name":"ping","inputs":[],"outputs":[],"stateMutability":"nonpayable"},{"type":"function","name":"prover","inputs":[],"outputs":[{"name":"","type":"address","internalType":"contract ICrossL2ProverV2"}],"stateMutability":"view"},{"type":"event","name":"Ping","inputs":[],"anonymous":false},{"type":"event","name":"ValidationSuccess","inputs":[{"name":"chainId","type":"uint32","indexed":false,"internalType":"uint32"},{"name":"emittingContract","type":"address","indexed":false,"internalType":"address"},{"name":"topics","type":"bytes","indexed":false,"internalType":"bytes"},{"name":"unindexedData","type":"bytes","indexed":false,"internalType":"bytes"}],"anonymous":false},{"type":"error","name":"TopicsDoNotMatch","inputs":[{"name":"expected","type":"bytes","internalType":"bytes"},{"name":"actual","type":"bytes","internalType":"bytes"}]}],"bytecode":{"object":"0x60a034606f57601f61063838819003918201601f19168301916001600160401b03831184841017607357808492602094604052833981010312606f57516001600160a01b03811690819003606f576080526040516105b09081610088823960805181818161010901526103b90152f35b5f80fd5b634e487b7160e01b5f52604160045260245ffdfe6080806040526004361015610012575f80fd5b5f3560e01c90816332a8f30f14610371575080635c36b1861461031d57636e5945f11461003d575f80fd5b3461026f5760407ffffffffffffffffffffffffffffffffffffffffffffffffffffffffffffffffc36011261026f5760043567ffffffffffffffff811161026f5761008c9036906004016103dd565b9060243567ffffffffffffffff811161026f575f6100b16100f09236906004016103dd565b93909460405193849283927f0b9ca54a0000000000000000000000000000000000000000000000000000000084526020600485015260248401916104f9565b038173ffffffffffffffffffffffffffffffffffffffff7f0000000000000000000000000000000000000000000000000000000000000000165afa918215610312575f935f915f935f95610273575b508351602085012061015082610479565b61015d604051918261040b565b8281526020810190368486011161026f57838583375f60208583010152519020036101fa577fff31db76c294589869de88da94c0720a88744b8b398feaa1373278d5dadb756e63ffffffff876101f5886101e78973ffffffffffffffffffffffffffffffffffffffff8a604051978897168752166020860152608060408601526080850190610537565b908382036060850152610537565b0390a1005b61026b8461023b6040519485947fa8c2eeff0000000000000000000000000000000000000000000000000000000086526040600487015260448601916104f9565b907ffffffffffffffffffffffffffffffffffffffffffffffffffffffffffffffffc848303016024850152610537565b0390fd5b5f80fd5b955093509150503d805f853e610289818561040b565b830160808482031261026f5783519163ffffffff8316830361026f5760208501519473ffffffffffffffffffffffffffffffffffffffff8616860361026f57604081015167ffffffffffffffff811161026f57836102e89183016104b3565b92606082015167ffffffffffffffff811161026f5761030792016104b3565b92949192935f61013f565b6040513d5f823e3d90fd5b3461026f575f7ffffffffffffffffffffffffffffffffffffffffffffffffffffffffffffffffc36011261026f577fca6e822df923f741dfe968d15d80a18abd25bd1e748bcb9ad81fea5bbb7386af5f80a1005b3461026f575f7ffffffffffffffffffffffffffffffffffffffffffffffffffffffffffffffffc36011261026f5760209073ffffffffffffffffffffffffffffffffffffffff7f0000000000000000000000000000000000000000000000000000000000000000168152f35b9181601f8401121561026f5782359167ffffffffffffffff831161026f576020838186019501011161026f57565b90601f7fffffffffffffffffffffffffffffffffffffffffffffffffffffffffffffffe0910116810190811067ffffffffffffffff82111761044c57604052565b7f4e487b71000000000000000000000000000000000000000000000000000000005f52604160045260245ffd5b67ffffffffffffffff811161044c57601f017fffffffffffffffffffffffffffffffffffffffffffffffffffffffffffffffe01660200190565b81601f8201121561026f578051906104ca82610479565b926104d8604051948561040b565b8284526020838301011161026f57815f9260208093018386015e8301015290565b601f82602094937fffffffffffffffffffffffffffffffffffffffffffffffffffffffffffffffe093818652868601375f8582860101520116010190565b907fffffffffffffffffffffffffffffffffffffffffffffffffffffffffffffffe0601f602080948051918291828752018686015e5f858286010152011601019056fea2646970667358221220aec41693177672bde72acda8f6af6889b32090be3cc19a867a65832918a22beb64736f6c634300081e0033","linkReferences":{}},"methodIdentifiers":{"executeValidateEvent(bytes,bytes)":"6e5945f1","ping()":"5c36b186","prover()":"32a8f30f"},"id":143}