{"abi":[{"type":"function","name":"efficientRequireProven","inputs":[{"name":"proofSeries","type":"bytes","internalType":"bytes"}],"outputs":[],"stateMutability":"view"},{"type":"function","name":"fill","inputs":[{"name":"orderId","type":"bytes32","internalType":"bytes32"},{"name":"output","type":"tuple","internalType":"struct MandateOutput","components":[{"name":"oracle","type":"bytes32","internalType":"bytes32"},{"name":"settler","type":"bytes32","internalType":"bytes32"},{"name":"chainId","type":"uint256","internalType":"uint256"},{"name":"token","type":"bytes32","internalType":"bytes32"},{"name":"amount","type":"uint256","internalType":"uint256"},{"name":"recipient","type":"bytes32","internalType":"bytes32"},{"name":"callbackData","type":"bytes","internalType":"bytes"},{"name":"context","type":"bytes","internalType":"bytes"}]},{"name":"fillDeadline","type":"uint48","internalType":"uint48"},{"name":"fillerData","type":"bytes","internalType":"bytes"}],"outputs":[{"name":"fillRecordHash","type":"bytes32","internalType":"bytes32"}],"stateMutability":"payable"},{"type":"function","name":"fillOrderOutputs","inputs":[{"name":"orderId","type":"bytes32","internalType":"bytes32"},{"name":"outputs","type":"tuple[]","internalType":"struct MandateOutput[]","components":[{"name":"oracle","type":"bytes32","internalType":"bytes32"},{"name":"settler","type":"bytes32","internalType":"bytes32"},{"name":"chainId","type":"uint256","internalType":"uint256"},{"name":"token","type":"bytes32","internalType":"bytes32"},{"name":"amount","type":"uint256","internalType":"uint256"},{"name":"recipient","type":"bytes32","internalType":"bytes32"},{"name":"callbackData","type":"bytes","internalType":"bytes"},{"name":"context","type":"bytes","internalType":"bytes"}]},{"name":"fillDeadline","type":"uint48","internalType":"uint48"},{"name":"fillerData","type":"bytes","internalType":"bytes"}],"outputs":[],"stateMutability":"payable"},{"type":"function","name":"getFillRecord","inputs":[{"name":"orderId","type":"bytes32","internalType":"bytes32"},{"name":"output","type":"tuple","internalType":"struct MandateOutput","components":[{"name":"oracle","type":"bytes32","internalType":"bytes32"},{"name":"settler","type":"bytes32","internalType":"bytes32"},{"name":"chainId","type":"uint256","internalType":"uint256"},{"name":"token","type":"bytes32","internalType":"bytes32"},{"name":"amount","type":"uint256","internalType":"uint256"},{"name":"recipient","type":"bytes32","internalType":"bytes32"},{"name":"callbackData","type":"bytes","internalType":"bytes"},{"name":"context","type":"bytes","internalType":"bytes"}]}],"outputs":[{"name":"payloadHash","type":"bytes32","internalType":"bytes32"}],"stateMutability":"view"},{"type":"function","name":"getFillRecord","inputs":[{"name":"orderId","type":"bytes32","internalType":"bytes32"},{"name":"outputHash","type":"bytes32","internalType":"bytes32"}],"outputs":[{"name":"payloadHash","type":"bytes32","internalType":"bytes32"}],"stateMutability":"view"},{"type":"function","name":"hasAttested","inputs":[{"name":"payloads","type":"bytes[]","internalType":"bytes[]"}],"outputs":[{"name":"accumulator","type":"bool","internalType":"bool"}],"stateMutability":"view"},{"type":"function","name":"isProven","inputs":[{"name":"remoteChainId","type":"uint256","internalType":"uint256"},{"name":"remoteOracle","type":"bytes32","internalType":"bytes32"},{"name":"application","type":"bytes32","internalType":"bytes32"},{"name":"dataHash","type":"bytes32","internalType":"bytes32"}],"outputs":[{"name":"","type":"bool","internalType":"bool"}],"stateMutability":"view"},{"type":"function","name":"setAttestation","inputs":[{"name":"orderId","type":"bytes32","internalType":"bytes32"},{"name":"solver","type":"bytes32","internalType":"bytes32"},{"name":"timestamp","type":"uint32","internalType":"uint32"},{"name":"output","type":"tuple","internalType":"struct MandateOutput","components":[{"name":"oracle","type":"bytes32","internalType":"bytes32"},{"name":"settler","type":"bytes32","internalType":"bytes32"},{"name":"chainId","type":"uint256","internalType":"uint256"},{"name":"token","type":"bytes32","internalType":"bytes32"},{"name":"amount","type":"uint256","internalType":"uint256"},{"name":"recipient","type":"bytes32","internalType":"bytes32"},{"name":"callbackData","type":"bytes","internalType":"bytes"},{"name":"context","type":"bytes","internalType":"bytes"}]}],"outputs":[],"stateMutability":"nonpayable"},{"type":"event","name":"OutputFilled","inputs":[{"name":"orderId","type":"bytes32","indexed":true,"internalType":"bytes32"},{"name":"solver","type":"bytes32","indexed":false,"internalType":"bytes32"},{"name":"timestamp","type":"uint32","indexed":false,"internalType":"uint32"},{"name":"output","type":"tuple","indexed":false,"internalType":"struct MandateOutput","components":[{"name":"oracle","type":"bytes32","internalType":"bytes32"},{"name":"settler","type":"bytes32","internalType":"bytes32"},{"name":"chainId","type":"uint256","internalType":"uint256"},{"name":"token","type":"bytes32","internalType":"bytes32"},{"name":"amount","type":"uint256","internalType":"uint256"},{"name":"recipient","type":"bytes32","internalType":"bytes32"},{"name":"callbackData","type":"bytes","internalType":"bytes"},{"name":"context","type":"bytes","internalType":"bytes"}]},{"name":"finalAmount","type":"uint256","indexed":false,"internalType":"uint256"}],"anonymous":false},{"type":"event","name":"OutputProven","inputs":[{"name":"chainid","type":"uint256","indexed":false,"internalType":"uint256"},{"name":"remoteIdentifier","type":"bytes32","indexed":false,"internalType":"bytes32"},{"name":"application","type":"bytes32","indexed":false,"internalType":"bytes32"},{"name":"payloadHash","type":"bytes32","indexed":false,"internalType":"bytes32"}],"anonymous":false},{"type":"error","name":"AlreadyFilled","inputs":[]},{"type":"error","name":"CallOutOfRange","inputs":[]},{"type":"error","name":"ContextOutOfRange","inputs":[]},{"type":"error","name":"ExclusiveTo","inputs":[{"name":"solver","type":"bytes32","internalType":"bytes32"}]},{"type":"error","name":"FailedCall","inputs":[]},{"type":"error","name":"FillDeadline","inputs":[]},{"type":"error","name":"HasDirtyBits","inputs":[]},{"type":"error","name":"InsufficientBalance","inputs":[{"name":"balance","type":"uint256","internalType":"uint256"},{"name":"needed","type":"uint256","internalType":"uint256"}]},{"type":"error","name":"InvalidAttestation","inputs":[{"name":"storedFillRecordHash","type":"bytes32","internalType":"bytes32"},{"name":"givenFillRecordHash","type":"bytes32","internalType":"bytes32"}]},{"type":"error","name":"InvalidContextDataLength","inputs":[]},{"type":"error","name":"NotDivisible","inputs":[{"name":"value","type":"uint256","internalType":"uint256"},{"name":"divisor","type":"uint256","internalType":"uint256"}]},{"type":"error","name":"NotImplemented","inputs":[]},{"type":"error","name":"NotProven","inputs":[]},{"type":"error","name":"PayloadTooSmall","inputs":[]},{"type":"error","name":"SafeERC20FailedOperation","inputs":[{"name":"token","type":"address","internalType":"address"}]},{"type":"error","name":"WrongChain","inputs":[{"name":"expected","type":"uint256","internalType":"uint256"},{"name":"actual","type":"uint256","internalType":"uint256"}]},{"type":"error","name":"WrongOutputOracle","inputs":[{"name":"addressThis","type":"bytes32","internalType":"bytes32"},{"name":"expected","type":"bytes32","internalType":"bytes32"}]},{"type":"error","name":"WrongOutputSettler","inputs":[{"name":"addressThis","type":"bytes32","internalType":"bytes32"},{"name":"expected","type":"bytes32","internalType":"bytes32"}]},{"type":"error","name":"ZeroValue","inputs":[]}],"bytecode":{"object":"0x608080604052346015576114ec908161001a8239f35b5f80fdfe60806040526004361015610011575f80fd5b5f3560e01c8062a2d1bd1461088c5780633ff04aff1461081c57806350b0e849146107805780637e7fc65314610601578063978fb89614610503578063a336970a146101ef578063ae0dd770146100c85763e3815b6414610070575f80fd5b346100c45760407ffffffffffffffffffffffffffffffffffffffffffffffffffffffffffffffffc3601126100c4576004355f52600160205260405f206024355f52602052602060405f2054604051908152f35b5f80fd5b346100c45760207ffffffffffffffffffffffffffffffffffffffffffffffffffffffffffffffffc3601126100c45760043567ffffffffffffffff81116100c457610117903690600401610a41565b807fffffffffffffffffffffffffffffffffffffffffffffffffffffffffffffff808116036101bf5781016001915b81811061017d57821561015557005b7fa506d334000000000000000000000000000000000000000000000000000000005f5260045ffd5b80355f90815260208181526040808320828501358452825280832081850135845282528083206060850135845290915290205490921660ff1691608001610146565b7fa3ecc749000000000000000000000000000000000000000000000000000000005f52600452608060245260445ffd5b346100c45760807ffffffffffffffffffffffffffffffffffffffffffffffffffffffffffffffffc3601126100c45760043560443560243563ffffffff821682036100c4576064359167ffffffffffffffff83116100c45782600401936101007ffffffffffffffffffffffffffffffffffffffffffffffffffffffffffffffffc85360301126100c45761028285610ac0565b815f52600160205260405f20905f5260205260405f20546102a38385611054565b908181036104d55750506102ba60c4850186610a6f565b916102c860e4870188610a6f565b61ffff859295116104ad5761ffff8111610485576103d794818360c6946002977fffffffff000000000000000000000000000000000000000000000000000000006040519b8c9960208b019e8f5260408b015260e01b16606089015260648d0135606489015260848d0135608489015260a48d013560a48901527fffff0000000000000000000000000000000000000000000000000000000000008260f01b1660c4890152868801378501917fffff0000000000000000000000000000000000000000000000000000000000008260f01b168584015260c883013701015f8382015203017fffffffffffffffffffffffffffffffffffffffffffffffffffffffffffffffe08101835282610bd5565b519020916024820135906103ea82611099565b35918230036104555760440135610400816110d2565b5f525f60205260405f20905f5260205260405f20905f5260205260405f20905f5260205260405f2060017fffffffffffffffffffffffffffffffffffffffffffffffffffffffffffffff008254161790555f80f35b827f0df384d6000000000000000000000000000000000000000000000000000000005f523060045260245260445ffd5b7fd94d6ce6000000000000000000000000000000000000000000000000000000005f5260045ffd5b7f4fe9ad23000000000000000000000000000000000000000000000000000000005f5260045ffd5b7f731801a9000000000000000000000000000000000000000000000000000000005f5260045260245260445ffd5b60807ffffffffffffffffffffffffffffffffffffffffffffffffffffffffffffffffc3601126100c45760243567ffffffffffffffff81116100c4576101007ffffffffffffffffffffffffffffffffffffffffffffffffffffffffffffffffc82360301126100c457610574610a2c565b9060643567ffffffffffffffff81116100c457610595903690600401610a41565b909265ffffffffffff429116106105d9576020926105b892600401600435610cd1565b5047806105c9575b50604051908152f35b6105d39033611385565b826105c0565b7f9f3ddb90000000000000000000000000000000000000000000000000000000005f5260045ffd5b60807ffffffffffffffffffffffffffffffffffffffffffffffffffffffffffffffffc3601126100c45760043560243567ffffffffffffffff81116100c45761064e9036906004016109fb565b90610657610a2c565b60643567ffffffffffffffff81116100c457610677903690600401610a41565b9165ffffffffffff429116106105d9578315610753578235947fffffffffffffffffffffffffffffffffffffffffffffffffffffffffffffff018436030195868112156100c4576106cf84846106df93880185610cd1565b63ffffffff929192421690611054565b0361072b5760015b85811015610717578060051b85013590878212156100c45761070f8585600194890186610cd1565b5050016106e7565b478061071f57005b6107299033611385565b005b7f41a26a63000000000000000000000000000000000000000000000000000000005f5260045ffd5b7f4e487b71000000000000000000000000000000000000000000000000000000005f52603260045260245ffd5b346100c45760407ffffffffffffffffffffffffffffffffffffffffffffffffffffffffffffffffc3601126100c45760243567ffffffffffffffff81116100c4576101007ffffffffffffffffffffffffffffffffffffffffffffffffffffffffffffffffc82360301126100c4576004355f52600160205261080860405f2091600401610ac0565b5f52602052602060405f2054604051908152f35b346100c45760807ffffffffffffffffffffffffffffffffffffffffffffffffffffffffffffffffc3601126100c4576004355f525f60205260405f206024355f5260205260405f206044355f5260205260405f206064355f52602052602060ff60405f2054166040519015158152f35b346100c45760207ffffffffffffffffffffffffffffffffffffffffffffffffffffffffffffffffc3601126100c45760043567ffffffffffffffff81116100c4576108db9036906004016109fb565b5f9160015b828410156109ee576108f78460051b830183610a6f565b919060a883106109c657826044116100c457600192604051610989603c8260208101943386523060408301524660608301527fffffffffffffffffffffffffffffffffffffffffffffffffffffffffffffffbc810160448801608084013781015f8382015203017fffffffffffffffffffffffffffffffffffffffffffffffffffffffffffffffe08101835282610bd5565b51902060208201355f528360205260405f20905f526020526109bc60405f20549163ffffffff6024820135169035611054565b14169301926108e0565b7fb6c9ce43000000000000000000000000000000000000000000000000000000005f5260045ffd5b6020906040519015158152f35b9181601f840112156100c45782359167ffffffffffffffff83116100c4576020808501948460051b0101116100c457565b6044359065ffffffffffff821682036100c457565b9181601f840112156100c45782359167ffffffffffffffff83116100c457602083818601950101116100c457565b9035907fffffffffffffffffffffffffffffffffffffffffffffffffffffffffffffffe1813603018212156100c4570180359067ffffffffffffffff82116100c4576020019181360383136100c457565b610acd60c0820182610a6f565b90610adb60e0840184610a6f565b909161ffff84116104ad5761ffff82116104855760e282610bcf946002948760405198899660a0602089019c8d81359052602081013560408b0152604081013560608b0152606081013560808b01526080810135828b0152013560c08901527fffff0000000000000000000000000000000000000000000000000000000000008260f01b1660e0890152868801378501917fffff0000000000000000000000000000000000000000000000000000000000008260f01b168584015260e483013701015f8382015203017fffffffffffffffffffffffffffffffffffffffffffffffffffffffffffffffe08101835282610bd5565b51902090565b90601f7fffffffffffffffffffffffffffffffffffffffffffffffffffffffffffffffe0910116810190811067ffffffffffffffff821117610c1657604052565b7f4e487b71000000000000000000000000000000000000000000000000000000005f52604160045260245ffd5b601f82602094937fffffffffffffffffffffffffffffffffffffffffffffffffffffffffffffffe093818652868601375f8582860101520116010190565b90357fffffffffffffffffffffffffffffffffffffffffffffffffffffffffffffffe1823603018112156100c457016020813591019167ffffffffffffffff82116100c45781360383136100c457565b9091939293604083013590610ce5826110d2565b610d05602085013596610cf788611099565b63ffffffff4216928661110b565b90948597610d1282610ac0565b96865f52600160205260405f20885f5260205260405f20548061104757505090889291610d3f8585611054565b97875f52600160205260405f20905f526020528760405f2055606082013560a08301359673ffffffffffffffffffffffffffffffffffffffff88169282155f14610f4a57610d8d8685611385565b60c0850193610d9c8587610a6f565b80929192610e79575b505050610e6c94937ffef24569acf839f2b5cb23fd59d8a9bcc21650ff711ac1961ca3c5d4681ffe1299610e3b94610e3094610e1c946040519c8d9c8d5260208d0152608060408d0152883560808d015260a08c015260c08b015260e08a015260808601356101008a015261012089015284610c81565b610100610140890152610180880191610c43565b9160e0810190610c81565b907fffffffffffffffffffffffffffffffffffffffffffffffffffffffffffffff8086840301610160870152610c43565b9060608301520390a29190565b908092949796939599503b156100c4575f9188838b610ed9604051988996879586947fc80b0e0f00000000000000000000000000000000000000000000000000000000865260048601526024850152606060448501526064840191610c43565b03925af1908115610f3f577ffef24569acf839f2b5cb23fd59d8a9bcc21650ff711ac1961ca3c5d4681ffe12998e98610e6c97610e3b96610e3096610e1c96610f2f575b509450945094819b5082969750610da5565b5f610f3991610bd5565b5f610f1d565b6040513d5f823e3d90fd5b909180939495965060a01c61101f5773ffffffffffffffffffffffffffffffffffffffff83166040517f23b872dd000000000000000000000000000000000000000000000000000000005f5233600452856024528760445260205f60648180865af19060015f5114821615610ffe575b6040525f60605215610fd35750908b9594939291610d8d565b7f5274afe7000000000000000000000000000000000000000000000000000000005f5260045260245ffd5b90600181151661101657823b15153d15161690610fba565b503d5f823e3d90fd5b7f5f3d6d4f000000000000000000000000000000000000000000000000000000005f5260045ffd5b9950979650505050505050565b907fffffffff00000000000000000000000000000000000000000000000000000000604051916020830193845260e01b16604082015260248152610bcf604482610bd5565b8030036110a35750565b7f0f5d06cd000000000000000000000000000000000000000000000000000000005f523060045260245260445ffd5b4681036110dc5750565b7f24497bc3000000000000000000000000000000000000000000000000000000005f526004524660245260445ffd5b60808101359391359250821561135d5761112c8160e061ffff930190610a6f565b9091168015611356577fff000000000000000000000000000000000000000000000000000000000000008235168015611345577f01000000000000000000000000000000000000000000000000000000000000008114611317577fe0000000000000000000000000000000000000000000000000000000000000008114611299577fe100000000000000000000000000000000000000000000000000000000000000146111fb577fd6234725000000000000000000000000000000000000000000000000000000005f5260045ffd5b60490361127157600181013593602182013560e01c9042821180611267575b61123b57611238939495506029602584013560e01c9301359061143d565b90565b857f8123a0d8000000000000000000000000000000000000000000000000000000005f5260045260245ffd5b508486141561121a565b7f3b9fb4f9000000000000000000000000000000000000000000000000000000005f5260045ffd5b509192917fffffffffffffffffffffffffffffffffffffffffffffffffffffffffffffffdb016112715760018101359060214291013560e01c118061130d575b6112e257509190565b7f8123a0d8000000000000000000000000000000000000000000000000000000005f5260045260245ffd5b50818114156112d9565b506029909491929394036112715781600561123893013560e01c916009600183013560e01c9201359061143d565b506001915092919203611271579190565b5050909190565b7f7c946ed7000000000000000000000000000000000000000000000000000000005f5260045ffd5b81471061140d57604051906020820182811067ffffffffffffffff821117610c16575f9373ffffffffffffffffffffffffffffffffffffffff859493858095819560405252165af1156113d457565b3d156113e5576040513d5f823e3d90fd5b7fd6bda275000000000000000000000000000000000000000000000000000000005f5260045ffd5b50477fcf479181000000000000000000000000000000000000000000000000000000005f5260045260245260445ffd5b92909163ffffffff8091168042118142180218168063ffffffff8316106114b05763ffffffff910316908181029181830414901517156114835781018091116114835790565b7f4e487b71000000000000000000000000000000000000000000000000000000005f52601160045260245ffd5b5050509056fea2646970667358221220b5e9aa71d76ecf86f2ea793f1d8f6297c3a70b7c8bc903c847d5525c545e513364736f6c634300081e0033","linkReferences":{}},"methodIdentifiers":{"efficientRequireProven(bytes)":"ae0dd770","fill(bytes32,(bytes32,bytes32,uint256,bytes32,uint256,bytes32,bytes,bytes),uint48,bytes)":"978fb896","fillOrderOutputs(bytes32,(bytes32,bytes32,uint256,bytes32,uint256,bytes32,bytes,bytes)[],uint48,bytes)":"7e7fc653","getFillRecord(bytes32,(bytes32,bytes32,uint256,bytes32,uint256,bytes32,bytes,bytes))":"50b0e849","getFillRecord(bytes32,bytes32)":"e3815b64","hasAttested(bytes[])":"00a2d1bd","isProven(uint256,bytes32,bytes32,bytes32)":"3ff04aff","setAttestation(bytes32,bytes32,uint32,(bytes32,bytes32,uint256,bytes32,uint256,bytes32,bytes,bytes))":"a336970a"},"id":189}