{"abi":[{"type":"function","name":"efficientRequireProven","inputs":[{"name":"","type":"bytes","internalType":"bytes"}],"outputs":[],"stateMutability":"pure"},{"type":"function","name":"isProven","inputs":[{"name":"","type":"uint256","internalType":"uint256"},{"name":"","type":"bytes32","internalType":"bytes32"},{"name":"","type":"bytes32","internalType":"bytes32"},{"name":"","type":"bytes32","internalType":"bytes32"}],"outputs":[{"name":"","type":"bool","internalType":"bool"}],"stateMutability":"pure"}],"bytecode":{"object":"0x60808060405234601557610106908161001a8239f35b5f80fdfe60808060405260043610156011575f80fd5b5f3560e01c9081633ff04aff14609a575063ae0dd77014602f575f80fd5b3460965760207ffffffffffffffffffffffffffffffffffffffffffffffffffffffffffffffffc36011260965760043567ffffffffffffffff811160965736602382011215609657806004013567ffffffffffffffff811160965736910160240111609657005b5f80fd5b3460965760807ffffffffffffffffffffffffffffffffffffffffffffffffffffffffffffffffc36011260965780600160209252f3fea2646970667358221220ac2c2733ddbbc03a0a1ad83f73057b39ddac0d49a340daff47bb9cea27432bc064736f6c634300081e0033","linkReferences":{}},"methodIdentifiers":{"efficientRequireProven(bytes)":"ae0dd770","isProven(uint256,bytes32,bytes32,bytes32)":"3ff04aff"},"id":190}