{"abi":[{"type":"constructor","inputs":[{"name":"clientType_","type":"string","internalType":"string"},{"name":"sequencer_","type":"address","internalType":"address"},{"name":"chainId_","type":"bytes32","internalType":"bytes32"}],"stateMutability":"nonpayable"},{"type":"function","name":"CHAIN_ID","inputs":[],"outputs":[{"name":"","type":"bytes32","internalType":"bytes32"}],"stateMutability":"view"},{"type":"function","name":"LIGHT_CLIENT_TYPE","inputs":[],"outputs":[{"name":"","type":"uint8","internalType":"enum LightClientType"}],"stateMutability":"view"},{"type":"function","name":"SEQUENCER","inputs":[],"outputs":[{"name":"","type":"address","internalType":"address"}],"stateMutability":"view"},{"type":"function","name":"clientType","inputs":[],"outputs":[{"name":"","type":"string","internalType":"string"}],"stateMutability":"view"},{"type":"function","name":"generateAndEmitProof","inputs":[{"name":"chainId_","type":"uint32","internalType":"uint32"},{"name":"emitter","type":"address","internalType":"address"},{"name":"topics","type":"bytes32[]","internalType":"bytes32[]"},{"name":"data","type":"bytes","internalType":"bytes"}],"outputs":[{"name":"","type":"bytes","internalType":"bytes"}],"stateMutability":"nonpayable"},{"type":"function","name":"generateAndSendProof","inputs":[{"name":"chainId_","type":"uint32","internalType":"uint32"},{"name":"emitter","type":"address","internalType":"address"},{"name":"topics","type":"bytes32[]","internalType":"bytes32[]"},{"name":"data","type":"bytes","internalType":"bytes"},{"name":"validatorContract","type":"address","internalType":"address"}],"outputs":[{"name":"","type":"bytes","internalType":"bytes"}],"stateMutability":"nonpayable"},{"type":"function","name":"generateMockProof","inputs":[{"name":"chainId_","type":"uint32","internalType":"uint32"},{"name":"numTopics","type":"uint8","internalType":"uint8"},{"name":"emitter","type":"address","internalType":"address"},{"name":"topics_","type":"bytes32[]","internalType":"bytes32[]"},{"name":"unindexedData_","type":"bytes","internalType":"bytes"}],"outputs":[{"name":"","type":"bytes","internalType":"bytes"}],"stateMutability":"pure"},{"type":"function","name":"inspectLogIdentifier","inputs":[{"name":"proof","type":"bytes","internalType":"bytes"}],"outputs":[{"name":"srcChain","type":"uint32","internalType":"uint32"},{"name":"blockNumber","type":"uint64","internalType":"uint64"},{"name":"receiptIndex","type":"uint32","internalType":"uint32"},{"name":"logIndex","type":"uint32","internalType":"uint32"}],"stateMutability":"pure"},{"type":"function","name":"inspectPolymerState","inputs":[{"name":"proof","type":"bytes","internalType":"bytes"}],"outputs":[{"name":"stateRoot","type":"bytes32","internalType":"bytes32"},{"name":"height","type":"uint64","internalType":"uint64"},{"name":"signature","type":"bytes","internalType":"bytes"}],"stateMutability":"pure"},{"type":"function","name":"parseEvent","inputs":[{"name":"rawEvent","type":"bytes","internalType":"bytes"},{"name":"numTopics","type":"uint8","internalType":"uint8"}],"outputs":[{"name":"emittingContract","type":"address","internalType":"address"},{"name":"topics","type":"bytes","internalType":"bytes"},{"name":"unindexedData","type":"bytes","internalType":"bytes"}],"stateMutability":"pure"},{"type":"function","name":"ping","inputs":[],"outputs":[],"stateMutability":"nonpayable"},{"type":"function","name":"validateEvent","inputs":[{"name":"proof","type":"bytes","internalType":"bytes"}],"outputs":[{"name":"chainId","type":"uint32","internalType":"uint32"},{"name":"emittingContract","type":"address","internalType":"address"},{"name":"topics","type":"bytes","internalType":"bytes"},{"name":"unindexedData","type":"bytes","internalType":"bytes"}],"stateMutability":"view"},{"type":"function","name":"validateSolLogs","inputs":[{"name":"proof","type":"bytes","internalType":"bytes"}],"outputs":[{"name":"chainId","type":"uint32","internalType":"uint32"},{"name":"programID","type":"bytes32","internalType":"bytes32"},{"name":"logMessages","type":"string[]","internalType":"string[]"}],"stateMutability":"view"},{"type":"function","name":"verifyMembership","inputs":[{"name":"root","type":"bytes32","internalType":"bytes32"},{"name":"key","type":"bytes","internalType":"bytes"},{"name":"value","type":"bytes32","internalType":"bytes32"},{"name":"proof","type":"bytes","internalType":"bytes"}],"outputs":[],"stateMutability":"pure"},{"type":"event","name":"Ping","inputs":[],"anonymous":false},{"type":"event","name":"ProofGenerated","inputs":[{"name":"proof","type":"bytes","indexed":false,"internalType":"bytes"}],"anonymous":false},{"type":"error","name":"ECDSAInvalidSignature","inputs":[]},{"type":"error","name":"ECDSAInvalidSignatureLength","inputs":[{"name":"length","type":"uint256","internalType":"uint256"}]},{"type":"error","name":"ECDSAInvalidSignatureS","inputs":[{"name":"s","type":"bytes32","internalType":"bytes32"}]},{"type":"error","name":"InvalidProofRoot","inputs":[]},{"type":"error","name":"InvalidSequencerSignature","inputs":[]}],"bytecode":{"object":"0x60c06040523461025b5761239c803803806100198161025f565b92833981019060608183031261025b5780516001600160401b03811161025b57810182601f8201121561025b578051906001600160401b0382116102475761006a601f8301601f191660200161025f565b938285526020838301011161025b57815f9260208093018387015e840101526020810151906001600160a01b038216820361025b576040015160809190915260a05280516001600160401b038111610247575f54600181811c9116801561023d575b602082101461022957601f81116101c7575b50602091601f8211600114610169579181925f9261015e575b50508160011b915f199060031b1c1916175f555b6040517fca6e822df923f741dfe968d15d80a18abd25bd1e748bcb9ad81fea5bbb7386af5f80a1612117908161028582396080518181816103140152611250015260a05181818161026901526111e30152f35b015190505f806100f7565b601f198216925f8052805f20915f5b8581106101af57508360019510610197575b505050811b015f5561010b565b01515f1960f88460031b161c191690555f808061018a565b91926020600181928685015181550194019201610178565b5f80527f290decd9548b62a8d60345a988386fc84ba6bc95484008f6362f93160ef3e563601f830160051c8101916020841061021f575b601f0160051c01905b81811061021457506100de565b5f8155600101610207565b90915081906101fe565b634e487b7160e01b5f52602260045260245ffd5b90607f16906100cc565b634e487b7160e01b5f52604160045260245ffd5b5f80fd5b6040519190601f01601f191682016001600160401b038111838210176102475760405256fe6080806040526004361015610012575f80fd5b5f905f3560e01c9081630b9ca54a146114bb575080630d15d928146113b05780634a0dad131461130157806357c1c5f4146112c85780635c36b1861461127457806375fd4ca91461120657806385e1f4d0146111ae578063861f284314610ef35780639e79c3f014610e34578063afc489ee14610d46578063b3768f0d14610cf9578063c4a0f96814610a8c578063d73a8ad61461016f5763d9615898146100b8575f80fd5b3461016c5760207ffffffffffffffffffffffffffffffffffffffffffffffffffffffffffffffffc36011261016c5760043567ffffffffffffffff811161016a5761010790369060040161173a565b90816020116101665780359180606d116101625760658201359060611161016257602060e0949267ffffffffffffffff60419360405196875260c01c16828601526060604086015282606086015201608084013760c1820152f35b8380fd5b8280fd5b505b80fd5b50346109935760207ffffffffffffffffffffffffffffffffffffffffffffffffffffffffffffffffc3601126109935760043567ffffffffffffffff8111610993576101bf90369060040161173a565b8060659392931161099357606183013560e01c91602082106109935783359382606d11610993577fffffffffffffffff0000000000000000000000000000000000000000000000006065820135168360601015610a2757836040116109935760208201359084606011610993576102fc916102f39160408501359060405160208101918b83526040820152602881526102596048826117f1565b51902060405160208101915f83527f000000000000000000000000000000000000000000000000000000000000000060408301526060820152606081526102a16080826117f1565b5190209060405192602084015260408301527fff000000000000000000000000000000000000000000000000000000000000006060860135166060830152604182526102ee6061836117f1565b611f51565b90929192611f8b565b73ffffffffffffffffffffffffffffffffffffffff807f000000000000000000000000000000000000000000000000000000000000000016911603610a64578260d6116109935760b68101359360d69260d69585607510159283610a2757607585989698013560f81c9261036f8461185f565b9961037d6040519b8c6117f1565b848b527fffffffffffffffffffffffffffffffffffffffffffffffffffffffffffffffe06103aa8661185f565b015f5b8c828210610a54575050505f975b8b518910156104ab575060028a01998a811161047e576104206103e38c610427938d8c611aaf565b90357fffff00000000000000000000000000000000000000000000000000000000000081169160028110610449575b505060f01c809c8c8b611aaf565b369161190e565b610431898d611b37565b5261043c888c611b37565b5060018a980197996103bb565b7fffff0000000000000000000000000000000000000000000000000000000000009250829060020360031b1b16165f80610412565b7f4e487b71000000000000000000000000000000000000000000000000000000005f52601160045260245ffd5b9089918c988897604051886020820152602081526104ca6040826117f1565b5f995b610a2757818a101561054a576020610541600192828f6104ee8f8392611b37565b516040519584879551918291018487015e8401908282015f8152815193849201905e01015f8152037fffffffffffffffffffffffffffffffffffffffffffffffffffffffffffffffe081018352826117f1565b9901988a6104cd565b90508a97985084607511610993577fffffffffffffffff000000000000000000000000000000000000000000000000606d830135169285609611610993576076830135918660b61161099357887fffffffffffffffffffffffffffffffffffffffffffffffffffffffffffffffe09560968601356105c6611999565b9583847a184f03e93ff9f4daa797ed6e38ed64bf6a1f0100000000000000005f9610156109ff575b806d04ee2d6d415b85acef8100000000600a9210156109e4575b662386f26fc100008110156109d0575b6305f5e1008110156109bf575b6127108110156109b0575b60648110156109a2575b1015610997575b600a7fffffffffffffffffffffffffffffffffffffffffffffffffffffffffffffffff6021600188019761068d6106778a6118d4565b996106856040519b8c6117f1565b808b526118d4565b60208a019e01368f378801015b01917f30313233343536373839616263646566000000000000000000000000000000008282061a835304908c82156106f75750600a907fffffffffffffffffffffffffffffffffffffffffffffffffffffffffffffffff9061069a565b98915050604051998a95602087017f636861696e2f00000000000000000000000000000000000000000000000000009052518091602688015e8501602681017f2f73746f7265644c6f67732f0000000000000000000000000000000000000000905281516020819301603283015e0160260192600c84017f2f000000000000000000000000000000000000000000000000000000000000009052600d840152601583017f2f00000000000000000000000000000000000000000000000000000000000000905260168301526036820152605681017f2f0000000000000000000000000000000000000000000000000000000000000090528c605782015203600c01604b81018652606b0161080b90866117f1565b805190602001209561081c93611aaf565b92303b1561099357610892947fffffffffffffffffffffffffffffffffffffffffffffffffffffffffffffffe0601f865f976020966040519a8b998a987f861f2843000000000000000000000000000000000000000000000000000000008a5260048a0152608060248a01526084890190611768565b9560448801527ffffffffffffffffffffffffffffffffffffffffffffffffffffffffffffffffc8787030160648801528186528786013787868286010152011601030181305afa801561098857610975575b506040939291935193849360608501918552602085015260606040850152825180915260808401602060808360051b870101940192905b82821061092a57505050500390f35b91936020610965827fffffffffffffffffffffffffffffffffffffffffffffffffffffffffffffff8060019597998495030186528851611768565b960192019201859493919261091b565b61098191505f906117f1565b5f846108e4565b6040513d5f823e3d90fd5b5f80fd5b600190940193610641565b60646002910496019561063a565b61271060049104960195610630565b6305f5e10060089104960195610625565b662386f26fc1000060109104960195610618565b6d04ee2d6d415b85acef810000000060209104960195610608565b50604094507a184f03e93ff9f4daa797ed6e38ed64bf6a1f0100000000000000008e046105ee565b7f4e487b71000000000000000000000000000000000000000000000000000000005f52603260045260245ffd5b60606020918301820152016103ad565b7fe789f214000000000000000000000000000000000000000000000000000000005f5260045ffd5b346109935760a07ffffffffffffffffffffffffffffffffffffffffffffffffffffffffffffffffc36011261099357610ac36117bb565b610acb6117ce565b60443567ffffffffffffffff811161099357610aeb903690600401611877565b9060643567ffffffffffffffff811161099357610b0c903690600401611944565b926084359373ffffffffffffffffffffffffffffffffffffffff851680860361099357610b3b85511515611ec6565b15610c7557835f9493610b549360ff8796511690611b4b565b926040518260208201917f0b9ca54a00000000000000000000000000000000000000000000000000000000835260206024820152610bc581610b99604482018a611768565b037fffffffffffffffffffffffffffffffffffffffffffffffffffffffffffffffe081018352826117f1565b51925af13d15610c70573d610bd9816118d4565b90610be760405192836117f1565b81525f60203d92013e5b15610c1257610c0e90604051918291602083526020830190611768565b0390f35b60646040517f08c379a000000000000000000000000000000000000000000000000000000000815260206004820152601660248201527f56616c69646174696f6e2063616c6c206661696c6564000000000000000000006044820152fd5b610bf1565b60846040517f08c379a000000000000000000000000000000000000000000000000000000000815260206004820152602260248201527f496e76616c69642076616c696461746f7220636f6e747261637420616464726560448201527f73730000000000000000000000000000000000000000000000000000000000006064820152fd5b34610993575f7ffffffffffffffffffffffffffffffffffffffffffffffffffffffffffffffffc36011261099357610c0e610d32611999565b604051918291602083526020830190611768565b346109935760807ffffffffffffffffffffffffffffffffffffffffffffffffffffffffffffffffc36011261099357610d7d6117bb565b610d856117ce565b9060443567ffffffffffffffff811161099357610da6903690600401611877565b906064359167ffffffffffffffff831161099357610c0e93610dcf610de7943690600401611944565b92610ddc83511515611ec6565b60ff83511690611b4b565b7f4844f9b37904a6125b8c8c6df00b455fb018fac712949a4144c2f9adddb498226040516020815280610e1d6020820185611768565b0390a1604051918291602083526020830190611768565b346109935760207ffffffffffffffffffffffffffffffffffffffffffffffffffffffffffffffffc3601126109935760043567ffffffffffffffff811161099357610e8390369060040161173a565b80606511610993576061820135908060751161099357606d8301358160791161099357607584013591607d116109935763ffffffff809267ffffffffffffffff6079608097013593836040519760e01c16875260c01c16602086015260e01c16604084015260e01c166060820152f35b346109935760807ffffffffffffffffffffffffffffffffffffffffffffffffffffffffffffffffc3601126109935760243567ffffffffffffffff811161099357610f42903690600401611944565b60643567ffffffffffffffff811161099357610f6290369060040161173a565b8060011015610a2757600182013560f81c9283600211610993578184116109935760205f604051828101906044358252838152610fa06040826117f1565b604051918291518091835e8101838152039060025afa15610988575f846020611048602182958551601e6040519586938c60027ffffffffffffffffffffffffffffffffffffffffffffffffffffffffffffffffe8488019b0191018a378d8501908382018b8152815193849201905e0101907f2000000000000000000000000000000000000000000000000000000000000000825260018201520360018101845201826117f1565b604051918291518091835e8101838152039060025afa15610988575f805182159391929190845b610a2757813560f81c84101561117c5761108a868484611ac7565b3560f81c906001870180881161047e576110a5908585611ac7565b3560f81c91600288019081891161047e57602092611149846110eb816110f98e6110f18b6110e28f8f909c5f9d6110dc8e88611b19565b92611aaf565b96909a84611b19565b92611b19565b908d8d611aaf565b909581604051978589968688019b8c378601928584015260408301370101868382015203017fffffffffffffffffffffffffffffffffffffffffffffffffffffffffffffffe081018352826117f1565b604051918291518091835e8101838152039060025afa15610988576111726001915f5197611b19565b930192948461106f565b6004350361118657005b7f81f234a4000000000000000000000000000000000000000000000000000000005f5260045ffd5b34610993575f7ffffffffffffffffffffffffffffffffffffffffffffffffffffffffffffffffc3601126109935760206040517f00000000000000000000000000000000000000000000000000000000000000008152f35b34610993575f7ffffffffffffffffffffffffffffffffffffffffffffffffffffffffffffffffc36011261099357602060405173ffffffffffffffffffffffffffffffffffffffff7f0000000000000000000000000000000000000000000000000000000000000000168152f35b34610993575f7ffffffffffffffffffffffffffffffffffffffffffffffffffffffffffffffffc360112610993577fca6e822df923f741dfe968d15d80a18abd25bd1e748bcb9ad81fea5bbb7386af5f80a1005b34610993575f7ffffffffffffffffffffffffffffffffffffffffffffffffffffffffffffffffc36011261099357602060405160028152f35b346109935760a07ffffffffffffffffffffffffffffffffffffffffffffffffffffffffffffffffc360112610993576113386117bb565b6113406117ab565b906044359073ffffffffffffffffffffffffffffffffffffffff821682036109935760643567ffffffffffffffff811161099357611382903690600401611877565b6084359267ffffffffffffffff841161099357610c0e946113aa610d32953690600401611944565b93611b4b565b346109935760407ffffffffffffffffffffffffffffffffffffffffffffffffffffffffffffffffc3601126109935760043567ffffffffffffffff8111610993576113ff90369060040161173a565b906114086117ab565b60051b611fe060e082169116810361047e5760140160ff811161047e5760ff16826014116109935780601411610993578281116109935761148d8161145585610c0e946114859787611aaf565b9590917fffffffffffffffffffffffffffffffffffffffffffffffffffffffffffffffec3691016014870161190e565b94369161190e565b6114ad6040519485943560601c8552606060208601526060850190611768565b908382036040850152611768565b346109935760207ffffffffffffffffffffffffffffffffffffffffffffffffffffffffffffffffc3601126109935760043567ffffffffffffffff81116109935761150a90369060040161173a565b806065939293116109935760618301359181607b1161099357607984013560f01c908282116116de575080607b116109935761156d907fffffffffffffffffffffffffffffffffffffffffffffffffffffffffffffff85369101607b860161190e565b9060781015610a27576115ba5f9160789460405195869384937f0d15d928000000000000000000000000000000000000000000000000000000008552604060048601526044850190611768565b91013560f81c60248301520381305afa918215610988575f5f915f94611630575b5092611622610c0e9273ffffffffffffffffffffffffffffffffffffffff63ffffffff9660405197889760e01c168752166020860152608060408601526080850190611768565b908382036060850152611768565b935050503d805f843e61164381846117f1565b8201916060818403126109935780519273ffffffffffffffffffffffffffffffffffffffff8416840361099357602082015167ffffffffffffffff81116109935781611690918401611ad3565b9060408301519467ffffffffffffffff86116109935773ffffffffffffffffffffffffffffffffffffffff6116d26116229363ffffffff98610c0e9701611ad3565b965092935091506115db565b807f08c379a0000000000000000000000000000000000000000000000000000000006064925260206004820152601e60248201527f4576656e7420656e6420657863656564732070726f6f66206c656e67746800006044820152fd5b9181601f840112156109935782359167ffffffffffffffff8311610993576020838186019501011161099357565b907fffffffffffffffffffffffffffffffffffffffffffffffffffffffffffffffe0601f602080948051918291828752018686015e5f8582860101520116010190565b6024359060ff8216820361099357565b6004359063ffffffff8216820361099357565b6024359073ffffffffffffffffffffffffffffffffffffffff8216820361099357565b90601f7fffffffffffffffffffffffffffffffffffffffffffffffffffffffffffffffe0910116810190811067ffffffffffffffff82111761183257604052565b7f4e487b71000000000000000000000000000000000000000000000000000000005f52604160045260245ffd5b67ffffffffffffffff81116118325760051b60200190565b9080601f8301121561099357813561188e8161185f565b9261189c60405194856117f1565b81845260208085019260051b82010192831161099357602001905b8282106118c45750505090565b81358152602091820191016118b7565b67ffffffffffffffff811161183257601f017fffffffffffffffffffffffffffffffffffffffffffffffffffffffffffffffe01660200190565b92919261191a826118d4565b9161192860405193846117f1565b829481845281830111610993578281602093845f960137010152565b9080601f830112156109935781602061195f9335910161190e565b90565b6004111561196c57565b7f4e487b71000000000000000000000000000000000000000000000000000000005f52602160045260245ffd5b604051905f5f548060011c9160018216918215611aa5575b602084108314611a78578386528592908115611a3b57506001146119de575b6119dc925003836117f1565b565b505f80805290917f290decd9548b62a8d60345a988386fc84ba6bc95484008f6362f93160ef3e5635b818310611a1f5750509060206119dc928201016119d0565b6020919350806001915483858901015201910190918492611a07565b602092506119dc9491507fffffffffffffffffffffffffffffffffffffffffffffffffffffffffffffff001682840152151560051b8201016119d0565b7f4e487b71000000000000000000000000000000000000000000000000000000005f52602260045260245ffd5b92607f16926119b1565b90939293848311610993578411610993578101920390565b90821015610a27570190565b81601f8201121561099357805190611aea826118d4565b92611af860405194856117f1565b8284526020838301011161099357815f9260208093018386015e8301015290565b9190820180921161047e57565b908151811015610a27570160200190565b8051821015610a275760209160051b010190565b92949193909480519060ff8716809203611e68578660051b95611fe060e088169716870361047e57866014018060141161047e578451611b8a91611b19565b9788607b019889607b1161047e57609b0196878a1161047e577fffffffff00000000000000000000000000000000000000000000000000000000907fffffffffffffffffffffffffffffffffffffffffffffffffffffffffffffffe0611c08611bf28b6118d4565b9a611c006040519c8d6117f1565b808c526118d4565b013660208b013760e01b165f5b60048110611e445750508651606c1015610a27576064608c880153865160741015610a275760c86094880153865160761015610a275760016096880153865160771015610a27575f6097880153865160781015610a275760f81b7fff00000000000000000000000000000000000000000000000000000000000000165f1a60988701537fffff0000000000000000000000000000000000000000000000000000000000008860f01b1690865160791015610a2757815f1a60998801538651607a1015610a27577fffffffffffffffffffffffffffffffffffffffff0000000000000000000000009160019998991a609a88015360601b165f5b60148110611e1a5750505f5b828110611db7575050505f94608f019182608f11955b8251811015611d8e57807fff00000000000000000000000000000000000000000000000000000000000000611d66899386611b26565b51169161047e57600191611d87611d7d8388611b19565b915f1a9188611b26565b5301611d30565b5094505050905b8151811015611db357805f611dac60019385611b26565b5301611d95565b5090565b611dc48183999899611b37565b515f5b60208110611ddc575050600101969596611d1a565b8260051b8381046020148415171561047e57608f019081608f1161047e57600191611e13611e0d8386811a93611b19565b8b611b26565b5301611dc7565b80607b999899019081607b1161047e57600191611e3a84831a918a611b26565b5301979697611d0e565b80606101908160611161047e57600191611e6184831a918c611b26565b5301611c15565b60646040517f08c379a000000000000000000000000000000000000000000000000000000000815260206004820152601660248201527f546f70696373206c656e677468206d69736d61746368000000000000000000006044820152fd5b15611ecd57565b60846040517f08c379a000000000000000000000000000000000000000000000000000000000815260206004820152602d60248201527f4174206c65617374206f6e6520746f70696320286576656e74207369676e617460448201527f75726529207265717569726564000000000000000000000000000000000000006064820152fd5b8151919060418303611f8157611f7a9250602082015190606060408401519301515f1a90612052565b9192909190565b50505f9160029190565b611f9481611962565b80611f9d575050565b611fa681611962565b60018103611fd6577ff645eedf000000000000000000000000000000000000000000000000000000005f5260045ffd5b611fdf81611962565b6002810361201357507ffce698f7000000000000000000000000000000000000000000000000000000005f5260045260245ffd5b60039061201f81611962565b146120275750565b7fd78bce0c000000000000000000000000000000000000000000000000000000005f5260045260245ffd5b91907f7fffffffffffffffffffffffffffffff5d576e7357a4501ddfe92f46681b20a084116120d6579160209360809260ff5f9560405194855216868401526040830152606082015282805260015afa15610988575f5173ffffffffffffffffffffffffffffffffffffffff8116156120cc57905f905f90565b505f906001905f90565b5050505f916003919056fea2646970667358221220acae66048a1b9f08ccabd317cfaf6c51fa30f0c876ff5e195b72ed0a9570e5da64736f6c634300081e0033","linkReferences":{}},"methodIdentifiers":{"CHAIN_ID()":"85e1f4d0","LIGHT_CLIENT_TYPE()":"57c1c5f4","SEQUENCER()":"75fd4ca9","clientType()":"b3768f0d","generateAndEmitProof(uint32,address,bytes32[],bytes)":"afc489ee","generateAndSendProof(uint32,address,bytes32[],bytes,address)":"c4a0f968","generateMockProof(uint32,uint8,address,bytes32[],bytes)":"4a0dad13","inspectLogIdentifier(bytes)":"9e79c3f0","inspectPolymerState(bytes)":"d9615898","parseEvent(bytes,uint8)":"0d15d928","ping()":"5c36b186","validateEvent(bytes)":"0b9ca54a","validateSolLogs(bytes)":"d73a8ad6","verifyMembership(bytes32,bytes,bytes32,bytes)":"861f2843"},"id":157}