{"abi":[{"type":"receive","stateMutability":"payable"},{"type":"function","name":"attemptCalls","inputs":[{"name":"calls","type":"tuple[]","internalType":"struct CatsMulticallHandler.Call[]","components":[{"name":"target","type":"address","internalType":"address"},{"name":"callData","type":"bytes","internalType":"bytes"},{"name":"value","type":"uint256","internalType":"uint256"}]}],"outputs":[],"stateMutability":"nonpayable"},{"type":"function","name":"drainLeftoverTokens","inputs":[{"name":"token","type":"address","internalType":"address"},{"name":"destination","type":"address","internalType":"address payable"}],"outputs":[],"stateMutability":"nonpayable"},{"type":"function","name":"handleV3AcrossMessage","inputs":[{"name":"token","type":"address","internalType":"address"},{"name":"amount","type":"uint256","internalType":"uint256"},{"name":"","type":"address","internalType":"address"},{"name":"message","type":"bytes","internalType":"bytes"}],"outputs":[],"stateMutability":"nonpayable"},{"type":"function","name":"orderFinalised","inputs":[{"name":"inputs","type":"uint256[2][]","internalType":"uint256[2][]"},{"name":"executionData","type":"bytes","internalType":"bytes"}],"outputs":[],"stateMutability":"nonpayable"},{"type":"function","name":"outputFilled","inputs":[{"name":"token","type":"bytes32","internalType":"bytes32"},{"name":"amount","type":"uint256","internalType":"uint256"},{"name":"executionData","type":"bytes","internalType":"bytes"}],"outputs":[],"stateMutability":"nonpayable"},{"type":"event","name":"CallsFailed","inputs":[{"name":"calls","type":"tuple[]","indexed":false,"internalType":"struct CatsMulticallHandler.Call[]","components":[{"name":"target","type":"address","internalType":"address"},{"name":"callData","type":"bytes","internalType":"bytes"},{"name":"value","type":"uint256","internalType":"uint256"}]},{"name":"fallbackRecipient","type":"address","indexed":true,"internalType":"address"}],"anonymous":false},{"type":"event","name":"DrainedTokens","inputs":[{"name":"recipient","type":"address","indexed":true,"internalType":"address"},{"name":"token","type":"address","indexed":true,"internalType":"address"},{"name":"amount","type":"uint256","indexed":true,"internalType":"uint256"}],"anonymous":false},{"type":"error","name":"CallReverted","inputs":[{"name":"index","type":"uint256","internalType":"uint256"},{"name":"calls","type":"tuple[]","internalType":"struct CatsMulticallHandler.Call[]","components":[{"name":"target","type":"address","internalType":"address"},{"name":"callData","type":"bytes","internalType":"bytes"},{"name":"value","type":"uint256","internalType":"uint256"}]}]},{"type":"error","name":"DrainNativeFailed","inputs":[]},{"type":"error","name":"HasDirtyBits","inputs":[]},{"type":"error","name":"InvalidCall","inputs":[{"name":"index","type":"uint256","internalType":"uint256"},{"name":"calls","type":"tuple[]","internalType":"struct CatsMulticallHandler.Call[]","components":[{"name":"target","type":"address","internalType":"address"},{"name":"callData","type":"bytes","internalType":"bytes"},{"name":"value","type":"uint256","internalType":"uint256"}]}]},{"type":"error","name":"NotSelf","inputs":[]},{"type":"error","name":"ReentrancyGuardReentrantCall","inputs":[]},{"type":"error","name":"SafeERC20FailedOperation","inputs":[{"name":"token","type":"address","internalType":"address"}]}],"bytecode":{"object":"0x6080806040523460395760017f9b779b17422d0df92223018b32b4d1fa46e071723d6817e2486d003becc55f0055611227908161003e8239f35b5f80fdfe6080604052600436101561001a575b3615610018575f80fd5b005b5f3560e01c80633a5be8cb1461038057806373e57c27146102d8578063a58d50d31461014d578063c80b0e0f146100c15763ef8738d30361000e57346100bd5760407ffffffffffffffffffffffffffffffffffffffffffffffffffffffffffffffffc3601126100bd5761008c6103f6565b60243573ffffffffffffffffffffffffffffffffffffffff811681036100bd57610018916100b8610ff3565b610de8565b5f80fd5b346100bd5760607ffffffffffffffffffffffffffffffffffffffffffffffffffffffffffffffffc3601126100bd5760443567ffffffffffffffff81116100bd57610113610127913690600401610567565b9061011c610bf0565b602435600435610b3d565b60017f9b779b17422d0df92223018b32b4d1fa46e071723d6817e2486d003becc55f0055005b346100bd5760207ffffffffffffffffffffffffffffffffffffffffffffffffffffffffffffffffc3601126100bd5760043567ffffffffffffffff81116100bd5761019c9036906004016105ad565b6101a4610ff3565b80515f5b8181106101b157005b82518110156102ab5760208160051b84010151602081019081515115158061028b575b610256575f9181604073ffffffffffffffffffffffffffffffffffffffff85945116910151915191602083519301915af161020d610b0e565b501561021b576001016101a8565b90506102526040519283927fe462c44000000000000000000000000000000000000000000000000000000000845260048401610af4565b0390fd5b6040517fe237730c00000000000000000000000000000000000000000000000000000000815280610252878660048401610af4565b5073ffffffffffffffffffffffffffffffffffffffff8151163b156101d4565b7f4e487b71000000000000000000000000000000000000000000000000000000005f52603260045260245ffd5b346100bd5760407ffffffffffffffffffffffffffffffffffffffffffffffffffffffffffffffffc3601126100bd5760043567ffffffffffffffff81116100bd57366023820112156100bd5780600401359067ffffffffffffffff82116100bd573660248360061b830101116100bd576024359067ffffffffffffffff82116100bd576101279261036f6024933690600401610567565b93909261037a610bf0565b0161091c565b346100bd5760807ffffffffffffffffffffffffffffffffffffffffffffffffffffffffffffffffc3601126100bd576103b76103f6565b6103bf610419565b506064359067ffffffffffffffff82116100bd576103e4610127923690600401610521565b906103ed610bf0565b602435906106b8565b6004359073ffffffffffffffffffffffffffffffffffffffff821682036100bd57565b6044359073ffffffffffffffffffffffffffffffffffffffff821682036100bd57565b359073ffffffffffffffffffffffffffffffffffffffff821682036100bd57565b6060810190811067ffffffffffffffff82111761047957604052565b7f4e487b71000000000000000000000000000000000000000000000000000000005f52604160045260245ffd5b90601f7fffffffffffffffffffffffffffffffffffffffffffffffffffffffffffffffe0910116810190811067ffffffffffffffff82111761047957604052565b67ffffffffffffffff811161047957601f017fffffffffffffffffffffffffffffffffffffffffffffffffffffffffffffffe01660200190565b81601f820112156100bd57803590610538826104e7565b9261054660405194856104a6565b828452602083830101116100bd57815f926020809301838601378301015290565b9181601f840112156100bd5782359167ffffffffffffffff83116100bd57602083818601950101116100bd57565b67ffffffffffffffff81116104795760051b60200190565b81601f820112156100bd578035906105c482610595565b926105d260405194856104a6565b82845260208085019360051b830101918183116100bd5760208101935b8385106105fe57505050505090565b843567ffffffffffffffff81116100bd57820160607fffffffffffffffffffffffffffffffffffffffffffffffffffffffffffffffe082860301126100bd576040519161064a8361045d565b6106566020830161043c565b835260408201359267ffffffffffffffff84116100bd57606083610681886020809881980101610521565b85840152013560408201528152019401936105ef565b519073ffffffffffffffffffffffffffffffffffffffff821682036100bd57565b918051810160208101916020818303126100bd5760208101519067ffffffffffffffff82116100bd5701906060828203126100bd57604051926106fa8461045d565b61070660208401610697565b8452604083015167ffffffffffffffff81116100bd5760209084010181601f820112156100bd5780519261073984610595565b9361074760405195866104a6565b80855260208086019160051b840101928484116100bd5760208101915b8483106107e1575050505050509161079d60606107b79373ffffffffffffffffffffffffffffffffffffffff9695602085015201610697565b92604082019384528482511690816107ce575b5050610c67565b511680156107ca576107c891610de8565b565b5050565b6107da91868816611024565b5f806107b0565b825167ffffffffffffffff81116100bd578201906060828603126100bd576040519061080c8261045d565b61081860208401610697565b8252604083015167ffffffffffffffff81116100bd576020908401019188601f840112156100bd5782519261084c846104e7565b9461085a60405196876104a6565b8486528a602086840101116100bd576020955f8787819882606097018386015e830101528584015201516040820152815201920191610764565b6020818303126100bd5780359067ffffffffffffffff82116100bd57016060818303126100bd57604051916108c88361045d565b6108d18261043c565b835260208201359167ffffffffffffffff83116100bd576108f96040926109049483016105ad565b60208501520161043c565b604082015290565b91908110156102ab5760061b0190565b929161092b9192810190610894565b73ffffffffffffffffffffffffffffffffffffffff815116806109c7575b5080610956604092610c67565b019073ffffffffffffffffffffffffffffffffffffffff825116156109c2575f5b8181106109845750505050565b806109bc61099e610998600194868961090c565b35610fc0565b73ffffffffffffffffffffffffffffffffffffffff86511690610de8565b01610977565b505050565b5f5b8381106109d65750610949565b80610a126109e7600193878961090c565b8473ffffffffffffffffffffffffffffffffffffffff610a0c60208401359335610fc0565b16611024565b016109c9565b9080602083519182815201916020808360051b8301019401925f915b838310610a4357505050505090565b90919293946020806080837fffffffffffffffffffffffffffffffffffffffffffffffffffffffffffffffe086600196030187527fffffffffffffffffffffffffffffffffffffffffffffffffffffffffffffffe0601f8460408d5173ffffffffffffffffffffffffffffffffffffffff81511686528281015160608488015280519384918260608a0152018888015e5f878488010152015160408501520116010197019301930191939290610a34565b604090610b0b939281528160208201520190610a18565b90565b3d15610b38573d90610b1f826104e7565b91610b2d60405193846104a6565b82523d5f602084013e565b606090565b92604092610b4d91810190610894565b9073ffffffffffffffffffffffffffffffffffffffff825116610bbd575b50610b7581610c67565b0173ffffffffffffffffffffffffffffffffffffffff815116156107ca5773ffffffffffffffffffffffffffffffffffffffff610bb46107c893610fc0565b91511690610de8565b610bea90610bca85610fc0565b73ffffffffffffffffffffffffffffffffffffffff808551169116611024565b5f610b6b565b60027f9b779b17422d0df92223018b32b4d1fa46e071723d6817e2486d003becc55f005414610c3f5760027f9b779b17422d0df92223018b32b4d1fa46e071723d6817e2486d003becc55f0055565b7f3ee5aeb5000000000000000000000000000000000000000000000000000000005f5260045ffd5b604081019081519073ffffffffffffffffffffffffffffffffffffffff5f921615610d725760200190808251604051610d0281610cd660208201947fa58d50d3000000000000000000000000000000000000000000000000000000008652602060248401526044830190610a18565b037fffffffffffffffffffffffffffffffffffffffffffffffffffffffffffffffe081018352826104a6565b519082305af1610d10610b0e565b5015610d1a575050565b610d6d73ffffffffffffffffffffffffffffffffffffffff7f5296f22c5d0413b66d0bf45c479c4e2ca5b278634bdbd028b48e49502105f966925193511692604051918291602083526020830190610a18565b0390a2565b60200151915050303b156100bd575f610dc091604051809381927fa58d50d3000000000000000000000000000000000000000000000000000000008352602060048401526024830190610a18565b038183305af18015610ddd57610dd35750565b5f6107c8916104a6565b6040513d5f823e3d90fd5b73ffffffffffffffffffffffffffffffffffffffff168015610f5e57604051917f70a08231000000000000000000000000000000000000000000000000000000008352306004840152602083602481855afa928315610ddd575f93610f2a575b5082610e5357505050565b73ffffffffffffffffffffffffffffffffffffffff166040517fa9059cbb000000000000000000000000000000000000000000000000000000005f52816004528360245260205f60448180875af19060015f5114821615610f09575b60405215610edd577f74d3741ef03417659087d2ec6af11dade8713f9b7f592569d60cf1ea0c9a44555f80a4565b507f5274afe7000000000000000000000000000000000000000000000000000000005f5260045260245ffd5b906001811516610f2157833b15153d15161690610eaf565b503d5f823e3d90fd5b9092506020813d602011610f56575b81610f46602093836104a6565b810103126100bd5751915f610e48565b3d9150610f39565b50479081610f6a575050565b5f80809373ffffffffffffffffffffffffffffffffffffffff8294165af1610f90610b0e565b5015610f9857565b7fdeb57c5a000000000000000000000000000000000000000000000000000000005f5260045ffd5b8060a01c610fcb5790565b7f5f3d6d4f000000000000000000000000000000000000000000000000000000005f5260045ffd5b303303610ffc57565b7f29c3b7ee000000000000000000000000000000000000000000000000000000005f5260045ffd5b9173ffffffffffffffffffffffffffffffffffffffff604051927f095ea7b3000000000000000000000000000000000000000000000000000000005f521691826004528160245260205f60448180885af19060015f51148216156111e2575b6040521561109057505050565b6040517f095ea7b3000000000000000000000000000000000000000000000000000000005f52826004525f60245260205f60448180885af19060015f51148216156111ca575b6040521561118857604051917f095ea7b3000000000000000000000000000000000000000000000000000000005f5260045260245260205f60448180865af19060015f5114821615611170575b6040521561112e5750565b73ffffffffffffffffffffffffffffffffffffffff907f5274afe7000000000000000000000000000000000000000000000000000000005f521660045260245ffd5b906001811516610f2157823b15153d15161690611123565b73ffffffffffffffffffffffffffffffffffffffff837f5274afe7000000000000000000000000000000000000000000000000000000005f521660045260245ffd5b906001811516610f2157843b15153d151616906110d6565b90843b15153d1516169061108356fea26469706673582212204f33c000a1381396a68752f7f22a0932e927d900c489bedeff1207efba696a3e64736f6c634300081e0033","linkReferences":{}},"methodIdentifiers":{"attemptCalls((address,bytes,uint256)[])":"a58d50d3","drainLeftoverTokens(address,address)":"ef8738d3","handleV3AcrossMessage(address,uint256,address,bytes)":"3a5be8cb","orderFinalised(uint256[2][],bytes)":"73e57c27","outputFilled(bytes32,uint256,bytes)":"c80b0e0f"},"id":121}