{"abi":[{"type":"constructor","inputs":[{"name":"_citrea","type":"address","internalType":"address"},{"name":"autoDisputedCollateralTo","type":"address","internalType":"address"},{"name":"collateralToken","type":"address","internalType":"address"},{"name":"_collateralMultiplier","type":"uint64","internalType":"uint64"}],"stateMutability":"payable"},{"type":"function","name":"CHALLENGER_COLLATERAL_FACTOR","inputs":[],"outputs":[{"name":"","type":"uint256","internalType":"uint256"}],"stateMutability":"view"},{"type":"function","name":"COLLATERAL_TOKEN","inputs":[],"outputs":[{"name":"","type":"address","internalType":"contract IERC20"}],"stateMutability":"view"},{"type":"function","name":"DEFAULT_COLLATERAL_MULTIPLIER","inputs":[],"outputs":[{"name":"","type":"uint64","internalType":"uint64"}],"stateMutability":"view"},{"type":"function","name":"DISPUTED_ORDER_FEE_DESTINATION","inputs":[],"outputs":[{"name":"","type":"address","internalType":"address"}],"stateMutability":"view"},{"type":"function","name":"DISPUTED_ORDER_FEE_FRACTION","inputs":[],"outputs":[{"name":"","type":"uint256","internalType":"uint256"}],"stateMutability":"view"},{"type":"function","name":"LIGHT_CLIENT","inputs":[],"outputs":[{"name":"","type":"address","internalType":"address"}],"stateMutability":"view"},{"type":"function","name":"_claimedOrder","inputs":[{"name":"orderId","type":"bytes32","internalType":"bytes32"},{"name":"outputId","type":"bytes32","internalType":"bytes32"}],"outputs":[{"name":"solver","type":"bytes32","internalType":"bytes32"},{"name":"claimTimestamp","type":"uint32","internalType":"uint32"},{"name":"multiplier","type":"uint64","internalType":"uint64"},{"name":"claimant","type":"address","internalType":"address"},{"name":"disputer","type":"address","internalType":"address"},{"name":"disputeTimestamp","type":"uint32","internalType":"uint32"}],"stateMutability":"view"},{"type":"function","name":"claim","inputs":[{"name":"solver","type":"bytes32","internalType":"bytes32"},{"name":"orderId","type":"bytes32","internalType":"bytes32"},{"name":"output","type":"tuple","internalType":"struct MandateOutput","components":[{"name":"oracle","type":"bytes32","internalType":"bytes32"},{"name":"settler","type":"bytes32","internalType":"bytes32"},{"name":"chainId","type":"uint256","internalType":"uint256"},{"name":"token","type":"bytes32","internalType":"bytes32"},{"name":"amount","type":"uint256","internalType":"uint256"},{"name":"recipient","type":"bytes32","internalType":"bytes32"},{"name":"callbackData","type":"bytes","internalType":"bytes"},{"name":"context","type":"bytes","internalType":"bytes"}]}],"outputs":[],"stateMutability":"nonpayable"},{"type":"function","name":"dispute","inputs":[{"name":"orderId","type":"bytes32","internalType":"bytes32"},{"name":"output","type":"tuple","internalType":"struct MandateOutput","components":[{"name":"oracle","type":"bytes32","internalType":"bytes32"},{"name":"settler","type":"bytes32","internalType":"bytes32"},{"name":"chainId","type":"uint256","internalType":"uint256"},{"name":"token","type":"bytes32","internalType":"bytes32"},{"name":"amount","type":"uint256","internalType":"uint256"},{"name":"recipient","type":"bytes32","internalType":"bytes32"},{"name":"callbackData","type":"bytes","internalType":"bytes"},{"name":"context","type":"bytes","internalType":"bytes"}]}],"outputs":[],"stateMutability":"nonpayable"},{"type":"function","name":"efficientRequireProven","inputs":[{"name":"proofSeries","type":"bytes","internalType":"bytes"}],"outputs":[],"stateMutability":"view"},{"type":"function","name":"finaliseDispute","inputs":[{"name":"orderId","type":"bytes32","internalType":"bytes32"},{"name":"output","type":"tuple","internalType":"struct MandateOutput","components":[{"name":"oracle","type":"bytes32","internalType":"bytes32"},{"name":"settler","type":"bytes32","internalType":"bytes32"},{"name":"chainId","type":"uint256","internalType":"uint256"},{"name":"token","type":"bytes32","internalType":"bytes32"},{"name":"amount","type":"uint256","internalType":"uint256"},{"name":"recipient","type":"bytes32","internalType":"bytes32"},{"name":"callbackData","type":"bytes","internalType":"bytes"},{"name":"context","type":"bytes","internalType":"bytes"}]}],"outputs":[],"stateMutability":"nonpayable"},{"type":"function","name":"hasAttested","inputs":[{"name":"payloads","type":"bytes[]","internalType":"bytes[]"}],"outputs":[{"name":"accumulator","type":"bool","internalType":"bool"}],"stateMutability":"view"},{"type":"function","name":"isProven","inputs":[{"name":"remoteChainId","type":"uint256","internalType":"uint256"},{"name":"remoteOracle","type":"bytes32","internalType":"bytes32"},{"name":"application","type":"bytes32","internalType":"bytes32"},{"name":"dataHash","type":"bytes32","internalType":"bytes32"}],"outputs":[{"name":"","type":"bool","internalType":"bool"}],"stateMutability":"view"},{"type":"function","name":"optimisticallyVerify","inputs":[{"name":"orderId","type":"bytes32","internalType":"bytes32"},{"name":"output","type":"tuple","internalType":"struct MandateOutput","components":[{"name":"oracle","type":"bytes32","internalType":"bytes32"},{"name":"settler","type":"bytes32","internalType":"bytes32"},{"name":"chainId","type":"uint256","internalType":"uint256"},{"name":"token","type":"bytes32","internalType":"bytes32"},{"name":"amount","type":"uint256","internalType":"uint256"},{"name":"recipient","type":"bytes32","internalType":"bytes32"},{"name":"callbackData","type":"bytes","internalType":"bytes"},{"name":"context","type":"bytes","internalType":"bytes"}]}],"outputs":[],"stateMutability":"nonpayable"},{"type":"function","name":"outputIdentifier","inputs":[{"name":"output","type":"tuple","internalType":"struct MandateOutput","components":[{"name":"oracle","type":"bytes32","internalType":"bytes32"},{"name":"settler","type":"bytes32","internalType":"bytes32"},{"name":"chainId","type":"uint256","internalType":"uint256"},{"name":"token","type":"bytes32","internalType":"bytes32"},{"name":"amount","type":"uint256","internalType":"uint256"},{"name":"recipient","type":"bytes32","internalType":"bytes32"},{"name":"callbackData","type":"bytes","internalType":"bytes"},{"name":"context","type":"bytes","internalType":"bytes"}]}],"outputs":[{"name":"","type":"bytes32","internalType":"bytes32"}],"stateMutability":"pure"},{"type":"function","name":"verify","inputs":[{"name":"orderId","type":"bytes32","internalType":"bytes32"},{"name":"output","type":"tuple","internalType":"struct MandateOutput","components":[{"name":"oracle","type":"bytes32","internalType":"bytes32"},{"name":"settler","type":"bytes32","internalType":"bytes32"},{"name":"chainId","type":"uint256","internalType":"uint256"},{"name":"token","type":"bytes32","internalType":"bytes32"},{"name":"amount","type":"uint256","internalType":"uint256"},{"name":"recipient","type":"bytes32","internalType":"bytes32"},{"name":"callbackData","type":"bytes","internalType":"bytes"},{"name":"context","type":"bytes","internalType":"bytes"}]},{"name":"blockNum","type":"uint256","internalType":"uint256"},{"name":"inclusionProof","type":"tuple","internalType":"struct BtcTxProof","components":[{"name":"blockHeader","type":"bytes","internalType":"bytes"},{"name":"txId","type":"bytes32","internalType":"bytes32"},{"name":"txIndex","type":"uint256","internalType":"uint256"},{"name":"txMerkleProof","type":"bytes","internalType":"bytes"},{"name":"rawTx","type":"bytes","internalType":"bytes"}]},{"name":"txOutIndex","type":"uint256","internalType":"uint256"}],"outputs":[],"stateMutability":"nonpayable"},{"type":"function","name":"verify","inputs":[{"name":"orderId","type":"bytes32","internalType":"bytes32"},{"name":"output","type":"tuple","internalType":"struct MandateOutput","components":[{"name":"oracle","type":"bytes32","internalType":"bytes32"},{"name":"settler","type":"bytes32","internalType":"bytes32"},{"name":"chainId","type":"uint256","internalType":"uint256"},{"name":"token","type":"bytes32","internalType":"bytes32"},{"name":"amount","type":"uint256","internalType":"uint256"},{"name":"recipient","type":"bytes32","internalType":"bytes32"},{"name":"callbackData","type":"bytes","internalType":"bytes"},{"name":"context","type":"bytes","internalType":"bytes"}]},{"name":"blockNum","type":"uint256","internalType":"uint256"},{"name":"inclusionProof","type":"tuple","internalType":"struct BtcTxProof","components":[{"name":"blockHeader","type":"bytes","internalType":"bytes"},{"name":"txId","type":"bytes32","internalType":"bytes32"},{"name":"txIndex","type":"uint256","internalType":"uint256"},{"name":"txMerkleProof","type":"bytes","internalType":"bytes"},{"name":"rawTx","type":"bytes","internalType":"bytes"}]},{"name":"txOutIndex","type":"uint256","internalType":"uint256"},{"name":"previousBlockHeader","type":"bytes","internalType":"bytes"}],"outputs":[],"stateMutability":"nonpayable"},{"type":"event","name":"OutputClaimed","inputs":[{"name":"orderId","type":"bytes32","indexed":true,"internalType":"bytes32"},{"name":"outputId","type":"bytes32","indexed":false,"internalType":"bytes32"}],"anonymous":false},{"type":"event","name":"OutputDisputeFinalised","inputs":[{"name":"orderId","type":"bytes32","indexed":true,"internalType":"bytes32"},{"name":"outputId","type":"bytes32","indexed":false,"internalType":"bytes32"}],"anonymous":false},{"type":"event","name":"OutputDisputed","inputs":[{"name":"orderId","type":"bytes32","indexed":true,"internalType":"bytes32"},{"name":"outputId","type":"bytes32","indexed":false,"internalType":"bytes32"}],"anonymous":false},{"type":"event","name":"OutputFilled","inputs":[{"name":"orderId","type":"bytes32","indexed":true,"internalType":"bytes32"},{"name":"solver","type":"bytes32","indexed":false,"internalType":"bytes32"},{"name":"timestamp","type":"uint32","indexed":false,"internalType":"uint32"},{"name":"output","type":"tuple","indexed":false,"internalType":"struct MandateOutput","components":[{"name":"oracle","type":"bytes32","internalType":"bytes32"},{"name":"settler","type":"bytes32","internalType":"bytes32"},{"name":"chainId","type":"uint256","internalType":"uint256"},{"name":"token","type":"bytes32","internalType":"bytes32"},{"name":"amount","type":"uint256","internalType":"uint256"},{"name":"recipient","type":"bytes32","internalType":"bytes32"},{"name":"callbackData","type":"bytes","internalType":"bytes"},{"name":"context","type":"bytes","internalType":"bytes"}]},{"name":"finalAmount","type":"uint256","indexed":false,"internalType":"uint256"}],"anonymous":false},{"type":"event","name":"OutputOptimisticallyVerified","inputs":[{"name":"orderId","type":"bytes32","indexed":true,"internalType":"bytes32"},{"name":"outputId","type":"bytes32","indexed":false,"internalType":"bytes32"}],"anonymous":false},{"type":"event","name":"OutputProven","inputs":[{"name":"chainid","type":"uint256","indexed":false,"internalType":"uint256"},{"name":"remoteIdentifier","type":"bytes32","indexed":false,"internalType":"bytes32"},{"name":"application","type":"bytes32","indexed":false,"internalType":"bytes32"},{"name":"payloadHash","type":"bytes32","indexed":false,"internalType":"bytes32"}],"anonymous":false},{"type":"event","name":"OutputVerified","inputs":[{"name":"verificationContext","type":"bytes32","indexed":false,"internalType":"bytes32"}],"anonymous":false},{"type":"error","name":"AlreadyClaimed","inputs":[{"name":"claimer","type":"bytes32","internalType":"bytes32"}]},{"type":"error","name":"AlreadyDisputed","inputs":[{"name":"disputer","type":"address","internalType":"address"}]},{"type":"error","name":"BadAmount","inputs":[]},{"type":"error","name":"BadTokenFormat","inputs":[]},{"type":"error","name":"BlockHashMismatch","inputs":[{"name":"blockHeader","type":"bytes32","internalType":"bytes32"},{"name":"givenBlockHash","type":"bytes32","internalType":"bytes32"}]},{"type":"error","name":"BlockhashMismatch","inputs":[{"name":"actual","type":"bytes32","internalType":"bytes32"},{"name":"proposed","type":"bytes32","internalType":"bytes32"}]},{"type":"error","name":"CallOutOfRange","inputs":[]},{"type":"error","name":"ContextOutOfRange","inputs":[]},{"type":"error","name":"Disputed","inputs":[]},{"type":"error","name":"InvalidFormat","inputs":[]},{"type":"error","name":"InvalidMerkleNodePair","inputs":[{"name":"","type":"uint256","internalType":"uint256"},{"name":"","type":"bytes32","internalType":"bytes32"},{"name":"","type":"bytes32","internalType":"bytes32"}]},{"type":"error","name":"NoBlock","inputs":[{"name":"currentHeight","type":"uint256","internalType":"uint256"},{"name":"proposedHeight","type":"uint256","internalType":"uint256"}]},{"type":"error","name":"NotClaimed","inputs":[]},{"type":"error","name":"NotDisputed","inputs":[]},{"type":"error","name":"NotDivisible","inputs":[{"name":"value","type":"uint256","internalType":"uint256"},{"name":"divisor","type":"uint256","internalType":"uint256"}]},{"type":"error","name":"NotImplemented","inputs":[]},{"type":"error","name":"NotProven","inputs":[]},{"type":"error","name":"SafeERC20FailedOperation","inputs":[{"name":"token","type":"address","internalType":"address"}]},{"type":"error","name":"ScriptMismatch","inputs":[{"name":"expected","type":"bytes","internalType":"bytes"},{"name":"actual","type":"bytes","internalType":"bytes"}]},{"type":"error","name":"ScriptTooLong","inputs":[{"name":"length","type":"uint256","internalType":"uint256"}]},{"type":"error","name":"TooEarly","inputs":[]},{"type":"error","name":"TooFewConfirmations","inputs":[{"name":"current","type":"uint256","internalType":"uint256"},{"name":"wanted","type":"uint256","internalType":"uint256"}]},{"type":"error","name":"TooLate","inputs":[]},{"type":"error","name":"TxIDMismatch","inputs":[{"name":"rawTxId","type":"bytes32","internalType":"bytes32"},{"name":"txProofId","type":"bytes32","internalType":"bytes32"}]},{"type":"error","name":"TxIndexNot0","inputs":[{"name":"index","type":"uint256","internalType":"uint256"}]},{"type":"error","name":"TxMerkleRootMismatch","inputs":[{"name":"blockTxRoot","type":"bytes32","internalType":"bytes32"},{"name":"txRoot","type":"bytes32","internalType":"bytes32"}]},{"type":"error","name":"WrongChain","inputs":[{"name":"expected","type":"uint256","internalType":"uint256"},{"name":"actual","type":"uint256","internalType":"uint256"}]},{"type":"error","name":"WrongOutputSettler","inputs":[{"name":"addressThis","type":"bytes32","internalType":"bytes32"},{"name":"expected","type":"bytes32","internalType":"bytes32"}]},{"type":"error","name":"ZeroValue","inputs":[]}],"bytecode":{"object":"0x610100601f613d5738819003918201601f19168301916001600160401b03831184841017610104578084926080946040528339810103126101005761004381610118565b9061005060208201610118565b606061005e60408401610118565b920151926001600160401b03841684036101005760805260a0526001600160a01b031660c05260e052604051613c2a908161012d823960805181818161018f0152612021015260a0518181816106cf015281816109ca0152611ebc015260c05181818161011d0152818161098701528181610c7a01528181610f34015281816111980152611e7c015260e051818181610473015281816119cd0152611a290152f35b5f80fd5b634e487b7160e01b5f52604160045260245ffd5b51906001600160a01b03821682036101005756fe60806040526004361015610011575f80fd5b5f3560e01c8062a2d1bd1461121d57806312c84421146111e4578063240a5cd11461100757806329abeecc14610dc85780633ff04aff14610d5857806341d91e3b14610b19578063550a528e1461085e57806358c9d70b1461082557806359c165e8146107a1578063694bf826146106f35780638155481b1461068557806399297602146105be578063ae0dd77014610497578063d67a307614610435578063e23f28e6146101b3578063e613ae00146101455763f5f1f1a7146100d3575f80fd5b34610141575f7ffffffffffffffffffffffffffffffffffffffffffffffffffffffffffffffffc36011261014157602060405173ffffffffffffffffffffffffffffffffffffffff7f0000000000000000000000000000000000000000000000000000000000000000168152f35b5f80fd5b34610141575f7ffffffffffffffffffffffffffffffffffffffffffffffffffffffffffffffffc36011261014157602060405173ffffffffffffffffffffffffffffffffffffffff7f0000000000000000000000000000000000000000000000000000000000000000168152f35b346101415760c07ffffffffffffffffffffffffffffffffffffffffffffffffffffffffffffffffc3601126101415760243567ffffffffffffffff8111610141576101007ffffffffffffffffffffffffffffffffffffffffffffffffffffffffffffffffc82360301126101415760643567ffffffffffffffff81116101415760a07ffffffffffffffffffffffffffffffffffffffffffffffffffffffffffffffffc8260040192360301126101415760a43567ffffffffffffffff81116101415761028390369060040161137b565b929061028f83806113a9565b9061029a86846122b7565b916024116101415760046103db9101357eff00ff00ff00ff00ff00ff00ff00ff00ff00ff00ff00ff00ff00ff00ff00ff7fff00ff00ff00ff00ff00ff00ff00ff00ff00ff00ff00ff00ff00ff00ff00ff008260081b169160081c16177dffff0000ffff0000ffff0000ffff0000ffff0000ffff0000ffff0000ffff7fffff0000ffff0000ffff0000ffff0000ffff0000ffff0000ffff0000ffff00008260101b169160101c16177bffffffff00000000ffffffff00000000ffffffff00000000ffffffff7fffffffff00000000ffffffff00000000ffffffff00000000ffffffff000000008260201b169160201c161777ffffffffffffffff0000000000000000ffffffffffffffff7fffffffffffffffff0000000000000000ffffffffffffffff00000000000000008260401b169160401c16178060801b9060801c1790565b818103610407575050610405936103f191611bdf565b916084359160443590600401600435611c20565b005b7f13ffdc7d000000000000000000000000000000000000000000000000000000005f5260045260245260445ffd5b34610141575f7ffffffffffffffffffffffffffffffffffffffffffffffffffffffffffffffffc36011261014157602060405167ffffffffffffffff7f0000000000000000000000000000000000000000000000000000000000000000168152f35b346101415760207ffffffffffffffffffffffffffffffffffffffffffffffffffffffffffffffffc3601126101415760043567ffffffffffffffff8111610141576104e690369060040161137b565b807fffffffffffffffffffffffffffffffffffffffffffffffffffffffffffffff8081160361058e5781016001915b81811061054c57821561052457005b7fa506d334000000000000000000000000000000000000000000000000000000005f5260045ffd5b80355f90815260208181526040808320828501358452825280832081850135845282528083206060850135845290915290205490921660ff1691608001610515565b7fa3ecc749000000000000000000000000000000000000000000000000000000005f52600452608060245260445ffd5b346101415760a07ffffffffffffffffffffffffffffffffffffffffffffffffffffffffffffffffc3601126101415760243567ffffffffffffffff8111610141576101007ffffffffffffffffffffffffffffffffffffffffffffffffffffffffffffffffc82360301126101415760643567ffffffffffffffff81116101415760a07ffffffffffffffffffffffffffffffffffffffffffffffffffffffffffffffffc82600401923603011261014157610405916103f161067f83806113a9565b90611bdf565b34610141575f7ffffffffffffffffffffffffffffffffffffffffffffffffffffffffffffffffc36011261014157602060405173ffffffffffffffffffffffffffffffffffffffff7f0000000000000000000000000000000000000000000000000000000000000000168152f35b346101415760407ffffffffffffffffffffffffffffffffffffffffffffffffffffffffffffffffc360112610141576004355f52600160205260405f206024355f5260205260c060405f2063ffffffff8154916002600182015491015490604051938452828116602085015267ffffffffffffffff8160201c16604085015260601c606084015273ffffffffffffffffffffffffffffffffffffffff8116608084015260a01c1660a0820152f35b346101415760207ffffffffffffffffffffffffffffffffffffffffffffffffffffffffffffffffc3601126101415760043567ffffffffffffffff8111610141576101007ffffffffffffffffffffffffffffffffffffffffffffffffffffffffffffffffc82360301126101415761081d602091600401611a4c565b604051908152f35b34610141575f7ffffffffffffffffffffffffffffffffffffffffffffffffffffffffffffffffc36011261014157602060405160038152f35b346101415761086c36611306565b61087581611a4c565b825f52600160205260405f20815f5260205260405f209060028201918254600173ffffffffffffffffffffffffffffffffffffffff821692019067ffffffffffffffff825460201c16908315610af15760ff606088013560081c81168015011660038111610a4b5760018103610a1e57506109076101a463ffffffff61102c5b165b0163ffffffff8360a01c1661158a565b4211156109f6577ffb6595cbfd40287560562e5fe21197cb23bcb169f2aa9cb18d2fd6989b43851b966020967fffffffffffffffff0000000000000000000000000000000000000000000000006080935f61096797551690550135611577565b6109b361098061097a6003840484611597565b92611561565b926109ac837f000000000000000000000000000000000000000000000000000000000000000095611597565b90846117f9565b806109c4575b5050604051908152a2005b6109ef917f0000000000000000000000000000000000000000000000000000000000000000906117f9565b84806109b9565b7f085de625000000000000000000000000000000000000000000000000000000005f5260045ffd5b600203610a38576109076101a463ffffffff6115cc6108f5565b6109076101a463ffffffff611a406108f5565b6008811015610abb5760048103610a7257506109076101a463ffffffff611eb45b166108f7565b60058103610a8e57506109076101a463ffffffff6122b0610a6c565b600603610aa8576109076101a463ffffffff6126ac610a6c565b6109076101a463ffffffff612a6c610a6c565b6101a46103847ffffffffffffffffffffffffffffffffffffffffffffffffffffffffffffffff9610907930102612a6c016108f7565b7f433b0e14000000000000000000000000000000000000000000000000000000005f5260045ffd5b346101415760607ffffffffffffffffffffffffffffffffffffffffffffffffffffffffffffffffc3601126101415760243560443560043567ffffffffffffffff82116101415781600401916101007ffffffffffffffffffffffffffffffffffffffffffffffffffffffffffffffffc8236030112610141578115610d30578315610d30576044810135468103610d0157506024810135803003610cd25750610bc183611a4c565b92845f52600160205260405f20845f5260205260405f2090815480610ca75750602093608484610c9e94610c27610c21610c769660e47f543f8c4da4d1fac36f4c11410500cfa37de6c3b1832faa5c55067e5dd87fa26b9c9a01906113a9565b9061194e565b93815560016bffffffffffffffff00000000858a1b1663ffffffff42167fffffffffffffffffffffffffffffffffffffffff0000000000000000000000003360601b1617179101550135611577565b30337f00000000000000000000000000000000000000000000000000000000000000006118c3565b604051908152a2005b7fc8426484000000000000000000000000000000000000000000000000000000005f5260045260245ffd5b7f0f5d06cd000000000000000000000000000000000000000000000000000000005f523060045260245260445ffd5b7f24497bc3000000000000000000000000000000000000000000000000000000005f526004524660245260445ffd5b7f7c946ed7000000000000000000000000000000000000000000000000000000005f5260045ffd5b346101415760807ffffffffffffffffffffffffffffffffffffffffffffffffffffffffffffffffc360112610141576004355f525f60205260405f206024355f5260205260405f206044355f5260205260405f206064355f52602052602060ff60405f2054166040519015158152f35b3461014157610dd636611306565b610ddf81611a4c565b90825f52600160205260405f20825f5260205260405f20906001820154918260601c15610fdf5763ffffffff831690610e17826113fa565b63ffffffff42911610610fb75760020180549373ffffffffffffffffffffffffffffffffffffffff851680610f8c57506115cc63ffffffff421693019163ffffffff8311610f5857610ef59577ffffffff000000000000000000000000000000000000000067ffffffffffffffff9460809663ffffffff821681105f14610f8557505b60a01b16907fffffffffffffffff0000000000000000000000000000000000000000000000007fffffffffffffffff00000000ffffffffffffffffffffffffffffffffffffffff331691161717905560201c16910135611577565b8060011b9080820460021490151715610f58577f764cc9d900920a9e6fd7564afebdd81b2eb637d2da2ffd89733b899eab82372691610c9e60209230337f00000000000000000000000000000000000000000000000000000000000000006118c3565b7f4e487b71000000000000000000000000000000000000000000000000000000005f52601160045260245ffd5b9050610e9a565b7f703f5999000000000000000000000000000000000000000000000000000000005f5260045260245ffd5b7fecdd1c29000000000000000000000000000000000000000000000000000000005f5260045ffd5b7fb72a2522000000000000000000000000000000000000000000000000000000005f5260045ffd5b346101415761101536611306565b61101e81611a4c565b90825f52600160205260405f20825f5260205260405f20916001830180548060601c15610fdf5763ffffffff61105491166113fa565b63ffffffff42911610156109f657600284019073ffffffffffffffffffffffffffffffffffffffff8254166111bc57611192602094610c9e93887ffef24569acf839f2b5cb23fd59d8a9bcc21650ff711ac1961ca3c5d4681ffe127fa4d54a6ca2c56171e9575e8baf3bbace025e99f097ad9a79b0e82b41d67dd67b995463ffffffff4216906110e686838684611676565b8b8151910120465f525f8c5260405f2087355f528c5260405f20305f528c5260405f20905f528b5260405f2060017fffffffffffffffffffffffffffffffffffffffffffffffffffffffffffffff0082541617905561115160808701358097604051948594856114a1565b0390a25f845494557fffffffffffffffff000000000000000000000000000000000000000000000000815416905567ffffffffffffffff83871c1690611577565b9060601c7f00000000000000000000000000000000000000000000000000000000000000006117f9565b7f62e6201d000000000000000000000000000000000000000000000000000000005f5260045ffd5b34610141575f7ffffffffffffffffffffffffffffffffffffffffffffffffffffffffffffffffc36011261014157602060405160028152f35b346101415760207ffffffffffffffffffffffffffffffffffffffffffffffffffffffffffffffffc3601126101415760043567ffffffffffffffff8111610141573660238201121561014157806004013567ffffffffffffffff811161014157602482013660248360051b85010111610141575f9260015b838510156112f95760ff6001916112be6112b760248960051b870101876113a9565b3691611612565b60208151910120465f525f60205260405f20335f5260205260405f20305f5260205260405f20905f5260205260405f20541616940193611295565b6020906040519015158152f35b9060407ffffffffffffffffffffffffffffffffffffffffffffffffffffffffffffffffc83011261014157600435916024359067ffffffffffffffff8211610141577ffffffffffffffffffffffffffffffffffffffffffffffffffffffffffffffffc82610100920301126101415760040190565b9181601f840112156101415782359167ffffffffffffffff8311610141576020838186019501011161014157565b9035907fffffffffffffffffffffffffffffffffffffffffffffffffffffffffffffffe181360301821215610141570180359067ffffffffffffffff82116101415760200191813603831361014157565b63ffffffff611eb49116019063ffffffff8211610f5857565b90357fffffffffffffffffffffffffffffffffffffffffffffffffffffffffffffffe18236030181121561014157016020813591019167ffffffffffffffff821161014157813603831361014157565b601f82602094937fffffffffffffffffffffffffffffffffffffffffffffffffffffffffffffffe093818652868601375f8582860101520116010190565b94939263ffffffff60609361155c9388521660208701526080604087015280356080870152602081013560a0870152604081013560c08701528281013560e0870152608081013561010087015260a081013561012087015261152b61152061150c60c0840184611413565b6101006101408b01526101808a0191611463565b9160e0810190611413565b907fffffffffffffffffffffffffffffffffffffffffffffffffffffffffffffff8088840301610160890152611463565b930152565b90600382029180830460031490151715610f5857565b81810292918115918404141715610f5857565b91908201809211610f5857565b91908203918211610f5857565b90601f7fffffffffffffffffffffffffffffffffffffffffffffffffffffffffffffffe0910116810190811067ffffffffffffffff8211176115e557604052565b7f4e487b71000000000000000000000000000000000000000000000000000000005f52604160045260245ffd5b92919267ffffffffffffffff82116115e5576040519161165a60207fffffffffffffffffffffffffffffffffffffffffffffffffffffffffffffffe0601f84011601846115a4565b829481845281830111610141578281602093845f960137010152565b91909261168660c08201826113a9565b61169560e084939401836113a9565b94909361ffff83116117d15761ffff86116117a95785938392604051998a9960208b015260408a015260e01b7fffffffff00000000000000000000000000000000000000000000000000000000166060890152606081013560648901526080810135608489015260a0013560a48801528160f01b7fffff0000000000000000000000000000000000000000000000000000000000001660c488015260c68701378401918160f01b7fffff0000000000000000000000000000000000000000000000000000000000001660c684015260c88301370160c601600281015f9052036002017fffffffffffffffffffffffffffffffffffffffffffffffffffffffffffffffe0810182526117a690826115a4565b90565b7fd94d6ce6000000000000000000000000000000000000000000000000000000005f5260045ffd5b7f4fe9ad23000000000000000000000000000000000000000000000000000000005f5260045ffd5b9173ffffffffffffffffffffffffffffffffffffffff604051927fa9059cbb000000000000000000000000000000000000000000000000000000005f521660045260245260205f60448180865af19060015f51148216156118a2575b604052156118605750565b73ffffffffffffffffffffffffffffffffffffffff907f5274afe7000000000000000000000000000000000000000000000000000000005f521660045260245ffd5b9060018115166118ba57823b15153d15161690611855565b503d5f823e3d90fd5b92909173ffffffffffffffffffffffffffffffffffffffff9081604051947f23b872dd000000000000000000000000000000000000000000000000000000005f52166004521660245260445260205f60648180865af19060015f5114821615611936575b6040525f606052156118605750565b9060018115166118ba57823b15153d15161690611927565b5f918015611a1b577fb0000000000000000000000000000000000000000000000000000000000000007fff0000000000000000000000000000000000000000000000000000000000000083358181169060018510611a07575b50161490816119fc575b506119f0575b5080156119c15790565b5067ffffffffffffffff7f00000000000000000000000000000000000000000000000000000000000000001690565b6001915001355f6119b7565b60219150145f6119b1565b828092508560010360031b1b16165f6119a7565b50505067ffffffffffffffff7f00000000000000000000000000000000000000000000000000000000000000001690565b611a5960c08201826113a9565b90611a6760e08401846113a9565b909161ffff84116117d15761ffff82116117a95760e282611b5b946002948760405198899660a0602089019c8d81359052602081013560408b0152604081013560608b0152606081013560808b01526080810135828b0152013560c08901527fffff0000000000000000000000000000000000000000000000000000000000008260f01b1660e0890152868801378501917fffff0000000000000000000000000000000000000000000000000000000000008260f01b168584015260e483013701015f8382015203017fffffffffffffffffffffffffffffffffffffffffffffffffffffffffffffffe081018352826115a4565b51902090565b90939293848311610141578411610141578101920390565b919091357fffffffff0000000000000000000000000000000000000000000000000000000081169260048110611bad575050565b7fffffffff00000000000000000000000000000000000000000000000000000000929350829060040360031b1b161690565b906048116101415763ffffffff60446117a692013560e01c1662ff00ff63ff00ff008260081b169160081c161763ffffffff808260101b169160101c161790565b91909363ffffffff86169162015180830163ffffffff8111610f585763ffffffff804216911610610fb757606086013560ff8160081c169073bc000000000000000000000000000000000000007fffffffffffffffffffffffffffffffffffffffffffffffffffffffffffff0000821603611f725760ff16916006831015611f4557611cd29387611cb860ff9560a08c01359061243f565b92611cc660c08c018c6113a9565b96909580150116612002565b946080850135809603611f1d57611ce885611a4c565b835f52600160205260405f20905f5260205260405f20918254908115610fdf577fe6b7459e92cb76d849c8ed9df583c9a9a3f331e8dc5097a5e451c6cb4706648e9760209785611e019360017ffef24569acf839f2b5cb23fd59d8a9bcc21650ff711ac1961ca3c5d4681ffe12980190815460028160601c94019081549173ffffffffffffffffffffffffffffffffffffffff8316938615159081611ef7575b50611e10575b505050505050611da081868987611676565b898151910120465f525f8a5260405f2082355f528a5260405f20305f528a5260405f20905f52895260405f2060017fffffffffffffffffffffffffffffffffffffffffffffffffffffffffffffff00825416179055604051948594856114a1565b0390a2816040519101358152a1565b7fffffffffffffffff00000000000000000000000000000000000000000000000067ffffffffffffffff935f611e5096151597551690558d1c1685611577565b90611ea2611e616003840484611597565b92838315611ef157611e75611e7a92611561565b611597565b7f000000000000000000000000000000000000000000000000000000000000000094856117f9565b80611ee8575b611eb6575b80808080611d8e565b611ee1917f0000000000000000000000000000000000000000000000000000000000000000906117f9565b5f80611ead565b50801515611ea8565b50611e7a565b851591508115611f09575b505f611d88565b905063ffffffff8460a01c1610155f611f02565b7f749b5939000000000000000000000000000000000000000000000000000000005f5260045ffd5b7f4e487b71000000000000000000000000000000000000000000000000000000005f52602160045260245ffd5b7f6a6ba82d000000000000000000000000000000000000000000000000000000005f5260045ffd5b907fffffffffffffffffffffffffffffffffffffffffffffffffffffffffffffffe0601f602080948051918291828752018686015e5f8582860101520116010190565b9091611ff46117a693604084526040840190611f9a565b916020818403910152611f9a565b929490969591939673ffffffffffffffffffffffffffffffffffffffff7f000000000000000000000000000000000000000000000000000000000000000016936040517f57e871e7000000000000000000000000000000000000000000000000000000008152602081600481895afa908115612201575f9161226a575b5082811061223a5782600191030181811061220c5750506020906024604051809681937f34cdf78d00000000000000000000000000000000000000000000000000000000835260048301525afa928315612201575f936121cd575b50816121585750506120f26120f99392606092612bb5565b015161274d565b5167ffffffffffffffff60208201519151169261211682826127cf565b1561211f575050565b6121546040519283927f8f91b6b700000000000000000000000000000000000000000000000000000000845260048401611fdd565b0390fd5b916060919361216a9197959697612bb5565b0193602061219a61217c83885161274d565b5192600167ffffffffffffffff84860151955116985191019061274d565b510151936121a882826127cf565b1561211f575050906121b991612815565b6121c382826127cf565b1561211f57505090565b9092506020813d6020116121f9575b816121e9602093836115a4565b810103126101415751915f6120da565b3d91506121dc565b6040513d5f823e3d90fd5b7f45deeae7000000000000000000000000000000000000000000000000000000005f5260045260245260445ffd5b90507fa64162df000000000000000000000000000000000000000000000000000000005f5260045260245260445ffd5b90506020813d602011612294575b81612285602093836115a4565b8101031261014157515f61207f565b3d9150612278565b90604051916020830152602082526122b56040836115a4565b565b6050820361014157815f9160209360405192839283378101838152039060025afa156122015760205f816122eb825161229c565b604051918183925191829101835e8101838152039060025afa15612201576117a65f517eff00ff00ff00ff00ff00ff00ff00ff00ff00ff00ff00ff00ff00ff00ff00ff7fff00ff00ff00ff00ff00ff00ff00ff00ff00ff00ff00ff00ff00ff00ff00ff008260081b169160081c16177dffff0000ffff0000ffff0000ffff0000ffff0000ffff0000ffff0000ffff7fffff0000ffff0000ffff0000ffff0000ffff0000ffff0000ffff0000ffff00008260101b169160101c16177bffffffff00000000ffffffff00000000ffffffff00000000ffffffff7fffffffff00000000ffffffff00000000ffffffff00000000ffffffff000000008260201b169160201c161777ffffffffffffffff0000000000000000ffffffffffffffff7fffffffffffffffff0000000000000000ffffffffffffffff00000000000000008260401b169160401c16178060801b9060801c1790565b6006811015611f45576001811461265457600281146125a7576003811461254057600481146124fb57600514612497577fd6234725000000000000000000000000000000000000000000000000000000005f5260045ffd5b604051907f510000000000000000000000000000000000000000000000000000000000000060208301527f200000000000000000000000000000000000000000000000000000000000000060218301526022820152602281526117a66042826115a4565b50604051905f60208301527f200000000000000000000000000000000000000000000000000000000000000060218301526022820152602281526117a66042826115a4565b507fffffffffffffffffffffffffffffffffffffffff000000000000000000000000604051915f60208401527f14000000000000000000000000000000000000000000000000000000000000006021840152166022820152601681526117a66036826115a4565b507fffffffffffffffffffffffffffffffffffffffff000000000000000000000000604051917fa90000000000000000000000000000000000000000000000000000000000000060208401527f140000000000000000000000000000000000000000000000000000000000000060218401521660228201527f87000000000000000000000000000000000000000000000000000000000000006036820152601781526117a66037826115a4565b507fffffffffffffffffffffffffffffffffffffffff000000000000000000000000604051917f760000000000000000000000000000000000000000000000000000000000000060208401527fa90000000000000000000000000000000000000000000000000000000000000060218401527f140000000000000000000000000000000000000000000000000000000000000060228401521660238201527f880000000000000000000000000000000000000000000000000000000000000060378201527fac000000000000000000000000000000000000000000000000000000000000006038820152601981526117a66039826115a4565b80518210156127615760209160051b010190565b7f4e487b71000000000000000000000000000000000000000000000000000000005f52603260045260245ffd5b6020815191015190602081106127a2575090565b7fffffffffffffffffffffffffffffffffffffffffffffffffffffffffffffffff9060200360031b1b1690565b8051602081111580612809575b156127f857506127ee6127f49161278e565b9161278e565b1490565b906020012090602081519101201490565b506020835111156127dc565b8115612b3957604b821115612aa35760ff8211156129e75761ffff82111561292b5763ffffffff82111561286f57507f7833e69d000000000000000000000000000000000000000000000000000000005f5260045260245ffd5b60266117a691836040519485927f6a0000000000000000000000000000000000000000000000000000000000000060208501527f4e0000000000000000000000000000000000000000000000000000000000000060218501527fffffffff000000000000000000000000000000000000000000000000000000008260e01b1660228501528484013781015f8382015203017fffffffffffffffffffffffffffffffffffffffffffffffffffffffffffffffe081018352826115a4565b60246117a691836040519485927f6a0000000000000000000000000000000000000000000000000000000000000060208501527f4d0000000000000000000000000000000000000000000000000000000000000060218501527fffff0000000000000000000000000000000000000000000000000000000000008260f01b1660228501528484013781015f8382015203017fffffffffffffffffffffffffffffffffffffffffffffffffffffffffffffffe081018352826115a4565b60236117a691836040519485927f6a0000000000000000000000000000000000000000000000000000000000000060208501527f4c0000000000000000000000000000000000000000000000000000000000000060218501527fff000000000000000000000000000000000000000000000000000000000000008260f81b1660228501528484013781015f8382015203017fffffffffffffffffffffffffffffffffffffffffffffffffffffffffffffffe081018352826115a4565b60226117a691836040519485927f6a0000000000000000000000000000000000000000000000000000000000000060208501527fff000000000000000000000000000000000000000000000000000000000000008260f81b1660218501528484013781015f8382015203017fffffffffffffffffffffffffffffffffffffffffffffffffffffffffffffffe081018352826115a4565b50506040517f6a0000000000000000000000000000000000000000000000000000000000000060208201525f6021820152600281526117a66022826115a4565b6040519060a0820182811067ffffffffffffffff8211176115e5576040525f608083828152826020820152606060408201526060808201520152565b9190612bbf612b79565b50612bca81806113a9565b9093612bd682866122b7565b818103613161575050602082013593612bf260608401846113a9565b9290604085013590612d2f887eff00ff00ff00ff00ff00ff00ff00ff00ff00ff00ff00ff00ff00ff00ff00ff7fff00ff00ff00ff00ff00ff00ff00ff00ff00ff00ff00ff00ff00ff00ff00ff008260081b169160081c16177dffff0000ffff0000ffff0000ffff0000ffff0000ffff0000ffff0000ffff7fffff0000ffff0000ffff0000ffff0000ffff0000ffff0000ffff0000ffff00008260101b169160101c16177bffffffff00000000ffffffff00000000ffffffff00000000ffffffff7fffffffff00000000ffffffff00000000ffffffff00000000ffffffff000000008260201b169160201c161777ffffffffffffffff0000000000000000ffffffffffffffff7fffffffffffffffff0000000000000000ffffffffffffffff00000000000000008260401b169160401c16178060801b9060801c1790565b9460051c5f915b818310612f7e5750505080612f5357506050036101415760240135818103612f25575050806080612d689201906113a9565b90612eb0612d7f612d7a368585611612565b613999565b7eff00ff00ff00ff00ff00ff00ff00ff00ff00ff00ff00ff00ff00ff00ff00ff7fff00ff00ff00ff00ff00ff00ff00ff00ff00ff00ff00ff00ff00ff00ff00ff008260081b169160081c16177dffff0000ffff0000ffff0000ffff0000ffff0000ffff0000ffff0000ffff7fffff0000ffff0000ffff0000ffff0000ffff0000ffff0000ffff0000ffff00008260101b169160101c16177bffffffff00000000ffffffff00000000ffffffff00000000ffffffff7fffffffff00000000ffffffff00000000ffffffff00000000ffffffff000000008260201b169160201c161777ffffffffffffffff0000000000000000ffffffffffffffff7fffffffffffffffff0000000000000000ffffffffffffffff00000000000000008260401b169160401c16178060801b9060801c1790565b848103612ef55750612ec3929350613206565b805115612ecd5790565b7f257aa23b000000000000000000000000000000000000000000000000000000005f5260045ffd5b84907ffb01c32b000000000000000000000000000000000000000000000000000000005f5260045260245260445ffd5b7f7de3e64e000000000000000000000000000000000000000000000000000000005f5260045260245260445ffd5b7f3826ba3f000000000000000000000000000000000000000000000000000000005f5260045260245ffd5b909192956130bd8460051b8301357eff00ff00ff00ff00ff00ff00ff00ff00ff00ff00ff00ff00ff00ff00ff00ff7fff00ff00ff00ff00ff00ff00ff00ff00ff00ff00ff00ff00ff00ff00ff00ff008260081b169160081c16177dffff0000ffff0000ffff0000ffff0000ffff0000ffff0000ffff0000ffff7fffff0000ffff0000ffff0000ffff0000ffff0000ffff0000ffff0000ffff00008260101b169160101c16177bffffffff00000000ffffffff00000000ffffffff00000000ffffffff7fffffffff00000000ffffffff00000000ffffffff00000000ffffffff000000008260201b169160201c161777ffffffffffffffff0000000000000000ffffffffffffffff7fffffffffffffffff0000000000000000ffffffffffffffff00000000000000008260401b169160401c16178060801b9060801c1790565b6001881661313d57604051826020820152816040820152604081526130e36060826115a4565b915b6130ee8361375a565b61310b5750506130ff600191613999565b96811c93019190612d36565b887fa0c996e8000000000000000000000000000000000000000000000000000000005f5260045260245260445260645ffd5b6040518160208201528260408201526040815261315b6060826115a4565b916130e5565b7fa8722cd6000000000000000000000000000000000000000000000000000000005f5260045260245260445ffd5b67ffffffffffffffff81116115e55760051b60200190565b604051906080820182811067ffffffffffffffff8211176115e557604052606080835f81525f60208201525f60408201520152565b604051906040820182811067ffffffffffffffff8211176115e55760405260606020835f81520152565b9061320f612b79565b91816004116101415763ffffffff813560e881901c62ff00ff1660d89190911c63ff00ff001617601081811c831691901b821617168060208501526001811090811561373e575b5061373957819061326782826139ed565b906132718161318f565b61327e60405191826115a4565b8181527fffffffffffffffffffffffffffffffffffffffffffffffffffffffffffffffe06132ab8361318f565b015f5b818110613715575050604087019081525f5b8281106134fb575050506132d5908383613af0565b906132df8161318f565b6132ec60405191826115a4565b8181527fffffffffffffffffffffffffffffffffffffffffffffffffffffffffffffffe06133198361318f565b015f5b8181106134d7575050606087019081525f5b8281106133975750505061335a61335463ffffffff938360046133859501968792611b61565b90611b79565b60e01c62ff00ff63ff00ff008260081b169160081c161763ffffffff808260101b169160101c161790565b166080840152036117a6576001815290565b61349581600193949561347d613470899a67ffffffffffffffff6134666133d06112b79d6133c36131dc565b9760088101958692611b61565b90357fffffffffffffffff000000000000000000000000000000000000000000000000811691600881106134a2575b505060c01c65ffffffffffff8160081c9160081b9166ff000000ff000067ff000000ff00000067ffffffffffff000065ff000000ff00861664ff000000ff85161760101b16941691161760101c161767ffffffffffffffff808260201b169160201c161790565b1684528c8c613af0565b99908a01809a8d8d611b61565b602082015285519061348f838361274d565b5261274d565b500190859493929161332e565b7fffffffffffffffff0000000000000000000000000000000000000000000000009250829060080360031b1b16165f806133ff565b6020919293949596506134e86131dc565b828286010152019086959493929161331c565b8594959192938161350a6131a7565b60208301928161351c8583898e611b61565b9035908c60208210996136b46112b76136a76136d89b63ffffffff60019f61335a6133546024849e6136c59e61368e61335a9f6133549f61369a986136e5575b507eff00ff00ff00ff00ff00ff00ff00ff00ff00ff00ff00ff00ff00ff00ff00ff7fff00ff00ff00ff00ff00ff00ff00ff00ff00ff00ff00ff00ff00ff00ff00ff008260081b169160081c16177dffff0000ffff0000ffff0000ffff0000ffff0000ffff0000ffff0000ffff7fffff0000ffff0000ffff0000ffff0000ffff0000ffff0000ffff0000ffff00008260101b169160101c16177bffffffff00000000ffffffff00000000ffffffff00000000ffffffff7fffffffff00000000ffffffff00000000ffffffff00000000ffffffff000000008260201b169160201c161777ffffffffffffffff0000000000000000ffffffffffffffff7fffffffffffffffff0000000000000000ffffffffffffffff00000000000000008260401b169160401c16178060801b9060801c1790565b90520180958a8c611b61565b1660208c01528486613af0565b9390840193849186611b61565b6060880152600481019d8e92611b61565b16604082015285519061348f838361274d565b50019085949392916132c0565b7fffffffffffffffffffffffffffffffffffffffffffffffffffffffffffffffff9060200360031b1b165f61355c565b6020919293949596506137266131a7565b82828601015201908695949392916132ae565b505090565b60029150115f613256565b908151811015612761570160200190565b8051906038821061398857811561276157602081015160f81c6001811090811561398e575b5061398857805160011015612761577fff0000000000000000000000000000000000000000000000000000000000000060218201511661398857805160021015612761577fff0000000000000000000000000000000000000000000000000000000000000060228201511661398857805160031015612761577fff000000000000000000000000000000000000000000000000000000000000006023820151166139885780516004101561276157602481015160f81c6005906029810281810460291482151715610f5857828101809111610f58578410613921575f905b8082106139295750506138708183613749565b5160f81c906009820282810460091483151715610f585761389282869261158a565b116139215760018101809111610f585791905f915b8183106138ca5750505060048101809111610f5857036138c657600190565b5f90565b90919260088101809111610f58576138e28183613749565b5160f81c90856138f2828461158a565b116139175760018201809211610f585760019161390e9161158a565b930191906138a7565b5050505050505f90565b505050505f90565b90916020810190818111610f5857602401809111610f585761394b8185613749565b5160f81c8561395a838361158a565b116139175760018101809111610f58576139739161158a565b60048101809111610f5857916001019061385d565b50505f90565b60029150115f61377f565b5f60208092604051918183925191829101835e8101838152039060025afa156122015760205f816139ca825161229c565b604051918183925191829101835e8101838152039060025afa15612201575f5190565b906004101561276157600481013560f81c60fd8110613ae95760fd8114613ad15760fe14613a9257613a8b600567ffffffffffffffff92013560c01c65ffffffffffff8160081c9160081b9166ff000000ff000067ff000000ff00000067ffffffffffff000065ff000000ff00861664ff000000ff85161760101b16941691161760101c161767ffffffffffffffff808260201b169160201c161790565b1690600d90565b613aca600563ffffffff92013560e01c62ff00ff63ff00ff008260081b169160081c161763ffffffff808260101b169160101c161790565b1690600990565b506005013561ff008160f81c9160e81c161790600790565b9160059150565b90929192831015612761578201803560f81c60fd8110613beb5760fd8114613bd15760fe14613b975767ffffffffffffffff613b916001600993013560c01c65ffffffffffff8160081c9160081b9166ff000000ff000067ff000000ff00000067ffffffffffff000065ff000000ff00861664ff000000ff85161760101b16941691161760101c161767ffffffffffffffff808260201b169160201c161790565b16920190565b63ffffffff613b916001600593013560e01c62ff00ff63ff00ff008260081b169160081c161763ffffffff808260101b169160101c161790565b506001600391013561ff008160f81c9160e81c1617920190565b6001915092019056fea2646970667358221220c446b2a48ac4754e9b676df594ce39e301154bc6f86cb4a289941fb73c17099a64736f6c634300081e0033","linkReferences":{}},"methodIdentifiers":{"CHALLENGER_COLLATERAL_FACTOR()":"12c84421","COLLATERAL_TOKEN()":"f5f1f1a7","DEFAULT_COLLATERAL_MULTIPLIER()":"d67a3076","DISPUTED_ORDER_FEE_DESTINATION()":"8155481b","DISPUTED_ORDER_FEE_FRACTION()":"58c9d70b","LIGHT_CLIENT()":"e613ae00","_claimedOrder(bytes32,bytes32)":"694bf826","claim(bytes32,bytes32,(bytes32,bytes32,uint256,bytes32,uint256,bytes32,bytes,bytes))":"41d91e3b","dispute(bytes32,(bytes32,bytes32,uint256,bytes32,uint256,bytes32,bytes,bytes))":"29abeecc","efficientRequireProven(bytes)":"ae0dd770","finaliseDispute(bytes32,(bytes32,bytes32,uint256,bytes32,uint256,bytes32,bytes,bytes))":"550a528e","hasAttested(bytes[])":"00a2d1bd","isProven(uint256,bytes32,bytes32,bytes32)":"3ff04aff","optimisticallyVerify(bytes32,(bytes32,bytes32,uint256,bytes32,uint256,bytes32,bytes,bytes))":"240a5cd1","outputIdentifier((bytes32,bytes32,uint256,bytes32,uint256,bytes32,bytes,bytes))":"59c165e8","verify(bytes32,(bytes32,bytes32,uint256,bytes32,uint256,bytes32,bytes,bytes),uint256,(bytes,bytes32,uint256,bytes,bytes),uint256)":"99297602","verify(bytes32,(bytes32,bytes32,uint256,bytes32,uint256,bytes32,bytes,bytes),uint256,(bytes,bytes32,uint256,bytes,bytes),uint256,bytes)":"e23f28e6"},"id":123}