{"abi":[{"type":"constructor","inputs":[{"name":"sequencer_","type":"address","internalType":"address"},{"name":"chainId_","type":"bytes32","internalType":"bytes32"}],"stateMutability":"nonpayable"},{"type":"function","name":"CHAIN_ID","inputs":[],"outputs":[{"name":"","type":"bytes32","internalType":"bytes32"}],"stateMutability":"view"},{"type":"function","name":"SEQUENCER","inputs":[],"outputs":[{"name":"","type":"address","internalType":"address"}],"stateMutability":"view"},{"type":"function","name":"verifyStateUpdate","inputs":[{"name":"l2BlockNumber","type":"uint256","internalType":"uint256"},{"name":"appHash","type":"bytes32","internalType":"bytes32"},{"name":"l1BlockHash","type":"bytes32","internalType":"bytes32"},{"name":"signature","type":"bytes","internalType":"bytes"}],"outputs":[],"stateMutability":"view"},{"type":"error","name":"ECDSAInvalidSignature","inputs":[]},{"type":"error","name":"ECDSAInvalidSignatureLength","inputs":[{"name":"length","type":"uint256","internalType":"uint256"}]},{"type":"error","name":"ECDSAInvalidSignatureS","inputs":[{"name":"s","type":"bytes32","internalType":"bytes32"}]},{"type":"error","name":"InvalidSequencerSignature","inputs":[]}],"bytecode":{"object":"0x60c03461008957601f61059f38819003918201601f19168301916001600160401b0383118484101761008d578084926040948552833981010312610089578051906001600160a01b038216820361008957602001519060805260a0526040516104fd90816100a282396080518181816101940152610289015260a05181818160ee015261021e0152f35b5f80fd5b634e487b7160e01b5f52604160045260245ffdfe6080806040526004361015610012575f80fd5b5f3560e01c90816375fd4ca9146102415750806385e1f4d0146101e95763e8d900391461003d575f80fd5b346101e55760807ffffffffffffffffffffffffffffffffffffffffffffffffffffffffffffffffc3601126101e55760643567ffffffffffffffff81116101e557366023820112156101e557806004013567ffffffffffffffff81116101e55736602482840101116101e55761017c91610173915f602060405181810190600435825260243560408201526044356060820152606081526100df6080826102ad565b519020604051828101918483527f000000000000000000000000000000000000000000000000000000000000000060408301526060820152606081526101266080826102ad565b5190209280602460405196610162857fffffffffffffffffffffffffffffffffffffffffffffffffffffffffffffffe0601f86011601896102ad565b82885201838701378401015261031b565b90929192610355565b73ffffffffffffffffffffffffffffffffffffffff807f0000000000000000000000000000000000000000000000000000000000000000169116036101bd57005b7fe789f214000000000000000000000000000000000000000000000000000000005f5260045ffd5b5f80fd5b346101e5575f7ffffffffffffffffffffffffffffffffffffffffffffffffffffffffffffffffc3601126101e55760206040517f00000000000000000000000000000000000000000000000000000000000000008152f35b346101e5575f7ffffffffffffffffffffffffffffffffffffffffffffffffffffffffffffffffc3601126101e55760209073ffffffffffffffffffffffffffffffffffffffff7f0000000000000000000000000000000000000000000000000000000000000000168152f35b90601f7fffffffffffffffffffffffffffffffffffffffffffffffffffffffffffffffe0910116810190811067ffffffffffffffff8211176102ee57604052565b7f4e487b71000000000000000000000000000000000000000000000000000000005f52604160045260245ffd5b815191906041830361034b576103449250602082015190606060408401519301515f1a9061042d565b9192909190565b50505f9160029190565b60048110156104005780610367575050565b60018103610397577ff645eedf000000000000000000000000000000000000000000000000000000005f5260045ffd5b600281036103cb57507ffce698f7000000000000000000000000000000000000000000000000000000005f5260045260245ffd5b6003146103d55750565b7fd78bce0c000000000000000000000000000000000000000000000000000000005f5260045260245ffd5b7f4e487b71000000000000000000000000000000000000000000000000000000005f52602160045260245ffd5b91907f7fffffffffffffffffffffffffffffff5d576e7357a4501ddfe92f46681b20a084116104bc579160209360809260ff5f9560405194855216868401526040830152606082015282805260015afa156104b1575f5173ffffffffffffffffffffffffffffffffffffffff8116156104a757905f905f90565b505f906001905f90565b6040513d5f823e3d90fd5b5050505f916003919056fea2646970667358221220088b53e9c7ea62b9a7ff839f4a3c884bb5d8ab510ea2fd56d7ce7afb3e9362db64736f6c634300081e0033","linkReferences":{}},"methodIdentifiers":{"CHAIN_ID()":"85e1f4d0","SEQUENCER()":"75fd4ca9","verifyStateUpdate(uint256,bytes32,bytes32,bytes)":"e8d90039"},"id":145}