{"abi":[{"type":"constructor","inputs":[{"name":"receiver_","type":"address","internalType":"contract IReceiver"},{"name":"broadcaster_","type":"address","internalType":"contract IBroadcaster"},{"name":"owner_","type":"address","internalType":"address"}],"stateMutability":"nonpayable"},{"type":"function","name":"broadcaster","inputs":[],"outputs":[{"name":"","type":"address","internalType":"contract IBroadcaster"}],"stateMutability":"view"},{"type":"function","name":"chainIdMap","inputs":[{"name":"protocolChainidentifier","type":"uint256","internalType":"uint256"}],"outputs":[{"name":"chainId","type":"uint256","internalType":"uint256"}],"stateMutability":"view"},{"type":"function","name":"efficientRequireProven","inputs":[{"name":"proofSeries","type":"bytes","internalType":"bytes"}],"outputs":[],"stateMutability":"view"},{"type":"function","name":"isProven","inputs":[{"name":"remoteChainId","type":"uint256","internalType":"uint256"},{"name":"remoteOracle","type":"bytes32","internalType":"bytes32"},{"name":"application","type":"bytes32","internalType":"bytes32"},{"name":"dataHash","type":"bytes32","internalType":"bytes32"}],"outputs":[{"name":"","type":"bool","internalType":"bool"}],"stateMutability":"view"},{"type":"function","name":"owner","inputs":[],"outputs":[{"name":"","type":"address","internalType":"address"}],"stateMutability":"view"},{"type":"function","name":"receiver","inputs":[],"outputs":[{"name":"","type":"address","internalType":"contract IReceiver"}],"stateMutability":"view"},{"type":"function","name":"renounceOwnership","inputs":[],"outputs":[],"stateMutability":"nonpayable"},{"type":"function","name":"reverseChainIdMap","inputs":[{"name":"chainId","type":"uint256","internalType":"uint256"}],"outputs":[{"name":"protocolChainidentifier","type":"uint256","internalType":"uint256"}],"stateMutability":"view"},{"type":"function","name":"setChainMap","inputs":[{"name":"protocolChainIdentifier","type":"uint256","internalType":"uint256"},{"name":"chainId","type":"uint256","internalType":"uint256"}],"outputs":[],"stateMutability":"nonpayable"},{"type":"function","name":"submit","inputs":[{"name":"source","type":"address","internalType":"address"},{"name":"payloads","type":"bytes[]","internalType":"bytes[]"}],"outputs":[],"stateMutability":"nonpayable"},{"type":"function","name":"transferOwnership","inputs":[{"name":"newOwner","type":"address","internalType":"address"}],"outputs":[],"stateMutability":"nonpayable"},{"type":"function","name":"verifyMessage","inputs":[{"name":"broadcasterReadArgs","type":"tuple","internalType":"struct IReceiver.RemoteReadArgs","components":[{"name":"route","type":"address[]","internalType":"address[]"},{"name":"bhpInputs","type":"bytes[]","internalType":"bytes[]"},{"name":"storageProof","type":"bytes","internalType":"bytes"}]},{"name":"remoteChainId","type":"uint256","internalType":"uint256"},{"name":"remoteOracle","type":"address","internalType":"address"},{"name":"messageData","type":"bytes","internalType":"bytes"}],"outputs":[],"stateMutability":"nonpayable"},{"type":"event","name":"ChainMapConfigured","inputs":[{"name":"protocolChainIdentifier","type":"uint256","indexed":false,"internalType":"uint256"},{"name":"chainId","type":"uint256","indexed":false,"internalType":"uint256"}],"anonymous":false},{"type":"event","name":"OutputProven","inputs":[{"name":"chainid","type":"uint256","indexed":false,"internalType":"uint256"},{"name":"remoteIdentifier","type":"bytes32","indexed":false,"internalType":"bytes32"},{"name":"application","type":"bytes32","indexed":false,"internalType":"bytes32"},{"name":"payloadHash","type":"bytes32","indexed":false,"internalType":"bytes32"}],"anonymous":false},{"type":"event","name":"OwnershipTransferred","inputs":[{"name":"previousOwner","type":"address","indexed":true,"internalType":"address"},{"name":"newOwner","type":"address","indexed":true,"internalType":"address"}],"anonymous":false},{"type":"error","name":"AlreadySet","inputs":[]},{"type":"error","name":"InvalidBroadcaster","inputs":[]},{"type":"error","name":"InvalidBroadcasterId","inputs":[]},{"type":"error","name":"InvalidReceiver","inputs":[]},{"type":"error","name":"NotAllPayloadsValid","inputs":[]},{"type":"error","name":"NotDivisible","inputs":[{"name":"value","type":"uint256","internalType":"uint256"},{"name":"divisor","type":"uint256","internalType":"uint256"}]},{"type":"error","name":"NotProven","inputs":[]},{"type":"error","name":"OwnableInvalidOwner","inputs":[{"name":"owner","type":"address","internalType":"address"}]},{"type":"error","name":"OwnableUnauthorizedAccount","inputs":[{"name":"account","type":"address","internalType":"address"}]},{"type":"error","name":"TooManyPayloads","inputs":[{"name":"size","type":"uint256","internalType":"uint256"}]},{"type":"error","name":"ZeroValue","inputs":[]}],"bytecode":{"object":"0x60c03461013b57601f61144538819003918201601f19168301916001600160401b0383118484101761013f5780849260609460405283398101031261013b5780516001600160a01b038116919082810361013b576020820151916001600160a01b0383169081840361013b57604001516001600160a01b038116949085900361013b57841561012857600180546001600160a01b03198116871790915560405195906001600160a01b03167f8be0079c531659141344cd1fd0a4f28419497f9722a3daafe3b4186f6b6457e05f80a315610119571561010a5760805260a0526112f1908161015482396080518181816108760152610c89015260a05181818161071a0152610fee0152f35b63094cfd6560e11b5f5260045ffd5b631e4ec46b60e01b5f5260045ffd5b631e4fbdf760e01b5f525f60045260245ffd5b5f80fd5b634e487b7160e01b5f52604160045260245ffdfe60806040526004361015610011575f80fd5b5f3560e01c80633ab842e2146100d45780633ff04aff146100cf578063715018a6146100ca57806387d64b92146100c55780638da5cb5b146100c057806394020bb4146100bb5780639509e264146100b65780639afd77a6146100b1578063ae0dd770146100ac578063b2bac942146100a7578063f2fde38b146100a25763f7260d3e1461009d575f80fd5b61082c565b61073e565b6106d0565b6105af565b610567565b61051f565b6103fc565b6103ab565b610325565b610289565b610211565b61014f565b6004359073ffffffffffffffffffffffffffffffffffffffff821682036100fc57565b5f80fd5b359073ffffffffffffffffffffffffffffffffffffffff821682036100fc57565b9181601f840112156100fc5782359167ffffffffffffffff83116100fc57602083818601950101116100fc57565b346100fc5760807ffffffffffffffffffffffffffffffffffffffffffffffffffffffffffffffffc3601126100fc5760043567ffffffffffffffff81116100fc5760607ffffffffffffffffffffffffffffffffffffffffffffffffffffffffffffffffc82360301126100fc576024356044359173ffffffffffffffffffffffffffffffffffffffff831683036100fc576064359267ffffffffffffffff84116100fc5761020461020f943690600401610121565b939092600401610be6565b005b346100fc5760807ffffffffffffffffffffffffffffffffffffffffffffffffffffffffffffffffc3601126100fc576004355f908152602081815260408083206024358452825280832060443584528252808320606435845282529182902054915160ff9092161515825290f35b5f9103126100fc57565b346100fc575f7ffffffffffffffffffffffffffffffffffffffffffffffffffffffffffffffffc3601126100fc576102bf61126e565b5f73ffffffffffffffffffffffffffffffffffffffff6001547fffffffffffffffffffffffff00000000000000000000000000000000000000008116600155167f8be0079c531659141344cd1fd0a4f28419497f9722a3daafe3b4186f6b6457e08280a3005b346100fc5760407ffffffffffffffffffffffffffffffffffffffffffffffffffffffffffffffffc3601126100fc5761035c6100d9565b6024359067ffffffffffffffff82116100fc57366023830112156100fc5781600401359067ffffffffffffffff82116100fc573660248360051b850101116100fc57602461020f930190610f35565b346100fc575f7ffffffffffffffffffffffffffffffffffffffffffffffffffffffffffffffffc3601126100fc57602073ffffffffffffffffffffffffffffffffffffffff60015416604051908152f35b346100fc5760407ffffffffffffffffffffffffffffffffffffffffffffffffffffffffffffffffc3601126100fc5760043560243561043961126e565b81156104f75780156104f757610457825f52600260205260405f2090565b546104cf5761046e815f52600360205260405f2090565b546104cf5781816104a87f1c1b83fdae50654df68bf48a41b76abc6e6ea28dc49b1b397a7904f27102711a945f52600260205260405f2090565b55806104bc835f52600360205260405f2090565b55604080519182526020820192909252a1005b7fa741a045000000000000000000000000000000000000000000000000000000005f5260045ffd5b7f7c946ed7000000000000000000000000000000000000000000000000000000005f5260045ffd5b346100fc5760207ffffffffffffffffffffffffffffffffffffffffffffffffffffffffffffffffc3601126100fc576004355f526002602052602060405f2054604051908152f35b346100fc5760207ffffffffffffffffffffffffffffffffffffffffffffffffffffffffffffffffc3601126100fc576004355f526003602052602060405f2054604051908152f35b346100fc5760207ffffffffffffffffffffffffffffffffffffffffffffffffffffffffffffffffc3601126100fc5760043567ffffffffffffffff81116100fc576105fe903690600401610121565b806106098160071c90565b60071b036106a05781016001915b81811061064e57821561062657005b7fa506d334000000000000000000000000000000000000000000000000000000005f5260045ffd5b90916106986106918335936106846020820135610684604084013591610684608060608701359601995f525f60205260405f2090565b905f5260205260405f2090565b5460ff1690565b169190610617565b7fa3ecc749000000000000000000000000000000000000000000000000000000005f52600452608060245260445ffd5b346100fc575f7ffffffffffffffffffffffffffffffffffffffffffffffffffffffffffffffffc3601126100fc57602060405173ffffffffffffffffffffffffffffffffffffffff7f0000000000000000000000000000000000000000000000000000000000000000168152f35b346100fc5760207ffffffffffffffffffffffffffffffffffffffffffffffffffffffffffffffffc3601126100fc5773ffffffffffffffffffffffffffffffffffffffff61078a6100d9565b61079261126e565b1680156108005773ffffffffffffffffffffffffffffffffffffffff600154827fffffffffffffffffffffffff0000000000000000000000000000000000000000821617600155167f8be0079c531659141344cd1fd0a4f28419497f9722a3daafe3b4186f6b6457e05f80a3005b7f1e4fbdf7000000000000000000000000000000000000000000000000000000005f525f60045260245ffd5b346100fc575f7ffffffffffffffffffffffffffffffffffffffffffffffffffffffffffffffffc3601126100fc57602060405173ffffffffffffffffffffffffffffffffffffffff7f0000000000000000000000000000000000000000000000000000000000000000168152f35b7f4e487b71000000000000000000000000000000000000000000000000000000005f52604160045260245ffd5b90601f7fffffffffffffffffffffffffffffffffffffffffffffffffffffffffffffffe0910116810190811067ffffffffffffffff82111761090857604052565b61089a565b91908260409103126100fc576020825192015190565b90357fffffffffffffffffffffffffffffffffffffffffffffffffffffffffffffffe1823603018112156100fc57016020813591019167ffffffffffffffff82116100fc578160051b360383136100fc57565b601f82602094937fffffffffffffffffffffffffffffffffffffffffffffffffffffffffffffffe093818652868601375f8582860101520116010190565b90357fffffffffffffffffffffffffffffffffffffffffffffffffffffffffffffffe1823603018112156100fc57016020813591019167ffffffffffffffff82116100fc5781360383136100fc57565b90602083828152019260208260051b82010193835f925b848410610a2b5750505050505090565b909192939495602080610a71837fffffffffffffffffffffffffffffffffffffffffffffffffffffffffffffffe08660019603018852610a6b8b886109b4565b90610976565b9801940194019294939190610a1b565b90939291936060825260c08201610a988280610923565b6060858101529182905260e08401915f5b818110610b605750505091610b3c82610b0c610b02610b5e9796610ad260206040980185610923565b907fffffffffffffffffffffffffffffffffffffffffffffffffffffffffffffffa0888403016080890152610a04565b91858101906109b4565b907fffffffffffffffffffffffffffffffffffffffffffffffffffffffffffffffa08584030160a0860152610976565b956020820152019073ffffffffffffffffffffffffffffffffffffffff169052565b565b90919260208060019273ffffffffffffffffffffffffffffffffffffffff610b8788610100565b168152019401929101610aa9565b6040513d5f823e3d90fd5b7f4e487b71000000000000000000000000000000000000000000000000000000005f52603260045260245ffd5b8051821015610be15760209160051b010190565b610ba0565b93610bf29192936111a3565b93836040610c26610c0a886020815160051b91012090565b73ffffffffffffffffffffffffffffffffffffffff8616611232565b610c38865f52600360205260405f2090565b5493610c70835194859384937fb040209f00000000000000000000000000000000000000000000000000000000855260048501610a81565b038173ffffffffffffffffffffffffffffffffffffffff7f0000000000000000000000000000000000000000000000000000000000000000165afa908115610dd9575f91610da9575b5003610d81578351935f5b858110610cd357505050505050565b807f0181a12666b7d0fe18268f2539395fe14c843ad334ea7210434eae4881d9de6b610d78610684610d52610d27896106848a6106848e610d1660019c8e610bcd565b519788955f525f60205260405f2090565b60017fffffffffffffffffffffffffffffffffffffffffffffffffffffffffffffff00825416179055565b604051918291888b8b859094939260609260808301968352602083015260408201520152565b0390a101610cc4565b7fa46fbc06000000000000000000000000000000000000000000000000000000005f5260045ffd5b610dcb915060403d604011610dd2575b610dc381836108c7565b81019061090d565b505f610cb9565b503d610db9565b610b95565b908160209103126100fc575180151581036100fc5790565b916020610e07938181520191610a04565b90565b67ffffffffffffffff81116109085760051b60200190565b90610e2c82610e0a565b610e3960405191826108c7565b8281527fffffffffffffffffffffffffffffffffffffffffffffffffffffffffffffffe0610e678294610e0a565b0190602036910137565b9190811015610be15760051b810135907fffffffffffffffffffffffffffffffffffffffffffffffffffffffffffffffe1813603018212156100fc57019081359167ffffffffffffffff83116100fc5760200182360381136100fc579190565b92919267ffffffffffffffff82116109085760405191610f1960207fffffffffffffffffffffffffffffffffffffffffffffffffffffffffffffffe0601f84011601846108c7565b8294818452818301116100fc578281602093845f960137010152565b919061ffff82116110f8576040517ea2d1bd00000000000000000000000000000000000000000000000000000000815260208180610f77868660048401610df6565b038173ffffffffffffffffffffffffffffffffffffffff88165afa908115610dd9575f916110c9575b50156110a157610faf82610e22565b915f5b8181106110715750505090610fd1610fd7926020815160051b91012090565b90611232565b73ffffffffffffffffffffffffffffffffffffffff7f000000000000000000000000000000000000000000000000000000000000000016803b156100fc576040517f08940b0a00000000000000000000000000000000000000000000000000000000815260048101929092525f908290602490829084905af18015610dd95761105d5750565b8061106b5f610b5e936108c7565b8061027f565b806110896110826001938587610e71565b3691610ed1565b6020815191012061109a8287610bcd565b5201610fb2565b7f0ef392ae000000000000000000000000000000000000000000000000000000005f5260045ffd5b6110eb915060203d6020116110f1575b6110e381836108c7565b810190610dde565b5f610fa0565b503d6110d9565b7f75b8cf75000000000000000000000000000000000000000000000000000000005f52600482905260245ffd5b909392938483116100fc5784116100fc578101920390565b919091357fffff00000000000000000000000000000000000000000000000000000000000081169260028110611171575050565b7fffff000000000000000000000000000000000000000000000000000000000000929350829060020360031b1b161690565b91823592826022116100fc57602081013560f01c906111c182610e22565b935f60225b8482106111d4575050505050565b829161121861108260028461120d6112066112006111fa8c858760019c019d8e92611125565b9061113d565b60f01c90565b61ffff1690565b010180968689611125565b60208151910120611229828a610bcd565b520190916111c6565b906040519073ffffffffffffffffffffffffffffffffffffffff60208301931683526040820152604081526112686060826108c7565b51902090565b73ffffffffffffffffffffffffffffffffffffffff60015416330361128f57565b7f118cdaa7000000000000000000000000000000000000000000000000000000005f523360045260245ffdfea2646970667358221220752e526c5afcb333a4538b544ca0ab877f2b943c6f25359d4ac7ae2b660e71b564736f6c634300081e0033","linkReferences":{}},"methodIdentifiers":{"broadcaster()":"b2bac942","chainIdMap(uint256)":"9509e264","efficientRequireProven(bytes)":"ae0dd770","isProven(uint256,bytes32,bytes32,bytes32)":"3ff04aff","owner()":"8da5cb5b","receiver()":"f7260d3e","renounceOwnership()":"715018a6","reverseChainIdMap(uint256)":"9afd77a6","setChainMap(uint256,uint256)":"94020bb4","submit(address,bytes[])":"87d64b92","transferOwnership(address)":"f2fde38b","verifyMessage((address[],bytes[],bytes),uint256,address,bytes)":"3ab842e2"},"id":133}