{"abi":[{"type":"function","name":"VARIANT","inputs":[],"outputs":[{"name":"","type":"uint16","internalType":"uint16"}],"stateMutability":"view"}],"bytecode":{"object":"0x60808060405234601757608e9081601c823930815050f35b5f80fdfe60808060405260043610156011575f80fd5b5f3560e01c6326418953146023575f80fd5b5f7ffffffffffffffffffffffffffffffffffffffffffffffffffffffffffffffffc36011260545780600160209252f35b5f80fdfea2646970667358221220e41189a5f3c5165e7c8ca62cd335b024f3460faae87f21dda791317800d66fe864736f6c634300081e0033","linkReferences":{}},"methodIdentifiers":{"VARIANT()":"26418953"},"id":140}