{"abi":[{"type":"constructor","inputs":[{"name":"_prism","type":"address","internalType":"contract IBtcPrism"}],"stateMutability":"nonpayable"},{"type":"function","name":"prism","inputs":[],"outputs":[{"name":"","type":"address","internalType":"contract IBtcPrism"}],"stateMutability":"view"},{"type":"function","name":"verifyOrdinal","inputs":[{"name":"minConfirmations","type":"uint256","internalType":"uint256"},{"name":"blockNum","type":"uint256","internalType":"uint256"},{"name":"inclusionProof","type":"tuple","internalType":"struct BtcTxProof","components":[{"name":"blockHeader","type":"bytes","internalType":"bytes"},{"name":"txId","type":"bytes32","internalType":"bytes32"},{"name":"txIndex","type":"uint256","internalType":"uint256"},{"name":"txMerkleProof","type":"bytes","internalType":"bytes"},{"name":"rawTx","type":"bytes","internalType":"bytes"}]},{"name":"txInId","type":"uint256","internalType":"uint256"},{"name":"txInPrevTxIndex","type":"uint32","internalType":"uint32"},{"name":"outputScript","type":"bytes","internalType":"bytes"},{"name":"amountSats","type":"uint256","internalType":"uint256"}],"outputs":[{"name":"","type":"bool","internalType":"bool"}],"stateMutability":"view"},{"type":"function","name":"verifyPayment","inputs":[{"name":"minConfirmations","type":"uint256","internalType":"uint256"},{"name":"blockNum","type":"uint256","internalType":"uint256"},{"name":"inclusionProof","type":"tuple","internalType":"struct BtcTxProof","components":[{"name":"blockHeader","type":"bytes","internalType":"bytes"},{"name":"txId","type":"bytes32","internalType":"bytes32"},{"name":"txIndex","type":"uint256","internalType":"uint256"},{"name":"txMerkleProof","type":"bytes","internalType":"bytes"},{"name":"rawTx","type":"bytes","internalType":"bytes"}]},{"name":"txOutIx","type":"uint256","internalType":"uint256"},{"name":"outputScript","type":"bytes","internalType":"bytes"}],"outputs":[{"name":"sats","type":"uint256","internalType":"uint256"}],"stateMutability":"view"},{"type":"error","name":"AmountMismatch","inputs":[{"name":"txoSats","type":"uint256","internalType":"uint256"},{"name":"expected","type":"uint256","internalType":"uint256"}]},{"type":"error","name":"BlockHashMismatch","inputs":[{"name":"blockHeader","type":"bytes32","internalType":"bytes32"},{"name":"givenBlockHash","type":"bytes32","internalType":"bytes32"}]},{"type":"error","name":"InvalidFormat","inputs":[]},{"type":"error","name":"InvalidMerkleNodePair","inputs":[{"name":"","type":"uint256","internalType":"uint256"},{"name":"","type":"bytes32","internalType":"bytes32"},{"name":"","type":"bytes32","internalType":"bytes32"}]},{"type":"error","name":"InvalidProof","inputs":[]},{"type":"error","name":"InvalidTxInHash","inputs":[{"name":"expected","type":"uint256","internalType":"uint256"},{"name":"actual","type":"uint256","internalType":"uint256"}]},{"type":"error","name":"InvalidTxInIndex","inputs":[{"name":"expected","type":"uint32","internalType":"uint32"},{"name":"actual","type":"uint32","internalType":"uint32"}]},{"type":"error","name":"NoBlock","inputs":[{"name":"currentHeight","type":"uint256","internalType":"uint256"},{"name":"proposedHeight","type":"uint256","internalType":"uint256"}]},{"type":"error","name":"ScriptMismatch","inputs":[{"name":"expected","type":"bytes","internalType":"bytes"},{"name":"actual","type":"bytes","internalType":"bytes"}]},{"type":"error","name":"TooFewConfirmations","inputs":[{"name":"current","type":"uint256","internalType":"uint256"},{"name":"wanted","type":"uint256","internalType":"uint256"}]},{"type":"error","name":"TxIDMismatch","inputs":[{"name":"rawTxId","type":"bytes32","internalType":"bytes32"},{"name":"txProofId","type":"bytes32","internalType":"bytes32"}]},{"type":"error","name":"TxIndexNot0","inputs":[{"name":"index","type":"uint256","internalType":"uint256"}]},{"type":"error","name":"TxMerkleRootMismatch","inputs":[{"name":"blockTxRoot","type":"bytes32","internalType":"bytes32"},{"name":"txRoot","type":"bytes32","internalType":"bytes32"}]}],"bytecode":{"object":"0x60a034607357601f611d3938819003918201601f19168301916001600160401b03831184841017607757808492602094604052833981010312607357516001600160a01b0381168103607357608052604051611cad908161008c823960805181818160ea015281816103c4015261066f0152f35b5f80fd5b634e487b7160e01b5f52604160045260245ffdfe6080806040526004361015610012575f80fd5b5f3560e01c908163667ab242146106275750806367fb45a4146102ff5763dc7a78be1461003d575f80fd5b346102585760a07ffffffffffffffffffffffffffffffffffffffffffffffffffffffffffffffffc3601126102585760443560243560043567ffffffffffffffff83116102585760a07ffffffffffffffffffffffffffffffffffffffffffffffffffffffffffffffffc84360301126102585760843567ffffffffffffffff8111610258576100d0903690600401610693565b93909273ffffffffffffffffffffffffffffffffffffffff7f000000000000000000000000000000000000000000000000000000000000000016926040517fe875aa5d000000000000000000000000000000000000000000000000000000008152602081600481885afa908115610264575f916102cd575b5082811061029d5782600191030181811061026f5750506020906024604051809581937fee82ac5e00000000000000000000000000000000000000000000000000000000835260048301525afa918215610264575f9261022b575b5060606101ba6101c19360643593600401906109a4565b01516107dc565b519067ffffffffffffffff6020830151925116916101e081858461088f565b156101f057602083604051908152f35b6040517f8f91b6b700000000000000000000000000000000000000000000000000000000815293849350610227926004850161072f565b0390fd5b91506020823d60201161025c575b81610246602093836106c1565b810103126102585790519060606101a3565b5f80fd5b3d9150610239565b6040513d5f823e3d90fd5b7f45deeae7000000000000000000000000000000000000000000000000000000005f5260045260245260445ffd5b90507fa64162df000000000000000000000000000000000000000000000000000000005f5260045260245260445ffd5b90506020813d6020116102f7575b816102e8602093836106c1565b8101031261025857515f610148565b3d91506102db565b346102585760e07ffffffffffffffffffffffffffffffffffffffffffffffffffffffffffffffffc3601126102585760243560443560043567ffffffffffffffff82116102585760a07ffffffffffffffffffffffffffffffffffffffffffffffffffffffffffffffffc83360301126102585760643560843563ffffffff81168091036102585760a43567ffffffffffffffff8111610258576103a6903690600401610693565b93909460c4359673ffffffffffffffffffffffffffffffffffffffff7f000000000000000000000000000000000000000000000000000000000000000016926040517fe875aa5d000000000000000000000000000000000000000000000000000000008152602081600481885afa908115610264575f916105f5575b5082811061029d5782600191030181811061026f5750506020906024604051809581937fee82ac5e00000000000000000000000000000000000000000000000000000000835260048301525afa908115610264575f916105bf575b61048b9250600401906109a4565b9161049960408401516107a2565b51908151908181036105915750506020015163ffffffff169081810361056357505060606104c89101516107a2565b5191602083016104da8151848461088f565b1561052c578467ffffffffffffffff8551168181106104fe57602060405160018152f35b7fce6b173b000000000000000000000000000000000000000000000000000000005f5260045260245260445ffd5b61022790516040519384937f8f91b6b70000000000000000000000000000000000000000000000000000000085526004850161072f565b7f3b458731000000000000000000000000000000000000000000000000000000005f5260045260245260445ffd5b7f7a7de20a000000000000000000000000000000000000000000000000000000005f5260045260245260445ffd5b90506020823d6020116105ed575b816105da602093836106c1565b810103126102585761048b91519061047d565b3d91506105cd565b90506020813d60201161061f575b81610610602093836106c1565b8101031261025857518a610422565b3d9150610603565b34610258575f7ffffffffffffffffffffffffffffffffffffffffffffffffffffffffffffffffc3601126102585760209073ffffffffffffffffffffffffffffffffffffffff7f0000000000000000000000000000000000000000000000000000000000000000168152f35b9181601f840112156102585782359167ffffffffffffffff8311610258576020838186019501011161025857565b90601f7fffffffffffffffffffffffffffffffffffffffffffffffffffffffffffffffe0910116810190811067ffffffffffffffff82111761070257604052565b7f4e487b71000000000000000000000000000000000000000000000000000000005f52604160045260245ffd5b90601f602080957fffffffffffffffffffffffffffffffffffffffffffffffffffffffffffffffe08387606098839760408a528160408b01528a8a01375f89828a01015201168501948287828803019101528051918291828888015201608086015e5f8686838701010152011601010190565b8051156107af5760200190565b7f4e487b71000000000000000000000000000000000000000000000000000000005f52603260045260245ffd5b80518210156107af5760209160051b010190565b92919267ffffffffffffffff8211610702576040519161083860207fffffffffffffffffffffffffffffffffffffffffffffffffffffffffffffffe0601f84011601846106c1565b829481845281830111610258578281602093845f960137010152565b359060208110610862575090565b7fffffffffffffffffffffffffffffffffffffffffffffffffffffffffffffffff9060200360031b1b1690565b60208211158061090b575b156108ed57906108a991610854565b906020815191015190602081106108bf57501490565b7fffffffffffffffffffffffffffffffffffffffffffffffffffffffffffffffff9060200360031b1b161490565b6108f89136916107f0565b6020815191012090602081519101201490565b5060208351111561089a565b6040519060a0820182811067ffffffffffffffff821117610702576040525f608083828152826020820152606060408201526060808201520152565b9035907fffffffffffffffffffffffffffffffffffffffffffffffffffffffffffffffe181360301821215610258570180359067ffffffffffffffff82116102585760200191813603831361025857565b91906109ae610917565b506109b98180610953565b60508195929503610258575f6020916040518181928983378101838152039060025afa156102645760205f816109ef82516110f5565b604051918183925191829101835e8101838152039060025afa1561026457610b435f517eff00ff00ff00ff00ff00ff00ff00ff00ff00ff00ff00ff00ff00ff00ff00ff7fff00ff00ff00ff00ff00ff00ff00ff00ff00ff00ff00ff00ff00ff00ff00ff008260081b169160081c16177dffff0000ffff0000ffff0000ffff0000ffff0000ffff0000ffff0000ffff7fffff0000ffff0000ffff0000ffff0000ffff0000ffff0000ffff0000ffff00008260101b169160101c16177bffffffff00000000ffffffff00000000ffffffff00000000ffffffff7fffffffff00000000ffffffff00000000ffffffff00000000ffffffff000000008260201b169160201c161777ffffffffffffffff0000000000000000ffffffffffffffff7fffffffffffffffff0000000000000000ffffffffffffffff00000000000000008260401b169160401c16178060801b9060801c1790565b8181036110c7575050602081013592610b5f6060830183610953565b9190604084013590610c9c877eff00ff00ff00ff00ff00ff00ff00ff00ff00ff00ff00ff00ff00ff00ff00ff7fff00ff00ff00ff00ff00ff00ff00ff00ff00ff00ff00ff00ff00ff00ff00ff008260081b169160081c16177dffff0000ffff0000ffff0000ffff0000ffff0000ffff0000ffff0000ffff7fffff0000ffff0000ffff0000ffff0000ffff0000ffff0000ffff0000ffff00008260101b169160101c16177bffffffff00000000ffffffff00000000ffffffff00000000ffffffff7fffffffff00000000ffffffff00000000ffffffff00000000ffffffff000000008260201b169160201c161777ffffffffffffffff0000000000000000ffffffffffffffff7fffffffffffffffff0000000000000000ffffffffffffffff00000000000000008260401b169160401c16178060801b9060801c1790565b9360051c5f915b818310610ee45750505080610eb9575060240135818103610e8b575050806080610cce920190610953565b90610e16610ce5610ce03685856107f0565b611a1c565b7eff00ff00ff00ff00ff00ff00ff00ff00ff00ff00ff00ff00ff00ff00ff00ff7fff00ff00ff00ff00ff00ff00ff00ff00ff00ff00ff00ff00ff00ff00ff00ff008260081b169160081c16177dffff0000ffff0000ffff0000ffff0000ffff0000ffff0000ffff0000ffff7fffff0000ffff0000ffff0000ffff0000ffff0000ffff0000ffff0000ffff00008260101b169160101c16177bffffffff00000000ffffffff00000000ffffffff00000000ffffffff7fffffffff00000000ffffffff00000000ffffffff00000000ffffffff000000008260201b169160201c161777ffffffffffffffff0000000000000000ffffffffffffffff7fffffffffffffffff0000000000000000ffffffffffffffff00000000000000008260401b169160401c16178060801b9060801c1790565b848103610e5b5750610e29929350611205565b805115610e335790565b7f257aa23b000000000000000000000000000000000000000000000000000000005f5260045ffd5b84907ffb01c32b000000000000000000000000000000000000000000000000000000005f5260045260245260445ffd5b7f7de3e64e000000000000000000000000000000000000000000000000000000005f5260045260245260445ffd5b7f3826ba3f000000000000000000000000000000000000000000000000000000005f5260045260245ffd5b909192946110238460051b8301357eff00ff00ff00ff00ff00ff00ff00ff00ff00ff00ff00ff00ff00ff00ff00ff7fff00ff00ff00ff00ff00ff00ff00ff00ff00ff00ff00ff00ff00ff00ff00ff008260081b169160081c16177dffff0000ffff0000ffff0000ffff0000ffff0000ffff0000ffff0000ffff7fffff0000ffff0000ffff0000ffff0000ffff0000ffff0000ffff0000ffff00008260101b169160101c16177bffffffff00000000ffffffff00000000ffffffff00000000ffffffff7fffffffff00000000ffffffff00000000ffffffff00000000ffffffff000000008260201b169160201c161777ffffffffffffffff0000000000000000ffffffffffffffff7fffffffffffffffff0000000000000000ffffffffffffffff00000000000000008260401b169160401c16178060801b9060801c1790565b600187166110a357604051826020820152816040820152604081526110496060826106c1565b915b611054836117dd565b611071575050611065600191611a1c565b95811c93019190610ca3565b877fa0c996e8000000000000000000000000000000000000000000000000000000005f5260045260245260445260645ffd5b604051816020820152826040820152604081526110c16060826106c1565b9161104b565b7fa8722cd6000000000000000000000000000000000000000000000000000000005f5260045260245260445ffd5b906040519160208301526020825261110e6040836106c1565b565b90939293848311610258578411610258578101920390565b919091357fffffffff000000000000000000000000000000000000000000000000000000008116926004811061115c575050565b7fffffffff00000000000000000000000000000000000000000000000000000000929350829060040360031b1b161690565b67ffffffffffffffff81116107025760051b60200190565b604051906080820182811067ffffffffffffffff82111761070257604052606080835f81525f60208201525f60408201520152565b604051906040820182811067ffffffffffffffff8211176107025760405260606020835f81520152565b9061120e610917565b91816004116102585763ffffffff813560e881901c62ff00ff1660d89190911c63ff00ff001617601081811c831691901b8216171680602085015260018110908115611787575b506117825781906112668282611a70565b906112708161118e565b61127d60405191826106c1565b8181527fffffffffffffffffffffffffffffffffffffffffffffffffffffffffffffffe06112aa8361118e565b015f5b81811061175e575050604087019081525f5b828110611504575050506112d4908383611b73565b906112de8161118e565b6112eb60405191826106c1565b8181527fffffffffffffffffffffffffffffffffffffffffffffffffffffffffffffffe06113188361118e565b015f5b8181106114e0575050606087019081525f5b8281106113995750505061135961135363ffffffff938360046113849501968792611110565b90611128565b60e01c62ff00ff63ff00ff008260081b169160081c161763ffffffff808260101b169160101c161790565b16608084015203611396576001815290565b90565b61149e816001939495611486611472899a67ffffffffffffffff6114686113d261147f9d6113c56111db565b9760088101958692611110565b90357fffffffffffffffff000000000000000000000000000000000000000000000000811691600881106114ab575b505060c01c65ffffffffffff8160081c9160081b9166ff000000ff000067ff000000ff00000067ffffffffffff000065ff000000ff00861664ff000000ff85161760101b16941691161760101c161767ffffffffffffffff808260201b169160201c161790565b1684528c8c611b73565b99908a01809a8d8d611110565b36916107f0565b602082015285519061149883836107dc565b526107dc565b500190859493929161132d565b7fffffffffffffffff0000000000000000000000000000000000000000000000009250829060080360031b1b16165f80611401565b6020919293949596506114f16111db565b828286010152019086959493929161131b565b9091929394506115126111a6565b93602081019061152482828a8a611110565b61152d91610854565b611662907eff00ff00ff00ff00ff00ff00ff00ff00ff00ff00ff00ff00ff00ff00ff00ff7fff00ff00ff00ff00ff00ff00ff00ff00ff00ff00ff00ff00ff00ff00ff00ff008260081b169160081c16177dffff0000ffff0000ffff0000ffff0000ffff0000ffff0000ffff0000ffff7fffff0000ffff0000ffff0000ffff0000ffff0000ffff0000ffff0000ffff00008260101b169160101c16177bffffffff00000000ffffffff00000000ffffffff00000000ffffffff7fffffffff00000000ffffffff00000000ffffffff00000000ffffffff000000008260201b169160201c161777ffffffffffffffff0000000000000000ffffffffffffffff7fffffffffffffffff0000000000000000ffffffffffffffff00000000000000008260401b169160401c16178060801b9060801c1790565b86526024019081611674918989611110565b61167d91611128565b60e01c6116ac9062ff00ff63ff00ff008260081b169160081c161763ffffffff808260101b169160101c161790565b63ffffffff1660208601526116c2908787611b73565b9490850194856116d3918989611110565b36906116de926107f0565b60608201526004850194856116f4918989611110565b6116fd91611128565b60e01c61172c9062ff00ff63ff00ff008260081b169160081c161763ffffffff808260101b169160101c161790565b63ffffffff1660408201528183519161174582846107dc565b5261174f916107dc565b506001019085949392916112bf565b60209192939495965061176f6111a6565b82828601015201908695949392916112ad565b505090565b60029150115f611255565b9081518110156107af570160200190565b919082018092116117b057565b7f4e487b71000000000000000000000000000000000000000000000000000000005f52601160045260245ffd5b80519060388210611a0b5781156107af57602081015160f81c60018110908115611a11575b50611a0b578051600110156107af577fff00000000000000000000000000000000000000000000000000000000000000602182015116611a0b578051600210156107af577fff00000000000000000000000000000000000000000000000000000000000000602282015116611a0b578051600310156107af577fff00000000000000000000000000000000000000000000000000000000000000602382015116611a0b578051600410156107af57602481015160f81c60059060298102818104602914821517156117b0578281018091116117b05784106119a4575f905b8082106119ac5750506118f38183611792565b5160f81c9060098202828104600914831517156117b0576119158286926117a3565b116119a457600181018091116117b05791905f915b81831061194d57505050600481018091116117b0570361194957600190565b5f90565b909192600881018091116117b0576119658183611792565b5160f81c908561197582846117a3565b1161199a57600182018092116117b057600191611991916117a3565b9301919061192a565b5050505050505f90565b505050505f90565b909160208101908181116117b0576024018091116117b0576119ce8185611792565b5160f81c856119dd83836117a3565b1161199a57600181018091116117b0576119f6916117a3565b600481018091116117b05791600101906118e0565b50505f90565b60029150115f611802565b5f60208092604051918183925191829101835e8101838152039060025afa156102645760205f81611a4d82516110f5565b604051918183925191829101835e8101838152039060025afa15610264575f5190565b90600410156107af57600481013560f81c60fd8110611b6c5760fd8114611b545760fe14611b1557611b0e600567ffffffffffffffff92013560c01c65ffffffffffff8160081c9160081b9166ff000000ff000067ff000000ff00000067ffffffffffff000065ff000000ff00861664ff000000ff85161760101b16941691161760101c161767ffffffffffffffff808260201b169160201c161790565b1690600d90565b611b4d600563ffffffff92013560e01c62ff00ff63ff00ff008260081b169160081c161763ffffffff808260101b169160101c161790565b1690600990565b506005013561ff008160f81c9160e81c161790600790565b9160059150565b909291928310156107af578201803560f81c60fd8110611c6e5760fd8114611c545760fe14611c1a5767ffffffffffffffff611c146001600993013560c01c65ffffffffffff8160081c9160081b9166ff000000ff000067ff000000ff00000067ffffffffffff000065ff000000ff00861664ff000000ff85161760101b16941691161760101c161767ffffffffffffffff808260201b169160201c161790565b16920190565b63ffffffff611c146001600593013560e01c62ff00ff63ff00ff008260081b169160081c161763ffffffff808260101b169160101c161790565b506001600391013561ff008160f81c9160e81c1617920190565b6001915092019056fea2646970667358221220560c401e78c9a04e4a255f594db0b24d736d776f64baf82322ac687acfeac64d64736f6c634300081e0033","linkReferences":{}},"methodIdentifiers":{"prism()":"667ab242","verifyOrdinal(uint256,uint256,(bytes,bytes32,uint256,bytes,bytes),uint256,uint32,bytes,uint256)":"67fb45a4","verifyPayment(uint256,uint256,(bytes,bytes32,uint256,bytes,bytes),uint256,bytes)":"dc7a78be"},"id":125}