{"abi":[{"type":"constructor","inputs":[{"name":"crossL2Prover","type":"address","internalType":"address"}],"stateMutability":"nonpayable"},{"type":"function","name":"efficientRequireProven","inputs":[{"name":"proofSeries","type":"bytes","internalType":"bytes"}],"outputs":[],"stateMutability":"view"},{"type":"function","name":"isProven","inputs":[{"name":"remoteChainId","type":"uint256","internalType":"uint256"},{"name":"remoteOracle","type":"bytes32","internalType":"bytes32"},{"name":"application","type":"bytes32","internalType":"bytes32"},{"name":"dataHash","type":"bytes32","internalType":"bytes32"}],"outputs":[{"name":"","type":"bool","internalType":"bool"}],"stateMutability":"view"},{"type":"function","name":"receiveMessage","inputs":[{"name":"proofs","type":"bytes[]","internalType":"bytes[]"}],"outputs":[],"stateMutability":"nonpayable"},{"type":"function","name":"receiveMessage","inputs":[{"name":"proof","type":"bytes","internalType":"bytes"}],"outputs":[],"stateMutability":"nonpayable"},{"type":"event","name":"OutputProven","inputs":[{"name":"chainid","type":"uint256","indexed":false,"internalType":"uint256"},{"name":"remoteIdentifier","type":"bytes32","indexed":false,"internalType":"bytes32"},{"name":"application","type":"bytes32","indexed":false,"internalType":"bytes32"},{"name":"payloadHash","type":"bytes32","indexed":false,"internalType":"bytes32"}],"anonymous":false},{"type":"error","name":"CallOutOfRange","inputs":[]},{"type":"error","name":"ContextOutOfRange","inputs":[]},{"type":"error","name":"NotDivisible","inputs":[{"name":"value","type":"uint256","internalType":"uint256"},{"name":"divisor","type":"uint256","internalType":"uint256"}]},{"type":"error","name":"NotProven","inputs":[]},{"type":"error","name":"WrongEventSignature","inputs":[]}],"bytecode":{"object":"0x608034607057601f610acc38819003918201601f19168301916001600160401b03831184841017607457808492602094604052833981010312607057516001600160a01b03811690819003607057600180546001600160a01b031916919091179055604051610a4390816100898239f35b5f80fd5b634e487b7160e01b5f52604160045260245ffdfe6080806040526004361015610012575f80fd5b5f3560e01c9081633ff04aff1461023457508063ae0dd7701461014e578063e7d67e37146100655763f953cec714610048575f80fd5b346100615761005f6100593661029d565b9061044c565b005b5f80fd5b346100615760207ffffffffffffffffffffffffffffffffffffffffffffffffffffffffffffffffc3601126100615760043567ffffffffffffffff8111610061573660238201121561006157806004013567ffffffffffffffff8111610061573660248260051b8401011161006157905f907fffffffffffffffffffffffffffffffffffffffffffffffffffffffffffffffbd81360301915b8381101561005f5760248160051b83010135838112156100615782019060248201359167ffffffffffffffff8311610061576044018236038113610061576001926101489161044c565b016100fe565b346100615761015c3661029d565b807fffffffffffffffffffffffffffffffffffffffffffffffffffffffffffffff808116036102045781016001915b8181106101c257821561019a57005b7fa506d334000000000000000000000000000000000000000000000000000000005f5260045ffd5b80355f90815260208181526040808320828501358452825280832081850135845282528083206060850135845290915290205490921660ff169160800161018b565b7fa3ecc749000000000000000000000000000000000000000000000000000000005f52600452608060245260445ffd5b346100615760807ffffffffffffffffffffffffffffffffffffffffffffffffffffffffffffffffc360112610061576020906004355f525f825260405f206024355f52825260405f206044355f52825260405f206064355f52825260ff60405f20541615158152f35b9060207ffffffffffffffffffffffffffffffffffffffffffffffffffffffffffffffffc8301126100615760043567ffffffffffffffff811161006157826023820112156100615780600401359267ffffffffffffffff84116100615760248483010111610061576024019190565b90601f7fffffffffffffffffffffffffffffffffffffffffffffffffffffffffffffffe0910116810190811067ffffffffffffffff82111761034d57604052565b7f4e487b71000000000000000000000000000000000000000000000000000000005f52604160045260245ffd5b519063ffffffff8216820361006157565b67ffffffffffffffff811161034d57601f017fffffffffffffffffffffffffffffffffffffffffffffffffffffffffffffffe01660200190565b81601f82011215610061578051906103dc8261038b565b926103ea604051948561030c565b8284526020838301011161006157815f9260208093018386015e8301015290565b60208151910151906020811061041f575090565b7fffffffffffffffffffffffffffffffffffffffffffffffffffffffffffffffff9060200360031b1b1690565b601f915f9181604473ffffffffffffffffffffffffffffffffffffffff60015416927fffffffffffffffffffffffffffffffffffffffffffffffffffffffffffffffe0604051978896879586947f0b9ca54a000000000000000000000000000000000000000000000000000000008652602060048701528160248701528686013788858286010152011681010301915afa8015610a02575f905f925f905f9261096d575b5080518060201081602018028082189114158102811890818103908111610918577ffef24569acf839f2b5cb23fd59d8a9bcc21650ff711ac1961ca3c5d4681ffe1291816105406105909361038b565b9161054e604051938461030c565b818352602061055c8361038b565b917fffffffffffffffffffffffffffffffffffffffffffffffffffffffffffffffe08286019301368437870101905e61040b565b0361094557805180604010816040180218806020108160201802811890818103908111610918576106139260206105c68361038b565b936105d4604051958661030c565b8385526105e08461038b565b927fffffffffffffffffffffffffffffffffffffffffffffffffffffffffffffffe083870194013685370101905e61040b565b90805181019160208301926080838203126100615760208301519361063a6040850161037a565b93606081015167ffffffffffffffff811161006157019161010090839003126100615760405190610100820182811067ffffffffffffffff82111761034d576040526020830151825260408301516020830152606083015160408301526080830151916060810192835260a0840151926080820193845260c08501519160a0810192835260e086015167ffffffffffffffff8111610061578460206106e1928901016103c5565b9360c082019485526101008701519067ffffffffffffffff821161006157602061070f9260e09901016103c5565b9586910152519251905191519161ffff8351116108f05761ffff8551116108c85782519185519460405198899860208a019b8c5260408a015260e01b7fffffffff000000000000000000000000000000000000000000000000000000001660608901526064880152608487015260a486015260f01b7fffff0000000000000000000000000000000000000000000000000000000000001660c48501528051602081920160c686015e83019060f01b7fffff0000000000000000000000000000000000000000000000000000000000001660c68201528151602081930160c883015e0160c601600281015f9052036002017fffffffffffffffffffffffffffffffffffffffffffffffffffffffffffffffe08101825261082e908261030c565b5190209063ffffffff1691825f525f60205260405f20305f5260205260405f20815f5260205260405f20825f5260205260405f2080547fffffffffffffffffffffffffffffffffffffffffffffffffffffffffffffff001660011790556040519283523060208401526040830152606082015260807f0181a12666b7d0fe18268f2539395fe14c843ad334ea7210434eae4881d9de6b91a1565b7fd94d6ce6000000000000000000000000000000000000000000000000000000005f5260045ffd5b7f4fe9ad23000000000000000000000000000000000000000000000000000000005f5260045ffd5b7f4e487b71000000000000000000000000000000000000000000000000000000005f52601160045260245ffd5b7f49b4a8ba000000000000000000000000000000000000000000000000000000005f5260045ffd5b93505050503d805f833e610981818361030c565b810190608081830312610061576109978161037a565b60208201519173ffffffffffffffffffffffffffffffffffffffff8316830361006157604081015167ffffffffffffffff811161006157846109da9183016103c5565b93606082015167ffffffffffffffff8111610061576109f992016103c5565b9091925f6104f0565b6040513d5f823e3d90fdfea2646970667358221220af7a61903a95298c8f7f4377e70eaa623175603bfbd1a93c703471de6ecba77664736f6c634300081e0033","linkReferences":{}},"methodIdentifiers":{"efficientRequireProven(bytes)":"ae0dd770","isProven(uint256,bytes32,bytes32,bytes32)":"3ff04aff","receiveMessage(bytes)":"f953cec7","receiveMessage(bytes[])":"e7d67e37"},"id":141}