{"abi":[{"type":"constructor","inputs":[],"stateMutability":"nonpayable"},{"type":"function","name":"__activateTstore","inputs":[],"outputs":[],"stateMutability":"nonpayable"},{"type":"error","name":"TStoreAlreadyActivated","inputs":[]},{"type":"error","name":"TStoreNotSupported","inputs":[]},{"type":"error","name":"TloadTestContractDeploymentFailed","inputs":[]}],"bytecode":{"object":"0x60c060405234606157696002601e613d5c3d52f35f52600a60165ff08060601b156052575f80808084600a5a04fa60a0526080526040516101019081610066823960805181607d015260a0518160540152f35b632aea588760e01b5f5260045ffd5b5f80fdfe608060405260043610156010575f80fd5b5f3560e01c637423eb3c146022575f80fd5b3460c7575f7ffffffffffffffffffffffffffffffffffffffffffffffffffffffffffffffffc36011260c7575f5415157f00000000000000000000000000000000000000000000000000000000000000001760ba575f8080807f0000000000000000000000000000000000000000000000000000000000000000600a5a04fa1560ad57436001015f55005b6370a4078f5f526004601cfd5b63f45b98b05f526004601cfd5b5f80fdfea2646970667358221220d953c719b67858c6010cb20ffb7155bfe7d1e333f2600e98a23ee00bbc875fa364736f6c634300081e0033","linkReferences":{}},"methodIdentifiers":{"__activateTstore()":"7423eb3c"},"id":96}