{"abi":[{"type":"constructor","inputs":[{"name":"name_","type":"string","internalType":"string"},{"name":"symbol_","type":"string","internalType":"string"},{"name":"decimals_","type":"uint8","internalType":"uint8"}],"stateMutability":"nonpayable"},{"type":"function","name":"DOMAIN_SEPARATOR","inputs":[],"outputs":[{"name":"","type":"bytes32","internalType":"bytes32"}],"stateMutability":"view"},{"type":"function","name":"RECEIVE_WITH_AUTHORIZATION_TYPEHASH","inputs":[],"outputs":[{"name":"","type":"bytes32","internalType":"bytes32"}],"stateMutability":"view"},{"type":"function","name":"TRANSFER_WITH_AUTHORIZATION_TYPEHASH","inputs":[],"outputs":[{"name":"","type":"bytes32","internalType":"bytes32"}],"stateMutability":"view"},{"type":"function","name":"allowance","inputs":[{"name":"owner","type":"address","internalType":"address"},{"name":"spender","type":"address","internalType":"address"}],"outputs":[{"name":"","type":"uint256","internalType":"uint256"}],"stateMutability":"view"},{"type":"function","name":"approve","inputs":[{"name":"spender","type":"address","internalType":"address"},{"name":"value","type":"uint256","internalType":"uint256"}],"outputs":[{"name":"","type":"bool","internalType":"bool"}],"stateMutability":"nonpayable"},{"type":"function","name":"authorizationState","inputs":[{"name":"authorizer","type":"address","internalType":"address"},{"name":"nonce","type":"bytes32","internalType":"bytes32"}],"outputs":[{"name":"","type":"bool","internalType":"bool"}],"stateMutability":"view"},{"type":"function","name":"balanceOf","inputs":[{"name":"account","type":"address","internalType":"address"}],"outputs":[{"name":"","type":"uint256","internalType":"uint256"}],"stateMutability":"view"},{"type":"function","name":"burn","inputs":[{"name":"from","type":"address","internalType":"address"},{"name":"value","type":"uint256","internalType":"uint256"}],"outputs":[],"stateMutability":"nonpayable"},{"type":"function","name":"decimals","inputs":[],"outputs":[{"name":"","type":"uint8","internalType":"uint8"}],"stateMutability":"view"},{"type":"function","name":"directSpendAllowance","inputs":[{"name":"owner","type":"address","internalType":"address"},{"name":"spender","type":"address","internalType":"address"},{"name":"amount","type":"uint256","internalType":"uint256"}],"outputs":[],"stateMutability":"nonpayable"},{"type":"function","name":"directTransfer","inputs":[{"name":"from","type":"address","internalType":"address"},{"name":"to","type":"address","internalType":"address"},{"name":"amount","type":"uint256","internalType":"uint256"}],"outputs":[],"stateMutability":"nonpayable"},{"type":"function","name":"eip712Domain","inputs":[],"outputs":[{"name":"fields","type":"bytes1","internalType":"bytes1"},{"name":"name","type":"string","internalType":"string"},{"name":"version","type":"string","internalType":"string"},{"name":"chainId","type":"uint256","internalType":"uint256"},{"name":"verifyingContract","type":"address","internalType":"address"},{"name":"salt","type":"bytes32","internalType":"bytes32"},{"name":"extensions","type":"uint256[]","internalType":"uint256[]"}],"stateMutability":"view"},{"type":"function","name":"mint","inputs":[{"name":"to","type":"address","internalType":"address"},{"name":"value","type":"uint256","internalType":"uint256"}],"outputs":[],"stateMutability":"nonpayable"},{"type":"function","name":"name","inputs":[],"outputs":[{"name":"","type":"string","internalType":"string"}],"stateMutability":"view"},{"type":"function","name":"receiveWithAuthorization","inputs":[{"name":"from","type":"address","internalType":"address"},{"name":"to","type":"address","internalType":"address"},{"name":"value","type":"uint256","internalType":"uint256"},{"name":"validAfter","type":"uint256","internalType":"uint256"},{"name":"validBefore","type":"uint256","internalType":"uint256"},{"name":"nonce","type":"bytes32","internalType":"bytes32"},{"name":"signature","type":"bytes","internalType":"bytes"}],"outputs":[],"stateMutability":"nonpayable"},{"type":"function","name":"symbol","inputs":[],"outputs":[{"name":"","type":"string","internalType":"string"}],"stateMutability":"view"},{"type":"function","name":"totalSupply","inputs":[],"outputs":[{"name":"","type":"uint256","internalType":"uint256"}],"stateMutability":"view"},{"type":"function","name":"transfer","inputs":[{"name":"to","type":"address","internalType":"address"},{"name":"amount","type":"uint256","internalType":"uint256"}],"outputs":[{"name":"","type":"bool","internalType":"bool"}],"stateMutability":"nonpayable"},{"type":"function","name":"transferFrom","inputs":[{"name":"from","type":"address","internalType":"address"},{"name":"to","type":"address","internalType":"address"},{"name":"amount","type":"uint256","internalType":"uint256"}],"outputs":[{"name":"","type":"bool","internalType":"bool"}],"stateMutability":"nonpayable"},{"type":"event","name":"Approval","inputs":[{"name":"owner","type":"address","indexed":true,"internalType":"address"},{"name":"spender","type":"address","indexed":true,"internalType":"address"},{"name":"value","type":"uint256","indexed":false,"internalType":"uint256"}],"anonymous":false},{"type":"event","name":"AuthorizationUsed","inputs":[{"name":"authorizer","type":"address","indexed":true,"internalType":"address"},{"name":"nonce","type":"bytes32","indexed":true,"internalType":"bytes32"}],"anonymous":false},{"type":"event","name":"EIP712DomainChanged","inputs":[],"anonymous":false},{"type":"event","name":"Transfer","inputs":[{"name":"from","type":"address","indexed":true,"internalType":"address"},{"name":"to","type":"address","indexed":true,"internalType":"address"},{"name":"value","type":"uint256","indexed":false,"internalType":"uint256"}],"anonymous":false},{"type":"error","name":"ERC20InsufficientAllowance","inputs":[{"name":"spender","type":"address","internalType":"address"},{"name":"allowance","type":"uint256","internalType":"uint256"},{"name":"needed","type":"uint256","internalType":"uint256"}]},{"type":"error","name":"ERC20InsufficientBalance","inputs":[{"name":"sender","type":"address","internalType":"address"},{"name":"balance","type":"uint256","internalType":"uint256"},{"name":"needed","type":"uint256","internalType":"uint256"}]},{"type":"error","name":"ERC20InvalidApprover","inputs":[{"name":"approver","type":"address","internalType":"address"}]},{"type":"error","name":"ERC20InvalidReceiver","inputs":[{"name":"receiver","type":"address","internalType":"address"}]},{"type":"error","name":"ERC20InvalidSender","inputs":[{"name":"sender","type":"address","internalType":"address"}]},{"type":"error","name":"ERC20InvalidSpender","inputs":[{"name":"spender","type":"address","internalType":"address"}]},{"type":"error","name":"InvalidShortString","inputs":[]},{"type":"error","name":"StringTooLong","inputs":[{"name":"str","type":"string","internalType":"string"}]}],"bytecode":{"object":"0x61018080604052346106b257612137803803809161001d82856106b6565b83398101906060818303126106b25780516001600160401b0381116106b257826100489183016106d9565b60208201519092906001600160401b0381116106b25760409161006c9184016106d9565b9101519160ff83168093036106b25760409283519261008b85856106b6565b60018452603160f81b6020850190815283519094906001600160401b03811161040a57600354600181811c911680156106a8575b60208210146103ec57601f8111610645575b50806020601f82116001146105e1575f916105d6575b508160011b915f199060031b1c1916176003555b81516001600160401b03811161040a57600454600181811c911680156105cc575b60208210146103ec57601f8111610569575b50806020601f8211600114610505575f916104fa575b508160011b915f199060031b1c1916176004555b6101618461072e565b6101205261016e816108b5565b6101405283519460208501958620918260e05251902080610100524660a05286519060208201927f8b73c3c69bb8fe3d512ecc4cf759cc79239f7b179b0ffacaa9a75d522b39400f84528883015260608201524660808201523060a082015260a081526101dc60c0826106b6565b5190206080523060c05282516001600160401b03811161040a57600754600181811c911680156104f0575b60208210146103ec57601f811161048d575b50806020601f8211600114610429575f9161041e575b508160011b915f199060031b1c1916176007555b8051906001600160401b03821161040a5760085490600182811c92168015610400575b60208310146103ec5781601f84931161037e575b50602090601f8311600114610318575f9261030d575b50508160011b915f199060031b1c1916176008555b60ff196009541617600955519020610160525161174990816109ee823960805181611175015260a05181611232015260c05181611146015260e051816111c4015261010051816111ea01526101205181610980015261014051816109a9015261016051815050f35b015190505f80610290565b60085f9081528281209350601f198516905b818110610366575090846001959493921061034e575b505050811b016008556102a5565b01515f1960f88460031b161c191690555f8080610340565b9293602060018192878601518155019501930161032a565b60085f529091507ff3f7a9fe364faab93b216da50a3214154f22a0a2b415b23a84c8169e8b636ee3601f840160051c810191602085106103e2575b90601f859493920160051c01905b8181106103d4575061027a565b5f81558493506001016103c7565b90915081906103b9565b634e487b7160e01b5f52602260045260245ffd5b91607f1691610266565b634e487b7160e01b5f52604160045260245ffd5b90508401515f61022f565b60075f9081528181209250601f198416905b8181106104755750908360019493921061045d575b5050811b01600755610243565b8601515f1960f88460031b161c191690555f80610450565b9192602060018192868b01518155019401920161043b565b60075f527fa66cc928b5edb82af9bd49922954155ab7b0942694bea4ce44661d9a8736c688601f830160051c810191602084106104e6575b601f0160051c01905b8181106104db5750610219565b5f81556001016104ce565b90915081906104c5565b90607f1690610207565b90508301515f610144565b60045f9081528181209250601f198416905b81811061055157509083600194939210610539575b5050811b01600455610158565b8501515f1960f88460031b161c191690555f8061052c565b9192602060018192868a015181550194019201610517565b60045f527f8a35acfbc15ff81a39ae7d344fd709f28e8600b4aa8c65c6b64bfe7fe36bd19b601f830160051c810191602084106105c2575b601f0160051c01905b8181106105b7575061012e565b5f81556001016105aa565b90915081906105a1565b90607f169061011c565b90508501515f6100e7565b60035f9081528181209250601f198416905b81811061062d57509083600194939210610615575b5050811b016003556100fb565b8701515f1960f88460031b161c191690555f80610608565b9192602060018192868c0151815501940192016105f3565b60035f527fc2575a0e9e593c00f959f8c92f12db2869c3395a3b0502d05e2516446f71f85b601f830160051c8101916020841061069e575b601f0160051c01905b81811061069357506100d1565b5f8155600101610686565b909150819061067d565b90607f16906100bf565b5f80fd5b601f909101601f19168101906001600160401b0382119082101761040a57604052565b81601f820112156106b2578051906001600160401b03821161040a576040519261070d601f8401601f1916602001856106b6565b828452602083830101116106b257815f9260208093018386015e8301015290565b908151602081105f146107a8575090601f815111610768576020815191015160208210610759571790565b5f198260200360031b1b161790565b604460209160405192839163305a27a960e01b83528160048401528051918291826024860152018484015e5f828201840152601f01601f19168101030190fd5b6001600160401b03811161040a57600554600181811c911680156108ab575b60208210146103ec57601f8111610878575b50602092601f821160011461081757928192935f9261080c575b50508160011b915f199060031b1c19161760055560ff90565b015190505f806107f3565b601f1982169360055f52805f20915f5b8681106108605750836001959610610848575b505050811b0160055560ff90565b01515f1960f88460031b161c191690555f808061083a565b91926020600181928685015181550194019201610827565b60055f52601f60205f20910160051c810190601f830160051c015b8181106108a057506107d9565b5f8155600101610893565b90607f16906107c7565b908151602081105f146108e0575090601f815111610768576020815191015160208210610759571790565b6001600160401b03811161040a57600654600181811c911680156109e3575b60208210146103ec57601f81116109b0575b50602092601f821160011461094f57928192935f92610944575b50508160011b915f199060031b1c19161760065560ff90565b015190505f8061092b565b601f1982169360065f52805f20915f5b8681106109985750836001959610610980575b505050811b0160065560ff90565b01515f1960f88460031b161c191690555f8080610972565b9192602060018192868501518155019401920161095f565b60065f52601f60205f20910160051c810190601f830160051c015b8181106109d85750610911565b5f81556001016109cb565b90607f16906108ff56fe6080806040526004361015610012575f80fd5b5f3560e01c90816306fdde0314610e1557508063095ea7b314610d1057806318160ddd14610cd557806323b872dd14610cb3578063313ce56714610c755780633644e51514610c3557806340c10f1914610b3657806370a0823114610ad45780637f2eecc314610a7c57806384b0196e1461094a57806388b7ab63146104f257806395d89b41146103d45780639dc29fac146102c8578063a0cc6a6814610270578063a9059cbb14610221578063d30ed3b31461020a578063dd62ed3e1461017e578063e94a01021461010a5763f83d1791146100ed575f80fd5b34610106576101046100fe36610f5e565b916113a6565b005b5f80fd5b346101065760407ffffffffffffffffffffffffffffffffffffffffffffffffffffffffffffffffc3601126101065773ffffffffffffffffffffffffffffffffffffffff610156610f18565b165f52600a60205260405f206024355f52602052602060ff60405f2054166040519015158152f35b346101065760407ffffffffffffffffffffffffffffffffffffffffffffffffffffffffffffffffc360112610106576101b5610f18565b73ffffffffffffffffffffffffffffffffffffffff6101d2610f3b565b91165f52600160205273ffffffffffffffffffffffffffffffffffffffff60405f2091165f52602052602060405f2054604051908152f35b346101065761010461021b36610f5e565b91611470565b346101065760407ffffffffffffffffffffffffffffffffffffffffffffffffffffffffffffffffc3601126101065761026561025b610f18565b60243590336113a6565b602060405160018152f35b34610106575f7ffffffffffffffffffffffffffffffffffffffffffffffffffffffffffffffffc3601126101065760206040517f7c7c6cdb67a18743f49ec6fa9b35f50d52ed05cbed4cc592e13b44501c1a22678152f35b346101065760407ffffffffffffffffffffffffffffffffffffffffffffffffffffffffffffffffc360112610106576102ff610f18565b73ffffffffffffffffffffffffffffffffffffffff602435911680156103a857805f525f60205260405f2054828110610376576020835f947fddf252ad1be2c89b69c2b068fc378daa952ba7f163c4a11628f55a4df523b3ef938587528684520360408620558060025403600255604051908152a3005b907fe450d38c000000000000000000000000000000000000000000000000000000005f5260045260245260445260645ffd5b7f96c6fd1e000000000000000000000000000000000000000000000000000000005f525f60045260245ffd5b34610106575f7ffffffffffffffffffffffffffffffffffffffffffffffffffffffffffffffffc360112610106576040515f60045461041281610fd0565b80845290600181169081156104b05750600114610452575b61044e8361043a818503826110c1565b604051918291602083526020830190610ed5565b0390f35b60045f9081527f8a35acfbc15ff81a39ae7d344fd709f28e8600b4aa8c65c6b64bfe7fe36bd19b939250905b8082106104965750909150810160200161043a61042a565b91926001816020925483858801015201910190929161047e565b7fffffffffffffffffffffffffffffffffffffffffffffffffffffffffffffff001660208086019190915291151560051b8401909101915061043a905061042a565b346101065760e07ffffffffffffffffffffffffffffffffffffffffffffffffffffffffffffffffc36011261010657610529610f18565b610531610f3b565b60843591604435919060a43560643560c43567ffffffffffffffff811161010657366023820112156101065780600401359067ffffffffffffffff821161010657366024838301011161010657824211156108c657874210156108425773ffffffffffffffffffffffffffffffffffffffff851697885f52600a60205260405f20855f5260205260ff60405f2054166107e45773ffffffffffffffffffffffffffffffffffffffff8716908133036107605789604292602492610691976040519260208401947fd099cc98ef71107a616c4f0f941f04c322d8e254fe26b3c6668db87aae413de88652604085015260608401528c608084015260a083015260c08201528760e082015260e0815261064a610100826110c1565b5190209261065661112f565b93604051947f190100000000000000000000000000000000000000000000000000000000000086526002860152602285015201912085611258565b156107025784610104955f52600a60205260405f20825f5260205260405f2060017fffffffffffffffffffffffffffffffffffffffffffffffffffffffffffffff008254161790557f98de503528ee59b575ef0c0a2576a82497bfc029a5685b209e9ec333479b10a55f80a36113a6565b60646040517f08c379a000000000000000000000000000000000000000000000000000000000815260206004820152601160248201527f5369676e617475726520696e76616c69640000000000000000000000000000006044820152fd5b60846040517f08c379a000000000000000000000000000000000000000000000000000000000815260206004820152602760248201527f454950333030393a20726563656976652068617320746f2062652063616c6c6560448201527f6420627920746f000000000000000000000000000000000000000000000000006064820152fd5b60646040517f08c379a000000000000000000000000000000000000000000000000000000000815260206004820152601e60248201527f454950333030393a20617574686f72697a6174696f6e206973207573656400006044820152fd5b60846040517f08c379a000000000000000000000000000000000000000000000000000000000815260206004820152602160248201527f454950333030393a20617574686f72697a6174696f6e2069732065787069726560448201527f64000000000000000000000000000000000000000000000000000000000000006064820152fd5b60846040517f08c379a000000000000000000000000000000000000000000000000000000000815260206004820152602760248201527f454950333030393a20617574686f72697a6174696f6e206973206e6f7420796560448201527f742076616c6964000000000000000000000000000000000000000000000000006064820152fd5b34610106575f7ffffffffffffffffffffffffffffffffffffffffffffffffffffffffffffffffc36011261010657610a206109a47f0000000000000000000000000000000000000000000000000000000000000000611592565b6109cd7f000000000000000000000000000000000000000000000000000000000000000061160e565b6020610a2e604051926109e083856110c1565b5f84525f3681376040519586957f0f00000000000000000000000000000000000000000000000000000000000000875260e08588015260e0870190610ed5565b908582036040870152610ed5565b4660608501523060808501525f60a085015283810360c08501528180845192838152019301915f5b828110610a6557505050500390f35b835185528695509381019392810192600101610a56565b34610106575f7ffffffffffffffffffffffffffffffffffffffffffffffffffffffffffffffffc3601126101065760206040517fd099cc98ef71107a616c4f0f941f04c322d8e254fe26b3c6668db87aae413de88152f35b346101065760207ffffffffffffffffffffffffffffffffffffffffffffffffffffffffffffffffc3601126101065773ffffffffffffffffffffffffffffffffffffffff610b20610f18565b165f525f602052602060405f2054604051908152f35b346101065760407ffffffffffffffffffffffffffffffffffffffffffffffffffffffffffffffffc36011261010657610b6d610f18565b73ffffffffffffffffffffffffffffffffffffffff166024358115610c095760025490808201809211610bdc5760207fddf252ad1be2c89b69c2b068fc378daa952ba7f163c4a11628f55a4df523b3ef915f9360025584845283825260408420818154019055604051908152a3005b7f4e487b71000000000000000000000000000000000000000000000000000000005f52601160045260245ffd5b7fec442f05000000000000000000000000000000000000000000000000000000005f525f60045260245ffd5b34610106575f7ffffffffffffffffffffffffffffffffffffffffffffffffffffffffffffffffc360112610106576020610c6d61112f565b604051908152f35b34610106575f7ffffffffffffffffffffffffffffffffffffffffffffffffffffffffffffffffc36011261010657602060ff60095416604051908152f35b3461010657610265610cc436610f5e565b91610cd0833383611470565b6113a6565b34610106575f7ffffffffffffffffffffffffffffffffffffffffffffffffffffffffffffffffc360112610106576020600254604051908152f35b346101065760407ffffffffffffffffffffffffffffffffffffffffffffffffffffffffffffffffc36011261010657610d47610f18565b602435903315610de95773ffffffffffffffffffffffffffffffffffffffff16908115610dbd57335f52600160205260405f20825f526020528060405f20556040519081527f8c5be1e5ebec7d5bd14f71427d1e84f3dd0314c0f7b2291e5b200ac8c7c3b92560203392a3602060405160018152f35b7f94280d62000000000000000000000000000000000000000000000000000000005f525f60045260245ffd5b7fe602df05000000000000000000000000000000000000000000000000000000005f525f60045260245ffd5b34610106575f7ffffffffffffffffffffffffffffffffffffffffffffffffffffffffffffffffc360112610106575f600354610e5081610fd0565b80845290600181169081156104b05750600114610e775761044e8361043a818503826110c1565b60035f9081527fc2575a0e9e593c00f959f8c92f12db2869c3395a3b0502d05e2516446f71f85b939250905b808210610ebb5750909150810160200161043a61042a565b919260018160209254838588010152019101909291610ea3565b907fffffffffffffffffffffffffffffffffffffffffffffffffffffffffffffffe0601f602080948051918291828752018686015e5f8582860101520116010190565b6004359073ffffffffffffffffffffffffffffffffffffffff8216820361010657565b6024359073ffffffffffffffffffffffffffffffffffffffff8216820361010657565b7ffffffffffffffffffffffffffffffffffffffffffffffffffffffffffffffffc60609101126101065760043573ffffffffffffffffffffffffffffffffffffffff81168103610106579060243573ffffffffffffffffffffffffffffffffffffffff81168103610106579060443590565b90600182811c92168015611017575b6020831014610fea57565b7f4e487b71000000000000000000000000000000000000000000000000000000005f52602260045260245ffd5b91607f1691610fdf565b5f929181549161103083610fd0565b8083529260018116908115611085575060011461104c57505050565b5f9081526020812093945091925b83831061106b575060209250010190565b60018160209294939454838587010152019101919061105a565b905060209495507fffffffffffffffffffffffffffffffffffffffffffffffffffffffffffffff0091509291921683830152151560051b010190565b90601f7fffffffffffffffffffffffffffffffffffffffffffffffffffffffffffffffe0910116810190811067ffffffffffffffff82111761110257604052565b7f4e487b71000000000000000000000000000000000000000000000000000000005f52604160045260245ffd5b73ffffffffffffffffffffffffffffffffffffffff7f00000000000000000000000000000000000000000000000000000000000000001630148061122f575b15611197577f000000000000000000000000000000000000000000000000000000000000000090565b60405160208101907f8b73c3c69bb8fe3d512ecc4cf759cc79239f7b179b0ffacaa9a75d522b39400f82527f000000000000000000000000000000000000000000000000000000000000000060408201527f000000000000000000000000000000000000000000000000000000000000000060608201524660808201523060a082015260a0815261122960c0826110c1565b51902090565b507f0000000000000000000000000000000000000000000000000000000000000000461461116e565b929190833b6112cf579061126c9291611645565b5060048110156112a25715918261128257505090565b73ffffffffffffffffffffffffffffffffffffffff919250811691161490565b7f4e487b71000000000000000000000000000000000000000000000000000000005f52602160045260245ffd5b90929067ffffffffffffffff83116111025760405193611317601f85017fffffffffffffffffffffffffffffffffffffffffffffffffffffffffffffffe016602001866110c1565b838552368482011161010657845f602086829760649583809b013783010152805190604051937f1626ba7e00000000000000000000000000000000000000000000000000000000855260048501526040602485015286820190604485015e01915afa7f1626ba7e000000000000000000000000000000000000000000000000000000005f5114601f3d11161690565b73ffffffffffffffffffffffffffffffffffffffff169081156103a85773ffffffffffffffffffffffffffffffffffffffff16918215610c0957815f525f60205260405f205481811061143e57817fddf252ad1be2c89b69c2b068fc378daa952ba7f163c4a11628f55a4df523b3ef92602092855f525f84520360405f2055845f525f825260405f20818154019055604051908152a3565b827fe450d38c000000000000000000000000000000000000000000000000000000005f5260045260245260445260645ffd5b73ffffffffffffffffffffffffffffffffffffffff909291921691825f52600160205260405f2073ffffffffffffffffffffffffffffffffffffffff82165f5260205260405f2054927fffffffffffffffffffffffffffffffffffffffffffffffffffffffffffffffff84106114e7575b50505050565b828410611548578015610de95773ffffffffffffffffffffffffffffffffffffffff821615610dbd575f52600160205273ffffffffffffffffffffffffffffffffffffffff60405f2091165f5260205260405f20910390555f8080806114e1565b5073ffffffffffffffffffffffffffffffffffffffff83917ffb8f41b2000000000000000000000000000000000000000000000000000000005f521660045260245260445260645ffd5b60ff81146115f15760ff811690601f82116115c957604051916115b66040846110c1565b6020808452838101919036833783525290565b7fb3512b0c000000000000000000000000000000000000000000000000000000005f5260045ffd5b5060405161160b81611604816005611021565b03826110c1565b90565b60ff81146116325760ff811690601f82116115c957604051916115b66040846110c1565b5060405161160b81611604816006611021565b906041830361166f576116689250602081013591604082359201355f1a90611679565b9192909190565b50505f9160029190565b91907f7fffffffffffffffffffffffffffffff5d576e7357a4501ddfe92f46681b20a08411611708579160209360809260ff5f9560405194855216868401526040830152606082015282805260015afa156116fd575f5173ffffffffffffffffffffffffffffffffffffffff8116156116f357905f905f90565b505f906001905f90565b6040513d5f823e3d90fd5b5050505f916003919056fea2646970667358221220382c28a226c5dd3b78072127cf991948f815f2f0bb19e962490812f422f0cd0c64736f6c634300081e0033","linkReferences":{}},"methodIdentifiers":{"DOMAIN_SEPARATOR()":"3644e515","RECEIVE_WITH_AUTHORIZATION_TYPEHASH()":"7f2eecc3","TRANSFER_WITH_AUTHORIZATION_TYPEHASH()":"a0cc6a68","allowance(address,address)":"dd62ed3e","approve(address,uint256)":"095ea7b3","authorizationState(address,bytes32)":"e94a0102","balanceOf(address)":"70a08231","burn(address,uint256)":"9dc29fac","decimals()":"313ce567","directSpendAllowance(address,address,uint256)":"d30ed3b3","directTransfer(address,address,uint256)":"f83d1791","eip712Domain()":"84b0196e","mint(address,uint256)":"40c10f19","name()":"06fdde03","receiveWithAuthorization(address,address,uint256,uint256,uint256,bytes32,bytes)":"88b7ab63","symbol()":"95d89b41","totalSupply()":"18160ddd","transfer(address,uint256)":"a9059cbb","transferFrom(address,address,uint256)":"23b872dd"},"id":191}