{"abi":[{"type":"constructor","inputs":[{"name":"_blockHeight","type":"uint120","internalType":"uint120"},{"name":"_blockHash","type":"bytes32","internalType":"bytes32"},{"name":"_blockTime","type":"uint120","internalType":"uint120"},{"name":"_expectedTarget","type":"uint256","internalType":"uint256"},{"name":"_isTestnet","type":"bool","internalType":"bool"}],"stateMutability":"nonpayable"},{"type":"function","name":"blockHashes","inputs":[{"name":"","type":"uint256","internalType":"uint256"}],"outputs":[{"name":"","type":"bytes32","internalType":"bytes32"}],"stateMutability":"view"},{"type":"function","name":"getBlockHash","inputs":[{"name":"blockNum","type":"uint256","internalType":"uint256"}],"outputs":[{"name":"","type":"bytes32","internalType":"bytes32"}],"stateMutability":"view"},{"type":"function","name":"getLatestBlockHeight","inputs":[],"outputs":[{"name":"","type":"uint256","internalType":"uint256"}],"stateMutability":"view"},{"type":"function","name":"getLatestBlockTime","inputs":[],"outputs":[{"name":"","type":"uint256","internalType":"uint256"}],"stateMutability":"view"},{"type":"function","name":"getTarget","inputs":[{"name":"bits","type":"bytes32","internalType":"bytes32"}],"outputs":[{"name":"","type":"uint256","internalType":"uint256"}],"stateMutability":"pure"},{"type":"function","name":"isTestnet","inputs":[],"outputs":[{"name":"","type":"bool","internalType":"bool"}],"stateMutability":"view"},{"type":"function","name":"periodToTarget","inputs":[{"name":"","type":"uint256","internalType":"uint256"}],"outputs":[{"name":"","type":"uint256","internalType":"uint256"}],"stateMutability":"view"},{"type":"function","name":"submit","inputs":[{"name":"blockHeight","type":"uint256","internalType":"uint256"},{"name":"blockHeaders","type":"bytes","internalType":"bytes"}],"outputs":[],"stateMutability":"nonpayable"},{"type":"event","name":"NewTip","inputs":[{"name":"blockHeight","type":"uint256","indexed":false,"internalType":"uint256"},{"name":"blockTime","type":"uint256","indexed":false,"internalType":"uint256"},{"name":"blockHash","type":"bytes32","indexed":false,"internalType":"bytes32"}],"anonymous":false},{"type":"event","name":"NewTotalDifficultySinceRetarget","inputs":[{"name":"blockHeight","type":"uint256","indexed":false,"internalType":"uint256"},{"name":"totalDifficulty","type":"uint256","indexed":false,"internalType":"uint256"},{"name":"newDifficultyBits","type":"uint32","indexed":false,"internalType":"uint32"}],"anonymous":false},{"type":"event","name":"Reorg","inputs":[{"name":"count","type":"uint256","indexed":false,"internalType":"uint256"},{"name":"oldTip","type":"bytes32","indexed":false,"internalType":"bytes32"},{"name":"newTip","type":"bytes32","indexed":false,"internalType":"bytes32"}],"anonymous":false},{"type":"error","name":"BadParent","inputs":[]},{"type":"error","name":"DifficultyRetargetLT25","inputs":[]},{"type":"error","name":"HashAboveTarget","inputs":[]},{"type":"error","name":"InsufficientChainLength","inputs":[]},{"type":"error","name":"InsufficientTotalDifficulty","inputs":[]},{"type":"error","name":"NoBlocksSubmitted","inputs":[]},{"type":"error","name":"NoParent","inputs":[]},{"type":"error","name":"OldDifficultyPeriod","inputs":[]},{"type":"error","name":"TooDeepReorg","inputs":[]},{"type":"error","name":"WrongDifficultyBits","inputs":[]},{"type":"error","name":"WrongHeaderLength","inputs":[]}],"bytecode":{"object":"0x60a03461012057601f61115938819003918201601f19168301916001600160401b038311848410176101245780849260a0946040528339810103126101205761004781610138565b90602081015161005960408301610138565b9260806060840151930151938415158503610120576001600160781b038216926107e0841115610120576107d084066107d081101561010c57600101555f80546001600160f01b03191660789390931b600160781b600160f01b0316929092176001600160781b039182161782556107e090920490911681526107d1602052604090819020919091556080919091525161100c908161014d82396080518181816109f901528181610a7d0152610cdd0152f35b634e487b7160e01b5f52603260045260245ffd5b5f80fd5b634e487b7160e01b5f52604160045260245ffd5b51906001600160781b03821682036101205756fe6080806040526004361015610012575f80fd5b5f3560e01c9081630d2b286014610d985750806332c2583214610d4d57806334cdf78d14610d0257806392108c8614610ca8578063a9c2d7ab14610c6c578063d1a2eab21461010a578063e875aa5d146100bc5763ee82ac5e14610074575f80fd5b346100b85760207ffffffffffffffffffffffffffffffffffffffffffffffffffffffffffffffffc3601126100b85760206100b0600435610e96565b604051908152f35b5f80fd5b346100b8575f7ffffffffffffffffffffffffffffffffffffffffffffffffffffffffffffffffc3601126100b85760206effffffffffffffffffffffffffffff5f5460781c16604051908152f35b346100b85760407ffffffffffffffffffffffffffffffffffffffffffffffffffffffffffffffffc3601126100b85760043560243567ffffffffffffffff81116100b857366023820112156100b85780600401359167ffffffffffffffff83116100b857602482019160248436920101116100b8576107e08111156100b8576050830491836050840203610c44578215610c1c576effffffffffffffffffffffffffffff5f5460781c16907ffffffffffffffffffffffffffffffffffffffffffffffffffffffffffffffc188201831115610bf4576effffffffffffffffffffffffffffff6107e083041693808401957fffffffffffffffffffffffffffffffffffffffffffffffffffffffffffffffff8701916107e0830497878910610bcc576107e07fffffffffffffffffffffffffffffffffffffffffffffffffffffffffffffffff880104915f92808b11998a610b9d575b61026889610e96565b9a5f5b848110610618575015610587575050837fffffffffffffffffffffffffffffffffffffffffffffffffffffffffffffffff6102ab92016050028188610e7e565b604c116100b857846102ef63ffffffff60486102f594013560e01c1662ff00ff63ff00ff008260081b169160081c161763ffffffff808260101b169160101c161790565b9a610f5c565b9182111561055f575b6effffffffffffffffffffffffffffff5f5460781c168111610364576107d08106906107d0821015610337575f600192830155016102fe565b7f4e487b71000000000000000000000000000000000000000000000000000000005f52603260045260245ffd5b5061047e610422606094937f452ea9c9e4985cb8cc7199131fd292d600dae30f407e749b6ca7e7f4c7690cf78663ffffffff95867f11cedc7f83a9a6f5228b8fcd3c3c0ae686a51e2e04ea46923e3491a32a4bbaa89a9b9c9d9e604051928a84526020840152166040820152a15b5f54977ffffffffffffffffffffffffffffffffffffffffffffffffffffffffffffffff88201917ffffffffffffffffffffffffffffffffffffffffffffffffffffffffffffffff4810191610e7e565b90357fffffffff000000000000000000000000000000000000000000000000000000008116916004811061052a575b505060e01c62ff00ff63ff00ff008260081b169160081c161763ffffffff808260101b169160101c161790565b1680947fffff0000000000000000000000000000000000000000000000000000000000007dffffffffffffffffffffffffffffff0000000000000000000000000000008460781b16911617175f556104d581610e96565b936040519182526020820152836040820152a18282036104f157005b7fea952b3dfe43a8e680ea58302c72429cd78ef0537abeaf75797ef9bb0496cefc936060936040519303835260208301526040820152a1005b7fffffffff000000000000000000000000000000000000000000000000000000009250829060040360031b1b16168a80610451565b7f83d81a46000000000000000000000000000000000000000000000000000000005f5260045ffd5b92509394959697989992505081036100b857036100b8576effffffffffffffffffffffffffffff5f5460781c168211156105f0577f11cedc7f83a9a6f5228b8fcd3c3c0ae686a51e2e04ea46923e3491a32a4bbaa89163ffffffff61047e6104226060946103d2565b7fc903dd46000000000000000000000000000000000000000000000000000000005f5260045ffd5b808c0190610632600182016050028c8b8460500291610e7e565b906107e08411156100b857605082036100b85760205f6040518484823780858101838152039060025afa15610b65575f516040519060208201908152602082526040820182811067ffffffffffffffff821117610b70577fffffffffffffffffffffffffffffffffffffffffffffffffffffffffffffffc060406020945f9484835281518091865e810185838201520301019060025afa15610b65576108045f517eff00ff00ff00ff00ff00ff00ff00ff00ff00ff00ff00ff00ff00ff00ff00ff7fff00ff00ff00ff00ff00ff00ff00ff00ff00ff00ff00ff00ff00ff00ff00ff008260081b169160081c16177dffff0000ffff0000ffff0000ffff0000ffff0000ffff0000ffff0000ffff7fffff0000ffff0000ffff0000ffff0000ffff0000ffff0000ffff0000ffff00008260101b169160101c16177bffffffff00000000ffffffff00000000ffffffff00000000ffffffff7fffffffff00000000ffffffff00000000ffffffff00000000ffffffff000000008260201b169160201c161777ffffffffffffffff0000000000000000ffffffffffffffff7fffffffffffffffff0000000000000000ffffffffffffffff00000000000000008260401b169160401c16178060801b9060801c1790565b916107d085066107d081101561033757839060010155806024116100b85761095b60048301357eff00ff00ff00ff00ff00ff00ff00ff00ff00ff00ff00ff00ff00ff00ff00ff7fff00ff00ff00ff00ff00ff00ff00ff00ff00ff00ff00ff00ff00ff00ff00ff008260081b169160081c16177dffff0000ffff0000ffff0000ffff0000ffff0000ffff0000ffff0000ffff7fffff0000ffff0000ffff0000ffff0000ffff0000ffff0000ffff0000ffff00008260101b169160101c16177bffffffff00000000ffffffff00000000ffffffff00000000ffffffff7fffffffff00000000ffffffff00000000ffffffff00000000ffffffff000000008260201b169160201c161777ffffffffffffffff0000000000000000ffffffffffffffff7fffffffffffffffff0000000000000000ffffffffffffffff00000000000000008260401b169160401c16178060801b9060801c1790565b6107d06107cf8701066107d081101561033757600101548103610b3d5715610b1557604c116100b8577fffffffff0000000000000000000000000000000000000000000000000000000060486109b392013516610ddd565b80911015610aed576107e08084049306610a79577fffffffffffffffffffffffffffffffffffffffffffffffffffffffffffffffff83015f526107d160205260405f20547f000000000000000000000000000000000000000000000000000000000000000015610a36575b506001925f526107d160205260405f20555b0161026b565b808260021c1015610a51578160021b1115610a51575f610a1e565b7f772fd2aa000000000000000000000000000000000000000000000000000000005f5260045ffd5b90917f000000000000000000000000000000000000000000000000000000000000000015610aac575b5050600190610a30565b5f526107d160205260405f205403610ac5578e80610aa2565b7fd0e72669000000000000000000000000000000000000000000000000000000005f5260045ffd5b7ff3fd2128000000000000000000000000000000000000000000000000000000005f5260045ffd5b7f5d6e92cc000000000000000000000000000000000000000000000000000000005f5260045ffd5b7f190ad08b000000000000000000000000000000000000000000000000000000005f5260045ffd5b6040513d5f823e3d90fd5b7f4e487b71000000000000000000000000000000000000000000000000000000005f52604160045260245ffd5b93600182018c036100b8578b8503610bc05750610bba8885610f5c565b9361025f565b9381811461025f575f80fd5b7fbd4ee898000000000000000000000000000000000000000000000000000000005f5260045ffd5b7fe9aa60d0000000000000000000000000000000000000000000000000000000005f5260045ffd5b7f83d79033000000000000000000000000000000000000000000000000000000005f5260045ffd5b7f8789b42d000000000000000000000000000000000000000000000000000000005f5260045ffd5b346100b85760207ffffffffffffffffffffffffffffffffffffffffffffffffffffffffffffffffc3601126100b85760206100b0600435610ddd565b346100b8575f7ffffffffffffffffffffffffffffffffffffffffffffffffffffffffffffffffc3601126100b85760206040517f000000000000000000000000000000000000000000000000000000000000000015158152f35b346100b85760207ffffffffffffffffffffffffffffffffffffffffffffffffffffffffffffffffc3601126100b8576004356107d08110156100b85760209060010154604051908152f35b346100b8575f7ffffffffffffffffffffffffffffffffffffffffffffffffffffffffffffffffc3601126100b85760206effffffffffffffffffffffffffffff5f5416604051908152f35b346100b85760207ffffffffffffffffffffffffffffffffffffffffffffffffffffffffffffffffc3601126100b8576020906004355f526107d1825260405f20548152f35b8060031a907ffffffffffffffffffffffffffffffffffffffffffffffffffffffffffffffffd8201918211610e51577f1fffffffffffffffffffffffffffffffffffffffffffffffffffffffffffffff82168203610e5157805f1a908060011a9060021a60081b1760081b179060031b1b90565b7f4e487b71000000000000000000000000000000000000000000000000000000005f52601160045260245ffd5b909392938483116100b85784116100b8578101920390565b6effffffffffffffffffffffffffffff5f5460781c16808211610efe577ffffffffffffffffffffffffffffffffffffffffffffffffffffffffffffffc188101908111610e51578110610ef9576107d090066107d0811015610337576001015490565b505f90565b60646040517f08c379a000000000000000000000000000000000000000000000000000000000815260206004820152601760248201527f426c6f636b206e6f7420796574207375626d69747465640000000000000000006044820152fd5b90815f526107d160205260405f20549060018201918215610fa9576001926107e0911904930290030190600182101580610f9d575b156100b8576001010290565b506107e0821115610f91565b7f4e487b71000000000000000000000000000000000000000000000000000000005f52601260045260245ffdfea26469706673582212208641dc211a19874b99f2b01c687042fff8f2f0306f2053dd59478fe42c2d113964736f6c634300081e0033","linkReferences":{}},"methodIdentifiers":{"blockHashes(uint256)":"34cdf78d","getBlockHash(uint256)":"ee82ac5e","getLatestBlockHeight()":"e875aa5d","getLatestBlockTime()":"32c25832","getTarget(bytes32)":"a9c2d7ab","isTestnet()":"92108c86","periodToTarget(uint256)":"0d2b2860","submit(uint256,bytes)":"d1a2eab2"},"id":124}