{"abi":[{"type":"function","name":"__activateTstore","inputs":[],"outputs":[],"stateMutability":"nonpayable"},{"type":"function","name":"batchClaim","inputs":[{"name":"claimPayload","type":"tuple","internalType":"struct BatchClaim","components":[{"name":"allocatorData","type":"bytes","internalType":"bytes"},{"name":"sponsorSignature","type":"bytes","internalType":"bytes"},{"name":"sponsor","type":"address","internalType":"address"},{"name":"nonce","type":"uint256","internalType":"uint256"},{"name":"expires","type":"uint256","internalType":"uint256"},{"name":"witness","type":"bytes32","internalType":"bytes32"},{"name":"witnessTypestring","type":"string","internalType":"string"},{"name":"claims","type":"tuple[]","internalType":"struct BatchClaimComponent[]","components":[{"name":"id","type":"uint256","internalType":"uint256"},{"name":"allocatedAmount","type":"uint256","internalType":"uint256"},{"name":"portions","type":"tuple[]","internalType":"struct Component[]","components":[{"name":"claimant","type":"uint256","internalType":"uint256"},{"name":"amount","type":"uint256","internalType":"uint256"}]}]}]}],"outputs":[{"name":"claimHash","type":"bytes32","internalType":"bytes32"}],"stateMutability":"nonpayable"},{"type":"function","name":"batchMultichainClaim","inputs":[{"name":"claimPayload","type":"tuple","internalType":"struct BatchMultichainClaim","components":[{"name":"allocatorData","type":"bytes","internalType":"bytes"},{"name":"sponsorSignature","type":"bytes","internalType":"bytes"},{"name":"sponsor","type":"address","internalType":"address"},{"name":"nonce","type":"uint256","internalType":"uint256"},{"name":"expires","type":"uint256","internalType":"uint256"},{"name":"witness","type":"bytes32","internalType":"bytes32"},{"name":"witnessTypestring","type":"string","internalType":"string"},{"name":"claims","type":"tuple[]","internalType":"struct BatchClaimComponent[]","components":[{"name":"id","type":"uint256","internalType":"uint256"},{"name":"allocatedAmount","type":"uint256","internalType":"uint256"},{"name":"portions","type":"tuple[]","internalType":"struct Component[]","components":[{"name":"claimant","type":"uint256","internalType":"uint256"},{"name":"amount","type":"uint256","internalType":"uint256"}]}]},{"name":"additionalChains","type":"bytes32[]","internalType":"bytes32[]"}]}],"outputs":[{"name":"claimHash","type":"bytes32","internalType":"bytes32"}],"stateMutability":"nonpayable"},{"type":"function","name":"claim","inputs":[{"name":"claimPayload","type":"tuple","internalType":"struct Claim","components":[{"name":"allocatorData","type":"bytes","internalType":"bytes"},{"name":"sponsorSignature","type":"bytes","internalType":"bytes"},{"name":"sponsor","type":"address","internalType":"address"},{"name":"nonce","type":"uint256","internalType":"uint256"},{"name":"expires","type":"uint256","internalType":"uint256"},{"name":"witness","type":"bytes32","internalType":"bytes32"},{"name":"witnessTypestring","type":"string","internalType":"string"},{"name":"id","type":"uint256","internalType":"uint256"},{"name":"allocatedAmount","type":"uint256","internalType":"uint256"},{"name":"claimants","type":"tuple[]","internalType":"struct Component[]","components":[{"name":"claimant","type":"uint256","internalType":"uint256"},{"name":"amount","type":"uint256","internalType":"uint256"}]}]}],"outputs":[{"name":"claimHash","type":"bytes32","internalType":"bytes32"}],"stateMutability":"nonpayable"},{"type":"function","name":"exogenousBatchClaim","inputs":[{"name":"claimPayload","type":"tuple","internalType":"struct ExogenousBatchMultichainClaim","components":[{"name":"allocatorData","type":"bytes","internalType":"bytes"},{"name":"sponsorSignature","type":"bytes","internalType":"bytes"},{"name":"sponsor","type":"address","internalType":"address"},{"name":"nonce","type":"uint256","internalType":"uint256"},{"name":"expires","type":"uint256","internalType":"uint256"},{"name":"witness","type":"bytes32","internalType":"bytes32"},{"name":"witnessTypestring","type":"string","internalType":"string"},{"name":"claims","type":"tuple[]","internalType":"struct BatchClaimComponent[]","components":[{"name":"id","type":"uint256","internalType":"uint256"},{"name":"allocatedAmount","type":"uint256","internalType":"uint256"},{"name":"portions","type":"tuple[]","internalType":"struct Component[]","components":[{"name":"claimant","type":"uint256","internalType":"uint256"},{"name":"amount","type":"uint256","internalType":"uint256"}]}]},{"name":"additionalChains","type":"bytes32[]","internalType":"bytes32[]"},{"name":"chainIndex","type":"uint256","internalType":"uint256"},{"name":"notarizedChainId","type":"uint256","internalType":"uint256"}]}],"outputs":[{"name":"claimHash","type":"bytes32","internalType":"bytes32"}],"stateMutability":"nonpayable"},{"type":"function","name":"exogenousClaim","inputs":[{"name":"claimPayload","type":"tuple","internalType":"struct ExogenousMultichainClaim","components":[{"name":"allocatorData","type":"bytes","internalType":"bytes"},{"name":"sponsorSignature","type":"bytes","internalType":"bytes"},{"name":"sponsor","type":"address","internalType":"address"},{"name":"nonce","type":"uint256","internalType":"uint256"},{"name":"expires","type":"uint256","internalType":"uint256"},{"name":"witness","type":"bytes32","internalType":"bytes32"},{"name":"witnessTypestring","type":"string","internalType":"string"},{"name":"id","type":"uint256","internalType":"uint256"},{"name":"allocatedAmount","type":"uint256","internalType":"uint256"},{"name":"claimants","type":"tuple[]","internalType":"struct Component[]","components":[{"name":"claimant","type":"uint256","internalType":"uint256"},{"name":"amount","type":"uint256","internalType":"uint256"}]},{"name":"additionalChains","type":"bytes32[]","internalType":"bytes32[]"},{"name":"chainIndex","type":"uint256","internalType":"uint256"},{"name":"notarizedChainId","type":"uint256","internalType":"uint256"}]}],"outputs":[{"name":"claimHash","type":"bytes32","internalType":"bytes32"}],"stateMutability":"nonpayable"},{"type":"function","name":"multichainClaim","inputs":[{"name":"claimPayload","type":"tuple","internalType":"struct MultichainClaim","components":[{"name":"allocatorData","type":"bytes","internalType":"bytes"},{"name":"sponsorSignature","type":"bytes","internalType":"bytes"},{"name":"sponsor","type":"address","internalType":"address"},{"name":"nonce","type":"uint256","internalType":"uint256"},{"name":"expires","type":"uint256","internalType":"uint256"},{"name":"witness","type":"bytes32","internalType":"bytes32"},{"name":"witnessTypestring","type":"string","internalType":"string"},{"name":"id","type":"uint256","internalType":"uint256"},{"name":"allocatedAmount","type":"uint256","internalType":"uint256"},{"name":"claimants","type":"tuple[]","internalType":"struct Component[]","components":[{"name":"claimant","type":"uint256","internalType":"uint256"},{"name":"amount","type":"uint256","internalType":"uint256"}]},{"name":"additionalChains","type":"bytes32[]","internalType":"bytes32[]"}]}],"outputs":[{"name":"claimHash","type":"bytes32","internalType":"bytes32"}],"stateMutability":"nonpayable"},{"type":"error","name":"NoIdsAndAmountsProvided","inputs":[]},{"type":"error","name":"TStoreAlreadyActivated","inputs":[]},{"type":"error","name":"TStoreNotSupported","inputs":[]},{"type":"error","name":"TloadTestContractDeploymentFailed","inputs":[]}],"bytecode":{"object":"0x610140604052346101b557696002601e613d5c3d52f35f52600a60165ff08060601b156101a6575f80808084600a5a04fa60a0526080524660c05260a06040517f8b73c3c69bb8fe3d512ecc4cf759cc79239f7b179b0ffacaa9a75d522b39400f81527f5e6f7b4e1ac3d625bac418bc955510b3e054cb6cc23cc27885107f080180b29260208201527fc89efdaa54c0f20c7adf612882df0950f5a951637e0307cdcb4c672f298b8bc660408201524660608201523060808201522060e052604051614d9c80820182811060018060401b038211176101925782916121ad833903905ff015610187576e22d473030f116ddee9f6b43ac78ba33b151561010052604051610ef68082016001600160401b03811183821017610192578291616f49833903905ff08015610187576001600160a01b031661012052604051611ff390816101ba8239608051816108df015260a0518181816108b501528181610e0e01526113f1015260c05181610ec7015260e05181610ea601526101005181505061012051815050f35b6040513d5f823e3d90fd5b634e487b7160e01b5f52604160045260245ffd5b632aea588760e01b5f5260045ffd5b5f80fdfe60806040526004361015610011575f80fd5b5f3560e01c8063054ab40b14610b675780636428cb591461092a5780637423eb3c146108815780637c0ce006146107b45780637e2480ab14610520578063c42f38e1146101bd5763cbb6857a14610066575f80fd5b346101b95760207ffffffffffffffffffffffffffffffffffffffffffffffffffffffffffffffffc3601126101b95760043567ffffffffffffffff81116101b95780600401906101207ffffffffffffffffffffffffffffffffffffffffffffffffffffffffffffffffc82360301126101b9576101a96020926100e7610e0c565b60a06100ff6100f960e48601846111cd565b906118d6565b9360546050610164610110866119af565b9890879060a07fc3e0b49b35866f940704f2fb568b9d5dae17a245971e2c095778b60ea177f03b9260405194838652336020870152466040870152606086015201356080840152141560051b608001902090565b926040519384525f6004610104830135830101803560051b808c8801928d0183378b01862060808701528986525201602c83013720926101a2610ea4565b918461129a565b6101b16113ef565b604051908152f35b5f80fd5b346101b9576101cb36610d9c565b6101d3610e0c565b60e08101906101e56100f983836111cd565b6102456101f1836119af565b9290849060a07fc3e0b49b35866f940704f2fb568b9d5dae17a245971e2c095778b60ea177f03b9260405194838652336020870152466040870152606086015201356080840152141560051b608001902090565b6040516101008401358401803560051b9261012086013560051b905f925f5b8681106104f15750505050156104e45760a091602001812060808201528281525f60208201526054604c8501602c830137209261032561014084013560a090604051907f8b73c3c69bb8fe3d512ecc4cf759cc79239f7b179b0ffacaa9a75d522b39400f82527f5e6f7b4e1ac3d625bac418bc955510b3e054cb6cc23cc27885107f080180b29260208301527fc89efdaa54c0f20c7adf612882df0950f5a951637e0307cdcb4c672f298b8bc6604083015260608201523060808201522090565b9261032e610ea4565b91358101918260200192359384156104bc5761034a8585611221565b9586359261039d826b0fffffffffffffffffffffff8660a01c169561036e8a61107d565b9a6020610379610f74565b918383520135602082015261038d8c6110eb565b526103978b6110eb565b50611b32565b60015b888110610458575061044b576103b89488948a611441565b935f5b8451811015610440576103cf81858561125a565b9060408201357fffffffffffffffffffffffffffffffffffffffffffffffffffffffffffffffe1833603018112156101b957820180359067ffffffffffffffff82116101b957602001928160061b360384136101b9576001938961043a936020840135933592611667565b016103bb565b6020826101b16113ef565b633a03d3bb5f526004601cfd5b806104666001928b8b61125a565b9260208435916104768884611b32565b8a6b0fffffffffffffffffffffff8560a01c161415171794610496610f74565b928352013560208201526104aa828d611125565b526104b5818c611125565b50016103a0565b7fcfbccf0c000000000000000000000000000000000000000000000000000000005f5260045ffd5b6371515b9a5f526004601cfd5b8086016020828401013586820152848214610510575b50602001610264565b6020908101849052945084610507565b346101b95760207ffffffffffffffffffffffffffffffffffffffffffffffffffffffffffffffffc3601126101b95760043567ffffffffffffffff81116101b957806004016101a07ffffffffffffffffffffffffffffffffffffffffffffffffffffffffffffffffc83360301126101b95761059a610e0c565b6105a381611961565b916106046105b0836119af565b9490849060a07fc3e0b49b35866f940704f2fb568b9d5dae17a245971e2c095778b60ea177f03b9260405194838652336020870152466040870152606086015201356080840152141560051b608001902090565b6040516004610144840135840101803560051b9261016485013560051b905f925f5b8681106107855750505050156104e45760a091602001812060808201528481525f6020820152605460508401602c83013720916106e761018483013560a090604051907f8b73c3c69bb8fe3d512ecc4cf759cc79239f7b179b0ffacaa9a75d522b39400f82527f5e6f7b4e1ac3d625bac418bc955510b3e054cb6cc23cc27885107f080180b29260208301527fc89efdaa54c0f20c7adf612882df0950f5a951637e0307cdcb4c672f298b8bc6604083015260608201523060808201522090565b906107536106f3610ea4565b9160e4850135968460046101048801359761012481013501019461071561101d565b9361071e610f74565b8b8152896020820152610730866110eb565b5261073a856110eb565b506b0fffffffffffffffffffffff8b60a01c168a611441565b918560ff1c159015171561077457936101a992918560209635908701611667565b8463a06356f55f526020526024601cfd5b80860160208284010135868201528482146107a4575b50602001610626565b602090810184905294508461079b565b346101b95760206107c436610d9c565b6107cc610e0c565b6101a96107d882611961565b9160a061083b6107e7836119af565b9590849060a07fc3e0b49b35866f940704f2fb568b9d5dae17a245971e2c095778b60ea177f03b9260405194838652336020870152466040870152606086015201356080840152141560051b608001902090565b6040519081525f6101408401358401803560051b80898501928a018337880183206080840152868352526054604c8401602c830137209261087a610ea4565b9184611139565b346101b9575f7ffffffffffffffffffffffffffffffffffffffffffffffffffffffffffffffffc3601126101b9575f5415157f00000000000000000000000000000000000000000000000000000000000000001761091d575f8080807f0000000000000000000000000000000000000000000000000000000000000000600a5a04fa1561091057436001015f55005b6370a4078f5f526004601cfd5b63f45b98b05f526004601cfd5b346101b95760207ffffffffffffffffffffffffffffffffffffffffffffffffffffffffffffffffc3601126101b95760043567ffffffffffffffff81116101b95780600401906101007ffffffffffffffffffffffffffffffffffffffffffffffffffffffffffffffffc82360301126101b9576109a5610e0c565b6109b56100f960e48301846111cd565b9060c4810135810190600482013592602484159301918460a9019260a4605083019201359360405195610af4577f4261746368436f6d70616374286164647265737320617262697465722c616464865260208601967f726573732073706f6e736f722c75696e74323536206e6f6e63652c75696e743288528060408801937f353620657870697265732c4c6f636b5b5d20636f6d6d69746d656e74732c4d618552606089017f6e64617465206d616e64617465294c6f636b2862797465733132206c6f636b54905260888901674d616e64617465289052608089017f61672c6164647265737320746f6b656e2c75696e7432353620616d6f756e7429905260a8890137860160a801602990538520808652339096525f9052605490604c85013760a083015260c082015260e09020906020926101a9915b6101a2610ea4565b5050602095945060c0925090605484927f179fcd593ea3b4b32623a455fb55eb007c5040f4c85774f2e3f18d98e87eb76b6101a9965233888501525f6040850152604c84013760a082015220917f179fcd593ea3b4b32623a455fb55eb007c5040f4c85774f2e3f18d98e87eb76b610aec565b346101b95760207ffffffffffffffffffffffffffffffffffffffffffffffffffffffffffffffffc3601126101b95760043567ffffffffffffffff81116101b9576101407ffffffffffffffffffffffffffffffffffffffffffffffffffffffffffffffffc82360301126101b957610bdd610e0c565b60c4810135810160048101359060248215910182608c01906050850160e48601359060f087019260a48801359460405196610d1a577f436f6d70616374286164647265737320617262697465722c6164647265737320875260208701977f73706f6e736f722c75696e74323536206e6f6e63652c75696e7432353620657889528060408901937f70697265732c62797465733132206c6f636b5461672c6164647265737320746f8552606b8a016a7465294d616e6461746528905260608a017f6b656e2c75696e7432353620616d6f756e742c4d616e64617465206d616e64619052608b8a01378701608b01602990538620808752339097525f9052605490604c86013760a08401525f60ac84015260349060cc8401376101008201526101209020906020926101a9915b610d10610ea4565b9160040184611139565b50506020969550610100935091603491605486947f73b631296de001508966ddfc334593ad8f850ccd3be4d2c58a9ed469844eebc76101a99852338a8701525f6040870152604c86013760a08401525f60ac84015260cc83013720917f73b631296de001508966ddfc334593ad8f850ccd3be4d2c58a9ed469844eebc7610d08565b60207ffffffffffffffffffffffffffffffffffffffffffffffffffffffffffffffffc8201126101b9576004359067ffffffffffffffff82116101b9577ffffffffffffffffffffffffffffffffffffffffffffffffffffffffffffffffc82610160920301126101b95760040190565b7f00000000000000000000000000000000000000000000000000000000000000001568929eee149b4bd212685c81610e86575b60018111610e765750610e5b575b3368929eee149b4bd212685d565b5f5443811190151715610e4d573368929eee149b4bd2126855565b63f57c448b5f526020526024601cfd5b5f5443811190151715610e3f575068929eee149b4bd2126854610e3f565b7f00000000000000000000000000000000000000000000000000000000000000007f00000000000000000000000000000000000000000000000000000000000000004618610eef5790565b5060a06040517f8b73c3c69bb8fe3d512ecc4cf759cc79239f7b179b0ffacaa9a75d522b39400f81527f5e6f7b4e1ac3d625bac418bc955510b3e054cb6cc23cc27885107f080180b29260208201527fc89efdaa54c0f20c7adf612882df0950f5a951637e0307cdcb4c672f298b8bc660408201524660608201523060808201522090565b604051906040820182811067ffffffffffffffff821117610f9457604052565b7f4e487b71000000000000000000000000000000000000000000000000000000005f52604160045260245ffd5b907fffffffffffffffffffffffffffffffffffffffffffffffffffffffffffffffe0601f604051930116820182811067ffffffffffffffff821117610f9457604052565b67ffffffffffffffff8111610f945760051b60200190565b60409061102982610fc1565b60018152917fffffffffffffffffffffffffffffffffffffffffffffffffffffffffffffffe001825f5b82811061105f57505050565b602090604061106d81610fc1565b9036823782828501015201611053565b9061108f61108a83611005565b610fc1565b8281527fffffffffffffffffffffffffffffffffffffffffffffffffffffffffffffffe06110bd8294611005565b01905f5b8281106110cd57505050565b60209060406110db81610fc1565b90368237828285010152016110c1565b8051156110f85760200190565b7f4e487b71000000000000000000000000000000000000000000000000000000005f52603260045260245ffd5b80518210156110f85760209160051b010190565b610120820135820194936101008301359360e08401359361119d93925f9161115f61101d565b94611168610f74565b88815289602082015261117a876110eb565b52611184866110eb565b506b0fffffffffffffffffffffff8860a01c1690611441565b8160ff1c15600117156111bc57846111ba94953590602001611667565b565b5063a06356f55f526020526024601cfd5b9035907fffffffffffffffffffffffffffffffffffffffffffffffffffffffffffffffe1813603018212156101b9570180359067ffffffffffffffff82116101b957602001918160051b360383136101b957565b90156110f8578035907fffffffffffffffffffffffffffffffffffffffffffffffffffffffffffffffa1813603018212156101b9570190565b91908110156110f85760051b810135907fffffffffffffffffffffffffffffffffffffffffffffffffffffffffffffffa1813603018212156101b9570190565b929060e08101358101918260200192359384156104bc576112bb8585611221565b958635926112df5f6b0fffffffffffffffffffffff8660a01c169561036e8a61107d565b60015b88811061138b575061044b576112fb9488945f93611441565b935f5b84518110156113835761131281858561125a565b9060408201357fffffffffffffffffffffffffffffffffffffffffffffffffffffffffffffffe1833603018112156101b957820180359067ffffffffffffffff82116101b957602001928160061b360384136101b9576001938961137d936020840135933592611667565b016112fe565b509350505050565b806113996001928b8b61125a565b9260208435916113a95f84611b32565b8a6b0fffffffffffffffffffffff8560a01c1614151717946113c9610f74565b928352013560208201526113dd828d611125565b526113e8818c611125565b50016112e2565b7f000000000000000000000000000000000000000000000000000000000000000015611425575b600168929eee149b4bd212685d565b5f544381119015171561141657600168929eee149b4bd2126855565b92909493969591604c81013560601c9760608201359560808301359342851115611656578873044036fc77deaed23000000000000000000000001754988915611646575060405190896020526303f37b1a600c528860405260376028209384549260018b60ff161b9584871661162c576114d7968a95179055604052602086013586019181150201908035906020018d8a611b75565b803501908135916040519380518060061b93637bb023f787528760208801523360408801528b606088015288608088015260a087015260e060c0870152610100840160e08701528061010087015260051b905f5b8281106116065750505082825f94601c93610140889660209901918361012084015289019101378480520161012401910182875af17f7bb023f7000000000000000000000000000000000000000000000000000000005f51036115ce57505f5260205273ffffffffffffffffffffffffffffffffffffffff339116837f9a071f16ca19062495c8c0e832e4541b4453cd2995fd631b0b7e9f0ee300ff1260405fa4565b83903d1517156115fe57632ce89d2a5f5273ffffffffffffffffffffffffffffffffffffffff166020526024601cfd5b3d5f803e3d5ffd5b8060209160011b880161014083808487010151805161012085015201519101520161152b565b6fdbc205b1000000000000000000000000600c526044601cfd5b63cf90c3a85f526020526024601cfd5b8463f80dbaea5f526020526024601cfd5b5f959194869290835b878510156118ae578460061b840194602086013580920199828b10179535918873ffffffffffffffffffffffffffffffffffffffff7fffffffffffffffffffffffff0000000000000000000000000000000000000000851694169380155f146117b6575073ffffffffffffffffffffffffffffffffffffffff16928193801590815f1461175957505f38818086865a60011cf15b15611721575050506117196001928989611dc5565b019397611670565b909193505a9063e718e7450263824664ed18541161174c5760019289611747928a611e43565b611719565b63c52745985f526004601cfd5b94506117653086611f8f565b9482601452836034526fa9059cbb0000000000000000000000005f526117a760205f6044601082865a60011cf13d1560015f51141716915f6034523090611f8f565b90868210169503850294611704565b7fffffffffffffffffffffffff0000000000000000000000000000000000000000829395921681145f146117f3575092611747916001948a611e43565b909173ffffffffffffffffffffffffffffffffffffffff1617906b0fffffffffffffffffffffff8260a01c168073044036fc77deaed23000000000000000000000001754156116465750611848848b8b611dc5565b67edcaa89a8229394060205280601452815f5260405f209384548181019081106118a15760019555335f526020525f7f1b3d7edb2e9c0b0e7c525b20aaaef0f5940d2ed71663c7d39266ecafac728859604082a4611719565b6389560ca15f526004601cfd5b965094509592505050828210176118c3575050565b633078b2f65f526020526040526044601cfd5b604051907ffb7744571d97aa61eb9c2bc3c67b9b1ba047ac9e95afb2ef02bc5b3d9e64fbe582528260051b9260808484010160405260208301905f91604c850191602c8601935b818110611931575050505050506080012090565b806034600c611943600194868b61125a565b803587520186375f86526080882060808260051b8a0101520161191d565b608090603460ec604051927ffb7744571d97aa61eb9c2bc3c67b9b1ba047ac9e95afb2ef02bc5b3d9e64fbe5845260e081013560208501525f602c85015201604c830137205f5260205f2090565b906040519160c081013501918235928315611ae85783907f4d756c7469636861696e436f6d7061637428616464726573732073706f6e736f83527f722c75696e74323536206e6f6e63652c75696e7432353620657870697265732c60208401527f456c656d656e745b5d20656c656d656e747329456c656d656e7428616464726560408401527f737320617262697465722c75696e7432353620636861696e49642c4c6f636b5b60608401527f5d20636f6d6d69746d656e74732c4d616e64617465206d616e64617465294c6f6080840152772c75696e7432353620616d6f756e74294d616e646174652860b88401527f636b2862797465733132206c6f636b5461672c6164647265737320746f6b656e60a084015260200160d8830137602960d884830101538260860160538201209260d901902090565b505090507fc3e0b49b35866f940704f2fb568b9d5dae17a245971e2c095778b60ea177f03b907f172d857ea70e48d30dcad00bb0fc789a34f09c5545da1245400da01d4ef6c8a290565b60ff1c6002811015611b48576001149015151690565b7f4e487b71000000000000000000000000000000000000000000000000000000005f52602160045260245ffd5b9195601c60589195949295604051908760148301526368a30dd082528560348301526054820152012080549081611dbc575b50611db457604051926119015f52602052816040526042601e2092604052611bd181878587611ed0565b611db4576040517f1626ba7e0000000000000000000000000000000000000000000000000000000081528360048201527f1626ba7e00000000000000000000000000000000000000000000000000000000602060248301809360408252856044820152858b60648301376064860190895a60011cfa91511416611db4577fffffffffffffffffffffffff0000000000000000000000000000000000000000611c78866110eb565b515116945f9080516001915b818310611d7357505050611d665783601452632d5c707e5f528460345273ffffffffffffffffffffffffffffffffffffffff6024601c205f6034525416928315611d59576020965f96601c948493604051988b8a015289600c8a015263f699ba1c89526040890152606088015260a0608088015260a08701528660ac8701528160c087015260e086013784805260c4019201905afa7ff699ba1c000000000000000000000000000000000000000000000000000000005f5103611d445750565b3d1517156115fe57638baa579f5f526004601cfd5b638baa579f5f526004601cfd5b63bbfc3c515f526004601cfd5b909192600190897fffffffffffffffffffffffff0000000000000000000000000000000000000000611da58786611125565b51511614151793019190611c84565b505050505050565b5f90555f611ba7565b909167edcaa89a8229394060205281601452825f5260405f2091825491828111811517611e36575f938173ffffffffffffffffffffffffffffffffffffffff94039055338452602052167f1b3d7edb2e9c0b0e7c525b20aaaef0f5940d2ed71663c7d39266ecafac728859604083a4565b63f4d678b85f526004601cfd5b91929067edcaa89a8229394060205282601452835f5260405f208054808411841517611e3657839003905580601452835f5260405f20908154928084019384106118a15773ffffffffffffffffffffffffffffffffffffffff93849355335f526020521691167f1b3d7edb2e9c0b0e7c525b20aaaef0f5940d2ed71663c7d39266ecafac72885960405fa4565b90939291935f9473ffffffffffffffffffffffffffffffffffffffff831633811480911517611f8757506040519380604014611f4357604114611f135750505050565b60408092939496508101355f1a60205281375b5f526020600160805f825afa511860601b3d11915f606052604052565b507f7fffffffffffffffffffffffffffffffffffffffffffffffffffffffffffffff9192939550602081013590601b8260ff1c016020523560405216606052611f26565b955050505050565b602460106020939284936014526f70a082310000000000000000000000005f525afa601f3d1116602051029056fea26469706673582212205716fd3d0fdb03addb23e4ec12697bff27a177d4ea5c8c9608ceff01415b6ff964736f6c634300081e003360a0806040523460285733608052614d6f908161002d8239608051818181609b01526102700152f35b5f80fdfe6101806040526004361015610012575f80fd5b5f5f3560e01c8062ad800c14613f745780630e89341c146101f65780633f47e662146101985780634e41a1fb146100c25763d6a39a5114610051575f80fd5b346100bf57807ffffffffffffffffffffffffffffffffffffffffffffffffffffffffffffffffc3601126100bf57602060405173ffffffffffffffffffffffffffffffffffffffff7f0000000000000000000000000000000000000000000000000000000000000000168152f35b80fd5b50346100bf5760207ffffffffffffffffffffffffffffffffffffffffffffffffffffffffffffffffc3601126100bf57602061018860256101949361011e73ffffffffffffffffffffffffffffffffffffffff60043516614300565b906040519485927ff09fa49d2d000000000000000000000000000000000000000000000000000000828501528051918291018585015e8201908382015203017fffffffffffffffffffffffffffffffffffffffffffffffffffffffffffffffe0810183528261407f565b60405191829182614037565b0390f35b50346100bf5760207ffffffffffffffffffffffffffffffffffffffffffffffffffffffffffffffffc3601126100bf5760206101eb73ffffffffffffffffffffffffffffffffffffffff600435166142cc565b60ff60405191168152f35b34613f5d5760207ffffffffffffffffffffffffffffffffffffffffffffffffffffffffffffffffc360112613f5d576040517f5b15bfd9000000000000000000000000000000000000000000000000000000008152600435600482015260a08160248173ffffffffffffffffffffffffffffffffffffffff7f0000000000000000000000000000000000000000000000000000000000000000165afa8015613f69575f915f925f915f93613ecc575b50604051936080850185811067ffffffffffffffff821117613e9f5760405273ffffffffffffffffffffffffffffffffffffffff91821685521660208401526008811015613a3f5760408301526002811015613a3f57606082015261032073ffffffffffffffffffffffffffffffffffffffff825116614300565b6040516103b360026032836020808201967f7b226e616d65223a2022436f6d7061637420000000000000000000000000000088528051918291018484015e81017f222c0000000000000000000000000000000000000000000000000000000000008382015203017fffffffffffffffffffffffffffffffffffffffffffffffffffffffffffffffe281018452018261407f565b61040183516040517fffffffffffffffffffffffffffffffffffffffff000000000000000000000000602082019260601b168252601481526103f660348261407f565b51902060e81c614ca8565b90602061040d5f614ca8565b92610541600960a161041e5f614ca8565b936040519586917f3c7376672077696474683d2235303022206865696768743d2232393022207669828401527f6577426f783d2230203020353030203239302220786d6c6e733d22687474703a60408401527f2f2f7777772e77332e6f72672f323030302f737667223e3c726563742077696460608401527f74683d22353030707822206865696768743d223239307078222066696c6c3d2260808401527f230000000000000000000000000000000000000000000000000000000000000060a08401528051918291018484015e81017f222f3e3c2f7376673e00000000000000000000000000000000000000000000008382015203017fffffffffffffffffffffffffffffffffffffffffffffffffffffffffffffffe981018552018361407f565b81606092815180613d97575b50505061067c600960a26020966040519788917f3c7376672077696474683d2235303022206865696768743d2232393022207669828401527f6577426f783d2230203020353030203239302220786d6c6e733d22687474703a60408401527f2f2f7777772e77332e6f72672f323030302f737667223e3c636972636c65206360608401527f783d22343030222063793d223130302220723d223135307078222066696c6c3d60808401527f222300000000000000000000000000000000000000000000000000000000000060a08401528051918291018484015e81017f222f3e3c2f7376673e00000000000000000000000000000000000000000000008382015203017fffffffffffffffffffffffffffffffffffffffffffffffffffffffffffffffe981018752018561407f565b83606094815180613c8f575b505050926107b8600960a26020966040519788917f3c7376672077696474683d2235303022206865696768743d2232393022207669828401527f6577426f783d2230203020353030203239302220786d6c6e733d22687474703a60408401527f2f2f7777772e77332e6f72672f323030302f737667223e3c636972636c65206360608401527f783d22313230222063793d223230302220723d223132307078222066696c6c3d60808401527f222300000000000000000000000000000000000000000000000000000000000060a08401528051918291018484015e81017f222f3e3c2f7376673e00000000000000000000000000000000000000000000008382015203017fffffffffffffffffffffffffffffffffffffffffffffffffffffffffffffffe981018752018561407f565b83516060948082613b84575b505050603e610aea92816020809760718261016d976040519b8c977f3c646566733e3c66696c7465722069643d226631223e3c6665496d6167652072828a01527f6573756c743d2270302220786c696e6b3a687265663d22646174613a696d616760408a01527f652f7376672b786d6c3b6261736536342c00000000000000000000000000000060608a0152805191829101858a015e8701907f222f3e3c6665496d61676520726573756c743d2270312220786c696e6b3a6872848301527f65663d22646174613a696d6167652f7376672b786d6c3b6261736536342c0000609183015280519283910160af83015e0101907f222f3e3c6665496d61676520726573756c743d2270322220786c696e6b3a6872848301527f65663d22646174613a696d6167652f7376672b786d6c3b6261736536342c0000605e830152805192839101607c83015e01017f222f3e3c6665426c656e64206d6f64653d226f7665726c61792220696e3d2270838201527f302220696e323d22703122202f3e3c6665426c656e64206d6f64653d22657863605e8201527f6c7573696f6e2220696e323d22703222202f3e3c6665476175737369616e426c607e8201527f757220737464446576696174696f6e3d22343222202f3e3c2f66696c7465723e609e8201527f3c66696c7465722069643d227462223e3c6665476175737369616e426c75722060be8201527f696e3d22536f75726365477261706869632220737464446576696174696f6e3d60de8201527f22323422202f3e3c2f66696c7465723e3c66696c7465722069643d227473222060fe8201527f783d222d3230252220793d222d323025222077696474683d223134302522206861011e8201527f65696768743d2231343025223e3c666544726f70536861646f772064783d223061013e8201527f222064793d22302220737464446576696174696f6e3d22312220666c6f6f642d61015e8201527f6f7061636974793d22302e382220666c6f6f642d636f6c6f723d22626c61636b61017e8201527f22202f3e3c2f66696c7465723e0000000000000000000000000000000000000061019e820152030161014d81018552018361407f565b604051610af96102208261407f565b6101f681527f3c636c6970506174682069643d2263223e3c726563742077696474683d22353060208201527f3022206865696768743d22323930222072783d223432222072793d223432222060408201527f2f3e3c2f636c6970506174683e3c706174682069643d2274702220643d224d3460608201527f302031322048343630204132382032382030203020312034383820343020563260808201527f353020413238203238203020302031203436302032373820483430204132382060a08201527f323820302030203120313220323530205634302041323820323820302030203160c08201527f203430203132207a22202f3e3c6c696e6561724772616469656e742069643d2260e08201527f6773222078313d2230222079313d2230222078323d2231222079323d2230223e6101008201527f3c73746f70206f66667365743d22302e37222073746f702d636f6c6f723d22776101208201527f68697465222073746f702d6f7061636974793d223122202f3e3c73746f70206f6101408201527f66667365743d222e3935222073746f702d636f6c6f723d2277686974652220736101608201527f746f702d6f7061636974793d223022202f3e3c2f6c696e6561724772616469656101808201527f6e743e3c6d61736b2069643d22667322206d61736b436f6e74656e74556e69746101a08201527f733d227573657253706163654f6e557365223e3c726563742077696474683d226101c08201527f343430707822206865696768743d223230307078222066696c6c3d2275726c286101e08201527f2367732922202f3e3c2f6d61736b3e3c2f646566733e00000000000000000000610200820152604051928051907fffffffffffffffffffffffffffffffffffffffffffffffffffffffffffffffe08060208401165b8083015181880152018015610dcc577fffffffffffffffffffffffffffffffffffffffffffffffffffffffffffffffe090610d96565b50508151918185017fffffffffffffffffffffffffffffffffffffffffffffffffffffffffffffffe08060208601165b808401518184015201908115610e3457907fffffffffffffffffffffffffffffffffffffffffffffffffffffffffffffffe090610dfc565b5050500180830190602082015f905283526040016040526101c060405190610e5c908261407f565b61018a81527f3c6720636c69702d706174683d2275726c28236329223e3c726563742066696c60208201527f6c3d226e6f6e652220783d223070782220793d22307078222077696474683d226040808301919091527f353030707822206865696768743d22323930707822202f3e3c7265637420737460608301527f796c653d2266696c7465723a2075726c28236631292220783d2230707822207960808301527f3d22307078222077696474683d22353030707822206865696768743d2232393060a08301527f707822202f3e3c67207374796c653d2266696c7465723a75726c28237462293b60c08301527f207472616e73666f726d3a7363616c6528312e35293b207472616e73666f726d60e08301527f2d6f726967696e3a6c65667420746f703b223e3c726563742066696c6c3d226e6101008301527f6f6e652220783d223070782220793d22307078222077696474683d2235303070610120808401919091527f7822206865696768743d22323930707822202f3e3c656c6c697073652063783d6101408401527f22323525222063793d22307078222072783d223138307078222072793d2231326101608401527f307078222066696c6c3d222330303022206f7061636974793d22302e383522206101808401527f2f3e3c2f673e3c2f673e000000000000000000000000000000000000000000006101a08401529051939061106b908561407f565b60e484527f3c7265637420783d22302220793d2230222077696474683d223530302220686560208501527f696768743d22323930222072783d223432222072793d223432222066696c6c3d60408501527f227267626128302c302c302c302922207374726f6b653d22726762612832353560608501527f2c3235352c3235352c302e322922202f3e3c7265637420783d2231362220793d60808501527f223136222077696474683d2234363822206865696768743d223235382220727860a08501527f3d223236222072793d223236222066696c6c3d227267626128302c302c302c3060c08501527f2922207374726f6b653d2272676261283235352c3235352c3235352c302e322960e08501527f22202f3e000000000000000000000000000000000000000000000000000000006101008501526111a986614632565b5093915f969196506040968751916111c1898461407f565b600583527f20e280a22000000000000000000000000000000000000000000000000000000060208401526111f48b614ada565b60a01c61120090614966565b90895197838994516020819201602087015e840160208101905f82528651809260208901905e016020015f815281516020819301825e015f81528451908160208701825e015f815281516020819301825e015f81528351908160208601825e017f4c6f636b20546167200000000000000000000000000000000000000000000000815281516020819301600983015e01600981015f9052036009017fffffffffffffffffffffffffffffffffffffffffffffffffffffffffffffffe0810186526112ca908661407f565b6060890151906002821015613a3f576112e388926147d9565b9060208b015173ffffffffffffffffffffffffffffffffffffffff16611308906146ac565b9060208c015173ffffffffffffffffffffffffffffffffffffffff1661132d90614824565b845192839260208401957f54686520436f6d70616374207631000000000000000000000000000000000000875281518060208401602e88015e8501602e8101915f83528051926020849201905e01602e017f205265736f75726365204c6f636b000000000000000000000000000000000000815281516020819301600e83015e01600e8101915f83528051926020849201905e01600e017f2040200000000000000000000000000000000000000000000000000000000000815281516020819301600383015e01600381015f9052036003017fffffffffffffffffffffffffffffffffffffffffffffffffffffffffffffffe08101825261142e908261407f565b82519661143b848961407f565b6005885260208801977f2d3130302500000000000000000000000000000000000000000000000000000089528451809960208201927f3c74657874506174682073746172744f66667365743d220000000000000000008452518091603784015e7f222066696c6c3d2277686974652220666f6e742d66616d696c793d226d6f6e6f6037918301918201527f73706163652220666f6e742d73697a653d22313070782220786c696e6b3a687260578201527f65663d22237470223e000000000000000000000000000000000000000000000060778201528351908160208601608083015e7f3c616e696d6174652061646469746976653d2273756d22206174747269627574910160808101919091527f654e616d653d2273746172744f6666736574222066726f6d3d2230252220746f60a08201527f3d22313030252220626567696e3d22307322206475723d22333073222072657060c08201527f656174436f756e743d22696e646566696e69746522202f3e3c2f74657874506160e08201527f74683e00000000000000000000000000000000000000000000000000000000006101008201520360e381018a526115f790610103018a61407f565b8451611603868261407f565b60028152602081017f30250000000000000000000000000000000000000000000000000000000000008152865193849160208301937f3c74657874506174682073746172744f66667365743d220000000000000000008552518091603785015e8201603781017f222066696c6c3d2277686974652220666f6e742d66616d696c793d226d6f6e6f9052605781017f73706163652220666f6e742d73697a653d22313070782220786c696e6b3a68729052607781017f65663d22237470223e0000000000000000000000000000000000000000000000905281516020819301608083015e7f3c616e696d6174652061646469746976653d2273756d22206174747269627574910160808101919091527f654e616d653d2273746172744f6666736574222066726f6d3d2230252220746f60a08201527f3d22313030252220626567696e3d22307322206475723d22333073222072657060c08201527f656174436f756e743d22696e646566696e69746522202f3e3c2f74657874506160e08201527f74683e00000000000000000000000000000000000000000000000000000000006101008201520360e3810184526117bf90610103018461407f565b8551926117cc878561407f565b6003845260208401927f353025000000000000000000000000000000000000000000000000000000000084528751809460208201967f3c74657874506174682073746172744f66667365743d220000000000000000008852518091603784015e7f222066696c6c3d2277686974652220666f6e742d66616d696c793d226d6f6e6f6037918301918201527f73706163652220666f6e742d73697a653d22313070782220786c696e6b3a687260578201527f65663d22237470223e00000000000000000000000000000000000000000000006077820152875190818a608083015e7f3c616e696d6174652061646469746976653d2273756d22206174747269627574910160808101919091527f654e616d653d2273746172744f6666736574222066726f6d3d2230252220746f60a08201527f3d22313030252220626567696e3d22307322206475723d22333073222072657060c08201527f656174436f756e743d22696e646566696e69746522202f3e3c2f74657874506160e08201527f74683e00000000000000000000000000000000000000000000000000000000006101008201520360e38101855261198590610103018561407f565b875196611992898961407f565b6004885260208801907f2d3530250000000000000000000000000000000000000000000000000000000082528951978892602084019a7f3c74657874506174682073746172744f66667365743d220000000000000000008c52518091603786015e830190603782017f222066696c6c3d2277686974652220666f6e742d66616d696c793d226d6f6e6f9052605782017f73706163652220666f6e742d73697a653d22313070782220786c696e6b3a68729052607782017f65663d22237470223e00000000000000000000000000000000000000000000009052518092608083015e7f3c616e696d6174652061646469746976653d2273756d22206174747269627574910160808101919091527f654e616d653d2273746172744f6666736574222066726f6d3d2230252220746f60a08201527f3d22313030252220626567696e3d22307322206475723d22333073222072657060c08201527f656174436f756e743d22696e646566696e69746522202f3e3c2f74657874506160e08201527f74683e00000000000000000000000000000000000000000000000000000000006101008201520360e381018752611b4c90610103018761407f565b87519b8c9860208a017f3c7465787420746578742d72656e646572696e673d226f7074696d697a655370905289017f656564222066696c7465723d2275726c2823747329223e000000000000000000905251809160578a015e87019060578201905f8252519283915e01605701905f8252518092825e01905f8252518092825e017f3c2f746578743e000000000000000000000000000000000000000000000000008152037fffffffffffffffffffffffffffffffffffffffffffffffffffffffffffffffe781018552600701611c23908561407f565b611c2c88614632565b5091505060608901516002811015613a3f57611c47906147d9565b60608a01516002811015613a3f5760408b0151926008841015613a3f578960886020609c938f8261204b9881611db18473ffffffffffffffffffffffffffffffffffffffff7f33327078222066696c6c3d2277686974652220666f6e742d66616d696c793d229e600b9d611d9b838760a89b0151166b0f0000000000000000000000690fedcba98765432100007ffffffffffffffffffffffffffffffffffffffffffffffffffffffffffffffffc607f6affffffffffffffffffffff687fffffffffffffffff8660591c1668ffffffffffffffffff8760581c16178060021c178060041c178060081c178060101c178060201c178060401c176755555555555555558160011c169003673333333333333333808260021c169116018060041c01670f0f0f0f0f0f0f0f660f0f0f0f0f0f0f8260081c169116018060101c019516948060201c0116604803161c60581b161790565b60a01b9160fc1b9060ff1b171791511617614966565b9488519c8d997f3c672069643d227469746c65223e3c7465787420793d22363070782220783d22848c01528a01527f6d6f6e6f73706163652220666f6e742d7765696768743d223130302220666f6e60608a01527f742d73697a653d2233327078222066696c7465723d2275726c2823747329223e60808a01527f436f6d706163742000000000000000000000000000000000000000000000000060a08a0152805191829101858a015e8701907f3c2f746578743e3c7465787420793d22393070782220783d2233327078222066848301527f696c6c3d2272676261283235352c3235352c3235352c302e36292220666f6e7460c88301527f2d66616d696c793d226d6f6e6f73706163652220666f6e742d7765696768743d60e88301527f2235302220666f6e742d73697a653d2232327078222066696c7465723d2275726101088301527f6c2823747329223e00000000000000000000000000000000000000000000000061012883015280519283910161013083015e0101907f205265736f75726365204c6f636b3c2f746578743e3c7465787420793d223131848301527f3070782220783d2233327078222066696c6c3d2272676261283235352c32353560a88301527f2c3235352c302e36292220666f6e742d66616d696c793d226d6f6e6f7370616360c88301527f652220666f6e742d7765696768743d223130302220666f6e742d73697a653d2260e88301527f31307078222066696c7465723d2275726c2823747329223e49443a200000000061010883015280519283910161012483015e01017f3c2f746578743e3c2f673e0000000000000000000000000000000000000000008382015203017fffffffffffffffffffffffffffffffffffffffffffffffffffffffffffffffeb81018452018261407f565b61205489614632565b5092915061207b73ffffffffffffffffffffffffffffffffffffffff60208d0151166146ac565b60408c01516008811015613a3f5761209290614707565b60608d0151916002831015613a3f576120ab8c936147d9565b908351946120ba60a08761407f565b607c8652602086017f3c67207374796c653d227472616e73666f726d3a7472616e736c61746528343290528486017f3070782c203530707829223e3c7465787420783d22323070782220793d2232389052606086017f70782220746578742d616e63686f723d226d6964646c652220666f6e742d73699052608086017f7a653d223634707822206f7061636974793d22302e34223ef09fa49d000000009052845197818992516020819201602085015e8201602081017f2028000000000000000000000000000000000000000000000000000000000000905281516020819301602283015e01602001600281017f29000000000000000000000000000000000000000000000000000000000000009052036002017fffffffffffffffffffffffffffffffffffffffffffffffffffffffffffffffe181018852600101612200908861407f565b6122086145bc565b6122106145f7565b978551988992602084017f3c666f726569676e4f626a65637420783d22313270782220793d22323270782290528784017f2077696474683d22000000000000000000000000000000000000000000000000905280516020819201604886015e8301604881017f22206865696768743d2200000000000000000000000000000000000000000000905281516020819301605283015e01604801600a81017f223e3c7370616e20786d6c6e733d22687474703a2f2f7777772e77332e6f72679052602a81017f2f313939392f7868746d6c22207374796c653d22666f6e742d66616d696c793a9052604a81017f206d6f6e6f73706163653b666f6e742d73697a653a20313470783b636f6c6f729052606a81017f3a2077686974653b223e00000000000000000000000000000000000000000000905281516020819301607483015e01600a01606a81017f3c2f7370616e3e3c2f666f726569676e4f626a6563743e000000000000000000905203606a017ffffffffffffffffffffffffffffffffffffffffffffffffffffffffffffffff7810188526017016123b1908861407f565b6123b96145bc565b6123c16145f7565b918551928392602084017f3c666f726569676e4f626a65637420783d22313270782220793d22323270782290528784017f2077696474683d22000000000000000000000000000000000000000000000000905280516020819201604886015e8301604881017f22206865696768743d2200000000000000000000000000000000000000000000905281516020819301605283015e01604801600a81017f223e3c7370616e20786d6c6e733d22687474703a2f2f7777772e77332e6f72679052602a81017f2f313939392f7868746d6c22207374796c653d22666f6e742d66616d696c793a9052604a81017f206d6f6e6f73706163653b666f6e742d73697a653a20313470783b636f6c6f729052606a81017f3a2077686974653b223e00000000000000000000000000000000000000000000905281516020819301607483015e01600a01606a81017f3c2f7370616e3e3c2f666f726569676e4f626a6563743e000000000000000000905203606a017ffffffffffffffffffffffffffffffffffffffffffffffffffffffffffffffff781018252601701612562908261407f565b61256b46614c05565b928451978895602087017f3c2f746578743e3c2f673e3c67207374796c653d227472616e73666f726d3a74905286017f72616e736c61746528333270782c20313430707829223e3c72656374207769649052606086017f74683d22323030707822206865696768743d2236347078222072783d223870789052608086017f222072793d22387078222066696c6c3d227267626128302c302c302c302e3629905260a086017f22202f3e3c7465787420783d22313270782220793d22313770782220666f6e74905260c086017f2d66616d696c793d226d6f6e6f73706163652220666f6e742d73697a653d2231905260e086017f327078222066696c6c3d2272676261283235352c3235352c3235352c302e3629905261010086017f223e4c6f636b656420546f6b656e3a203c2f746578743e00000000000000000090528051602081920161011788015e7f3c2f673e3c67207374796c653d227472616e73666f726d3a7472616e736c6174610117918701918201527f6528333270782c20323132707829223e3c726563742077696474683d223230306101378201527f707822206865696768743d2232367078222072783d22387078222072793d22386101578201527f7078222066696c6c3d227267626128302c302c302c302e362922202f3e3c74656101778201527f787420783d22313270782220793d22313770782220666f6e742d66616d696c796101978201527f3d226d6f6e6f73706163652220666f6e742d73697a653d2231327078222066696101b78201527f6c6c3d227768697465223e3c747370616e2066696c6c3d2272676261283235356101d78201527f2c3235352c3235352c302e3629223e526573657420506572696f643a203c2f746101f78201527f7370616e3e000000000000000000000000000000000000000000000000000000610217820152815191829060200161021c83015e7f3c2f746578743e3c2f673e3c67207374796c653d227472616e73666f726d3a7461021c92909101918201527f72616e736c6174652832363070782c20313430707829223e3c7265637420776961023c8201527f6474683d22323130707822206865696768743d2236347078222072783d22387061025c8201527f78222072793d22387078222066696c6c3d227267626128302c302c302c302e3661027c8201527f2922202f3e3c7465787420783d22313270782220793d22313770782220666f6e61029c8201527f742d66616d696c793d226d6f6e6f73706163652220666f6e742d73697a653d226102bc8201527f31327078222066696c6c3d2272676261283235352c3235352c3235352c302e366102dc8201527f29223e416c6c6f6361746f723a203c2f746578743e00000000000000000000006102fc820152815191610117820191839160200190610311015e7f3c2f673e3c67207374796c653d227472616e73666f726d3a7472616e736c61746101fa92909101918201527f652832363070782c20323132707829223e3c726563742077696474683d22323161021a8201527f30707822206865696768743d2232367078222072783d22387078222072793d2261023a8201527f387078222066696c6c3d227267626128302c302c302c302e362922202f3e3c7461025a8201527f65787420783d22313270782220793d22313770782220666f6e742d66616d696c61027a8201527f793d226d6f6e6f73706163652220666f6e742d73697a653d223132707822206661029a8201527f696c6c3d227768697465223e3c747370616e2066696c6c3d22726762612832356102ba8201527f352c3235352c3235352c302e3629223e53636f70653a203c2f747370616e3e006102da8201528151916101058201918391602001906102f9015e0160f50160ff81017f3c2f746578743e3c2f673e3c673e3c7465787420783d223530252220793d2232905261011f81017f363070782220666f6e742d66616d696c793d226d6f6e6f73706163652220666f905261013f81017f6e742d73697a653d2231327078222066696c6c3d227768697465222074657874905261015f81017f2d616e63686f723d226d6964646c65222066696c7465723d2275726c28237473905261017f81017f29223e3c747370616e2066696c6c3d2272676261283235352c3235352c323535905261019f81017f2c302e3629223e4f726967696e20436861696e3a203c2f747370616e3e0000009052815160208193016101bc83015e0160ff0160bd81017f3c2f746578743e3c2f673e00000000000000000000000000000000000000000090520360bd017fffffffffffffffffffffffffffffffffffffffffffffffffffffffffffffffeb81018452600b01612c29908461407f565b885196815191602083017fffffffffffffffffffffffffffffffffffffffffffffffffffffffffffffffe0167fffffffffffffffffffffffffffffffffffffffffffffffffffffffffffffffe0905b80830151818c0152018015612cae577fffffffffffffffffffffffffffffffffffffffffffffffffffffffffffffffe090612c78565b50508351937fffffffffffffffffffffffffffffffffffffffffffffffffffffffffffffffe08060208701165b8083015181868d01015201908b8a8315612d1a575090917fffffffffffffffffffffffffffffffffffffffffffffffffffffffffffffffe09150612cdb565b5f959097018088016020818101979097528189528083019092527f3c7376672077696474683d2235303022206865696768743d223239302220766960608301527f6577426f783d2230203020353030203239302220786d6c6e733d22687474703a60808301527f2f2f7777772e77332e6f72672f323030302f7376672220786d6c6e733a786c6960a08301527f6e6b3d22687474703a2f2f7777772e77332e6f72672f313939392f786c696e6b60c08301527f223e00000000000000000000000000000000000000000000000000000000000060e08301528a51909a612edb9a7fffffffffffffffffffffffffffffffffffffffffffffffffffffffffffffffc69a97998a98899750955060e294879492938f9291849187019088015e0101908382015f8152815193849201905e0101905f8252805192839101825e01905f8252805192839101825e01905f8252805192839101825e015f81528451908160208701825e017f3c2f7376673e0000000000000000000000000000000000000000000000000000815283850190037fffffffffffffffffffffffffffffffffffffffffffffffffffffffffffffffa6810187858701015201858385010161407f565b81810184018051606093909182613a6c575b50505050600260446020612fb993865160a0527f22696d616765223a2022646174613a696d6167652f7376672b786d6c3b6261738260a05101527f6536342c000000000000000000000000000000000000000000000000000000008760a05101528051918291018360a051015e60a051017f222c0000000000000000000000000000000000000000000000000000000000008282015260a0519003017fffffffffffffffffffffffffffffffffffffffffffffffffffffffffffffffe2810160a051520160a05161407f565b612fc284614632565b5050612fea73ffffffffffffffffffffffffffffffffffffffff6020889594950151166146ac565b60408701516008811015613a3f5761300190614707565b9060608801516002811015613a3f57613019906147d9565b90602089015173ffffffffffffffffffffffffffffffffffffffff1661303e90614824565b908751968795602087017f226465736372697074696f6e223a20225b54686520436f6d706163742076315d90528987017f2000000000000000000000000000000000000000000000000000000000000000905280516020819201604189015e8601604181017f2028000000000000000000000000000000000000000000000000000000000000905281516020819301604383015e01604101600281017f29207265736f75726365206c6f636b207573696e672000000000000000000000905281516020819301601883015e01600201601681017f2028000000000000000000000000000000000000000000000000000000000000905281516020819301601883015e01601601600281017f292c200000000000000000000000000000000000000000000000000000000000905281516020819301600583015e01600201600381017f2073636f70652c20616e64206120000000000000000000000000000000000000905281516020819301601183015e7f20726573657420706572696f64222c000000000000000000000000000000000060119290910191820152038083526131ea906020018361407f565b6131f385614632565b9194929190613203600435614966565b875190613210898361407f565b600282527f49440000000000000000000000000000000000000000000000000000000000006020830152613243916149a2565b92875190613251898361407f565b600d82527f546f6b656e2041646472657373000000000000000000000000000000000000006020830152613284916149a2565b95875190613292898361407f565b600a82527f546f6b656e204e616d650000000000000000000000000000000000000000000060208301526132c5916149a2565b908751906132d3898361407f565b600c82527f546f6b656e2053796d626f6c00000000000000000000000000000000000000006020830152613306916149a2565b908751613313898261407f565b600e8152602081017f546f6b656e20446563696d616c7300000000000000000000000000000000000090525f610140526020610140528851936101405161335a908661407f565b5f855289519061336a8b8361407f565b600282526101405182017f7d2c00000000000000000000000000000000000000000000000000000000000090528a519586936101405185017f7b2274726169745f74797065223a202200000000000000000000000000000000905280516020819201603087015e840191603083017f222c202276616c7565223a20000000000000000000000000000000000000000090528151610140518301938185603c83015e01603001600c8101915f835280519283916101405101905e01600c01905f8252518092825e015f8152815180926101405101825e015f8152037fffffffffffffffffffffffffffffffffffffffffffffffffffffffffffffffe081018452613473908461407f565b87519687946101405186017f2261747472696275746573223a205b00000000000000000000000000000000009052805180916101405101602f88015e8501602f8101915f835280519283916101405101905e01602f015f8152815180926101405101825e015f8152815180926101405101825e015f8152815180926101405101825e015f8152037fffffffffffffffffffffffffffffffffffffffffffffffffffffffffffffffe081018452613529908461407f565b602086015173ffffffffffffffffffffffffffffffffffffffff1661354d90614824565b84519061355a868361407f565b601182526101405182017f416c6c6f6361746f7220416464726573730000000000000000000000000000009052613590916149a2565b95602081015173ffffffffffffffffffffffffffffffffffffffff166135b5906146ac565b8551906135c2878361407f565b600e82526101405182017f416c6c6f6361746f72204e616d6500000000000000000000000000000000000090526135f8916149a2565b9060608101516002811015613a3f57613613613650916147d9565b875161361f898261407f565b600581527f53636f7065000000000000000000000000000000000000000000000000000000610140518201526149a2565b60c0526040810151916008831015613a3f5761019498613a35966137126136d56136cd6002966136c48d6136866139b49b614707565b906136938151918261407f565b600c81527f526573657420506572696f640000000000000000000000000000000000000000610140518201526149a2565b61010052614ada565b60a01c614966565b8a516136e18c8261407f565b600881527f4c6f636b20546167000000000000000000000000000000000000000000000000610140518201526149a2565b6101205261371f46614c05565b610160526138bc898051613733828261407f565b600c81527f4f726967696e20436861696e000000000000000000000000000000000000000061014051820152600c6030835192613770858561407f565b600184527f2200000000000000000000000000000000000000000000000000000000000000610140518501528451946137a9818761407f565b600186527f7d00000000000000000000000000000000000000000000000000000000000000610140518701525160e0527f7b2274726169745f74797065223a2022000000000000000000000000000000006101405160e05101528051809161014051018360e051015e60e051017f222c202276616c7565223a2000000000000000000000000000000000000000008282015283519081610140518601603c83015e0101818101905f825261016051518092610140516101605101905e01015f8152815180926101405101825e015f8152815180926101405101825e015f815260e05190037fffffffffffffffffffffffffffffffffffffffffffffffffffffffffffffffe0810160e0515260e05161407f565b60e05150885160805280518091610140510161014051608051015e6080510190610140518201905f825280519182916101405101905e610140519101015f8152815180926101405101825e015f815260c0515190816101405160c05101825e015f815261010051519081610140516101005101825e015f815261012051519081610140516101205101825e015f815260e0515190816101405160e05101825e017f5d7d000000000000000000000000000000000000000000000000000000000000815260805190037fffffffffffffffffffffffffffffffffffffffffffffffffffffffffffffffe28101608051520160805161407f565b602084519586935180916101405186015e8301916101405183015f8152815192839201905e610140519101015f815260a051519081602060a05101825e015f81526080515190816101405160805101825e015f8152037fffffffffffffffffffffffffffffffffffffffffffffffffffffffffffffffe0810184528361407f565b5191829182614037565b7f4e487b71000000000000000000000000000000000000000000000000000000005f52602160045260245ffd5b86517f4142434445464748494a4b4c4d4e4f505152535455565758595a616263646566601f527f6768696a6b6c6d6e6f707172737475767778797a303132333435363738392b2f603f52848301840160600180515f909152949550929391929060208201906004906003905b0191603f8351818160121c16515f538181600c1c1651600153818160061c165160025316516003535f518152019060206003600288010460021b840101821015613b2757600490600390613ad8565b506002855f6003936020966060859a612fb99c60449b010101528b8585850104851b8701018c527f3d3d0000000000000000000000000000000000000000000000000000000000008584068504820352520104841b815293612eed565b91955091926003600287010460021b92604051927f4142434445464748494a4b4c4d4e4f505152535455565758595a616263646566601f526106707f6768696a6b6c6d6e6f707172737475767778797a303132333435363738392d5f18603f5260208401938581019160208a81850195010195600460038851935f8a525b0191603f8351818160121c16515f538181600c1c1651600153818160061c165160025316516003535f518152019085821015613c4357600490600390613c02565b50955260409182019091527f3d3d0000000000000000000000000000000000000000000000000000000000006003909806600204840397909752505f90915290845290603e82816107c4565b95506003600287010460021b95604051937f4142434445464748494a4b4c4d4e4f505152535455565758595a616263646566601f526106707f6768696a6b6c6d6e6f707172737475767778797a303132333435363738392d5f18603f52602085019760208382880196010198600460038b51965f8d525b0191603f8351818160121c16515f538181600c1c1651600153818160061c165160025316516003535f518152019060208701821015613d4a57600490600390613d06565b505f907f3d3d000000000000000000000000000000000000000000000000000000000000600360a29660406107b89a60209f9a60099b520160405206600204820352528552939650610688565b9593506003600287010460021b95604051947f4142434445464748494a4b4c4d4e4f505152535455565758595a616263646566601f526106707f6768696a6b6c6d6e6f707172737475767778797a303132333435363738392d5f18603f52602086019760208382890196010198600460038b51965f8d525b0191603f8351818160121c16515f538181600c1c1651600153818160061c165160025316516003535f518152019060208701821015613e5357600490600390613e0f565b505f907f3d3d000000000000000000000000000000000000000000000000000000000000600360a296604061067c9a60209f9a60099b520160405206600204820352528652965061054d565b7f4e487b71000000000000000000000000000000000000000000000000000000005f52604160045260245ffd5b935050505060a0813d60a011613f61575b81613eea60a0938361407f565b81010312613f5d57613efb816142ab565b90613f08602082016142ab565b906040810151926008841015613f5d576060820151916002831015613f5d57608001517fffffffffffffffffffffffff0000000000000000000000000000000000000000811603613f5d5791929091846102a5565b5f80fd5b3d9150613edd565b6040513d5f823e3d90fd5b34613f5d5760207ffffffffffffffffffffffffffffffffffffffffffffffffffffffffffffffffc360112613f5d5761019460206101886028613fce73ffffffffffffffffffffffffffffffffffffffff600435166140fa565b6040519384917f436f6d7061637420000000000000000000000000000000000000000000000000828401528051918291018484015e81015f8382015203017fffffffffffffffffffffffffffffffffffffffffffffffffffffffffffffffe0810183528261407f565b7fffffffffffffffffffffffffffffffffffffffffffffffffffffffffffffffe0601f602060409481855280519182918282880152018686015e5f8582860101520116010190565b90601f7fffffffffffffffffffffffffffffffffffffffffffffffffffffffffffffffe0910116810190811067ffffffffffffffff821117613e9f57604052565b67ffffffffffffffff8111613e9f57601f017fffffffffffffffffffffffffffffffffffffffffffffffffffffffffffffffe01660200190565b73ffffffffffffffffffffffffffffffffffffffff81161561426f5761412b906306fdde0360045260045f5261449e565b9060405191602083017b5c75303030303031323334353637383961626364656662746e00667260155281518201915b8281036141d957505f81528381037fffffffffffffffffffffffffffffffffffffffffffffffffffffffffffffffe00184526020016040525081511561419c57565b90506040516141ac60408261407f565b600d81527f556e6b6e6f776e20546f6b656e00000000000000000000000000000000000000602082015290565b6001019081519060ff8216916020831015614238576137006001841b161561421657506008600292605c83530151600182015301915b919061415a565b6006925080600f809260041c1651601d531651601e536019518152019161420f565b506b1000000000000004000000006001831b161561426357600291605c82536001820153019161420f565b6001918153019161420f565b5060405161427e60408261407f565b600c81527f4e617469766520546f6b656e0000000000000000000000000000000000000000602082015290565b519073ffffffffffffffffffffffffffffffffffffffff82168203613f5d57565b8060601b156142fa5760208060048160ff9463313ce5678352825f52620186a0fa601f3d1116602051021690565b50601290565b8060601b156144625761431e906395d89b4160045260045f5261449e565b9060405191602083017b5c75303030303031323334353637383961626364656662746e00667260155281518201915b8281036143cc57505f81528381037fffffffffffffffffffffffffffffffffffffffffffffffffffffffffffffffe00184526020016040525081511561438f57565b905060405161439f60408261407f565b600381527f3f3f3f0000000000000000000000000000000000000000000000000000000000602082015290565b6001019081519060ff821691602083101561442b576137006001841b161561440957506008600292605c83530151600182015301915b919061434d565b6006925080600f809260041c1651601d531651601e5360195181520191614402565b506b1000000000000004000000006001831b161561445657600291605c825360018201530191614402565b60019181530191614402565b5060405161447160408261407f565b600381527f4554480000000000000000000000000000000000000000000000000000000000602082015290565b60205f60609282825191620186a0fa156145b957506040518060200160403d1015614521575b5f60203d806103e8106103e8821802188083853e840101535b80515f1a156144ee576001016144dd565b7fffffffffffffffffffffffffffffffffffffffffffffffffffffffffffffffe08282030182525f815260200160405290565b5f517fffffffffffffffffffffffffffffffffffffffffffffffffffffffffffffffe03d01811115614554575b506144c4565b602081843e7fffffffffffffffffffffffffffffffffffffffffffffffffffffffffffffffe0813d030183519081111561458e575061454e565b90604092826020936103e8106103e88218021892839283875201903e82015f60208201520160405290565b90565b604051906145cb60408361407f565b600582527f31393070780000000000000000000000000000000000000000000000000000006020830152565b6040519061460660408361407f565b600482527f34307078000000000000000000000000000000000000000000000000000000006020830152565b9061465373ffffffffffffffffffffffffffffffffffffffff835116614824565b9161467473ffffffffffffffffffffffffffffffffffffffff8251166140fa565b916145b960ff6146a673ffffffffffffffffffffffffffffffffffffffff61469e81875116614300565b9551166142cc565b16614c05565b6146c1906306fdde0360045260045f5261449e565b8051156146cb5790565b506040516146da60408261407f565b601181527f556e6e616d656420416c6c6f6361746f72000000000000000000000000000000602082015290565b7f3330640037643168323468003168356d31306d00316d000031357300317300009060051b1c908160e01b8260f81b15928060f01b158460011b01600503931561479e575b5061476f614759846140c0565b93614767604051958661407f565b8085526140c0565b927fffffffffffffffffffffffffffffffffffffffffffffffffffffffffffffffe06020820194013685379252565b9050602062ffff007cffff0000000000000000000000000000000000000000000000000000008360d81b169260081c161860e81b185f61474c565b604051906147e860408361407f565b600e82526020368184013715790a4d756c7469636861696e0e436861696e2d7370656369666963816078021c9060051b6088011b601f82015290565b9060405191608083016040526f30313233343536373839616263646566600f526002830190602882525f604a85015260601b60015f5b8080018601602284831a600f811651602384015360041c51910153019060148214614888579060019061485a565b50506130786002825101915282528160228101907f8888888888888888888888888888888888888888888888888888888888888880602883201660015f5b82811a7e88000000000000000000000000000000000000000000000000000000000000028180015201906014821461490157906001906148c6565b505060429180517f2020202020202020202020202020202020202020202020202020202020202020815f511660011c161890520180517f2020202020202020202020202020202020202020202020202020202020202020816020511660011c16189052565b61496f90614ca8565b907ffffffffffffffffffffffffffffffffffffffffffffffffffffffffffffffffe600283510192613078815201918252565b6145b99060209260409081516149b8838261407f565b60018152858101907f22000000000000000000000000000000000000000000000000000000000000008252600c878551946149f3878761407f565b600286526030828701977f7d2c0000000000000000000000000000000000000000000000000000000000008952519a8b997f7b2274726169745f74797065223a202200000000000000000000000000000000828c0152805191829101838c015e89017f222c202276616c7565223a200000000000000000000000000000000000000000828201528551908188603c83015e0101908382015f8152815193849201905e0101905f8252518092825e01905f8252518092825e015f8152037fffffffffffffffffffffffffffffffffffffffffffffffffffffffffffffffe0810183528261407f565b614bd773ffffffffffffffffffffffffffffffffffffffff6020830151166b0f0000000000000000000000690fedcba98765432100007ffffffffffffffffffffffffffffffffffffffffffffffffffffffffffffffffc607f6affffffffffffffffffffff687fffffffffffffffff8660591c1668ffffffffffffffffff8760581c16178060021c178060041c178060081c178060101c178060201c178060401c176755555555555555558160011c169003673333333333333333808260021c169116018060041c01670f0f0f0f0f0f0f0f660f0f0f0f0f0f0f8260081c169116018060101c019516948060201c0116604803161c60581b161790565b906060810151906002821015613a3f5760400151916008831015613a3f5760a01b9160fc1b9060ff1b171790565b90604051600a7fffffffffffffffffffffffffffffffffffffffffffffffffffffffffffffffff608083019460a084016040525f8652945b0193818106603001855304928315614c78577fffffffffffffffffffffffffffffffffffffffffffffffffffffffffffffffff600a91614c3d565b92506080837fffffffffffffffffffffffffffffffffffffffffffffffffffffffffffffffe09203019201918252565b906040517ffffffffffffffffffffffffffffffffffffffffffffffffffffffffffffffffe608082019360a083016040525f85526f30313233343536373839616263646566600f52935b0192600f8116516001850153600f8160041c1651845360081c928315614c78577ffffffffffffffffffffffffffffffffffffffffffffffffffffffffffffffffe90614cf256fea2646970667358221220068cac71602d42a4400ab5cc7adee7be61bbc2441bace798a6ca854a556ff4f864736f6c634300081e003360e0806040523461011157610bbd8181016001600160401b038111838210176100fd578291610339833903905ff080156100f2576001600160a01b031660805272f15a6080526060526040526020523d52593df36013527f600b5981380380925939f35a3d383d3860013d355af15a3d383d3860013d355a5f90815260339080f07f600b5981380380925939f35a3d35315a3d35315a60405250602052503d52593d5f5260f360205360215f80f09081158115176100e55760a05260c052604051610223908161011682396080518161010d015260a05181609b015260c0518160550152f35b639f608b8a5f526004601cfd5b6040513d5f823e3d90fd5b634e487b7160e01b5f52604160045260245ffd5b5f80fdfe6080806040526004361015610012575f80fd5b5f3560e01c636d23886514610025575f80fd5b60207ffffffffffffffffffffffffffffffffffffffffffffffffffffffffffffffffc3601126101e957600435907f000000000000000000000000000000000000000000000000000000000000000091305f52806020526034600c2060601c803160023418176101dc575f5260a08260205f60027f00000000000000000000000000000000000000000000000000000000000000005af192825193602084019485519160408601918251916060880151938360808a01519303975f5260608960205f8a5afa98519951905181039903971590151788881417910385111517911615176101dc577f00000000000000000000000000000000000000000000000000000000000000006383ceba495443146101dc575f926060604093436383ceba4955602085519687928682525afa938051906020810151948591015191039303931584841115176101dc573360145260016034526fa9059cbb0000000000000000000000005f525a9060205f6044601082875af1925a935f6034523d1560015f51141716156101dc575f906389afcb448252336020526024601c8338935af1156101dc57604096875196030185520301036020820152f35b639f608b8a5f526004601cfd5b5f80fdfea2646970667358221220b92f7a603a128a078ccdd96b8ca2bf6989b87f620b13b66e6bc4aa8e3110f10c64736f6c634300081e003360a08060405234609757336080526805345cdf77eb68f44c545f198101908110608a576805345cdf77eb68f44c556387a211a2600c52335f526020600c205f1981540190555f19602052600c5160601c5f7fddf252ad1be2c89b69c2b068fc378daa952ba7f163c4a11628f55a4df523b3ef602080a3610b21908161009c82396080518161049c0152f35b63e5cfe9575f526004601cfd5b5f80fdfe60806040526004361015610011575f80fd5b5f3560e01c806306fdde031461093c578063095ea7b31461088257806318160ddd1461083f57806323b872dd1461071e578063313ce567146106e55780633644e5151461061b57806370a08231146105cb5780637ecebe001461057b57806389afcb441461044e57806395d89b41146103df578063a9059cbb14610332578063d505accf146100fe5763dd62ed3e146100a8575f80fd5b346100fa5760407ffffffffffffffffffffffffffffffffffffffffffffffffffffffffffffffffc3601126100fa5760206100f26100e46109eb565b6100ec610a0e565b90610a82565b604051908152f35b5f80fd5b346100fa5760e07ffffffffffffffffffffffffffffffffffffffffffffffffffffffffffffffffc3601126100fa576101356109eb565b61013d610a0e565b604435916064356084359260ff841684036100fa5773ffffffffffffffffffffffffffffffffffffffff16938019156e22d473030f116ddee9f6b43ac78ba3861817156103255761018c610a31565b60208101907f42656e63686d61726b20455243323000000000000000000000000000000000008252519020908242116103185773ffffffffffffffffffffffffffffffffffffffff60405194169465383775081901600e52855f5260c06020600c20958654957f8b73c3c69bb8fe3d512ecc4cf759cc79239f7b179b0ffacaa9a75d522b39400f8252602082019586528660408301967fc89efdaa54c0f20c7adf612882df0950f5a951637e0307cdcb4c672f298b8bc688528b6060850198468a528c608087019330855260a08820602e527f6e71edae12b1b97f4d1f60370fef10105fa2faae0126114a169c64845d6126c9885252528688525260a082015220604e526042602c205f5260ff1660205260a43560405260c43560605260208060805f60015afa93853d510361030b577f8c5be1e5ebec7d5bd14f71427d1e84f3dd0314c0f7b2291e5b200ac8c7c3b9259460209401905585777f5e9f200000000000000000000000000000000000000000176040526034602c2055a3005b63ddafbaef5f526004601cfd5b631a15a3cc5f526004601cfd5b633f68539a5f526004601cfd5b346100fa5760407ffffffffffffffffffffffffffffffffffffffffffffffffffffffffffffffffc3601126100fa576103696109eb565b602435906387a211a2600c52335f526020600c2080548084116103d25783900390555f526020600c20818154019055602052600c5160601c337fddf252ad1be2c89b69c2b068fc378daa952ba7f163c4a11628f55a4df523b3ef602080a3602060405160018152f35b63f4d678b85f526004601cfd5b346100fa575f7ffffffffffffffffffffffffffffffffffffffffffffffffffffffffffffffffc3601126100fa5761044a610418610a31565b7f42454e43484d41524b5f455243323000000000000000000000000000000000006020820152604051918291826109a3565b0390f35b346100fa5760207ffffffffffffffffffffffffffffffffffffffffffffffffffffffffffffffffc3601126100fa576104856109eb565b73ffffffffffffffffffffffffffffffffffffffff7f00000000000000000000000000000000000000000000000000000000000000001673ffffffffffffffffffffffffffffffffffffffff8216908082149033141517610553576387a211a2600c52815f526020600c2054916387a211a2600c525f526020600c20918254928382116103d257815f94039055806805345cdf77eb68f44c54036805345cdf77eb68f44c5582527fddf252ad1be2c89b69c2b068fc378daa952ba7f163c4a11628f55a4df523b3ef602083a3005b7feeddf6ab000000000000000000000000000000000000000000000000000000005f5260045ffd5b346100fa5760207ffffffffffffffffffffffffffffffffffffffffffffffffffffffffffffffffc3601126100fa576105b26109eb565b6338377508600c525f52602080600c2054604051908152f35b346100fa5760207ffffffffffffffffffffffffffffffffffffffffffffffffffffffffffffffffc3601126100fa576106026109eb565b6387a211a2600c525f52602080600c2054604051908152f35b346100fa575f7ffffffffffffffffffffffffffffffffffffffffffffffffffffffffffffffffc3601126100fa57602060a0610655610a31565b828101907f42656e63686d61726b20455243323000000000000000000000000000000000008252519020604051907f8b73c3c69bb8fe3d512ecc4cf759cc79239f7b179b0ffacaa9a75d522b39400f8252838201527fc89efdaa54c0f20c7adf612882df0950f5a951637e0307cdcb4c672f298b8bc6604082015246606082015230608082015220604051908152f35b346100fa575f7ffffffffffffffffffffffffffffffffffffffffffffffffffffffffffffffffc3601126100fa57602060405160128152f35b346100fa5760607ffffffffffffffffffffffffffffffffffffffffffffffffffffffffffffffffc3601126100fa576107556109eb565b61075d610a0e565b604435908260601b6e22d473030f116ddee9f6b43ac78ba333036107f5575b6387a211a217600c526020600c2080548084116103d25783900390555f526020600c2081815401905560205273ffffffffffffffffffffffffffffffffffffffff600c5160601c91167fddf252ad1be2c89b69c2b068fc378daa952ba7f163c4a11628f55a4df523b3ef602080a3602060405160018152f35b33602052637f5e9f208117600c526034600c2090815491821961081b575b50905061077c565b82851161083257846387a211a29303905585610813565b6313be252b5f526004601cfd5b346100fa575f7ffffffffffffffffffffffffffffffffffffffffffffffffffffffffffffffffc3601126100fa5760206805345cdf77eb68f44c54604051908152f35b346100fa5760407ffffffffffffffffffffffffffffffffffffffffffffffffffffffffffffffffc3601126100fa576108b96109eb565b602435908119156e22d473030f116ddee9f6b43ac78ba373ffffffffffffffffffffffffffffffffffffffff831618171561032557602052637f5e9f20600c52335f52806034600c20555f52602c5160601c337f8c5be1e5ebec7d5bd14f71427d1e84f3dd0314c0f7b2291e5b200ac8c7c3b92560205fa3602060405160018152f35b346100fa575f7ffffffffffffffffffffffffffffffffffffffffffffffffffffffffffffffffc3601126100fa5761044a610975610a31565b7f42656e63686d61726b20455243323000000000000000000000000000000000006020820152604051918291825b7fffffffffffffffffffffffffffffffffffffffffffffffffffffffffffffffe0601f602060409481855280519182918282880152018686015e5f8582860101520116010190565b6004359073ffffffffffffffffffffffffffffffffffffffff821682036100fa57565b6024359073ffffffffffffffffffffffffffffffffffffffff821682036100fa57565b604051906040820182811067ffffffffffffffff821117610a5557604052600f8252565b7f4e487b71000000000000000000000000000000000000000000000000000000005f52604160045260245ffd5b906e22d473030f116ddee9f6b43ac78ba373ffffffffffffffffffffffffffffffffffffffff821614610ac557602052637f5e9f20600c525f526034600c205490565b50507fffffffffffffffffffffffffffffffffffffffffffffffffffffffffffffffff9056fea264697066735822122092fb3af1d9d1ca59be875bb6091f936c13c032aa783cca36b4952f4a36185e3564736f6c634300081e0033","linkReferences":{}},"methodIdentifiers":{"__activateTstore()":"7423eb3c","batchClaim((bytes,bytes,address,uint256,uint256,bytes32,string,(uint256,uint256,(uint256,uint256)[])[]))":"6428cb59","batchMultichainClaim((bytes,bytes,address,uint256,uint256,bytes32,string,(uint256,uint256,(uint256,uint256)[])[],bytes32[]))":"cbb6857a","claim((bytes,bytes,address,uint256,uint256,bytes32,string,uint256,uint256,(uint256,uint256)[]))":"054ab40b","exogenousBatchClaim((bytes,bytes,address,uint256,uint256,bytes32,string,(uint256,uint256,(uint256,uint256)[])[],bytes32[],uint256,uint256))":"c42f38e1","exogenousClaim((bytes,bytes,address,uint256,uint256,bytes32,string,uint256,uint256,(uint256,uint256)[],bytes32[],uint256,uint256))":"7e2480ab","multichainClaim((bytes,bytes,address,uint256,uint256,bytes32,string,uint256,uint256,(uint256,uint256)[],bytes32[]))":"7c0ce006"},"id":67}