{"abi":[{"type":"constructor","inputs":[{"name":"mailbox","type":"address","internalType":"address"},{"name":"customHook","type":"address","internalType":"address"},{"name":"ism","type":"address","internalType":"address"}],"stateMutability":"nonpayable"},{"type":"function","name":"MAILBOX","inputs":[],"outputs":[{"name":"","type":"address","internalType":"contract IMailbox"}],"stateMutability":"view"},{"type":"function","name":"efficientRequireProven","inputs":[{"name":"proofSeries","type":"bytes","internalType":"bytes"}],"outputs":[],"stateMutability":"view"},{"type":"function","name":"handle","inputs":[{"name":"messageOrigin","type":"uint32","internalType":"uint32"},{"name":"messageSender","type":"bytes32","internalType":"bytes32"},{"name":"message","type":"bytes","internalType":"bytes"}],"outputs":[],"stateMutability":"payable"},{"type":"function","name":"hook","inputs":[],"outputs":[{"name":"","type":"address","internalType":"contract IPostDispatchHook"}],"stateMutability":"view"},{"type":"function","name":"interchainSecurityModule","inputs":[],"outputs":[{"name":"","type":"address","internalType":"contract IInterchainSecurityModule"}],"stateMutability":"view"},{"type":"function","name":"isProven","inputs":[{"name":"remoteChainId","type":"uint256","internalType":"uint256"},{"name":"remoteOracle","type":"bytes32","internalType":"bytes32"},{"name":"application","type":"bytes32","internalType":"bytes32"},{"name":"dataHash","type":"bytes32","internalType":"bytes32"}],"outputs":[{"name":"","type":"bool","internalType":"bool"}],"stateMutability":"view"},{"type":"function","name":"localDomain","inputs":[],"outputs":[{"name":"","type":"uint32","internalType":"uint32"}],"stateMutability":"view"},{"type":"function","name":"quoteGasPayment","inputs":[{"name":"destinationDomain","type":"uint32","internalType":"uint32"},{"name":"recipientOracle","type":"address","internalType":"address"},{"name":"gasLimit","type":"uint256","internalType":"uint256"},{"name":"customMetadata","type":"bytes","internalType":"bytes"},{"name":"customHook","type":"address","internalType":"contract IPostDispatchHook"},{"name":"source","type":"address","internalType":"address"},{"name":"payloads","type":"bytes[]","internalType":"bytes[]"}],"outputs":[{"name":"","type":"uint256","internalType":"uint256"}],"stateMutability":"view"},{"type":"function","name":"quoteGasPayment","inputs":[{"name":"destinationDomain","type":"uint32","internalType":"uint32"},{"name":"recipientOracle","type":"address","internalType":"address"},{"name":"gasLimit","type":"uint256","internalType":"uint256"},{"name":"customMetadata","type":"bytes","internalType":"bytes"},{"name":"source","type":"address","internalType":"address"},{"name":"payloads","type":"bytes[]","internalType":"bytes[]"}],"outputs":[{"name":"","type":"uint256","internalType":"uint256"}],"stateMutability":"view"},{"type":"function","name":"submit","inputs":[{"name":"destinationDomain","type":"uint32","internalType":"uint32"},{"name":"recipientOracle","type":"address","internalType":"address"},{"name":"gasLimit","type":"uint256","internalType":"uint256"},{"name":"customMetadata","type":"bytes","internalType":"bytes"},{"name":"customHook","type":"address","internalType":"contract IPostDispatchHook"},{"name":"source","type":"address","internalType":"address"},{"name":"payloads","type":"bytes[]","internalType":"bytes[]"}],"outputs":[],"stateMutability":"payable"},{"type":"function","name":"submit","inputs":[{"name":"destinationDomain","type":"uint32","internalType":"uint32"},{"name":"recipientOracle","type":"address","internalType":"address"},{"name":"gasLimit","type":"uint256","internalType":"uint256"},{"name":"customMetadata","type":"bytes","internalType":"bytes"},{"name":"source","type":"address","internalType":"address"},{"name":"payloads","type":"bytes[]","internalType":"bytes[]"}],"outputs":[],"stateMutability":"payable"},{"type":"event","name":"OutputProven","inputs":[{"name":"chainid","type":"uint256","indexed":false,"internalType":"uint256"},{"name":"remoteIdentifier","type":"bytes32","indexed":false,"internalType":"bytes32"},{"name":"application","type":"bytes32","indexed":false,"internalType":"bytes32"},{"name":"payloadHash","type":"bytes32","indexed":false,"internalType":"bytes32"}],"anonymous":false},{"type":"error","name":"InvalidMailbox","inputs":[]},{"type":"error","name":"NotAllPayloadsValid","inputs":[]},{"type":"error","name":"NotDivisible","inputs":[{"name":"value","type":"uint256","internalType":"uint256"},{"name":"divisor","type":"uint256","internalType":"uint256"}]},{"type":"error","name":"NotProven","inputs":[]},{"type":"error","name":"SenderNotMailbox","inputs":[]},{"type":"error","name":"TooLargePayload","inputs":[{"name":"size","type":"uint256","internalType":"uint256"}]},{"type":"error","name":"TooManyPayloads","inputs":[{"name":"size","type":"uint256","internalType":"uint256"}]}],"bytecode":{"object":"0x6101008060405234610128576060816112858038038091610020828561014e565b8339810103126101285761003381610185565b9061004c604061004560208401610185565b9201610185565b916001600160a01b0316801561013f576020816004926080526040519283809263234d8e3d60e21b82525afa908115610134575f916100f1575b5060a0526001600160a01b0390811660c0521660e0526040516110eb908161019a823960805181818161040b015281816104c401528181610c3a0152610db6015260a051816102e6015260c05181818161013401528181610326015261039d015260e0518160df0152f35b90506020813d60201161012c575b8161010c6020938361014e565b81010312610128575163ffffffff81168103610128575f610086565b5f80fd5b3d91506100ff565b6040513d5f823e3d90fd5b632e77a34f60e11b5f5260045ffd5b601f909101601f19168101906001600160401b0382119082101761017157604052565b634e487b7160e01b5f52604160045260245ffd5b51906001600160a01b03821682036101285756fe6080806040526004361015610012575f80fd5b5f3560e01c9081633ff04aff146106dd5750806356d5d4751461044e5780635dc9085c1461042f5780637dc2b8fb146103c15780637f5a7c7b1461035357806388893c461461030a5780638d3638f4146102ac578063a77b286914610282578063ae0dd7701461015b578063b33c7bbd146101075763de523cf314610095575f80fd5b34610103575f7ffffffffffffffffffffffffffffffffffffffffffffffffffffffffffffffffc36011261010357602060405173ffffffffffffffffffffffffffffffffffffffff7f0000000000000000000000000000000000000000000000000000000000000000168152f35b5f80fd5b6101596101316101296101193661088e565b9893909791969594923691610a00565b903390610a94565b907f000000000000000000000000000000000000000000000000000000000000000092610ca7565b005b346101035760207ffffffffffffffffffffffffffffffffffffffffffffffffffffffffffffffffc3601126101035760043567ffffffffffffffff8111610103576101aa903690600401610746565b807fffffffffffffffffffffffffffffffffffffffffffffffffffffffffffffff808116036102525781016001915b8181106102105782156101e857005b7fa506d334000000000000000000000000000000000000000000000000000000005f5260045ffd5b80355f90815260208181526040808320828501358452825280832081850135845282528083206060850135845290915290205490921660ff16916080016101d9565b7fa3ecc749000000000000000000000000000000000000000000000000000000005f52600452608060245260445ffd5b6101596102a6610129610294366107a5565b99939891979592969490983691610a00565b91610ca7565b34610103575f7ffffffffffffffffffffffffffffffffffffffffffffffffffffffffffffffffc36011261010357602060405163ffffffff7f0000000000000000000000000000000000000000000000000000000000000000168152f35b3461010357602061034b6103236101296101193661088e565b907f000000000000000000000000000000000000000000000000000000000000000092610bd8565b604051908152f35b34610103575f7ffffffffffffffffffffffffffffffffffffffffffffffffffffffffffffffffc36011261010357602060405173ffffffffffffffffffffffffffffffffffffffff7f0000000000000000000000000000000000000000000000000000000000000000168152f35b34610103575f7ffffffffffffffffffffffffffffffffffffffffffffffffffffffffffffffffc36011261010357602060405173ffffffffffffffffffffffffffffffffffffffff7f0000000000000000000000000000000000000000000000000000000000000000168152f35b3461010357602061034b610448610129610294366107a5565b91610bd8565b60607ffffffffffffffffffffffffffffffffffffffffffffffffffffffffffffffffc3601126101035760043563ffffffff8116809103610103576024359060443567ffffffffffffffff8111610103576104ad903690600401610746565b73ffffffffffffffffffffffffffffffffffffffff7f00000000000000000000000000000000000000000000000000000000000000001633036106b5578135918160221161010357602081013560f01c9061050782610a7c565b926105156040519485610992565b8284527fffffffffffffffffffffffffffffffffffffffffffffffffffffffffffffffe061054284610a7c565b013660208601376022905f5b8481106106095750505050508051925f5b84811061056857005b807f0181a12666b7d0fe18268f2539395fe14c843ad334ea7210434eae4881d9de6b608061059860019487610951565b51855f525f60205260405f208a5f5260205260405f20885f5260205260405f20815f5260205260405f20857fffffffffffffffffffffffffffffffffffffffffffffffffffffffffffffff00825416179055604051908682528a60208301528860408301526060820152a10161055f565b6001906106696106626002808701966106248882898c610a64565b90357fffff000000000000000000000000000000000000000000000000000000000000811691848110610681575b505060f01c010180968689610a64565b3691610a00565b6020815191012061067a8289610951565b520161054e565b7fffff00000000000000000000000000000000000000000000000000000000000092508290850360031b1b16168f80610652565b7f5a3d6e94000000000000000000000000000000000000000000000000000000005f5260045ffd5b346101035760807ffffffffffffffffffffffffffffffffffffffffffffffffffffffffffffffffc360112610103576020906004355f525f825260405f206024355f52825260405f206044355f52825260405f206064355f52825260ff60405f20541615158152f35b9181601f840112156101035782359167ffffffffffffffff8311610103576020838186019501011161010357565b9181601f840112156101035782359167ffffffffffffffff8311610103576020808501948460051b01011161010357565b9060e07ffffffffffffffffffffffffffffffffffffffffffffffffffffffffffffffffc8301126101035760043563ffffffff81168103610103579160243573ffffffffffffffffffffffffffffffffffffffff8116810361010357916044359160643567ffffffffffffffff8111610103578161082591600401610746565b9290929160843573ffffffffffffffffffffffffffffffffffffffff81168103610103579160a43573ffffffffffffffffffffffffffffffffffffffff81168103610103579160c4359067ffffffffffffffff82116101035761088a91600401610774565b9091565b60c07ffffffffffffffffffffffffffffffffffffffffffffffffffffffffffffffffc8201126101035760043563ffffffff81168103610103579160243573ffffffffffffffffffffffffffffffffffffffff8116810361010357916044359160643567ffffffffffffffff8111610103578261090d91600401610746565b9290929160843573ffffffffffffffffffffffffffffffffffffffff81168103610103579160a4359067ffffffffffffffff82116101035761088a91600401610774565b80518210156109655760209160051b010190565b7f4e487b71000000000000000000000000000000000000000000000000000000005f52603260045260245ffd5b90601f7fffffffffffffffffffffffffffffffffffffffffffffffffffffffffffffffe0910116810190811067ffffffffffffffff8211176109d357604052565b7f4e487b71000000000000000000000000000000000000000000000000000000005f52604160045260245ffd5b92919267ffffffffffffffff82116109d35760405191610a4860207fffffffffffffffffffffffffffffffffffffffffffffffffffffffffffffffe0601f8401160184610992565b829481845281830111610103578281602093845f960137010152565b90939293848311610103578411610103578101920390565b67ffffffffffffffff81116109d35760051b60200190565b6076906020610b3b93947fffffffffffffffffffffffffffffffffffffffff0000000000000000000000006040519687947e01000000000000000000000000000000000000000000000000000000000000858701525f6022870152604286015260601b1660628401528051918291018484015e81015f8382015203017fffffffffffffffffffffffffffffffffffffffffffffffffffffffffffffffe08101835282610992565b90565b907fffffffffffffffffffffffffffffffffffffffffffffffffffffffffffffffe0601f602080948051918291828752018686015e5f8582860101520116010190565b93610bc360809473ffffffffffffffffffffffffffffffffffffffff9463ffffffff610bd1959a999a168852602088015260a0604088015260a0870190610b3e565b908582036060870152610b3e565b9416910152565b929093610c219296602096610bec92610f16565b9560405196879586957f81d2ea9500000000000000000000000000000000000000000000000000000000875260048701610b81565b038173ffffffffffffffffffffffffffffffffffffffff7f0000000000000000000000000000000000000000000000000000000000000000165afa908115610c9c575f91610c6d575090565b90506020813d602011610c94575b81610c8860209383610992565b81010312610103575190565b3d9150610c7b565b6040513d5f823e3d90fd5b929093959491956040517ea2d1bd00000000000000000000000000000000000000000000000000000000815286602482016020600484015252604481018160448960051b8201019186905f7fffffffffffffffffffffffffffffffffffffffffffffffffffffffffffffffe189360301905b8c8110610e6f575050505080602092038173ffffffffffffffffffffffffffffffffffffffff86165afa908115610c9c575f91610e34575b5015610e0c57602095610d9c93610d6792610f16565b9560405196879586957f10b83dc000000000000000000000000000000000000000000000000000000000875260048701610b81565b03813473ffffffffffffffffffffffffffffffffffffffff7f0000000000000000000000000000000000000000000000000000000000000000165af18015610c9c57610de55750565b602090813d8311610e05575b610dfb8183610992565b8101031261010357565b503d610df1565b7f0ef392ae000000000000000000000000000000000000000000000000000000005f5260045ffd5b90506020813d602011610e67575b81610e4f60209383610992565b8101031261010357518015158103610103575f610d51565b3d9150610e42565b91937fffffffffffffffffffffffffffffffffffffffffffffffffffffffffffffffbc908692949603018452843583811215610103578901906020823592019167ffffffffffffffff8111610103578036038313610103576020827fffffffffffffffffffffffffffffffffffffffffffffffffffffffffffffffe0601f8480600198869897879852868601375f8582860101520116010196019401910191859392610d19565b61ffff8311611089576040519060208201527fffff0000000000000000000000000000000000000000000000000000000000008360f01b16604082015260228152610f62604282610992565b925f935b83851015611082578460051b8301357fffffffffffffffffffffffffffffffffffffffffffffffffffffffffffffffe18436030181121561010357830180359067ffffffffffffffff82116101035760200181360381136101035761ffff821161105657600260019360208461104e9482966040519785899651918291018688015e8501917fffff0000000000000000000000000000000000000000000000000000000000008260f01b1685840152602283013701015f8382015203017fffffffffffffffffffffffffffffffffffffffffffffffffffffffffffffffe08101835282610992565b940193610f66565b507fd7297714000000000000000000000000000000000000000000000000000000005f5260045260245ffd5b9350915050565b827f75b8cf75000000000000000000000000000000000000000000000000000000005f5260045260245ffdfea2646970667358221220b7180af651451fdcab86a3452a2500334bfe7a197f8b9894810b1dc181380e1464736f6c634300081e0033","linkReferences":{}},"methodIdentifiers":{"MAILBOX()":"7dc2b8fb","efficientRequireProven(bytes)":"ae0dd770","handle(uint32,bytes32,bytes)":"56d5d475","hook()":"7f5a7c7b","interchainSecurityModule()":"de523cf3","isProven(uint256,bytes32,bytes32,bytes32)":"3ff04aff","localDomain()":"8d3638f4","quoteGasPayment(uint32,address,uint256,bytes,address,address,bytes[])":"5dc9085c","quoteGasPayment(uint32,address,uint256,bytes,address,bytes[])":"88893c46","submit(uint32,address,uint256,bytes,address,address,bytes[])":"a77b2869","submit(uint32,address,uint256,bytes,address,bytes[])":"b33c7bbd"},"id":134}