{"abi":[{"type":"constructor","inputs":[],"stateMutability":"nonpayable"},{"type":"function","name":"DOMAIN_SEPARATOR","inputs":[],"outputs":[{"name":"","type":"bytes32","internalType":"bytes32"}],"stateMutability":"view"},{"type":"function","name":"eip712Domain","inputs":[],"outputs":[{"name":"fields","type":"bytes1","internalType":"bytes1"},{"name":"name","type":"string","internalType":"string"},{"name":"version","type":"string","internalType":"string"},{"name":"chainId","type":"uint256","internalType":"uint256"},{"name":"verifyingContract","type":"address","internalType":"address"},{"name":"salt","type":"bytes32","internalType":"bytes32"},{"name":"extensions","type":"uint256[]","internalType":"uint256[]"}],"stateMutability":"view"},{"type":"function","name":"finalise","inputs":[{"name":"order","type":"tuple","internalType":"struct StandardOrder","components":[{"name":"user","type":"address","internalType":"address"},{"name":"nonce","type":"uint256","internalType":"uint256"},{"name":"originChainId","type":"uint256","internalType":"uint256"},{"name":"expires","type":"uint32","internalType":"uint32"},{"name":"fillDeadline","type":"uint32","internalType":"uint32"},{"name":"inputOracle","type":"address","internalType":"address"},{"name":"inputs","type":"uint256[2][]","internalType":"uint256[2][]"},{"name":"outputs","type":"tuple[]","internalType":"struct MandateOutput[]","components":[{"name":"oracle","type":"bytes32","internalType":"bytes32"},{"name":"settler","type":"bytes32","internalType":"bytes32"},{"name":"chainId","type":"uint256","internalType":"uint256"},{"name":"token","type":"bytes32","internalType":"bytes32"},{"name":"amount","type":"uint256","internalType":"uint256"},{"name":"recipient","type":"bytes32","internalType":"bytes32"},{"name":"callbackData","type":"bytes","internalType":"bytes"},{"name":"context","type":"bytes","internalType":"bytes"}]}]},{"name":"solveParams","type":"tuple[]","internalType":"struct InputSettlerBase.SolveParams[]","components":[{"name":"timestamp","type":"uint32","internalType":"uint32"},{"name":"solver","type":"bytes32","internalType":"bytes32"}]},{"name":"destination","type":"bytes32","internalType":"bytes32"},{"name":"call","type":"bytes","internalType":"bytes"}],"outputs":[],"stateMutability":"nonpayable"},{"type":"function","name":"finaliseWithSignature","inputs":[{"name":"order","type":"tuple","internalType":"struct StandardOrder","components":[{"name":"user","type":"address","internalType":"address"},{"name":"nonce","type":"uint256","internalType":"uint256"},{"name":"originChainId","type":"uint256","internalType":"uint256"},{"name":"expires","type":"uint32","internalType":"uint32"},{"name":"fillDeadline","type":"uint32","internalType":"uint32"},{"name":"inputOracle","type":"address","internalType":"address"},{"name":"inputs","type":"uint256[2][]","internalType":"uint256[2][]"},{"name":"outputs","type":"tuple[]","internalType":"struct MandateOutput[]","components":[{"name":"oracle","type":"bytes32","internalType":"bytes32"},{"name":"settler","type":"bytes32","internalType":"bytes32"},{"name":"chainId","type":"uint256","internalType":"uint256"},{"name":"token","type":"bytes32","internalType":"bytes32"},{"name":"amount","type":"uint256","internalType":"uint256"},{"name":"recipient","type":"bytes32","internalType":"bytes32"},{"name":"callbackData","type":"bytes","internalType":"bytes"},{"name":"context","type":"bytes","internalType":"bytes"}]}]},{"name":"solveParams","type":"tuple[]","internalType":"struct InputSettlerBase.SolveParams[]","components":[{"name":"timestamp","type":"uint32","internalType":"uint32"},{"name":"solver","type":"bytes32","internalType":"bytes32"}]},{"name":"destination","type":"bytes32","internalType":"bytes32"},{"name":"call","type":"bytes","internalType":"bytes"},{"name":"orderOwnerSignature","type":"bytes","internalType":"bytes"}],"outputs":[],"stateMutability":"nonpayable"},{"type":"function","name":"open","inputs":[{"name":"order","type":"tuple","internalType":"struct StandardOrder","components":[{"name":"user","type":"address","internalType":"address"},{"name":"nonce","type":"uint256","internalType":"uint256"},{"name":"originChainId","type":"uint256","internalType":"uint256"},{"name":"expires","type":"uint32","internalType":"uint32"},{"name":"fillDeadline","type":"uint32","internalType":"uint32"},{"name":"inputOracle","type":"address","internalType":"address"},{"name":"inputs","type":"uint256[2][]","internalType":"uint256[2][]"},{"name":"outputs","type":"tuple[]","internalType":"struct MandateOutput[]","components":[{"name":"oracle","type":"bytes32","internalType":"bytes32"},{"name":"settler","type":"bytes32","internalType":"bytes32"},{"name":"chainId","type":"uint256","internalType":"uint256"},{"name":"token","type":"bytes32","internalType":"bytes32"},{"name":"amount","type":"uint256","internalType":"uint256"},{"name":"recipient","type":"bytes32","internalType":"bytes32"},{"name":"callbackData","type":"bytes","internalType":"bytes"},{"name":"context","type":"bytes","internalType":"bytes"}]}]}],"outputs":[],"stateMutability":"nonpayable"},{"type":"function","name":"openFor","inputs":[{"name":"order","type":"tuple","internalType":"struct StandardOrder","components":[{"name":"user","type":"address","internalType":"address"},{"name":"nonce","type":"uint256","internalType":"uint256"},{"name":"originChainId","type":"uint256","internalType":"uint256"},{"name":"expires","type":"uint32","internalType":"uint32"},{"name":"fillDeadline","type":"uint32","internalType":"uint32"},{"name":"inputOracle","type":"address","internalType":"address"},{"name":"inputs","type":"uint256[2][]","internalType":"uint256[2][]"},{"name":"outputs","type":"tuple[]","internalType":"struct MandateOutput[]","components":[{"name":"oracle","type":"bytes32","internalType":"bytes32"},{"name":"settler","type":"bytes32","internalType":"bytes32"},{"name":"chainId","type":"uint256","internalType":"uint256"},{"name":"token","type":"bytes32","internalType":"bytes32"},{"name":"amount","type":"uint256","internalType":"uint256"},{"name":"recipient","type":"bytes32","internalType":"bytes32"},{"name":"callbackData","type":"bytes","internalType":"bytes"},{"name":"context","type":"bytes","internalType":"bytes"}]}]},{"name":"sponsor","type":"address","internalType":"address"},{"name":"signature","type":"bytes","internalType":"bytes"}],"outputs":[],"stateMutability":"nonpayable"},{"type":"function","name":"orderIdentifier","inputs":[{"name":"order","type":"tuple","internalType":"struct StandardOrder","components":[{"name":"user","type":"address","internalType":"address"},{"name":"nonce","type":"uint256","internalType":"uint256"},{"name":"originChainId","type":"uint256","internalType":"uint256"},{"name":"expires","type":"uint32","internalType":"uint32"},{"name":"fillDeadline","type":"uint32","internalType":"uint32"},{"name":"inputOracle","type":"address","internalType":"address"},{"name":"inputs","type":"uint256[2][]","internalType":"uint256[2][]"},{"name":"outputs","type":"tuple[]","internalType":"struct MandateOutput[]","components":[{"name":"oracle","type":"bytes32","internalType":"bytes32"},{"name":"settler","type":"bytes32","internalType":"bytes32"},{"name":"chainId","type":"uint256","internalType":"uint256"},{"name":"token","type":"bytes32","internalType":"bytes32"},{"name":"amount","type":"uint256","internalType":"uint256"},{"name":"recipient","type":"bytes32","internalType":"bytes32"},{"name":"callbackData","type":"bytes","internalType":"bytes"},{"name":"context","type":"bytes","internalType":"bytes"}]}]}],"outputs":[{"name":"","type":"bytes32","internalType":"bytes32"}],"stateMutability":"view"},{"type":"function","name":"orderStatus","inputs":[{"name":"orderId","type":"bytes32","internalType":"bytes32"}],"outputs":[{"name":"","type":"uint8","internalType":"enum InputSettlerEscrow.OrderStatus"}],"stateMutability":"view"},{"type":"function","name":"purchaseOrder","inputs":[{"name":"orderPurchase","type":"tuple","internalType":"struct OrderPurchase","components":[{"name":"orderId","type":"bytes32","internalType":"bytes32"},{"name":"destination","type":"address","internalType":"address"},{"name":"callData","type":"bytes","internalType":"bytes"},{"name":"discount","type":"uint64","internalType":"uint64"},{"name":"timeToBuy","type":"uint32","internalType":"uint32"}]},{"name":"order","type":"tuple","internalType":"struct StandardOrder","components":[{"name":"user","type":"address","internalType":"address"},{"name":"nonce","type":"uint256","internalType":"uint256"},{"name":"originChainId","type":"uint256","internalType":"uint256"},{"name":"expires","type":"uint32","internalType":"uint32"},{"name":"fillDeadline","type":"uint32","internalType":"uint32"},{"name":"inputOracle","type":"address","internalType":"address"},{"name":"inputs","type":"uint256[2][]","internalType":"uint256[2][]"},{"name":"outputs","type":"tuple[]","internalType":"struct MandateOutput[]","components":[{"name":"oracle","type":"bytes32","internalType":"bytes32"},{"name":"settler","type":"bytes32","internalType":"bytes32"},{"name":"chainId","type":"uint256","internalType":"uint256"},{"name":"token","type":"bytes32","internalType":"bytes32"},{"name":"amount","type":"uint256","internalType":"uint256"},{"name":"recipient","type":"bytes32","internalType":"bytes32"},{"name":"callbackData","type":"bytes","internalType":"bytes"},{"name":"context","type":"bytes","internalType":"bytes"}]}]},{"name":"orderSolvedByIdentifier","type":"bytes32","internalType":"bytes32"},{"name":"purchaser","type":"bytes32","internalType":"bytes32"},{"name":"expiryTimestamp","type":"uint256","internalType":"uint256"},{"name":"solverSignature","type":"bytes","internalType":"bytes"}],"outputs":[],"stateMutability":"nonpayable"},{"type":"function","name":"purchasedOrders","inputs":[{"name":"solver","type":"bytes32","internalType":"bytes32"},{"name":"orderId","type":"bytes32","internalType":"bytes32"}],"outputs":[{"name":"lastOrderTimestamp","type":"uint32","internalType":"uint32"},{"name":"purchaser","type":"bytes32","internalType":"bytes32"}],"stateMutability":"view"},{"type":"function","name":"refund","inputs":[{"name":"order","type":"tuple","internalType":"struct StandardOrder","components":[{"name":"user","type":"address","internalType":"address"},{"name":"nonce","type":"uint256","internalType":"uint256"},{"name":"originChainId","type":"uint256","internalType":"uint256"},{"name":"expires","type":"uint32","internalType":"uint32"},{"name":"fillDeadline","type":"uint32","internalType":"uint32"},{"name":"inputOracle","type":"address","internalType":"address"},{"name":"inputs","type":"uint256[2][]","internalType":"uint256[2][]"},{"name":"outputs","type":"tuple[]","internalType":"struct MandateOutput[]","components":[{"name":"oracle","type":"bytes32","internalType":"bytes32"},{"name":"settler","type":"bytes32","internalType":"bytes32"},{"name":"chainId","type":"uint256","internalType":"uint256"},{"name":"token","type":"bytes32","internalType":"bytes32"},{"name":"amount","type":"uint256","internalType":"uint256"},{"name":"recipient","type":"bytes32","internalType":"bytes32"},{"name":"callbackData","type":"bytes","internalType":"bytes"},{"name":"context","type":"bytes","internalType":"bytes"}]}]}],"outputs":[],"stateMutability":"nonpayable"},{"type":"event","name":"EIP712DomainChanged","inputs":[],"anonymous":false},{"type":"event","name":"Finalised","inputs":[{"name":"orderId","type":"bytes32","indexed":true,"internalType":"bytes32"},{"name":"solver","type":"bytes32","indexed":false,"internalType":"bytes32"},{"name":"destination","type":"bytes32","indexed":false,"internalType":"bytes32"}],"anonymous":false},{"type":"event","name":"Open","inputs":[{"name":"orderId","type":"bytes32","indexed":true,"internalType":"bytes32"},{"name":"order","type":"tuple","indexed":false,"internalType":"struct StandardOrder","components":[{"name":"user","type":"address","internalType":"address"},{"name":"nonce","type":"uint256","internalType":"uint256"},{"name":"originChainId","type":"uint256","internalType":"uint256"},{"name":"expires","type":"uint32","internalType":"uint32"},{"name":"fillDeadline","type":"uint32","internalType":"uint32"},{"name":"inputOracle","type":"address","internalType":"address"},{"name":"inputs","type":"uint256[2][]","internalType":"uint256[2][]"},{"name":"outputs","type":"tuple[]","internalType":"struct MandateOutput[]","components":[{"name":"oracle","type":"bytes32","internalType":"bytes32"},{"name":"settler","type":"bytes32","internalType":"bytes32"},{"name":"chainId","type":"uint256","internalType":"uint256"},{"name":"token","type":"bytes32","internalType":"bytes32"},{"name":"amount","type":"uint256","internalType":"uint256"},{"name":"recipient","type":"bytes32","internalType":"bytes32"},{"name":"callbackData","type":"bytes","internalType":"bytes"},{"name":"context","type":"bytes","internalType":"bytes"}]}]}],"anonymous":false},{"type":"event","name":"OrderPurchased","inputs":[{"name":"orderId","type":"bytes32","indexed":true,"internalType":"bytes32"},{"name":"solver","type":"bytes32","indexed":false,"internalType":"bytes32"},{"name":"purchaser","type":"bytes32","indexed":false,"internalType":"bytes32"}],"anonymous":false},{"type":"event","name":"Refunded","inputs":[{"name":"orderId","type":"bytes32","indexed":true,"internalType":"bytes32"}],"anonymous":false},{"type":"error","name":"AlreadyPurchased","inputs":[]},{"type":"error","name":"CallOutOfRange","inputs":[]},{"type":"error","name":"CodeSize0","inputs":[]},{"type":"error","name":"ContextOutOfRange","inputs":[]},{"type":"error","name":"Expired","inputs":[]},{"type":"error","name":"FillDeadlineAfterExpiry","inputs":[{"name":"fillDeadline","type":"uint32","internalType":"uint32"},{"name":"expires","type":"uint32","internalType":"uint32"}]},{"type":"error","name":"FilledTooLate","inputs":[{"name":"expected","type":"uint32","internalType":"uint32"},{"name":"actual","type":"uint32","internalType":"uint32"}]},{"type":"error","name":"HasDirtyBits","inputs":[]},{"type":"error","name":"InvalidOrderStatus","inputs":[]},{"type":"error","name":"InvalidPurchaser","inputs":[]},{"type":"error","name":"InvalidShortString","inputs":[]},{"type":"error","name":"InvalidSigner","inputs":[]},{"type":"error","name":"InvalidTimestampLength","inputs":[]},{"type":"error","name":"NoDestination","inputs":[]},{"type":"error","name":"NotOrderOwner","inputs":[]},{"type":"error","name":"OrderIdMismatch","inputs":[{"name":"provided","type":"bytes32","internalType":"bytes32"},{"name":"computed","type":"bytes32","internalType":"bytes32"}]},{"type":"error","name":"ReentrancyDetected","inputs":[]},{"type":"error","name":"SafeERC20FailedOperation","inputs":[{"name":"token","type":"address","internalType":"address"}]},{"type":"error","name":"SignatureAndInputsNotEqual","inputs":[]},{"type":"error","name":"SignatureNotSupported","inputs":[{"name":"","type":"bytes1","internalType":"bytes1"}]},{"type":"error","name":"StringTooLong","inputs":[{"name":"str","type":"string","internalType":"string"}]},{"type":"error","name":"TimestampNotPassed","inputs":[]},{"type":"error","name":"TimestampPassed","inputs":[]},{"type":"error","name":"WrongChain","inputs":[{"name":"expected","type":"uint256","internalType":"uint256"},{"name":"actual","type":"uint256","internalType":"uint256"}]}],"bytecode":{"object":"0x610160604052346101295760405161001860408261012d565b600981526020810190684f4946457363726f7760b81b82526040519161003f60408461012d565b600183526020830191603160f81b835261005881610164565b61012052610065846102fa565b61014052519020918260e05251902080610100524660a0526040519060208201927f8b73c3c69bb8fe3d512ecc4cf759cc79239f7b179b0ffacaa9a75d522b39400f8452604083015260608201524660808201523060a082015260a081526100ce60c08261012d565b5190206080523060c0526040516135ec908161043382396080518161231a015260a051816123d7015260c051816122eb015260e051816123690152610100518161238f0152610120518161038c015261014051816103b60152f35b5f80fd5b601f909101601f19168101906001600160401b0382119082101761015057604052565b634e487b7160e01b5f52604160045260245ffd5b908151602081105f146101de575090601f81511161019e57602081519101516020821061018f571790565b5f198260200360031b1b161790565b604460209160405192839163305a27a960e01b83528160048401528051918291826024860152018484015e5f828201840152601f01601f19168101030190fd5b6001600160401b038111610150575f54600181811c911680156102f0575b60208210146102dc57601f81116102aa575b50602092601f821160011461024b57928192935f92610240575b50508160011b915f199060031b1c1916175f5560ff90565b015190505f80610228565b601f198216935f8052805f20915f5b868110610292575083600195961061027a575b505050811b015f5560ff90565b01515f1960f88460031b161c191690555f808061026d565b9192602060018192868501518155019401920161025a565b5f8052601f60205f20910160051c810190601f830160051c015b8181106102d1575061020e565b5f81556001016102c4565b634e487b7160e01b5f52602260045260245ffd5b90607f16906101fc565b908151602081105f14610325575090601f81511161019e57602081519101516020821061018f571790565b6001600160401b03811161015057600154600181811c91168015610428575b60208210146102dc57601f81116103f5575b50602092601f821160011461039457928192935f92610389575b50508160011b915f199060031b1c19161760015560ff90565b015190505f80610370565b601f1982169360015f52805f20915f5b8681106103dd57508360019596106103c5575b505050811b0160015560ff90565b01515f1960f88460031b161c191690555f80806103b7565b919260206001819286850151815501940192016103a4565b60015f52601f60205f20910160051c810190601f830160051c015b81811061041d5750610356565b5f8155600101610410565b90607f169061034456fe6080806040526004361015610012575f80fd5b5f905f3560e01c9081632dff692d14611c7a575080633644e51514611c4257806348f49eaf14611a285780634992707414610e0b578063609dbfa014610dea57806372903ef81461081357806373ce1aaa146105f25780637515fd561461048a57806384b0196e146103545780639efa6120146102f15763bab3644114610097575f80fd5b346102825760807ffffffffffffffffffffffffffffffffffffffffffffffffffffffffffffffffc360112610282576004359067ffffffffffffffff821161028257816004016101007ffffffffffffffffffffffffffffffffffffffffffffffffffffffffffffffffc84360301126102ed5760243567ffffffffffffffff81116102e95761012a903690600401611d93565b939060443560643567ffffffffffffffff81116102905761014f903690600401611d65565b94909261015b83612adc565b61016860448601356123fd565b61017182612436565b9773ffffffffffffffffffffffffffffffffffffffff61019282848c612a11565b1633036102c1576101cd81838b6101ab60848b01611e07565b6101b760a48c01611e6c565b906101c560e48d018a6121d4565b929091612b9d565b156102945782879860206101e49301359084612ee0565b846101ed578580f35b60c473ffffffffffffffffffffffffffffffffffffffff6102119316940190611e18565b8391933b1561029057858094610256604051978896879586947f73e57c2700000000000000000000000000000000000000000000000000000000865260048601612295565b03925af180156102855761026d575b808080808580f35b8161027791612254565b61028257805f610265565b80fd5b6040513d84823e3d90fd5b8580fd5b6024877f4e487b710000000000000000000000000000000000000000000000000000000081526032600452fd5b6004887ff6412b5a000000000000000000000000000000000000000000000000000000008152fd5b8280fd5b5080fd5b50346102825760407ffffffffffffffffffffffffffffffffffffffffffffffffffffffffffffffffc360112610282576040809160043581526002602052818120602435825260205220600163ffffffff82541691015482519182526020820152f35b503461028257807ffffffffffffffffffffffffffffffffffffffffffffffffffffffffffffffffc3601126102825761042e906103b07f00000000000000000000000000000000000000000000000000000000000000006132b0565b906103da7f0000000000000000000000000000000000000000000000000000000000000000613423565b90602061043c604051936103ee8386612254565b8385525f3681376040519687967f0f00000000000000000000000000000000000000000000000000000000000000885260e08589015260e0880190611dc4565b908682036040880152611dc4565b904660608601523060808601528260a086015284820360c08601528080855193848152019401925b82811061047357505050500390f35b835185528695509381019392810192600101610464565b50346102825761049936611cd4565b6104a660408201356123fd565b6104e6608082016104be6104b982611e07565b612649565b6104e06104da60608501926104d56104b985611e07565b611e07565b91611e07565b90612680565b6104ef81612436565b90818352600360205260ff60408420541661050981611cca565b6105ca5781835260036020526040832060017fffffffffffffffffffffffffffffffffffffffffffffffffffffffffffffff0082541617905561054b816126c3565b8183526003602052600160ff60408520541661056681611cca565b036105a25761059c7f9ff74bd56d00785b881ef9fa3f03d7b598686a39a9bcff89a6008db588b18a7b916040519182918261206d565b0390a280f35b6004837fc5f2be51000000000000000000000000000000000000000000000000000000008152fd5b6004837f2916ae33000000000000000000000000000000000000000000000000000000008152fd5b50346102825760a07ffffffffffffffffffffffffffffffffffffffffffffffffffffffffffffffffc360112610282576004359067ffffffffffffffff82116102825781600401906101007ffffffffffffffffffffffffffffffffffffffffffffffffffffffffffffffffc84360301126102825760243567ffffffffffffffff81116102ed57610687903690600401611d93565b939060443560643567ffffffffffffffff811161080f576106ac903690600401611d65565b9590926084359767ffffffffffffffff891161080b576107cc6106d7899a9998993690600401611d65565b906106e560448a01356123fd565b8a73ffffffffffffffffffffffffffffffffffffffff6107c561070789612436565b9e8f610714898b83612a11565b9461071e8d612adc565b5061078c8d6039604051610733606082612254565b8181527f322064657374696e6174696f6e2c62797465732063616c6c2900000000000000604060208301927f416c6c6f774f70656e2862797465733332206f7264657249642c627974657333845201522093369161316d565b60208151910120604051916020830193845260408301528c60608301526080820152608081526107bd60a082612254565b5190206131a3565b91166131e4565b156107e3576101cd81838b6101ab60848b01611e07565b6004887f815e1d64000000000000000000000000000000000000000000000000000000008152fd5b8680fd5b8480fd5b50346102825760c07ffffffffffffffffffffffffffffffffffffffffffffffffffffffffffffffffc360112610282576004359067ffffffffffffffff8211610282578160040160a07ffffffffffffffffffffffffffffffffffffffffffffffffffffffffffffffffc84360301126102ed576024359067ffffffffffffffff82116102e957816004016101007ffffffffffffffffffffffffffffffffffffffffffffffffffffffffffffffffc8436030112610de657604435916064359360a43567ffffffffffffffff811161080b576108f2903690600401611d65565b94909361090260448401356123fd565b61090b81612436565b92843593848103610db65789526003602052600160ff60408b20541661093081611cca565b03610d8e579060c4610943920190611e18565b9690958115610d66574260843510610d3e57828952600260205260408920848a526020526040892095600187018054610d1657839060848d01986109868a611e07565b63ffffffff428116908216811115610d095763ffffffff91829103165b1681547fffffffffffffffffffffffffffffffffffffffffffffffffffffffff0000000016179055556040516109da60a082612254565b606281527f4f7264657250757263686173652862797465733332206f7264657249642c616460208201527f64726573732064657374696e6174696f6e2c62797465732063616c6c4461746160408201527f2c75696e74363420646973636f756e742c75696e7433322074696d65546f427560608201527f792900000000000000000000000000000000000000000000000000000000000060809091015260248b01917ffdfed33ca51f7f5656e8607cbef4b775fbfea6c69e452b6c45c0438e1096d21f8c610aa785611e6c565b906044019d610ab68f8b6129c0565b3690610ac19261316d565b80519060200120906064019a610ad68c6129ab565b90610ae090611e07565b9160405193602085019586528b604086015273ffffffffffffffffffffffffffffffffffffffff166060850152608084015267ffffffffffffffff1660a083015263ffffffff1660c082015260c08152610b3b60e082612254565b519020610b47906131a3565b610b68929073ffffffffffffffffffffffffffffffffffffffff87166131e4565b15610ce157610b88610b8267ffffffffffffffff92611e6c565b966129ab565b168890670de0b6b3a764000003670de0b6b3a76400008111915b898110610c4e57505050917f4cdacd323f9cdecf06f8a27bbdd8d66110c7a2d97ea8430a8c3c67d6eb2f6cc06040610be895938a9b9582519182526020820152a26129c0565b93909184610bf4578580f35b73ffffffffffffffffffffffffffffffffffffffff1690813b1561029057858094610256604051978896879586947f73e57c2700000000000000000000000000000000000000000000000000000000865260048601612295565b610c59818b8b612228565b602081013584610cb45783810290808204851490151715610cb457600192918a670de0b6b3a7640000610cae93049173ffffffffffffffffffffffffffffffffffffffff610ca833923561303d565b16613070565b01610ba2565b60248d7f4e487b710000000000000000000000000000000000000000000000000000000081526011600452fd5b6004897f815e1d64000000000000000000000000000000000000000000000000000000008152fd5b505063ffffffff8d6109a3565b60048b7f3367b554000000000000000000000000000000000000000000000000000000008152fd5b6004897f203d82d8000000000000000000000000000000000000000000000000000000008152fd5b6004897fcf7899a1000000000000000000000000000000000000000000000000000000008152fd5b6004897f2916ae33000000000000000000000000000000000000000000000000000000008152fd5b89604491867f0517adf9000000000000000000000000000000000000000000000000000000008352600452602452fd5b8380fd5b5034610282576020610e03610dfe36611cd4565b612436565b604051908152f35b503461161c5760607ffffffffffffffffffffffffffffffffffffffffffffffffffffffffffffffffc36011261161c5760043567ffffffffffffffff811161161c57806004016101007ffffffffffffffffffffffffffffffffffffffffffffffffffffffffffffffffc833603011261161c576024359173ffffffffffffffffffffffffffffffffffffffff831680840361161c5760443567ffffffffffffffff811161161c57610ec0903690600401611d65565b91610ece60448501356123fd565b60848401610ede6104b982611e07565b6064850190610eef6104b983611e07565b610f04610efb82611e07565b6104e084611e07565b610f0d87612436565b97885f52600360205260ff60405f205416610f2781611cca565b611a00575f89815260036020526040902080547fffffffffffffffffffffffffffffffffffffffffffffffffffffffffffffff001660011790558515806119d8576119ab577fff00000000000000000000000000000000000000000000000000000000000000808635165b16806118b45750508460011161161c57610faf60c4870188611e18565b939091610fbb856122bc565b92610fc96040519485612254565b8584527fffffffffffffffffffffffffffffffffffffffffffffffffffffffffffffffe0610ff6876122bc565b015f5b81811061189157505061100b866122bc565b956110196040519788612254565b8087527fffffffffffffffffffffffffffffffffffffffffffffffffffffffffffffffe0611046826122bc565b015f5b81811061186e5750505f5b8181106117d65750505061106790611e07565b92604051926060840184811067ffffffffffffffff8211176117a957604052835260208301976024810135895263ffffffff60408501951685526111cb60405160208101907f5065726d6974325769746e6573732875696e74333220657870697265732c616482527f647265737320696e7075744f7261636c652c4d616e646174654f75747075745b60408201527f5d206f757470757473294d616e646174654f757470757428627974657333322060608201527f6f7261636c652c6279746573333220736574746c65722c75696e74323536206360808201527f6861696e49642c6279746573333220746f6b656e2c75696e7432353620616d6f60a08201527f756e742c6279746573333220726563697069656e742c62797465732063616c6c60c08201527f6261636b446174612c627974657320636f6e746578742900000000000000000060e082015260d781526111c260f782612254565b51902092611e07565b906111e560e46111dd60a48401611e6c565b92018c6121d4565b906111f28260051b612b0e565b915f5b8181106116205750505080602073ffffffffffffffffffffffffffffffffffffffff92519101209163ffffffff604051946020860196875216604085015216606083015260808201526080815261124d60a082612254565b51902091610140936112626040519586612254565b61011c85527f5065726d6974325769746e657373207769746e657373294d616e646174654f7560208601527f747075742862797465733332206f7261636c652c62797465733332207365747460408601527f6c65722c75696e7432353620636861696e49642c6279746573333220746f6b6560608601527f6e2c75696e7432353620616d6f756e742c62797465733332207265636970696560808601527f6e742c62797465732063616c6c6261636b446174612c627974657320636f6e7460a08601527f657874295065726d6974325769746e6573732875696e7433322065787069726560c08601527f732c6164647265737320696e7075744f7261636c652c4d616e646174654f757460e08601527f7075745b5d206f75747075747329546f6b656e5065726d697373696f6e7328616101008601527f64647265737320746f6b656e2c75696e7432353620616d6f756e7429000000006101208601526e22d473030f116ddee9f6b43ac78ba33b1561161c576040517ffe8ec1a700000000000000000000000000000000000000000000000000000000815260c060048201529151606060c48401528051610124840181905292998a9897969594936101448a019392602001905f5b8181106115ca575050505160e4890152516101048801527ffffffffffffffffffffffffffffffffffffffffffffffffffffffffffffffffc878203016024880152602080865192838152019501905f5b81811061157e575050507fffffffffffffffffffffffffffffffffffffffffffffffffffffffffffffffff6114ef611522955f999589989560019560448b015260648a01527ffffffffffffffffffffffffffffffffffffffffffffffffffffffffffffffffc8983030160848a0152611dc4565b937ffffffffffffffffffffffffffffffffffffffffffffffffffffffffffffffffc8786030160a4880152019101611f1f565b0381836e22d473030f116ddee9f6b43ac78ba35af180156115735761155e575b508183526003602052600160ff60408520541661056681611cca565b61156b9193505f90612254565b5f915f611542565b6040513d5f823e3d90fd5b919697509192939460206040826115b86001948b516020809173ffffffffffffffffffffffffffffffffffffffff81511684520151910152565b0197019101918997969594939261147b565b9195969798999a5091929360206040826116076001948a516020809173ffffffffffffffffffffffffffffffffffffffff81511684520151910152565b0196019101918c9a999897969594939261142b565b5f80fd5b8061162e6001928486612b5d565b60c0608d60405161163f8382612254565b8181527f7974657320636f6e74657874290000000000000000000000000000000000000060a060208301927f4d616e646174654f75747075742862797465733332206f7261636c652c62797484527f6573333220736574746c65722c75696e7432353620636861696e49642c62797460408201527f6573333220746f6b656e2c75696e7432353620616d6f756e742c62797465733360608201527f3220726563697069656e742c62797465732063616c6c6261636b446174612c62608082015201522091611719611712838301836129c0565b369161316d565b6020815191012060a061173261171260e08501856129c0565b60208151910120926040519460208601968752813560408701526020820135606087015260408201356080870152606082013583870152608082013590860152013560e0840152610100830152610120820152610120815261179661014082612254565b51902060208260051b87010152016111f5565b7f4e487b71000000000000000000000000000000000000000000000000000000005f52604160045260245ffd5b806117e46001928486612228565b6117f36020820135913561303d565b6117fc8161313d565b73ffffffffffffffffffffffffffffffffffffffff6040519161181e83612238565b168152816020820152611831838a612997565b5261183c8289612997565b506040519061184a82612238565b308252602082015261185c828b612997565b52611867818a612997565b5001611054565b60209060405161187d81612238565b5f81525f8382015282828c01015201611049565b6020906040516118a081612238565b5f81525f8382015282828901015201610ff9565b91939092507f010000000000000000000000000000000000000000000000000000000000000082036119395750506118f260c46118fa960187611e18565b959092611e07565b8460011161161c576119349560017fffffffffffffffffffffffffffffffffffffffffffffffffffffffffffffffff8a97019501936127b2565b61054b565b94509450505050331480611982575b156119575750611934816126c3565b7f5d0b6f18000000000000000000000000000000000000000000000000000000005f5260045260245ffd5b507fff000000000000000000000000000000000000000000000000000000000000008114611948565b7f4e487b71000000000000000000000000000000000000000000000000000000005f52603260045260245ffd5b507fff0000000000000000000000000000000000000000000000000000000000000080610f92565b7f2916ae33000000000000000000000000000000000000000000000000000000005f5260045ffd5b3461161c57611a3636611cd4565b611a4360408201356123fd565b63ffffffff611a5460608301611e07565b16421115611c1a57611a6581612436565b611a7d611a7560c0840184611e18565b919093611e6c565b825f526003602052600160ff60405f205416611a9881611cca565b03611a00575f83815260036020526040902080547fffffffffffffffffffffffffffffffffffffffffffffffffffffffffffffff0016600317905573ffffffffffffffffffffffffffffffffffffffff16905f5b818110611b1a57837ffe509803c09416b28ff3d8f690c8b0c61462a892c46d5430c8fb20abe472daf05f80a2005b611b25818387612228565b73ffffffffffffffffffffffffffffffffffffffff611b44823561303d565b16906020604051917fa9059cbb000000000000000000000000000000000000000000000000000000005f5286600452013560245260205f60448180865af19060015f5114821615611bcc575b60405215611ba15750600101611aec565b7f5274afe7000000000000000000000000000000000000000000000000000000005f5260045260245ffd5b906001811516611be457823b15153d15161690611b90565b503d5f823e3d90fd5b7f4e487b71000000000000000000000000000000000000000000000000000000005f52602160045260245ffd5b7feb21afbd000000000000000000000000000000000000000000000000000000005f5260045ffd5b3461161c575f7ffffffffffffffffffffffffffffffffffffffffffffffffffffffffffffffffc36011261161c576020610e036122d4565b3461161c5760207ffffffffffffffffffffffffffffffffffffffffffffffffffffffffffffffffc36011261161c576020906004355f526003825260ff60405f205416611cc681611cca565b8152f35b60041115611bed57565b60207ffffffffffffffffffffffffffffffffffffffffffffffffffffffffffffffffc82011261161c576004359067ffffffffffffffff821161161c577ffffffffffffffffffffffffffffffffffffffffffffffffffffffffffffffffc826101009203011261161c5760040190565b359073ffffffffffffffffffffffffffffffffffffffff8216820361161c57565b9181601f8401121561161c5782359167ffffffffffffffff831161161c576020838186019501011161161c57565b9181601f8401121561161c5782359167ffffffffffffffff831161161c576020808501948460061b01011161161c57565b907fffffffffffffffffffffffffffffffffffffffffffffffffffffffffffffffe0601f602080948051918291828752018686015e5f8582860101520116010190565b3563ffffffff8116810361161c5790565b9035907fffffffffffffffffffffffffffffffffffffffffffffffffffffffffffffffe18136030182121561161c570180359067ffffffffffffffff821161161c57602001918160061b3603831361161c57565b3573ffffffffffffffffffffffffffffffffffffffff8116810361161c5790565b359063ffffffff8216820361161c57565b916020908281520191905f5b818110611eb75750505090565b90919260408082818760019537019401929101611eaa565b90357fffffffffffffffffffffffffffffffffffffffffffffffffffffffffffffffe18236030181121561161c57016020813591019167ffffffffffffffff821161161c57813603831361161c57565b601f82602094937fffffffffffffffffffffffffffffffffffffffffffffffffffffffffffffffe093818652868601375f8582860101520116010190565b90602083828152019060208160051b85010193835f915b838310611f845750505050505090565b9091929394957fffffffffffffffffffffffffffffffffffffffffffffffffffffffffffffffe082820301865286357fffffffffffffffffffffffffffffffffffffffffffffffffffffffffffffff018436030181121561161c57602061205f600193868394019081358152838201358482015260408201356040820152606082013560608201526080820135608082015260a082013560a082015261205161204661203360c0850185611ecf565b61010060c0860152610100850191611f1f565b9260e0810190611ecf565b9160e0818503910152611f1f565b980196019493019190611f74565b906020825273ffffffffffffffffffffffffffffffffffffffff61209082611d44565b166020830152602081013560408301526040810135606083015263ffffffff6120bb60608301611e8d565b16608083015263ffffffff6120d260808301611e8d565b1660a083015273ffffffffffffffffffffffffffffffffffffffff6120f960a08301611d44565b1660c083015260c0810135907fffffffffffffffffffffffffffffffffffffffffffffffffffffffffffffffe181360301918281121561161c57810160208135910167ffffffffffffffff821161161c578160061b3603811361161c5761216d9161010060e0870152610120860191611e9e565b9160e08201359081121561161c570160208135910167ffffffffffffffff821161161c578160051b3603811361161c57836101007fffffffffffffffffffffffffffffffffffffffffffffffffffffffffffffffe06121d196860301910152611f5d565b90565b9035907fffffffffffffffffffffffffffffffffffffffffffffffffffffffffffffffe18136030182121561161c570180359067ffffffffffffffff821161161c57602001918160051b3603831361161c57565b91908110156119ab5760061b0190565b6040810190811067ffffffffffffffff8211176117a957604052565b90601f7fffffffffffffffffffffffffffffffffffffffffffffffffffffffffffffffe0910116810190811067ffffffffffffffff8211176117a957604052565b92906122ae906121d19593604086526040860191611e9e565b926020818503910152611f1f565b67ffffffffffffffff81116117a95760051b60200190565b73ffffffffffffffffffffffffffffffffffffffff7f0000000000000000000000000000000000000000000000000000000000000000163014806123d4575b1561233c577f000000000000000000000000000000000000000000000000000000000000000090565b60405160208101907f8b73c3c69bb8fe3d512ecc4cf759cc79239f7b179b0ffacaa9a75d522b39400f82527f000000000000000000000000000000000000000000000000000000000000000060408201527f000000000000000000000000000000000000000000000000000000000000000060608201524660808201523060a082015260a081526123ce60c082612254565b51902090565b507f00000000000000000000000000000000000000000000000000000000000000004614612313565b4681036124075750565b7f24497bc3000000000000000000000000000000000000000000000000000000005f526004524660245260445ffd5b61243f81611e6c565b9061244c60608201611e07565b9061245960808201611e07565b61246560a08301611e6c565b9061247360c0840184611e18565b90604051809160208201938491905f5b81811061262d57505050037fffffffffffffffffffffffffffffffffffffffffffffffffffffffffffffffe0810182526124bd9082612254565b5190206124cd60e08501856121d4565b939092604051809460208201966020885260408301906124ec92611f5d565b037fffffffffffffffffffffffffffffffffffffffffffffffffffffffffffffffe08101855261251c9085612254565b6040519687966020880199468b523060601b60408a015260601b7fffffffffffffffffffffffffffffffffffffffff00000000000000000000000016605489015260200135606888015260e01b7fffffffff0000000000000000000000000000000000000000000000000000000016608887015260e01b7fffffffff0000000000000000000000000000000000000000000000000000000016608c86015260601b7fffffffffffffffffffffffffffffffffffffffff00000000000000000000000016609085015260a484015251809160c484015e810160c481015f90520360c4017fffffffffffffffffffffffffffffffffffffffffffffffffffffffffffffffe0810182526123ce9082612254565b9193509160408082818760019537019401910191849392612483565b63ffffffff1642101561265857565b7f4a313c2d000000000000000000000000000000000000000000000000000000005f5260045ffd5b63ffffffff9182169116818111612695575050565b7ff31549ef000000000000000000000000000000000000000000000000000000005f5260045260245260445ffd5b6126d19060c0810190611e18565b5f5b8181106126df57505050565b8061271f6126f06001938587612228565b60206126fc823561303d565b91013590309073ffffffffffffffffffffffffffffffffffffffff339116613070565b016126d3565b929360e09473ffffffffffffffffffffffffffffffffffffffff6121d19997948163ffffffff9516875216602086015260408501525f606085015216608083015260a08201528160c08201520191611f1f565b67ffffffffffffffff81116117a957601f017fffffffffffffffffffffffffffffffffffffffffffffffffffffffffffffffe01660200190565b949592939095600187146128c2575b50803501948535810361289a575f5b8181106127e05750505050505050565b6127eb818388612228565b906001810160051b880135880173ffffffffffffffffffffffffffffffffffffffff612817843561303d565b1690813b1561161c575f9186838a6128708b95604051998a97889687957f88b7ab630000000000000000000000000000000000000000000000000000000087526020604081870135960194013590309060048901612725565b03925af19182156115735760019261288a575b50016127d0565b5f61289491612254565b5f612883565b7f06f68b62000000000000000000000000000000000000000000000000000000005f5260045ffd5b86156119ab575f838761293f886129138596888b6040519788956020808801997f88b7ab63000000000000000000000000000000000000000000000000000000008b52013590309060248901612725565b037fffffffffffffffffffffffffffffffffffffffffffffffffffffffffffffffe08101845283612254565b8261294a8a3561303d565b926129548461313d565b51925af13d15612992573d61296881612778565b906129766040519283612254565b81525f60203d92013e5b61298a575f6127c1565b505050505050565b612980565b80518210156119ab5760209160051b010190565b3567ffffffffffffffff8116810361161c5790565b9035907fffffffffffffffffffffffffffffffffffffffffffffffffffffffffffffffe18136030182121561161c570180359067ffffffffffffffff821161161c5760200191813603831361161c57565b9180156119ab57602082013592835f52600260205260405f20905f5260205260405f20805490600181019081549485612a4e575b50505050505090565b63ffffffff612a5c82611e07565b169460015b818110612aae575050507fffffffffffffffffffffffffffffffffffffffffffffffffffffffff00000000831690555f905563ffffffff161115612aa9578080808080612a45565b905090565b63ffffffff612ac16104d5838587612228565b16808810612ad3575b50600101612a61565b96506001612aca565b60601b15612ae657565b7fb8e78e80000000000000000000000000000000000000000000000000000000005f5260045ffd5b90612b1882612778565b612b256040519182612254565b8281527fffffffffffffffffffffffffffffffffffffffffffffffffffffffffffffffe0612b538294612778565b0190602036910137565b91908110156119ab5760051b810135907fffffffffffffffffffffffffffffffffffffffffffffffffffffffffffffff018136030182121561161c570190565b90949295939193868103612eb8577f01ffffffffffffffffffffffffffffffffffffffffffffffffffffffffffffff87168703612e8b57612be08760071b612b0e565b965f5b818110612c6d575050505050505073ffffffffffffffffffffffffffffffffffffffff16803b1561161c57612c50915f9160405180809581947fae0dd770000000000000000000000000000000000000000000000000000000008352602060048401526024830190611dc4565b03915afa801561157357612c615750565b5f612c6b91612254565b565b612c7b6104d5828589612228565b63ffffffff811663ffffffff8616818110612e5d575050612c9d82848a612b5d565b906020612cab84878b612228565b013590612cbb60c08401846129c0565b90612cc960e08601866129c0565b9161ffff8411612e355761ffff8311612e0d57838c948492604051978897602089019a8b52604089015260e01b7fffffffff0000000000000000000000000000000000000000000000000000000016606088015260608a0135606488015260808a0135608488015260a08a013560a48801528160f01b7fffff0000000000000000000000000000000000000000000000000000000000001660c488015260c68701378401918160f01b7fffff0000000000000000000000000000000000000000000000000000000000001660c684015260c88301370160c601600281015f9052036002017fffffffffffffffffffffffffffffffffffffffffffffffffffffffffffffffe081018252612ddc9082612254565b519020908260071b8b0190604081013560208301528035604083015260200135606082015260800152600101612be3565b7fd94d6ce6000000000000000000000000000000000000000000000000000000005f5260045ffd5b7f4fe9ad23000000000000000000000000000000000000000000000000000000005f5260045ffd5b7f0ad67c09000000000000000000000000000000000000000000000000000000005f5260045260245260445ffd5b7f4e487b71000000000000000000000000000000000000000000000000000000005f52601160045260245ffd5b7f12d48609000000000000000000000000000000000000000000000000000000005f5260045ffd5b612ef19093919360c0810190611e18565b9073ffffffffffffffffffffffffffffffffffffffff831691855f526003602052600160ff60405f205416612f2581611cca565b03611a00575f86815260036020526040812080547fffffffffffffffffffffffffffffffffffffffffffffffffffffffffffffff001660021790555b818110612f9e57505050507f6d1ab3c99edb0b034244c4a410afdfc12e0fef57313ad9bc936138f2b080025b9160409182519182526020820152a2565b612fa9818385612228565b73ffffffffffffffffffffffffffffffffffffffff612fc8823561303d565b16906020604051917fa9059cbb000000000000000000000000000000000000000000000000000000005f5287600452013560245260205f60448180865af19060015f5114821615613025575b60405215611ba15750600101612f61565b906001811516611be457823b15153d15161690613014565b8060a01c6130485790565b7f5f3d6d4f000000000000000000000000000000000000000000000000000000005f5260045ffd5b92909173ffffffffffffffffffffffffffffffffffffffff9081604051947f23b872dd000000000000000000000000000000000000000000000000000000005f52166004521660245260445260205f60648180865af19060015f5114821615613125575b6040525f606052156130e35750565b73ffffffffffffffffffffffffffffffffffffffff907f5274afe7000000000000000000000000000000000000000000000000000000005f521660045260245ffd5b906001811516611be457823b15153d151616906130d4565b3b1561314557565b7ffbc1d8e2000000000000000000000000000000000000000000000000000000005f5260045ffd5b92919261317982612778565b916131876040519384612254565b82948184528183011161161c578281602093845f960137010152565b6042906131ae6122d4565b90604051917f19010000000000000000000000000000000000000000000000000000000000008352600283015260228201522090565b929190833b61322e57906131f892916134f3565b5061320281611cca565b15918261320e57505090565b73ffffffffffffffffffffffffffffffffffffffff919250811691161490565b6064613240602095935f95369161316d565b805190604051937f1626ba7e00000000000000000000000000000000000000000000000000000000855260048501526040602485015286820190604485015e01915afa7f1626ba7e000000000000000000000000000000000000000000000000000000005f5114601f3d11161690565b60ff811461330f5760ff811690601f82116132e757604051916132d4604084612254565b6020808452838101919036833783525290565b7fb3512b0c000000000000000000000000000000000000000000000000000000005f5260045ffd5b506040515f5f548060011c9160018216918215613419575b6020841083146133ec5783855284929081156133af5750600114613352575b6121d192500382612254565b505f80805290917f290decd9548b62a8d60345a988386fc84ba6bc95484008f6362f93160ef3e5635b8183106133935750509060206121d192820101613346565b602091935080600191548385880101520191019091839261337b565b602092506121d19491507fffffffffffffffffffffffffffffffffffffffffffffffffffffffffffffff001682840152151560051b820101613346565b7f4e487b71000000000000000000000000000000000000000000000000000000005f52602260045260245ffd5b92607f1692613327565b60ff81146134475760ff811690601f82116132e757604051916132d4604084612254565b506040515f6001548060011c91600182169182156134e9575b6020841083146133ec5783855284929081156133af575060011461348a576121d192500382612254565b5060015f90815290917fb10e2d527612073b26eecdfd717e6a320cf44b4afac2b0732d9fcbe2b7fa0cf65b8183106134cd5750509060206121d192820101613346565b60209193508060019154838588010152019101909183926134b5565b92607f1692613460565b906041830361351d576135169250602081013591604082359201355f1a90613527565b9192909190565b50505f9160029190565b91907f7fffffffffffffffffffffffffffffff5d576e7357a4501ddfe92f46681b20a084116135ab579160209360809260ff5f9560405194855216868401526040830152606082015282805260015afa15611573575f5173ffffffffffffffffffffffffffffffffffffffff8116156135a157905f905f90565b505f906001905f90565b5050505f916003919056fea264697066735822122044d1cd6d7fe3c6fcce17be79cf84696f4f76a2a77765794e9aff7333e02f255164736f6c634300081e0033","linkReferences":{}},"methodIdentifiers":{"DOMAIN_SEPARATOR()":"3644e515","eip712Domain()":"84b0196e","finalise((address,uint256,uint256,uint32,uint32,address,uint256[2][],(bytes32,bytes32,uint256,bytes32,uint256,bytes32,bytes,bytes)[]),(uint32,bytes32)[],bytes32,bytes)":"bab36441","finaliseWithSignature((address,uint256,uint256,uint32,uint32,address,uint256[2][],(bytes32,bytes32,uint256,bytes32,uint256,bytes32,bytes,bytes)[]),(uint32,bytes32)[],bytes32,bytes,bytes)":"73ce1aaa","open((address,uint256,uint256,uint32,uint32,address,uint256[2][],(bytes32,bytes32,uint256,bytes32,uint256,bytes32,bytes,bytes)[]))":"7515fd56","openFor((address,uint256,uint256,uint32,uint32,address,uint256[2][],(bytes32,bytes32,uint256,bytes32,uint256,bytes32,bytes,bytes)[]),address,bytes)":"49927074","orderIdentifier((address,uint256,uint256,uint32,uint32,address,uint256[2][],(bytes32,bytes32,uint256,bytes32,uint256,bytes32,bytes,bytes)[]))":"609dbfa0","orderStatus(bytes32)":"2dff692d","purchaseOrder((bytes32,address,bytes,uint64,uint32),(address,uint256,uint256,uint32,uint32,address,uint256[2][],(bytes32,bytes32,uint256,bytes32,uint256,bytes32,bytes,bytes)[]),bytes32,bytes32,uint256,bytes)":"72903ef8","purchasedOrders(bytes32,bytes32)":"9efa6120","refund((address,uint256,uint256,uint32,uint32,address,uint256[2][],(bytes32,bytes32,uint256,bytes32,uint256,bytes32,bytes,bytes)[]))":"48f49eaf"},"id":115}