{"abi":[{"type":"function","name":"chainId","inputs":[],"outputs":[{"name":"","type":"uint16","internalType":"uint16"}],"stateMutability":"view"},{"type":"function","name":"evmChainId","inputs":[],"outputs":[{"name":"","type":"uint256","internalType":"uint256"}],"stateMutability":"view"},{"type":"function","name":"getCurrentGuardianSetIndex","inputs":[],"outputs":[{"name":"","type":"uint32","internalType":"uint32"}],"stateMutability":"view"},{"type":"function","name":"getGuardianSet","inputs":[{"name":"index","type":"uint32","internalType":"uint32"}],"outputs":[{"name":"","type":"tuple","internalType":"struct Structs.GuardianSet","components":[{"name":"keys","type":"address[]","internalType":"address[]"},{"name":"expirationTime","type":"uint32","internalType":"uint32"}]}],"stateMutability":"view"},{"type":"function","name":"getGuardianSetExpiry","inputs":[],"outputs":[{"name":"","type":"uint32","internalType":"uint32"}],"stateMutability":"view"},{"type":"function","name":"governanceActionIsConsumed","inputs":[{"name":"hash","type":"bytes32","internalType":"bytes32"}],"outputs":[{"name":"","type":"bool","internalType":"bool"}],"stateMutability":"view"},{"type":"function","name":"governanceChainId","inputs":[],"outputs":[{"name":"","type":"uint16","internalType":"uint16"}],"stateMutability":"view"},{"type":"function","name":"governanceContract","inputs":[],"outputs":[{"name":"","type":"bytes32","internalType":"bytes32"}],"stateMutability":"view"},{"type":"function","name":"isFork","inputs":[],"outputs":[{"name":"","type":"bool","internalType":"bool"}],"stateMutability":"view"},{"type":"function","name":"isInitialized","inputs":[{"name":"impl","type":"address","internalType":"address"}],"outputs":[{"name":"","type":"bool","internalType":"bool"}],"stateMutability":"view"},{"type":"function","name":"messageFee","inputs":[],"outputs":[{"name":"","type":"uint256","internalType":"uint256"}],"stateMutability":"view"},{"type":"function","name":"nextSequence","inputs":[{"name":"emitter","type":"address","internalType":"address"}],"outputs":[{"name":"","type":"uint64","internalType":"uint64"}],"stateMutability":"view"},{"type":"function","name":"parseAndVerifyVM","inputs":[{"name":"encodedVM","type":"bytes","internalType":"bytes"}],"outputs":[{"name":"vm","type":"tuple","internalType":"struct Structs.VM","components":[{"name":"version","type":"uint8","internalType":"uint8"},{"name":"timestamp","type":"uint32","internalType":"uint32"},{"name":"nonce","type":"uint32","internalType":"uint32"},{"name":"emitterChainId","type":"uint16","internalType":"uint16"},{"name":"emitterAddress","type":"bytes32","internalType":"bytes32"},{"name":"sequence","type":"uint64","internalType":"uint64"},{"name":"consistencyLevel","type":"uint8","internalType":"uint8"},{"name":"payload","type":"bytes","internalType":"bytes"},{"name":"guardianSetIndex","type":"uint32","internalType":"uint32"},{"name":"signatures","type":"tuple[]","internalType":"struct Structs.Signature[]","components":[{"name":"r","type":"bytes32","internalType":"bytes32"},{"name":"s","type":"bytes32","internalType":"bytes32"},{"name":"v","type":"uint8","internalType":"uint8"},{"name":"guardianIndex","type":"uint8","internalType":"uint8"}]},{"name":"hash","type":"bytes32","internalType":"bytes32"}]},{"name":"valid","type":"bool","internalType":"bool"},{"name":"reason","type":"string","internalType":"string"}],"stateMutability":"view"},{"type":"function","name":"parseVM","inputs":[{"name":"encodedVM","type":"bytes","internalType":"bytes"}],"outputs":[{"name":"vm","type":"tuple","internalType":"struct Structs.VM","components":[{"name":"version","type":"uint8","internalType":"uint8"},{"name":"timestamp","type":"uint32","internalType":"uint32"},{"name":"nonce","type":"uint32","internalType":"uint32"},{"name":"emitterChainId","type":"uint16","internalType":"uint16"},{"name":"emitterAddress","type":"bytes32","internalType":"bytes32"},{"name":"sequence","type":"uint64","internalType":"uint64"},{"name":"consistencyLevel","type":"uint8","internalType":"uint8"},{"name":"payload","type":"bytes","internalType":"bytes"},{"name":"guardianSetIndex","type":"uint32","internalType":"uint32"},{"name":"signatures","type":"tuple[]","internalType":"struct Structs.Signature[]","components":[{"name":"r","type":"bytes32","internalType":"bytes32"},{"name":"s","type":"bytes32","internalType":"bytes32"},{"name":"v","type":"uint8","internalType":"uint8"},{"name":"guardianIndex","type":"uint8","internalType":"uint8"}]},{"name":"hash","type":"bytes32","internalType":"bytes32"}]}],"stateMutability":"pure"},{"type":"function","name":"quorum","inputs":[{"name":"numGuardians","type":"uint256","internalType":"uint256"}],"outputs":[{"name":"numSignaturesRequiredForQuorum","type":"uint256","internalType":"uint256"}],"stateMutability":"pure"},{"type":"function","name":"verifySignatures","inputs":[{"name":"hash","type":"bytes32","internalType":"bytes32"},{"name":"signatures","type":"tuple[]","internalType":"struct Structs.Signature[]","components":[{"name":"r","type":"bytes32","internalType":"bytes32"},{"name":"s","type":"bytes32","internalType":"bytes32"},{"name":"v","type":"uint8","internalType":"uint8"},{"name":"guardianIndex","type":"uint8","internalType":"uint8"}]},{"name":"guardianSet","type":"tuple","internalType":"struct Structs.GuardianSet","components":[{"name":"keys","type":"address[]","internalType":"address[]"},{"name":"expirationTime","type":"uint32","internalType":"uint32"}]}],"outputs":[{"name":"valid","type":"bool","internalType":"bool"},{"name":"reason","type":"string","internalType":"string"}],"stateMutability":"pure"},{"type":"function","name":"verifyVM","inputs":[{"name":"vm","type":"tuple","internalType":"struct Structs.VM","components":[{"name":"version","type":"uint8","internalType":"uint8"},{"name":"timestamp","type":"uint32","internalType":"uint32"},{"name":"nonce","type":"uint32","internalType":"uint32"},{"name":"emitterChainId","type":"uint16","internalType":"uint16"},{"name":"emitterAddress","type":"bytes32","internalType":"bytes32"},{"name":"sequence","type":"uint64","internalType":"uint64"},{"name":"consistencyLevel","type":"uint8","internalType":"uint8"},{"name":"payload","type":"bytes","internalType":"bytes"},{"name":"guardianSetIndex","type":"uint32","internalType":"uint32"},{"name":"signatures","type":"tuple[]","internalType":"struct Structs.Signature[]","components":[{"name":"r","type":"bytes32","internalType":"bytes32"},{"name":"s","type":"bytes32","internalType":"bytes32"},{"name":"v","type":"uint8","internalType":"uint8"},{"name":"guardianIndex","type":"uint8","internalType":"uint8"}]},{"name":"hash","type":"bytes32","internalType":"bytes32"}]}],"outputs":[{"name":"valid","type":"bool","internalType":"bool"},{"name":"reason","type":"string","internalType":"string"}],"stateMutability":"view"}],"bytecode":{"object":"0x60808060405234601557611e2b908161001a8239f35b5f80fdfe60806040526004361015610011575f80fd5b5f3560e01c80631a90a219146101245780631cfe79511461011f5780632c3c02a41461011a5780634cf842b51461011557806364d42b1714610110578063875be02a1461010b5780639a8a059214610106578063a0cce1b314610101578063a9e11893146100fc578063b172b222146100f7578063c0fd8bde146100f2578063d60b347f146100ed578063e039f224146100e8578063eb8d3f12146100e3578063f8ce560a146100de578063f951975a146100d95763fbe3c2cd146100d4575f80fd5b610cce565b610c1f565b610bdb565b610b98565b610b5a565b610af2565b610a66565b610a00565b610992565b610745565b610707565b610595565b6102a2565b610235565b6101a4565b610163565b3461015f575f7ffffffffffffffffffffffffffffffffffffffffffffffffffffffffffffffffc36011261015f576020600754604051908152f35b5f80fd5b3461015f575f7ffffffffffffffffffffffffffffffffffffffffffffffffffffffffffffffffc36011261015f57602063ffffffff60035416604051908152f35b3461015f5760207ffffffffffffffffffffffffffffffffffffffffffffffffffffffffffffffffc36011261015f576004355f526005602052602060ff60405f2054166040519015158152f35b6004359073ffffffffffffffffffffffffffffffffffffffff8216820361015f57565b359073ffffffffffffffffffffffffffffffffffffffff8216820361015f57565b3461015f5760207ffffffffffffffffffffffffffffffffffffffffffffffffffffffffffffffffc36011261015f5773ffffffffffffffffffffffffffffffffffffffff6102816101f1565b165f526004602052602067ffffffffffffffff60405f205416604051908152f35b3461015f575f7ffffffffffffffffffffffffffffffffffffffffffffffffffffffffffffffffc36011261015f576020600854604051908152f35b7f4e487b71000000000000000000000000000000000000000000000000000000005f52604160045260245ffd5b6080810190811067ffffffffffffffff82111761032657604052565b6102dd565b6040810190811067ffffffffffffffff82111761032657604052565b90601f7fffffffffffffffffffffffffffffffffffffffffffffffffffffffffffffffe0910116810190811067ffffffffffffffff82111761032657604052565b6040519061039861016083610347565b565b359060ff8216820361015f57565b6004359063ffffffff8216820361015f57565b359063ffffffff8216820361015f57565b359061ffff8216820361015f57565b359067ffffffffffffffff8216820361015f57565b67ffffffffffffffff811161032657601f017fffffffffffffffffffffffffffffffffffffffffffffffffffffffffffffffe01660200190565b929192610436826103f0565b916104446040519384610347565b82948184528183011161015f578281602093845f960137010152565b9080601f8301121561015f5781602061047b9335910161042a565b90565b67ffffffffffffffff81116103265760051b60200190565b81601f8201121561015f578035906104ad8261047e565b926104bb6040519485610347565b82845260208085019360071b8301019181831161015f57602001925b8284106104e5575050505090565b60808483031261015f5760206080916040516105008161030a565b8635815282870135838201526105186040880161039a565b60408201526105296060880161039a565b60608201528152019301926104d7565b907fffffffffffffffffffffffffffffffffffffffffffffffffffffffffffffffe0601f602080948051918291828752018686015e5f8582860101520116010190565b60409061047b9392151581528160208201520190610539565b3461015f5760207ffffffffffffffffffffffffffffffffffffffffffffffffffffffffffffffffc36011261015f5760043567ffffffffffffffff811161015f576101607ffffffffffffffffffffffffffffffffffffffffffffffffffffffffffffffffc823603011261015f5761060b610388565b6106178260040161039a565b8152610625602483016103bb565b6020820152610636604483016103bb565b6040820152610647606483016103cc565b60608201526084820135608082015261066260a483016103db565b60a082015261067360c4830161039a565b60c082015260e482013567ffffffffffffffff811161015f5761069c9060043691850101610460565b60e08201526106ae61010483016103bb565b61010082015261012482013567ffffffffffffffff811161015f576106f3926106e06101449260043691840101610496565b61012084015201356101408201526117f3565b906107036040519283928361057c565b0390f35b3461015f575f7ffffffffffffffffffffffffffffffffffffffffffffffffffffffffffffffffc36011261015f57602061ffff5f5416604051908152f35b3461015f5760607ffffffffffffffffffffffffffffffffffffffffffffffffffffffffffffffffc36011261015f5760043560243567ffffffffffffffff811161015f57610797903690600401610496565b906044359167ffffffffffffffff831161015f5760407ffffffffffffffffffffffffffffffffffffffffffffffffffffffffffffffffc843603011261015f57604051916107e48361032b565b836004013567ffffffffffffffff811161015f578401933660238601121561015f576004850135946108158661047e565b906108236040519283610347565b868252602060048184019860051b830101019036821161015f57602401965b81881061086857505084526106f3945061085e906024016103bb565b6020840152610eff565b602080916108758a610214565b815201970196610842565b90602080835192838152019201905f5b81811061089d5750505090565b9091926020608060019260ff6060885180518452858101518685015282604082015116604085015201511660608201520194019101919091610890565b805160ff1682529060208281015163ffffffff169082015260408281015163ffffffff169082015260608281015161ffff16908201526080820151608082015261093560a083015160a083019067ffffffffffffffff169052565b60c08281015160ff16908201526101408061098961096460e086015161016060e0870152610160860190610539565b6101008681015163ffffffff1690860152610120860151858203610120870152610880565b93015191015290565b3461015f5760207ffffffffffffffffffffffffffffffffffffffffffffffffffffffffffffffffc36011261015f5760043567ffffffffffffffff811161015f576109ec6109e7610703923690600401610460565b611264565b6040519182916020835260208301906108da565b3461015f575f7ffffffffffffffffffffffffffffffffffffffffffffffffffffffffffffffffc36011261015f576020600154604051908152f35b610a5161047b94926060835260608301906108da565b92151560208201526040818403910152610539565b3461015f5760207ffffffffffffffffffffffffffffffffffffffffffffffffffffffffffffffffc36011261015f5760043567ffffffffffffffff811161015f573660238201121561015f5780600401359067ffffffffffffffff821161015f57366024838301011161015f57610703916024610ae392016114d7565b60409391935193849384610a3b565b3461015f5760207ffffffffffffffffffffffffffffffffffffffffffffffffffffffffffffffffc36011261015f5773ffffffffffffffffffffffffffffffffffffffff610b3e6101f1565b165f526006602052602060ff60405f2054166040519015158152f35b3461015f575f7ffffffffffffffffffffffffffffffffffffffffffffffffffffffffffffffffc36011261015f576020600854604051904614158152f35b3461015f575f7ffffffffffffffffffffffffffffffffffffffffffffffffffffffffffffffffc36011261015f57602063ffffffff600354821c16604051908152f35b3461015f5760207ffffffffffffffffffffffffffffffffffffffffffffffffffffffffffffffffc36011261015f576020610c176004356114fd565b604051908152f35b3461015f5760207ffffffffffffffffffffffffffffffffffffffffffffffffffffffffffffffffc36011261015f57610c5e610c596103a8565b611584565b60405160208152606081018251906040602084015281518091526020608084019201905f5b818110610ca25750505063ffffffff6020839401511660408301520390f35b825173ffffffffffffffffffffffffffffffffffffffff16845260209384019390920191600101610c83565b3461015f575f7ffffffffffffffffffffffffffffffffffffffffffffffffffffffffffffffffc36011261015f57602061ffff5f5460101c16604051908152f35b8051821015610d235760209160051b010190565b7f4e487b71000000000000000000000000000000000000000000000000000000005f52603260045260245ffd5b6040513d5f823e3d90fd5b15610d6257565b60646040517f08c379a000000000000000000000000000000000000000000000000000000000815260206004820152601f60248201527f65637265636f766572206661696c65642077697468207369676e6174757265006044820152fd5b15610dc757565b60846040517f08c379a000000000000000000000000000000000000000000000000000000000815260206004820152602360248201527f7369676e617475726520696e6469636573206d75737420626520617363656e6460448201527f696e6700000000000000000000000000000000000000000000000000000000006064820152fd5b15610e5257565b60646040517f08c379a000000000000000000000000000000000000000000000000000000000815260206004820152601c60248201527f677561726469616e20696e646578206f7574206f6620626f756e6473000000006044820152fd5b60405190610ebf602083610347565b5f8252565b60405190610ed3604083610347565b601482527f564d207369676e617475726520696e76616c69640000000000000000000000006020830152565b82515191925f9291835b855181101561105357610f1c8187610d0f565b5160205f610f2e604084015160ff1690565b8351838501516040805189815260ff949094166020850152830191909152606082015281805260809060015afa1561104e57606090610fa0610f845f5173ffffffffffffffffffffffffffffffffffffffff1690565b97610f90891515610d5b565b8415908115611031575b50610dc0565b0194611014610ffb610fe1610fb6895160ff1690565b98610fc58960ff8c1610610e4b565b610fdb610fd58951925160ff1690565b60ff1690565b90610d0f565b5173ffffffffffffffffffffffffffffffffffffffff1690565b73ffffffffffffffffffffffffffffffffffffffff1690565b0361102157600101610f09565b5050505050505f9061047b610ec4565b905060ff806110438686015160ff1690565b92169116115f610f9a565b610d50565b50505050505060019061047b610eb0565b60405190610160820182811067ffffffffffffffff821117610326576040525f610140838281528260208201528260408201528260608201528260808201528260a08201528260c0820152606060e08201528261010082015260606101208201520152565b7f4e487b71000000000000000000000000000000000000000000000000000000005f52601160045260245ffd5b906004820180921161110457565b6110c9565b906001820180921161110457565b906020820180921161110457565b906002820180921161110457565b906008820180921161110457565b90601f820180921161110457565b9190820180921161110457565b1561116357565b60646040517f08c379a000000000000000000000000000000000000000000000000000000000815260206004820152601760248201527f564d2076657273696f6e20696e636f6d70617469626c650000000000000000006044820152fd5b906111cb8261047e565b6111d86040519182610347565b8281527fffffffffffffffffffffffffffffffffffffffffffffffffffffffffffffffe0611206829461047e565b01905f5b82811061121657505050565b6020906040516112258161030a565b5f81525f838201525f60408201525f60608201528282850101520161120a565b60ff601b9116019060ff821161110457565b9190820391821161110457565b9061126d611064565b9161128161127a82611a10565b60ff168452565b600161129c600160ff611295875160ff1690565b161461115c565b6112b86112aa600184611a9a565b63ffffffff16610100860152565b6112c260016110f6565b6112d86112d2610fd58386611a7e565b91611109565b916112e2826111c1565b9161012087019283525f925b81841061143b5750505050906114236114076113e46113d06113b36113998761132561131e6114349a8a51611257565b828a611c58565b602081519101206040516113718161134560208201948560209181520190565b037fffffffffffffffffffffffffffffffffffffffffffffffffffffffffffffffe08101835282610347565b5190206101408c0152611394611387828a611a9a565b63ffffffff1660208d0152565b6110f6565b6113946113a68289611a9a565b63ffffffff1660408c0152565b6113cb6113c08288611d01565b61ffff1660608b0152565b611125565b6113da8186611b14565b6080890152611117565b6114026113f18286611d7b565b67ffffffffffffffff1660a0890152565b611133565b61141e6114148285611a7e565b60ff1660c0880152565b611109565b61142e818351611257565b91611c58565b60e0830152565b90916114cd6114ab61148c6114708861141e611459879a9b8d611a7e565b60606114668d8b51610d0f565b51019060ff169052565b61147a818b611b14565b6114858a8851610d0f565b5152611117565b611496818a611b14565b60206114a38a8851610d0f565b510152611117565b61141e6114c06114bb838b611a7e565b611245565b60406114668a8851610d0f565b94019291906112ee565b6109e7906114ef926114e7611064565b50369161042a565b906114f98261196e565b9091565b610100811015611526578060011b908082046002149015171561110457600361047b9104611109565b60646040517f08c379a000000000000000000000000000000000000000000000000000000000815260206004820152601260248201527f746f6f206d616e7920677561726469616e7300000000000000000000000000006044820152fd5b63ffffffff905f60206040516115998161032b565b606081520152165f52600260205260405f20604051906115b88261032b565b6040518060208354918281520190835f5260205f20905f5b81811061160a5750505061047b92826115f06115fd946001940382610347565b8552015463ffffffff1690565b63ffffffff166020830152565b825473ffffffffffffffffffffffffffffffffffffffff168452602090930192600192830192016115d0565b94603397947fffff0000000000000000000000000000000000000000000000000000000000007fff00000000000000000000000000000000000000000000000000000000000000957fffffffff0000000000000000000000000000000000000000000000000000000060209a96817fffffffffffffffff0000000000000000000000000000000000000000000000009760e01b168b5260e01b1660048a015260f01b166008880152600a87015260c01b16602a85015260f81b1660328301528051928391018483015e01015f815290565b60405190611716604083610347565b601a82527f766d2e6861736820646f65736e2774206d6174636820626f64790000000000006020830152565b60405190611751604083610347565b601482527f696e76616c696420677561726469616e207365740000000000000000000000006020830152565b6040519061178c604083610347565b601882527f677561726469616e2073657420686173206578706972656400000000000000006020830152565b604051906117c7604083610347565b600982527f6e6f2071756f72756d00000000000000000000000000000000000000000000006020830152565b606061010082019161180c610c59845163ffffffff1690565b9161181e602083015163ffffffff1690565b9061187f611841611836604086015163ffffffff1690565b9285015161ffff1690565b91611345608086015161185f60a088015167ffffffffffffffff1690565b60c088015160ff169060e089015192604051978896602088019a8b611636565b51902060405161189b8161134560208201948560209181520190565b519020926101408201938451036119605782515115611952575163ffffffff1663ffffffff6118db6118d260035463ffffffff1690565b63ffffffff1690565b911614158061193d575b61193057610120018051516118fb8351516114fd565b116119235761190d9251905190610eff565b901561191f575060019061047b610eb0565b5f91565b5050505f9061047b6117b8565b5050505f9061047b61177d565b5060208201514263ffffffff909116106118e5565b505050505f9061047b611742565b505050505f9061047b611707565b6101008101611984610c59825163ffffffff1690565b9081515115611a03575163ffffffff1663ffffffff6119ab6118d260035463ffffffff1690565b91161415806119ee575b6119e25761012082018051516119cc8351516114fd565b116119235761014061190d930151905190610eff565b50505f9061047b61177d565b5060208101514263ffffffff909116106119b5565b5050505f9061047b611742565b6001815110611a20576001015190565b60646040517f08c379a000000000000000000000000000000000000000000000000000000000815260206004820152601360248201527f746f55696e74385f6f75744f66426f756e6473000000000000000000000000006044820152fd5b90815160018201908183116111045710611a2057016001015190565b90815160048201908183116111045710611ab657016004015190565b60646040517f08c379a000000000000000000000000000000000000000000000000000000000815260206004820152601460248201527f746f55696e7433325f6f75744f66426f756e64730000000000000000000000006044820152fd5b90815160208201908183116111045710611b3057016020015190565b60646040517f08c379a000000000000000000000000000000000000000000000000000000000815260206004820152601560248201527f746f427974657333325f6f75744f66426f756e647300000000000000000000006044820152fd5b15611b9557565b60646040517f08c379a000000000000000000000000000000000000000000000000000000000815260206004820152600e60248201527f736c6963655f6f766572666c6f770000000000000000000000000000000000006044820152fd5b15611bfa57565b60646040517f08c379a000000000000000000000000000000000000000000000000000000000815260206004820152601160248201527f736c6963655f6f75744f66426f756e64730000000000000000000000000000006044820152fd5b91611c6d81611c6681611141565b1015611b8e565b611c838351611c7c838561114f565b1115611bf3565b80611c9b575050506040515f81526020810160405290565b60405192601f821692831560051b80858701019484860193010101905b808410611cee5750508252601f017fffffffffffffffffffffffffffffffffffffffffffffffffffffffffffffffe01660405290565b9092602080918551815201930190611cb8565b90815160028201908183116111045710611d1d57016002015190565b60646040517f08c379a000000000000000000000000000000000000000000000000000000000815260206004820152601460248201527f746f55696e7431365f6f75744f66426f756e64730000000000000000000000006044820152fd5b90815160088201908183116111045710611d9757016008015190565b60646040517f08c379a000000000000000000000000000000000000000000000000000000000815260206004820152601460248201527f746f55696e7436345f6f75744f66426f756e64730000000000000000000000006044820152fdfea2646970667358221220327ab2d4452f8251124417227ff1c5bf5afd2d2b1a10d6a53e291e097e451b6c64736f6c634300081e0033","linkReferences":{}},"methodIdentifiers":{"chainId()":"9a8a0592","evmChainId()":"64d42b17","getCurrentGuardianSetIndex()":"1cfe7951","getGuardianSet(uint32)":"f951975a","getGuardianSetExpiry()":"eb8d3f12","governanceActionIsConsumed(bytes32)":"2c3c02a4","governanceChainId()":"fbe3c2cd","governanceContract()":"b172b222","isFork()":"e039f224","isInitialized(address)":"d60b347f","messageFee()":"1a90a219","nextSequence(address)":"4cf842b5","parseAndVerifyVM(bytes)":"c0fd8bde","parseVM(bytes)":"a9e11893","quorum(uint256)":"f8ce560a","verifySignatures(bytes32,(bytes32,bytes32,uint8,uint8)[],(address[],uint32))":"a0cce1b3","verifyVM((uint8,uint32,uint32,uint16,bytes32,uint64,uint8,bytes,uint32,(bytes32,bytes32,uint8,uint8)[],bytes32))":"875be02a"},"id":164}