{"abi":[{"type":"function","name":"chainId","inputs":[],"outputs":[{"name":"","type":"uint16","internalType":"uint16"}],"stateMutability":"view"},{"type":"function","name":"evmChainId","inputs":[],"outputs":[{"name":"","type":"uint256","internalType":"uint256"}],"stateMutability":"view"},{"type":"function","name":"getCurrentGuardianSetIndex","inputs":[],"outputs":[{"name":"","type":"uint32","internalType":"uint32"}],"stateMutability":"view"},{"type":"function","name":"getGuardianSet","inputs":[{"name":"index","type":"uint32","internalType":"uint32"}],"outputs":[{"name":"","type":"tuple","internalType":"struct Structs.GuardianSet","components":[{"name":"keys","type":"address[]","internalType":"address[]"},{"name":"expirationTime","type":"uint32","internalType":"uint32"}]}],"stateMutability":"view"},{"type":"function","name":"getGuardianSetExpiry","inputs":[],"outputs":[{"name":"","type":"uint32","internalType":"uint32"}],"stateMutability":"view"},{"type":"function","name":"governanceActionIsConsumed","inputs":[{"name":"hash","type":"bytes32","internalType":"bytes32"}],"outputs":[{"name":"","type":"bool","internalType":"bool"}],"stateMutability":"view"},{"type":"function","name":"governanceChainId","inputs":[],"outputs":[{"name":"","type":"uint16","internalType":"uint16"}],"stateMutability":"view"},{"type":"function","name":"governanceContract","inputs":[],"outputs":[{"name":"","type":"bytes32","internalType":"bytes32"}],"stateMutability":"view"},{"type":"function","name":"isFork","inputs":[],"outputs":[{"name":"","type":"bool","internalType":"bool"}],"stateMutability":"view"},{"type":"function","name":"isInitialized","inputs":[{"name":"impl","type":"address","internalType":"address"}],"outputs":[{"name":"","type":"bool","internalType":"bool"}],"stateMutability":"view"},{"type":"function","name":"messageFee","inputs":[],"outputs":[{"name":"","type":"uint256","internalType":"uint256"}],"stateMutability":"view"},{"type":"function","name":"nextSequence","inputs":[{"name":"emitter","type":"address","internalType":"address"}],"outputs":[{"name":"","type":"uint64","internalType":"uint64"}],"stateMutability":"view"}],"bytecode":{"object":"0x608080604052346015576105be908161001a8239f35b5f80fdfe6080806040526004361015610012575f80fd5b5f3560e01c9081631a90a21914610534575080631cfe7951146104f35780632c3c02a4146104a65780634cf842b51461043657806364d42b17146103fb5780639a8a0592146103bd578063b172b22214610382578063d60b347f14610317578063e039f224146102d9578063eb8d3f1214610296578063f951975a146100e55763fbe3c2cd146100a0575f80fd5b346100e1575f7ffffffffffffffffffffffffffffffffffffffffffffffffffffffffffffffffc3601126100e157602061ffff5f5460101c16604051908152f35b5f80fd5b346100e15760207ffffffffffffffffffffffffffffffffffffffffffffffffffffffffffffffffc3601126100e15760043563ffffffff81168091036100e1575f60206040516101348161056c565b6060815201525f52600260205260405f20604051906101528261056c565b6040519081809260208354918281520190835f5260205f20905f5b8181106102675750505003601f017fffffffffffffffffffffffffffffffffffffffffffffffffffffffffffffffe01682019067ffffffffffffffff82118383101761023a5763ffffffff92600192604052845201541690602081019182526040519060208252606082019051906040602084015281518091526020608084019201905f5b81811061020e5750505063ffffffff8293511660408301520390f35b825173ffffffffffffffffffffffffffffffffffffffff168452602093840193909201916001016101f2565b7f4e487b71000000000000000000000000000000000000000000000000000000005f52604160045260245ffd5b825473ffffffffffffffffffffffffffffffffffffffff1684528694506020909301926001928301920161016d565b346100e1575f7ffffffffffffffffffffffffffffffffffffffffffffffffffffffffffffffffc3601126100e157602063ffffffff600354821c16604051908152f35b346100e1575f7ffffffffffffffffffffffffffffffffffffffffffffffffffffffffffffffffc3601126100e1576020600854604051904614158152f35b346100e15760207ffffffffffffffffffffffffffffffffffffffffffffffffffffffffffffffffc3601126100e15760043573ffffffffffffffffffffffffffffffffffffffff81168091036100e1575f526006602052602060ff60405f2054166040519015158152f35b346100e1575f7ffffffffffffffffffffffffffffffffffffffffffffffffffffffffffffffffc3601126100e1576020600154604051908152f35b346100e1575f7ffffffffffffffffffffffffffffffffffffffffffffffffffffffffffffffffc3601126100e157602061ffff5f5416604051908152f35b346100e1575f7ffffffffffffffffffffffffffffffffffffffffffffffffffffffffffffffffc3601126100e1576020600854604051908152f35b346100e15760207ffffffffffffffffffffffffffffffffffffffffffffffffffffffffffffffffc3601126100e15760043573ffffffffffffffffffffffffffffffffffffffff81168091036100e1575f526004602052602067ffffffffffffffff60405f205416604051908152f35b346100e15760207ffffffffffffffffffffffffffffffffffffffffffffffffffffffffffffffffc3601126100e1576004355f526005602052602060ff60405f2054166040519015158152f35b346100e1575f7ffffffffffffffffffffffffffffffffffffffffffffffffffffffffffffffffc3601126100e157602063ffffffff60035416604051908152f35b346100e1575f7ffffffffffffffffffffffffffffffffffffffffffffffffffffffffffffffffc3601126100e1576020906007548152f35b6040810190811067ffffffffffffffff82111761023a5760405256fea26469706673582212201ea84a3cf697668ea004e9a1c3f29a0bf42895bcb3a8bdb7af0ea63fe2f7955864736f6c634300081e0033","linkReferences":{}},"methodIdentifiers":{"chainId()":"9a8a0592","evmChainId()":"64d42b17","getCurrentGuardianSetIndex()":"1cfe7951","getGuardianSet(uint32)":"f951975a","getGuardianSetExpiry()":"eb8d3f12","governanceActionIsConsumed(bytes32)":"2c3c02a4","governanceChainId()":"fbe3c2cd","governanceContract()":"b172b222","isFork()":"e039f224","isInitialized(address)":"d60b347f","messageFee()":"1a90a219","nextSequence(address)":"4cf842b5"},"id":163}