{"abi":[{"type":"function","name":"extsload","inputs":[{"name":"slot","type":"bytes32","internalType":"bytes32"}],"outputs":[{"name":"","type":"bytes32","internalType":"bytes32"}],"stateMutability":"view"},{"type":"function","name":"extsload","inputs":[{"name":"slots","type":"bytes32[]","internalType":"bytes32[]"}],"outputs":[{"name":"","type":"bytes32[]","internalType":"bytes32[]"}],"stateMutability":"view"},{"type":"function","name":"exttload","inputs":[{"name":"slot","type":"bytes32","internalType":"bytes32"}],"outputs":[{"name":"","type":"bytes32","internalType":"bytes32"}],"stateMutability":"view"}],"bytecode":{"object":"0x6080806040523460155761019f908161001a8239f35b5f80fdfe60806040526004361015610011575f80fd5b5f3560e01c80631e2eaeaf1461012f578063dbd035ff146100785763f135baaa1461003a575f80fd5b346100745760207ffffffffffffffffffffffffffffffffffffffffffffffffffffffffffffffffc360112610074576004355c5f5260205ff35b5f80fd5b346100745760207ffffffffffffffffffffffffffffffffffffffffffffffffffffffffffffffffc3601126100745760043567ffffffffffffffff811161007457366023820112156100745780600401359067ffffffffffffffff8211610074578160051b90366024838301011161007457604080518094602082526020820152019183019060206024604084019201935b843554815201928482851015610126575060208091019361010a565b60408185030190f35b346100745760207ffffffffffffffffffffffffffffffffffffffffffffffffffffffffffffffffc36011261007457600435545f5260205ff3fea2646970667358221220f03c5c986e84b312898cc55a9f797485e2945cc7f6762cadc09c131d0ebe1c7f64736f6c634300081e0033","linkReferences":{}},"methodIdentifiers":{"extsload(bytes32)":"1e2eaeaf","extsload(bytes32[])":"dbd035ff","exttload(bytes32)":"f135baaa"},"id":83}