{"abi":[{"type":"function","name":"bytesToAddr","inputs":[{"name":"a","type":"bytes","internalType":"bytes"}],"outputs":[{"name":"addr","type":"address","internalType":"address"}],"stateMutability":"pure"},{"type":"error","name":"invalidAddressBytes","inputs":[]}],"bytecode":{"object":"0x608080604052346019576101bb908161001e823930815050f35b5f80fdfe60806040526004361015610011575f80fd5b5f3560e01c635ef6228c14610024575f80fd5b60207ffffffffffffffffffffffffffffffffffffffffffffffffffffffffffffffffc36011261011c5760043567ffffffffffffffff811161011c573660238201121561011c5780600401359067ffffffffffffffff8211610120576040517fffffffffffffffffffffffffffffffffffffffffffffffffffffffffffffffe0603f81601f8601160116810181811067ffffffffffffffff82111761012057604052828152366024848401011161011c575f6020846101189560246100f19601838601378301015261014d565b60405173ffffffffffffffffffffffffffffffffffffffff90911681529081906020820190565b0390f35b5f80fd5b7f4e487b71000000000000000000000000000000000000000000000000000000005f52604160045260245ffd5b601481510361015d576014015190565b7f24a2f749000000000000000000000000000000000000000000000000000000005f5260045ffdfea2646970667358221220eb1f2930d20c18623bb5e2e836308cde25c59b61583330395a84f3816c84ad8064736f6c634300081e0033","linkReferences":{}},"methodIdentifiers":{"bytesToAddr(bytes)":"5ef6228c"},"id":155}