{"abi":[{"type":"constructor","inputs":[{"name":"clientType_","type":"string","internalType":"string"},{"name":"sequencer_","type":"address","internalType":"address"},{"name":"chainId_","type":"bytes32","internalType":"bytes32"}],"stateMutability":"nonpayable"},{"type":"function","name":"CHAIN_ID","inputs":[],"outputs":[{"name":"","type":"bytes32","internalType":"bytes32"}],"stateMutability":"view"},{"type":"function","name":"LIGHT_CLIENT_TYPE","inputs":[],"outputs":[{"name":"","type":"uint8","internalType":"enum LightClientType"}],"stateMutability":"view"},{"type":"function","name":"SEQUENCER","inputs":[],"outputs":[{"name":"","type":"address","internalType":"address"}],"stateMutability":"view"},{"type":"function","name":"clientType","inputs":[],"outputs":[{"name":"","type":"string","internalType":"string"}],"stateMutability":"view"},{"type":"function","name":"inspectLogIdentifier","inputs":[{"name":"proof","type":"bytes","internalType":"bytes"}],"outputs":[{"name":"srcChain","type":"uint32","internalType":"uint32"},{"name":"blockNumber","type":"uint64","internalType":"uint64"},{"name":"receiptIndex","type":"uint32","internalType":"uint32"},{"name":"logIndex","type":"uint32","internalType":"uint32"}],"stateMutability":"pure"},{"type":"function","name":"inspectPolymerState","inputs":[{"name":"proof","type":"bytes","internalType":"bytes"}],"outputs":[{"name":"stateRoot","type":"bytes32","internalType":"bytes32"},{"name":"height","type":"uint64","internalType":"uint64"},{"name":"signature","type":"bytes","internalType":"bytes"}],"stateMutability":"pure"},{"type":"function","name":"parseEvent","inputs":[{"name":"rawEvent","type":"bytes","internalType":"bytes"},{"name":"numTopics","type":"uint8","internalType":"uint8"}],"outputs":[{"name":"emittingContract","type":"address","internalType":"address"},{"name":"topics","type":"bytes","internalType":"bytes"},{"name":"unindexedData","type":"bytes","internalType":"bytes"}],"stateMutability":"pure"},{"type":"function","name":"ping","inputs":[],"outputs":[],"stateMutability":"nonpayable"},{"type":"function","name":"validateEvent","inputs":[{"name":"proof","type":"bytes","internalType":"bytes"}],"outputs":[{"name":"chainId","type":"uint32","internalType":"uint32"},{"name":"emittingContract","type":"address","internalType":"address"},{"name":"topics","type":"bytes","internalType":"bytes"},{"name":"unindexedData","type":"bytes","internalType":"bytes"}],"stateMutability":"view"},{"type":"function","name":"validateSolLogs","inputs":[{"name":"proof","type":"bytes","internalType":"bytes"}],"outputs":[{"name":"chainId","type":"uint32","internalType":"uint32"},{"name":"programID","type":"bytes32","internalType":"bytes32"},{"name":"logMessages","type":"string[]","internalType":"string[]"}],"stateMutability":"view"},{"type":"function","name":"verifyMembership","inputs":[{"name":"root","type":"bytes32","internalType":"bytes32"},{"name":"key","type":"bytes","internalType":"bytes"},{"name":"value","type":"bytes32","internalType":"bytes32"},{"name":"proof","type":"bytes","internalType":"bytes"}],"outputs":[],"stateMutability":"pure"},{"type":"event","name":"Ping","inputs":[],"anonymous":false},{"type":"error","name":"ECDSAInvalidSignature","inputs":[]},{"type":"error","name":"ECDSAInvalidSignatureLength","inputs":[{"name":"length","type":"uint256","internalType":"uint256"}]},{"type":"error","name":"ECDSAInvalidSignatureS","inputs":[{"name":"s","type":"bytes32","internalType":"bytes32"}]},{"type":"error","name":"InvalidProofRoot","inputs":[]},{"type":"error","name":"InvalidSequencerSignature","inputs":[]}],"bytecode":{"object":"0x60c06040523461025b57611e7a803803806100198161025f565b92833981019060608183031261025b5780516001600160401b03811161025b57810182601f8201121561025b578051906001600160401b0382116102475761006a601f8301601f191660200161025f565b938285526020838301011161025b57815f9260208093018387015e840101526020810151906001600160a01b038216820361025b576040015160809190915260a05280516001600160401b038111610247575f54600181811c9116801561023d575b602082101461022957601f81116101c7575b50602091601f8211600114610169579181925f9261015e575b50508160011b915f199060031b1c1916175f555b6040517fca6e822df923f741dfe968d15d80a18abd25bd1e748bcb9ad81fea5bbb7386af5f80a1611bf590816102858239608051818181610c7001526117fd015260a051818181610c0201526117750152f35b015190505f806100f7565b601f198216925f8052805f20915f5b8581106101af57508360019510610197575b505050811b015f5561010b565b01515f1960f88460031b161c191690555f808061018a565b91926020600181928685015181550194019201610178565b5f80527f290decd9548b62a8d60345a988386fc84ba6bc95484008f6362f93160ef3e563601f830160051c8101916020841061021f575b601f0160051c01905b81811061021457506100de565b5f8155600101610207565b90915081906101fe565b634e487b7160e01b5f52602260045260245ffd5b90607f16906100cc565b634e487b7160e01b5f52604160045260245ffd5b5f80fd5b6040519190601f01601f191682016001600160401b038111838210176102475760405256fe60806040526004361015610011575f80fd5b5f5f3560e01c80630b9ca54a14610e655780630d15d92814610d2657806357c1c5f414610cea5780635c36b18614610c9457806375fd4ca914610c2557806385e1f4d014610bcc578063861f28431461082b5780639e79c3f014610777578063b3768f0d14610725578063d73a8ad61461014a5763d961589814610093575f80fd5b346101475760207ffffffffffffffffffffffffffffffffffffffffffffffffffffffffffffffffc3601126101475760043567ffffffffffffffff8111610145576100e2903690600401611325565b90816020116101415780359180606d1161013d5760658201359060611161013d57602060e0949267ffffffffffffffff60419360405196875260c01c16828601526060604086015282606086015201608084013760c1820152f35b8380fd5b8280fd5b505b80fd5b50346101475760207ffffffffffffffffffffffffffffffffffffffffffffffffffffffffffffffffc3601126101475760043567ffffffffffffffff81116101455761019a903690600401611325565b908160651161014157606181013560e01c6020831061013d5781359280606d116106f457606583013581606010156106f857816040116106a857602084013590826060116106b0576101fe91604086013591606087013560f81c9060c01c886116f5565b8060d6116106f45760d69081607582111560b6860135816106b457607587959395013560f81c9061022e826116c9565b9661023c60405198896113cd565b8288527fffffffffffffffffffffffffffffffffffffffffffffffffffffffffffffffe0610269846116c9565b018b5b8181106106e15750508a965b885188101561036b5750600285019485811161033e576102e08c6102a1886102e7948b8f6115c1565b90357fffff00000000000000000000000000000000000000000000000000000000000081169160028110610309575b505060f01c97889150898d6115c1565b3691611475565b6102f1888a6116e1565b526102fc87896116e1565b5060018597019694610278565b7fffff0000000000000000000000000000000000000000000000000000000000009250829060020360031b1b16165f806102d0565b60248c7f4e487b710000000000000000000000000000000000000000000000000000000081526011600452fd5b94508a918891878c8c88976040518660208201526020815261038e6040826113cd565b88995b6106b457818a101561040f57602061040660019282808d8f6103b3908f6116e1565b516040519685889651918291018588015e850191838301908152815193849201905e01018c8152037fffffffffffffffffffffffffffffffffffffffffffffffffffffffffffffffe081018352826113cd565b9901988a610391565b939496979598505089846075116106a8577fffffffffffffffff000000000000000000000000000000000000000000000000606d8301351693856096116106b05760768301358660b6116106ac579086929160968501359661046f6114ab565b976104798c61184e565b92604051998a94602086017f636861696e2f0000000000000000000000000000000000000000000000000000905280516020819201602688015e8501602681017f2f73746f7265644c6f67732f0000000000000000000000000000000000000000905281516020819301603283015e0160260192600c84017f2f000000000000000000000000000000000000000000000000000000000000009052600d840152601583017f2f00000000000000000000000000000000000000000000000000000000000000905260168301526036820152605681017f2f0000000000000000000000000000000000000000000000000000000000000090528c605782015203600c01604b81018752606b0161058e90876113cd565b805190602001209561059f936115c1565b90303b156106a857859392916105e39160405196879586957f861f2843000000000000000000000000000000000000000000000000000000008752600487016115e5565b0381305afa801561069d57908291610688575b50506040939291935193849360608501918552602085015260606040850152825180915260808401602060808360051b870101940192905b82821061063d57505050500390f35b91936020610678827fffffffffffffffffffffffffffffffffffffffffffffffffffffffffffffff8060019597998495030186528851611353565b960192019201859493919261062e565b81610692916113cd565b6101475780856105f6565b6040513d84823e3d90fd5b8580fd5b8780fd5b8680fd5b6024897f4e487b710000000000000000000000000000000000000000000000000000000081526032600452fd5b60606020828c018101919091520161026c565b8480fd5b6024867f4e487b710000000000000000000000000000000000000000000000000000000081526032600452fd5b503461014757807ffffffffffffffffffffffffffffffffffffffffffffffffffffffffffffffffc3601126101475761077361075f6114ab565b604051918291602083526020830190611353565b0390f35b50346101475760207ffffffffffffffffffffffffffffffffffffffffffffffffffffffffffffffffc3601126101475760043567ffffffffffffffff8111610145576107c7903690600401611325565b9081606511610141576061810135918060751161013d57606d82013591816079116106f457607581013591607d116106f4576040805160e095861c815260c09490941c602085015291841c918301919091526079013590911c606082015260809150f35b50346101475760807ffffffffffffffffffffffffffffffffffffffffffffffffffffffffffffffffc3601126101475760243567ffffffffffffffff811161014557366023820112156101455761088c903690602481600401359101611475565b60643567ffffffffffffffff8111610141576108ac903690600401611325565b908160011015610b9f57600181013560f81c92836002116106f4578284116106f457846020816040518281019060443582528381526108ec6040826113cd565b604051918291518091835e8101838152039060025afa15610b9357846020610992602182958551601e6040519586937ffffffffffffffffffffffffffffffffffffffffffffffffffffffffffffffffe828601990160028d018a378d8501908382018b8152815193849201905e0101907f2000000000000000000000000000000000000000000000000000000000000000825260018201520360018101845201826113cd565b604051918291518091835e8101838152039060025afa15610b88578351821593859291855b610b5b57823560f81c841015610b26576109d28286856115d9565b3560f81c60018301808411610af9576109ec9087866115d9565b3560f81c9160028401808511610acc57918991610a8e6020610a3281610a3e8b8b8f610a388d610a29879e610a218e8761168f565b9085886115c1565b98909c8561168f565b9361168f565b926115c1565b909581604051978589968688019b8c378601928584015260408301370101868382015203017fffffffffffffffffffffffffffffffffffffffffffffffffffffffffffffffe081018352826113cd565b604051918291518091835e8101838152039060025afa15610ac157610ab760019188519361168f565b93019290856109b7565b6040513d88823e3d90fd5b60248a7f4e487b710000000000000000000000000000000000000000000000000000000081526011600452fd5b6024897f4e487b710000000000000000000000000000000000000000000000000000000081526011600452fd5b869060043503610b335780f35b807f81f234a40000000000000000000000000000000000000000000000000000000060049252fd5b6024877f4e487b710000000000000000000000000000000000000000000000000000000081526032600452fd5b6040513d85823e3d90fd5b604051903d90823e3d90fd5b6024847f4e487b710000000000000000000000000000000000000000000000000000000081526032600452fd5b503461014757807ffffffffffffffffffffffffffffffffffffffffffffffffffffffffffffffffc3601126101475760206040517f00000000000000000000000000000000000000000000000000000000000000008152f35b503461014757807ffffffffffffffffffffffffffffffffffffffffffffffffffffffffffffffffc36011261014757602060405173ffffffffffffffffffffffffffffffffffffffff7f0000000000000000000000000000000000000000000000000000000000000000168152f35b503461014757807ffffffffffffffffffffffffffffffffffffffffffffffffffffffffffffffffc360112610147577fca6e822df923f741dfe968d15d80a18abd25bd1e748bcb9ad81fea5bbb7386af8180a180f35b503461014757807ffffffffffffffffffffffffffffffffffffffffffffffffffffffffffffffffc360112610147575060405160028152602090f35b50346101475760407ffffffffffffffffffffffffffffffffffffffffffffffffffffffffffffffffc3601126101475760043567ffffffffffffffff811161014557610d76903690600401611325565b60243560ff8116810361013d5760051b611fe060e0821691168103610e385760140160ff8111610e385760ff1692816014116101475783601411610147578184116101475750610e0a83610dd283610e029661077395876115c1565b9590917fffffffffffffffffffffffffffffffffffffffffffffffffffffffffffffffec36910160148701611475565b943691611475565b610e2a6040519485943560601c8552606060208601526060850190611353565b908382036040850152611353565b6024847f4e487b710000000000000000000000000000000000000000000000000000000081526011600452fd5b50346112f45760207ffffffffffffffffffffffffffffffffffffffffffffffffffffffffffffffffc3601126112f45760043567ffffffffffffffff81116112f457610eb5903690600401611325565b806065116112f457606182013560e01c91602082106112f45780359180606d116112f457606582013581606010156112f857816040116112f457602083013590826060116112f457610f1991604085013591606086013560f81c9060c01c876116f5565b806080116112f457607e82013560f01c608081106112f4578181116112f457610f68367fffffffffffffffffffffffffffffffffffffffffffffffffffffffffffffff80830160808601611475565b93826075116112f457606d84013591836079116112f45760758501359084607d116112f4578493607987013592610f9d6114ab565b93610fa78b61184e565b92610fb49060c01c61184e565b91610fc19060e01c61184e565b90610fce9060e01c61184e565b91604051958694602086017f636861696e2f0000000000000000000000000000000000000000000000000000905280516020819201602688015e8501602681017f2f73746f7265644c6f67732f0000000000000000000000000000000000000000905281516020819301603283015e01602601600c81017f2f00000000000000000000000000000000000000000000000000000000000000905281516020819301600d83015e01600c01600181017f2f00000000000000000000000000000000000000000000000000000000000000905281516020819301600283015e01600101600181017f2f00000000000000000000000000000000000000000000000000000000000000905281516020819301600283015e01600101600181015f9052036001017fffffffffffffffffffffffffffffffffffffffffffffffffffffffffffffffe08101835261112090836113cd565b86516020880120936111339181886115c1565b9290303b156112f4575f936111769160405196879586957f861f2843000000000000000000000000000000000000000000000000000000008752600487016115e5565b0381305afa80156112e9576112d4575b50607d1015610b9f57926111d48192607d9560405196879384937f0d15d928000000000000000000000000000000000000000000000000000000008552604060048601526044850190611353565b91013560f81c60248301520381305afa908115610b93578093818093611241575b5050906112336107739273ffffffffffffffffffffffffffffffffffffffff6040519687968752166020860152608060408601526080850190611353565b908382036060850152611353565b92509350503d8082853e61125581856113cd565b83016060848203126101455783519173ffffffffffffffffffffffffffffffffffffffff8316830361014757602085015167ffffffffffffffff811161014557826112a1918701611649565b9460408101519167ffffffffffffffff831161014757506107739392611233926112cb9201611649565b919491926111f5565b6112e19195505f906113cd565b5f935f611186565b6040513d5f823e3d90fd5b5f80fd5b7f4e487b71000000000000000000000000000000000000000000000000000000005f52603260045260245ffd5b9181601f840112156112f45782359167ffffffffffffffff83116112f457602083818601950101116112f457565b907fffffffffffffffffffffffffffffffffffffffffffffffffffffffffffffffe0601f602080948051918291828752018686015e5f8582860101520116010190565b600411156113a057565b7f4e487b71000000000000000000000000000000000000000000000000000000005f52602160045260245ffd5b90601f7fffffffffffffffffffffffffffffffffffffffffffffffffffffffffffffffe0910116810190811067ffffffffffffffff82111761140e57604052565b7f4e487b71000000000000000000000000000000000000000000000000000000005f52604160045260245ffd5b67ffffffffffffffff811161140e57601f017fffffffffffffffffffffffffffffffffffffffffffffffffffffffffffffffe01660200190565b9291926114818261143b565b9161148f60405193846113cd565b8294818452818301116112f4578281602093845f960137010152565b604051905f5f548060011c91600182169182156115b7575b60208410831461158a57838652859290811561154d57506001146114f0575b6114ee925003836113cd565b565b505f80805290917f290decd9548b62a8d60345a988386fc84ba6bc95484008f6362f93160ef3e5635b8183106115315750509060206114ee928201016114e2565b6020919350806001915483858901015201910190918492611519565b602092506114ee9491507fffffffffffffffffffffffffffffffffffffffffffffffffffffffffffffff001682840152151560051b8201016114e2565b7f4e487b71000000000000000000000000000000000000000000000000000000005f52602260045260245ffd5b92607f16926114c3565b909392938483116112f45784116112f4578101920390565b908210156112f8570190565b947fffffffffffffffffffffffffffffffffffffffffffffffffffffffffffffffe09394602096611626601f958495835260808a8401526080830190611353565b9660408201526060818803910152818652868601375f8582860101520116010190565b81601f820112156112f4578051906116608261143b565b9261166e60405194856113cd565b828452602083830101116112f457815f9260208093018386015e8301015290565b9190820180921161169c57565b7f4e487b71000000000000000000000000000000000000000000000000000000005f52601160045260245ffd5b67ffffffffffffffff811161140e5760051b60200190565b80518210156112f85760209160051b010190565b6117dc93927fff00000000000000000000000000000000000000000000000000000000000000916117e596937fffffffffffffffff000000000000000000000000000000000000000000000000604051916020830193845260c01b166040820152602881526117656048826113cd565b51902060405160208101915f83527f000000000000000000000000000000000000000000000000000000000000000060408301526060820152606081526117ad6080826113cd565b51902092604051946020860152604085015260f81b166060830152604182526117d76061836113cd565b611a2f565b90929192611a69565b73ffffffffffffffffffffffffffffffffffffffff807f00000000000000000000000000000000000000000000000000000000000000001691160361182657565b7fe789f214000000000000000000000000000000000000000000000000000000005f5260045ffd5b805f917a184f03e93ff9f4daa797ed6e38ed64bf6a1f010000000000000000821015611a07575b806d04ee2d6d415b85acef8100000000600a9210156119ec575b662386f26fc100008110156119d8575b6305f5e1008110156119c7575b6127108110156119b8575b60648110156119aa575b101561199f575b600a7fffffffffffffffffffffffffffffffffffffffffffffffffffffffffffffffff602160018501947fffffffffffffffffffffffffffffffffffffffffffffffffffffffffffffffe061193561191f8861143b565b9761192d604051998a6113cd565b80895261143b565b013660208801378501015b01917f30313233343536373839616263646566000000000000000000000000000000008282061a835304801561199a577fffffffffffffffffffffffffffffffffffffffffffffffffffffffffffffffff600a9192611940565b505090565b6001909101906118c8565b6064600291049301926118c1565b612710600491049301926118b7565b6305f5e100600891049301926118ac565b662386f26fc100006010910493019261189f565b6d04ee2d6d415b85acef81000000006020910493019261188f565b50604091507a184f03e93ff9f4daa797ed6e38ed64bf6a1f0100000000000000008104611875565b8151919060418303611a5f57611a589250602082015190606060408401519301515f1a90611b30565b9192909190565b50505f9160029190565b611a7281611396565b80611a7b575050565b611a8481611396565b60018103611ab4577ff645eedf000000000000000000000000000000000000000000000000000000005f5260045ffd5b611abd81611396565b60028103611af157507ffce698f7000000000000000000000000000000000000000000000000000000005f5260045260245ffd5b600390611afd81611396565b14611b055750565b7fd78bce0c000000000000000000000000000000000000000000000000000000005f5260045260245ffd5b91907f7fffffffffffffffffffffffffffffff5d576e7357a4501ddfe92f46681b20a08411611bb4579160209360809260ff5f9560405194855216868401526040830152606082015282805260015afa156112e9575f5173ffffffffffffffffffffffffffffffffffffffff811615611baa57905f905f90565b505f906001905f90565b5050505f916003919056fea2646970667358221220364d44d4db95866f8b741cf0d557895f2aa1acaa1e6ddf2f8893accff9d559b464736f6c634300081e0033","linkReferences":{}},"methodIdentifiers":{"CHAIN_ID()":"85e1f4d0","LIGHT_CLIENT_TYPE()":"57c1c5f4","SEQUENCER()":"75fd4ca9","clientType()":"b3768f0d","inspectLogIdentifier(bytes)":"9e79c3f0","inspectPolymerState(bytes)":"d9615898","parseEvent(bytes,uint8)":"0d15d928","ping()":"5c36b186","validateEvent(bytes)":"0b9ca54a","validateSolLogs(bytes)":"d73a8ad6","verifyMembership(bytes32,bytes,bytes32,bytes)":"861f2843"},"id":144}