{"abi":[{"type":"constructor","inputs":[{"name":"sequencer_","type":"address","internalType":"address"},{"name":"chainId_","type":"bytes32","internalType":"bytes32"}],"stateMutability":"nonpayable"},{"type":"function","name":"CHAIN_ID","inputs":[],"outputs":[{"name":"","type":"bytes32","internalType":"bytes32"}],"stateMutability":"view"},{"type":"function","name":"SEQUENCER","inputs":[],"outputs":[{"name":"","type":"address","internalType":"address"}],"stateMutability":"view"},{"type":"error","name":"InvalidSequencerSignature","inputs":[]}],"bytecode":{"object":"0x60c034607657601f6101b838819003918201601f19168301916001600160401b03831184841017607a5780849260409485528339810103126076578051906001600160a01b0382168203607657602001519060805260a052604051610129908161008f82396080518160cf015260a0518160620152f35b5f80fd5b634e487b7160e01b5f52604160045260245ffdfe60808060405260043610156011575f80fd5b5f3560e01c90816375fd4ca914608957506385e1f4d014602f575f80fd5b346085575f7ffffffffffffffffffffffffffffffffffffffffffffffffffffffffffffffffc36011260855760206040517f00000000000000000000000000000000000000000000000000000000000000008152f35b5f80fd5b346085575f7ffffffffffffffffffffffffffffffffffffffffffffffffffffffffffffffffc36011260855760209073ffffffffffffffffffffffffffffffffffffffff7f0000000000000000000000000000000000000000000000000000000000000000168152f3fea2646970667358221220d19e0df7bcc09e767748f04aea16bbf2fe36801c8af001c7915b2e553503ee0564736f6c634300081e0033","linkReferences":{}},"methodIdentifiers":{"CHAIN_ID()":"85e1f4d0","SEQUENCER()":"75fd4ca9"},"id":146}