{"abi":[{"type":"constructor","inputs":[{"name":"wormholeState","type":"address","internalType":"address"}],"stateMutability":"payable"},{"type":"function","name":"chainId","inputs":[],"outputs":[{"name":"","type":"uint16","internalType":"uint16"}],"stateMutability":"view"},{"type":"function","name":"evmChainId","inputs":[],"outputs":[{"name":"","type":"uint256","internalType":"uint256"}],"stateMutability":"view"},{"type":"function","name":"getCurrentGuardianSetIndex","inputs":[],"outputs":[{"name":"","type":"uint32","internalType":"uint32"}],"stateMutability":"view"},{"type":"function","name":"getGuardianSet","inputs":[{"name":"index","type":"uint32","internalType":"uint32"}],"outputs":[{"name":"","type":"tuple","internalType":"struct Structs.GuardianSet","components":[{"name":"keys","type":"address[]","internalType":"address[]"},{"name":"expirationTime","type":"uint32","internalType":"uint32"}]}],"stateMutability":"view"},{"type":"function","name":"getGuardianSetExpiry","inputs":[],"outputs":[{"name":"","type":"uint32","internalType":"uint32"}],"stateMutability":"view"},{"type":"function","name":"governanceActionIsConsumed","inputs":[{"name":"hash","type":"bytes32","internalType":"bytes32"}],"outputs":[{"name":"","type":"bool","internalType":"bool"}],"stateMutability":"view"},{"type":"function","name":"governanceChainId","inputs":[],"outputs":[{"name":"","type":"uint16","internalType":"uint16"}],"stateMutability":"view"},{"type":"function","name":"governanceContract","inputs":[],"outputs":[{"name":"","type":"bytes32","internalType":"bytes32"}],"stateMutability":"view"},{"type":"function","name":"isFork","inputs":[],"outputs":[{"name":"","type":"bool","internalType":"bool"}],"stateMutability":"view"},{"type":"function","name":"isInitialized","inputs":[{"name":"impl","type":"address","internalType":"address"}],"outputs":[{"name":"","type":"bool","internalType":"bool"}],"stateMutability":"view"},{"type":"function","name":"messageFee","inputs":[],"outputs":[{"name":"","type":"uint256","internalType":"uint256"}],"stateMutability":"view"},{"type":"function","name":"nextSequence","inputs":[{"name":"emitter","type":"address","internalType":"address"}],"outputs":[{"name":"","type":"uint64","internalType":"uint64"}],"stateMutability":"view"},{"type":"function","name":"parseAndVerifyVM","inputs":[{"name":"encodedVM","type":"bytes","internalType":"bytes"}],"outputs":[{"name":"emitterChainId","type":"uint16","internalType":"uint16"},{"name":"emitterAddress","type":"bytes32","internalType":"bytes32"},{"name":"payload","type":"bytes","internalType":"bytes"}],"stateMutability":"view"},{"type":"function","name":"parseVM","inputs":[{"name":"encodedVM","type":"bytes","internalType":"bytes"}],"outputs":[{"name":"emitterChainId","type":"uint16","internalType":"uint16"},{"name":"emitterAddress","type":"bytes32","internalType":"bytes32"},{"name":"guardianSetIndex","type":"uint32","internalType":"uint32"},{"name":"signatures","type":"bytes","internalType":"bytes"},{"name":"bodyHash","type":"bytes32","internalType":"bytes32"},{"name":"payload","type":"bytes","internalType":"bytes"}],"stateMutability":"view"},{"type":"function","name":"quorum","inputs":[{"name":"numGuardians","type":"uint256","internalType":"uint256"}],"outputs":[{"name":"numSignaturesRequiredForQuorum","type":"uint256","internalType":"uint256"}],"stateMutability":"pure"},{"type":"function","name":"verifySignatures","inputs":[{"name":"hash","type":"bytes32","internalType":"bytes32"},{"name":"signatures","type":"bytes","internalType":"bytes"},{"name":"guardianSet","type":"tuple","internalType":"struct Structs.GuardianSet","components":[{"name":"keys","type":"address[]","internalType":"address[]"},{"name":"expirationTime","type":"uint32","internalType":"uint32"}]}],"outputs":[],"stateMutability":"pure"},{"type":"error","name":"GuardianIndexOutOfBounds","inputs":[]},{"type":"error","name":"GuardianSetExpired","inputs":[]},{"type":"error","name":"InvalidGuardianSet","inputs":[]},{"type":"error","name":"InvalidSignatory","inputs":[]},{"type":"error","name":"NoQuorum","inputs":[]},{"type":"error","name":"SignatureIndicesNotAscending","inputs":[]},{"type":"error","name":"TooManyGuardians","inputs":[]},{"type":"error","name":"VMSignatureInvalid","inputs":[]},{"type":"error","name":"VMVersionIncompatible","inputs":[]},{"type":"error","name":"WormholeStateAddressZero","inputs":[]}],"bytecode":{"object":"0x60a0601f61166038819003918201601f19168301916001600160401b038311848410176100cd578084926020946040528339810103126100c957516001600160a01b038116908190036100c95780156100ba5760805260405161157e90816100e2823960805181818161013d01528181610325015281816104100152818161051001528181610751015281816108cf0152818161099b01528181610a6a01528181610cc101528181610db101528181610f6f015261142c0152f35b6323205fe760e01b5f5260045ffd5b5f80fd5b634e487b7160e01b5f52604160045260245ffdfe6080806040526004361015610012575f80fd5b5f3560e01c9081631a90a21914610d43575080631cfe795114610cfd5780632c3c02a414610c475780634355866714610af25780634cf842b5146109d457806364d42b171461092a5780639a8a05921461085e578063a9e11893146107be578063b172b222146106e0578063c0fd8bde1461054c578063d60b347f1461047a578063e039f2241461039f578063eb8d3f12146102b4578063f8ce560a14610270578063f951975a146101b85763fbe3c2cd146100cc575f80fd5b346101b4575f7ffffffffffffffffffffffffffffffffffffffffffffffffffffffffffffffffc3601126101b4576040517ffbe3c2cd00000000000000000000000000000000000000000000000000000000815260208160048173ffffffffffffffffffffffffffffffffffffffff7f0000000000000000000000000000000000000000000000000000000000000000165afa80156101a9576020915f9161017c575b5061ffff60405191168152f35b61019c9150823d84116101a2575b6101948183610e61565b810190611195565b5f61016f565b503d61018a565b6040513d5f823e3d90fd5b5f80fd5b346101b45760207ffffffffffffffffffffffffffffffffffffffffffffffffffffffffffffffffc3601126101b45760043563ffffffff811681036101b457610200906113c9565b60405160208152606081018251906040602084015281518091526020608084019201905f5b8181106102445750505063ffffffff6020839401511660408301520390f35b825173ffffffffffffffffffffffffffffffffffffffff16845260209384019390920191600101610225565b346101b45760207ffffffffffffffffffffffffffffffffffffffffffffffffffffffffffffffffc3601126101b45760206102ac60043561138b565b604051908152f35b346101b4575f7ffffffffffffffffffffffffffffffffffffffffffffffffffffffffffffffffc3601126101b4576040517feb8d3f1200000000000000000000000000000000000000000000000000000000815260208160048173ffffffffffffffffffffffffffffffffffffffff7f0000000000000000000000000000000000000000000000000000000000000000165afa80156101a9575f90610365575b60209063ffffffff60405191168152f35b506020813d602011610397575b8161037f60209383610e61565b810103126101b457610392602091610f1b565b610354565b3d9150610372565b346101b4575f7ffffffffffffffffffffffffffffffffffffffffffffffffffffffffffffffffc3601126101b4576040517fe039f22400000000000000000000000000000000000000000000000000000000815260208160048173ffffffffffffffffffffffffffffffffffffffff7f0000000000000000000000000000000000000000000000000000000000000000165afa80156101a9576020915f9161044d575b506040519015158152f35b61046d9150823d8411610473575b6104658183610e61565b810190610fd9565b82610442565b503d61045b565b346101b45760207ffffffffffffffffffffffffffffffffffffffffffffffffffffffffffffffffc3601126101b4576104b1610eba565b73ffffffffffffffffffffffffffffffffffffffff604051917fd60b347f00000000000000000000000000000000000000000000000000000000835216600482015260208160248173ffffffffffffffffffffffffffffffffffffffff7f0000000000000000000000000000000000000000000000000000000000000000165afa80156101a9576020915f9161044d57506040519015158152f35b346101b45760207ffffffffffffffffffffffffffffffffffffffffffffffffffffffffffffffffc3601126101b45760043567ffffffffffffffff81116101b45761059e6105a4913690600401610dea565b906111c7565b929695919093946105b4816113c9565b90815151156106b85763ffffffff6020830151164211610674575b508715610647576105e181515161138b565b863560f81c1061061f5761ffff9761061b966105fc93610ff1565b6040519586951685526020850152606060408501526060840191610edd565b0390f35b7f2166ec35000000000000000000000000000000000000000000000000000000005f5260045ffd5b7f4e487b71000000000000000000000000000000000000000000000000000000005f52603260045260245ffd5b63ffffffff80610682610f2c565b1691160361069057886105cf565b7f11927a6e000000000000000000000000000000000000000000000000000000005f5260045ffd5b7f3d0cdd52000000000000000000000000000000000000000000000000000000005f5260045ffd5b346101b4575f7ffffffffffffffffffffffffffffffffffffffffffffffffffffffffffffffffc3601126101b4576040517fb172b22200000000000000000000000000000000000000000000000000000000815260208160048173ffffffffffffffffffffffffffffffffffffffff7f0000000000000000000000000000000000000000000000000000000000000000165afa80156101a9575f9061078b575b602090604051908152f35b506020813d6020116107b6575b816107a560209383610e61565b810103126101b45760209051610780565b3d9150610798565b346101b45760207ffffffffffffffffffffffffffffffffffffffffffffffffffffffffffffffffc3601126101b45760043567ffffffffffffffff81116101b45761084b61061b63ffffffff61081e61059e61ffff953690600401610dea565b96999490956040989298519b8c9b168b5260208b015216604089015260c0606089015260c0880191610edd565b92608086015284830360a0860152610edd565b346101b4575f7ffffffffffffffffffffffffffffffffffffffffffffffffffffffffffffffffc3601126101b4576040517f9a8a059200000000000000000000000000000000000000000000000000000000815260208160048173ffffffffffffffffffffffffffffffffffffffff7f0000000000000000000000000000000000000000000000000000000000000000165afa80156101a9576020915f9161090d575061ffff60405191168152f35b6109249150823d84116101a2576101948183610e61565b8261016f565b346101b4575f7ffffffffffffffffffffffffffffffffffffffffffffffffffffffffffffffffc3601126101b4576040517f64d42b1700000000000000000000000000000000000000000000000000000000815260208160048173ffffffffffffffffffffffffffffffffffffffff7f0000000000000000000000000000000000000000000000000000000000000000165afa80156101a9575f9061078b57602090604051908152f35b346101b45760207ffffffffffffffffffffffffffffffffffffffffffffffffffffffffffffffffc3601126101b457610a0b610eba565b73ffffffffffffffffffffffffffffffffffffffff604051917f4cf842b500000000000000000000000000000000000000000000000000000000835216600482015260208160248173ffffffffffffffffffffffffffffffffffffffff7f0000000000000000000000000000000000000000000000000000000000000000165afa80156101a9575f90610aae575b60209067ffffffffffffffff60405191168152f35b506020813d602011610aea575b81610ac860209383610e61565b810103126101b4575167ffffffffffffffff811681036101b457602090610a99565b3d9150610abb565b346101b45760607ffffffffffffffffffffffffffffffffffffffffffffffffffffffffffffffffc3601126101b45760243567ffffffffffffffff81116101b457610b41903690600401610dea565b6044359067ffffffffffffffff82116101b45760407ffffffffffffffffffffffffffffffffffffffffffffffffffffffffffffffffc83360301126101b45760405191610b8d83610e18565b806004013567ffffffffffffffff81116101b4578101366023820112156101b4576004810135610bbc81610ea2565b91610bca6040519384610e61565b818352602060048185019360051b83010101903682116101b457602401915b818310610c1a575050508352602401359263ffffffff841684036101b457610c18936020840152600435610ff1565b005b823573ffffffffffffffffffffffffffffffffffffffff811681036101b457815260209283019201610be9565b346101b45760207ffffffffffffffffffffffffffffffffffffffffffffffffffffffffffffffffc3601126101b4576040517f2c3c02a4000000000000000000000000000000000000000000000000000000008152600435600482015260208160248173ffffffffffffffffffffffffffffffffffffffff7f0000000000000000000000000000000000000000000000000000000000000000165afa80156101a9576020915f9161044d57506040519015158152f35b346101b4575f7ffffffffffffffffffffffffffffffffffffffffffffffffffffffffffffffffc3601126101b4576020610d35610f2c565b63ffffffff60405191168152f35b346101b4575f7ffffffffffffffffffffffffffffffffffffffffffffffffffffffffffffffffc3601126101b4577f1a90a21900000000000000000000000000000000000000000000000000000000815260208160048173ffffffffffffffffffffffffffffffffffffffff7f0000000000000000000000000000000000000000000000000000000000000000165afa80156101a9575f9061078b57602090604051908152f35b9181601f840112156101b45782359167ffffffffffffffff83116101b457602083818601950101116101b457565b6040810190811067ffffffffffffffff821117610e3457604052565b7f4e487b71000000000000000000000000000000000000000000000000000000005f52604160045260245ffd5b90601f7fffffffffffffffffffffffffffffffffffffffffffffffffffffffffffffffe0910116810190811067ffffffffffffffff821117610e3457604052565b67ffffffffffffffff8111610e345760051b60200190565b6004359073ffffffffffffffffffffffffffffffffffffffff821682036101b457565b601f82602094937fffffffffffffffffffffffffffffffffffffffffffffffffffffffffffffffe093818652868601375f8582860101520116010190565b519063ffffffff821682036101b457565b6040517f1cfe795100000000000000000000000000000000000000000000000000000000815260208160048173ffffffffffffffffffffffffffffffffffffffff7f0000000000000000000000000000000000000000000000000000000000000000165afa9081156101a9575f91610fa2575090565b90506020813d602011610fd1575b81610fbd60209383610e61565b810103126101b457610fce90610f1b565b90565b3d9150610fb0565b908160209103126101b4575180151581036101b45790565b83515191935f9392831561064757853560f81c95600195945f5b88811061101d57505050505050505050565b81881015610647578783019687359860205f608060428d60f81c94019b6021604051918d835260ff601b604183013560f81c011686840152600181013560408401520135606082015282805260015afa156101a95773ffffffffffffffffffffffffffffffffffffffff5f511691821561116d578315908115611160575b50156111385780998682101561111057875191825111156106475760f31c611fe016016020015173ffffffffffffffffffffffffffffffffffffffff16036110e85760010196959661100b565b7f08ada082000000000000000000000000000000000000000000000000000000005f5260045ffd5b7fba5b4315000000000000000000000000000000000000000000000000000000005f5260045ffd5b7f4fe17a6f000000000000000000000000000000000000000000000000000000005f5260045ffd5b60ff91501681115f61109b565b7fba0e0fd5000000000000000000000000000000000000000000000000000000005f5260045ffd5b908160209103126101b4575161ffff811681036101b45790565b909392938483116101b45784116101b4578101920390565b9190806001116101b4577fffffffffffffffffffffffffffffffffffffffffffffffffffffffffffffffff833560f81c0161136357806005116101b457600183013560e01c90806006116101b4576005840192604260ff853560f81c16029384600601806005116101b45783106101b45791600185019161124d8260068801818a6111af565b67ffffffffffffffff8111610e345760405161129160207fffffffffffffffffffffffffffffffffffffffffffffffffffffffffffffffe0601f8501160182610e61565b818152602081019136818501116101b4576020815f9261132a9686378301015251902060405160208101918252602081526112cd604082610e61565b519020926112e360108901600e8a01838c6111af565b90357fffff0000000000000000000000000000000000000000000000000000000000008116916002811061132e575b505060f01c9881603960108b840101359a01916111af565b9091565b7fffff0000000000000000000000000000000000000000000000000000000000009250829060020360031b1b16165f80611312565b7fbcd5ac7a000000000000000000000000000000000000000000000000000000005f5260045ffd5b6101008110156113a1576003600191821b040190565b7f9308529b000000000000000000000000000000000000000000000000000000005f5260045ffd5b5f60206040516113d881610e18565b60608152015263ffffffff604051917ff951975a0000000000000000000000000000000000000000000000000000000083521660048201525f8160248173ffffffffffffffffffffffffffffffffffffffff7f0000000000000000000000000000000000000000000000000000000000000000165afa9081156101a9575f9161145f575090565b90503d805f833e6114708183610e61565b8101906020818303126101b45780519067ffffffffffffffff82116101b457016040818303126101b457604051916114a783610e18565b815167ffffffffffffffff81116101b45782019080601f830112156101b4578151906114d282610ea2565b926114e06040519485610e61565b82845260208085019360051b8201019182116101b457602001915b81831061151b57505050825261151390602001610f1b565b602082015290565b825173ffffffffffffffffffffffffffffffffffffffff811681036101b4578152602092830192016114fb56fea26469706673582212209788339d9f657fd6b409a9cd1b417f6ace205913b3f1a3229164ba6f7b8d255864736f6c634300081e0033","linkReferences":{}},"methodIdentifiers":{"chainId()":"9a8a0592","evmChainId()":"64d42b17","getCurrentGuardianSetIndex()":"1cfe7951","getGuardianSet(uint32)":"f951975a","getGuardianSetExpiry()":"eb8d3f12","governanceActionIsConsumed(bytes32)":"2c3c02a4","governanceChainId()":"fbe3c2cd","governanceContract()":"b172b222","isFork()":"e039f224","isInitialized(address)":"d60b347f","messageFee()":"1a90a219","nextSequence(address)":"4cf842b5","parseAndVerifyVM(bytes)":"c0fd8bde","parseVM(bytes)":"a9e11893","quorum(uint256)":"f8ce560a","verifySignatures(bytes32,bytes,(address[],uint32))":"43558667"},"id":162}