{"abi":[{"type":"constructor","inputs":[{"name":"wormholeState","type":"address","internalType":"address"}],"stateMutability":"payable"},{"type":"function","name":"chainId","inputs":[],"outputs":[{"name":"","type":"uint16","internalType":"uint16"}],"stateMutability":"view"},{"type":"function","name":"evmChainId","inputs":[],"outputs":[{"name":"","type":"uint256","internalType":"uint256"}],"stateMutability":"view"},{"type":"function","name":"getCurrentGuardianSetIndex","inputs":[],"outputs":[{"name":"","type":"uint32","internalType":"uint32"}],"stateMutability":"view"},{"type":"function","name":"getGuardianSet","inputs":[{"name":"index","type":"uint32","internalType":"uint32"}],"outputs":[{"name":"","type":"tuple","internalType":"struct Structs.GuardianSet","components":[{"name":"keys","type":"address[]","internalType":"address[]"},{"name":"expirationTime","type":"uint32","internalType":"uint32"}]}],"stateMutability":"view"},{"type":"function","name":"getGuardianSetExpiry","inputs":[],"outputs":[{"name":"","type":"uint32","internalType":"uint32"}],"stateMutability":"view"},{"type":"function","name":"governanceActionIsConsumed","inputs":[{"name":"hash","type":"bytes32","internalType":"bytes32"}],"outputs":[{"name":"","type":"bool","internalType":"bool"}],"stateMutability":"view"},{"type":"function","name":"governanceChainId","inputs":[],"outputs":[{"name":"","type":"uint16","internalType":"uint16"}],"stateMutability":"view"},{"type":"function","name":"governanceContract","inputs":[],"outputs":[{"name":"","type":"bytes32","internalType":"bytes32"}],"stateMutability":"view"},{"type":"function","name":"isFork","inputs":[],"outputs":[{"name":"","type":"bool","internalType":"bool"}],"stateMutability":"view"},{"type":"function","name":"isInitialized","inputs":[{"name":"impl","type":"address","internalType":"address"}],"outputs":[{"name":"","type":"bool","internalType":"bool"}],"stateMutability":"view"},{"type":"function","name":"messageFee","inputs":[],"outputs":[{"name":"","type":"uint256","internalType":"uint256"}],"stateMutability":"view"},{"type":"function","name":"nextSequence","inputs":[{"name":"emitter","type":"address","internalType":"address"}],"outputs":[{"name":"","type":"uint64","internalType":"uint64"}],"stateMutability":"view"},{"type":"error","name":"WormholeStateAddressZero","inputs":[]}],"bytecode":{"object":"0x60a0601f610dc138819003918201601f19168301916001600160401b038311848410176100cd578084926020946040528339810103126100c957516001600160a01b038116908190036100c95780156100ba57608052604051610cdf90816100e28239608051818181610111015281816102290152818161045d015281816105480152818161064b015281816106f8015281816107d6015281816108a20152818161097401528181610a7601528181610b230152610bd00152f35b6323205fe760e01b5f5260045ffd5b5f80fd5b634e487b7160e01b5f52604160045260245ffdfe6080806040526004361015610012575f80fd5b5f3560e01c9081631a90a21914610b62575080631cfe795114610ab25780632c3c02a4146109fc5780634cf842b5146108db57806364d42b17146108315780639a8a059214610765578063b172b22214610687578063d60b347f146105b2578063e039f224146104d7578063eb8d3f12146103ec578063f951975a1461018c5763fbe3c2cd146100a0575f80fd5b34610188575f7ffffffffffffffffffffffffffffffffffffffffffffffffffffffffffffffffc360112610188576040517ffbe3c2cd00000000000000000000000000000000000000000000000000000000815260208160048173ffffffffffffffffffffffffffffffffffffffff7f0000000000000000000000000000000000000000000000000000000000000000165afa801561017d576020915f91610150575b5061ffff60405191168152f35b6101709150823d8411610176575b6101688183610c25565b810190610c8f565b5f610143565b503d61015e565b6040513d5f823e3d90fd5b5f80fd5b346101885760207ffffffffffffffffffffffffffffffffffffffffffffffffffffffffffffffffc3601126101885760043563ffffffff8116809103610188575f60206040516101db81610c09565b606081520152604051907ff951975a00000000000000000000000000000000000000000000000000000000825260048201525f8160248173ffffffffffffffffffffffffffffffffffffffff7f0000000000000000000000000000000000000000000000000000000000000000165afa90811561017d575f916102ca575b5060405160208152606081018251906040602084015281518091526020608084019201905f5b81811061029e5750505063ffffffff6020839401511660408301520390f35b825173ffffffffffffffffffffffffffffffffffffffff1684526020938401939092019160010161027f565b90503d805f833e6102db8183610c25565b8101906020818303126101885780519067ffffffffffffffff82116101885701604081830312610188576040519161031283610c09565b815167ffffffffffffffff811161018857820181601f820112156101885780519167ffffffffffffffff83116103bf578260051b91604051936103586020850186610c25565b845260208085019382010191821161018857602001915b81831061039257505050825261038790602001610c66565b602082015281610259565b825173ffffffffffffffffffffffffffffffffffffffff811681036101885781526020928301920161036f565b7f4e487b71000000000000000000000000000000000000000000000000000000005f52604160045260245ffd5b34610188575f7ffffffffffffffffffffffffffffffffffffffffffffffffffffffffffffffffc360112610188576040517feb8d3f1200000000000000000000000000000000000000000000000000000000815260208160048173ffffffffffffffffffffffffffffffffffffffff7f0000000000000000000000000000000000000000000000000000000000000000165afa801561017d575f9061049d575b60209063ffffffff60405191168152f35b506020813d6020116104cf575b816104b760209383610c25565b81010312610188576104ca602091610c66565b61048c565b3d91506104aa565b34610188575f7ffffffffffffffffffffffffffffffffffffffffffffffffffffffffffffffffc360112610188576040517fe039f22400000000000000000000000000000000000000000000000000000000815260208160048173ffffffffffffffffffffffffffffffffffffffff7f0000000000000000000000000000000000000000000000000000000000000000165afa801561017d576020915f91610585575b506040519015158152f35b6105a59150823d84116105ab575b61059d8183610c25565b810190610c77565b8261057a565b503d610593565b346101885760207ffffffffffffffffffffffffffffffffffffffffffffffffffffffffffffffffc3601126101885760043573ffffffffffffffffffffffffffffffffffffffff811680910361018857604051907fd60b347f000000000000000000000000000000000000000000000000000000008252600482015260208160248173ffffffffffffffffffffffffffffffffffffffff7f0000000000000000000000000000000000000000000000000000000000000000165afa801561017d576020915f9161058557506040519015158152f35b34610188575f7ffffffffffffffffffffffffffffffffffffffffffffffffffffffffffffffffc360112610188576040517fb172b22200000000000000000000000000000000000000000000000000000000815260208160048173ffffffffffffffffffffffffffffffffffffffff7f0000000000000000000000000000000000000000000000000000000000000000165afa801561017d575f90610732575b602090604051908152f35b506020813d60201161075d575b8161074c60209383610c25565b810103126101885760209051610727565b3d915061073f565b34610188575f7ffffffffffffffffffffffffffffffffffffffffffffffffffffffffffffffffc360112610188576040517f9a8a059200000000000000000000000000000000000000000000000000000000815260208160048173ffffffffffffffffffffffffffffffffffffffff7f0000000000000000000000000000000000000000000000000000000000000000165afa801561017d576020915f91610814575061ffff60405191168152f35b61082b9150823d8411610176576101688183610c25565b82610143565b34610188575f7ffffffffffffffffffffffffffffffffffffffffffffffffffffffffffffffffc360112610188576040517f64d42b1700000000000000000000000000000000000000000000000000000000815260208160048173ffffffffffffffffffffffffffffffffffffffff7f0000000000000000000000000000000000000000000000000000000000000000165afa801561017d575f9061073257602090604051908152f35b346101885760207ffffffffffffffffffffffffffffffffffffffffffffffffffffffffffffffffc3601126101885760043573ffffffffffffffffffffffffffffffffffffffff811680910361018857604051907f4cf842b5000000000000000000000000000000000000000000000000000000008252600482015260208160248173ffffffffffffffffffffffffffffffffffffffff7f0000000000000000000000000000000000000000000000000000000000000000165afa801561017d575f906109b8575b60209067ffffffffffffffff60405191168152f35b506020813d6020116109f4575b816109d260209383610c25565b81010312610188575167ffffffffffffffff81168103610188576020906109a3565b3d91506109c5565b346101885760207ffffffffffffffffffffffffffffffffffffffffffffffffffffffffffffffffc360112610188576040517f2c3c02a4000000000000000000000000000000000000000000000000000000008152600435600482015260208160248173ffffffffffffffffffffffffffffffffffffffff7f0000000000000000000000000000000000000000000000000000000000000000165afa801561017d576020915f9161058557506040519015158152f35b34610188575f7ffffffffffffffffffffffffffffffffffffffffffffffffffffffffffffffffc360112610188576040517f1cfe795100000000000000000000000000000000000000000000000000000000815260208160048173ffffffffffffffffffffffffffffffffffffffff7f0000000000000000000000000000000000000000000000000000000000000000165afa801561017d575f9061049d5760209063ffffffff60405191168152f35b34610188575f7ffffffffffffffffffffffffffffffffffffffffffffffffffffffffffffffffc360112610188577f1a90a21900000000000000000000000000000000000000000000000000000000815260208160048173ffffffffffffffffffffffffffffffffffffffff7f0000000000000000000000000000000000000000000000000000000000000000165afa801561017d575f9061073257602090604051908152f35b6040810190811067ffffffffffffffff8211176103bf57604052565b90601f7fffffffffffffffffffffffffffffffffffffffffffffffffffffffffffffffe0910116810190811067ffffffffffffffff8211176103bf57604052565b519063ffffffff8216820361018857565b90816020910312610188575180151581036101885790565b90816020910312610188575161ffff81168103610188579056fea26469706673582212204f1686b4df1cb44314b6ee923803741948ddaa8457c0cb1f54a2e187c83293ae64736f6c634300081e0033","linkReferences":{}},"methodIdentifiers":{"chainId()":"9a8a0592","evmChainId()":"64d42b17","getCurrentGuardianSetIndex()":"1cfe7951","getGuardianSet(uint32)":"f951975a","getGuardianSetExpiry()":"eb8d3f12","governanceActionIsConsumed(bytes32)":"2c3c02a4","governanceChainId()":"fbe3c2cd","governanceContract()":"b172b222","isFork()":"e039f224","isInitialized(address)":"d60b347f","messageFee()":"1a90a219","nextSequence(address)":"4cf842b5"},"id":161}