{"abi":[{"type":"constructor","inputs":[{"name":"_owner","type":"address","internalType":"address"},{"name":"_wormhole","type":"address","internalType":"address"}],"stateMutability":"payable"},{"type":"function","name":"WORMHOLE","inputs":[],"outputs":[{"name":"","type":"address","internalType":"contract IWormhole"}],"stateMutability":"view"},{"type":"function","name":"chainId","inputs":[],"outputs":[{"name":"","type":"uint16","internalType":"uint16"}],"stateMutability":"view"},{"type":"function","name":"chainIdMap","inputs":[{"name":"protocolChainidentifier","type":"uint256","internalType":"uint256"}],"outputs":[{"name":"chainId","type":"uint256","internalType":"uint256"}],"stateMutability":"view"},{"type":"function","name":"efficientRequireProven","inputs":[{"name":"proofSeries","type":"bytes","internalType":"bytes"}],"outputs":[],"stateMutability":"view"},{"type":"function","name":"evmChainId","inputs":[],"outputs":[{"name":"","type":"uint256","internalType":"uint256"}],"stateMutability":"view"},{"type":"function","name":"getCurrentGuardianSetIndex","inputs":[],"outputs":[{"name":"","type":"uint32","internalType":"uint32"}],"stateMutability":"view"},{"type":"function","name":"getGuardianSet","inputs":[{"name":"index","type":"uint32","internalType":"uint32"}],"outputs":[{"name":"","type":"tuple","internalType":"struct Structs.GuardianSet","components":[{"name":"keys","type":"address[]","internalType":"address[]"},{"name":"expirationTime","type":"uint32","internalType":"uint32"}]}],"stateMutability":"view"},{"type":"function","name":"getGuardianSetExpiry","inputs":[],"outputs":[{"name":"","type":"uint32","internalType":"uint32"}],"stateMutability":"view"},{"type":"function","name":"governanceActionIsConsumed","inputs":[{"name":"hash","type":"bytes32","internalType":"bytes32"}],"outputs":[{"name":"","type":"bool","internalType":"bool"}],"stateMutability":"view"},{"type":"function","name":"governanceChainId","inputs":[],"outputs":[{"name":"","type":"uint16","internalType":"uint16"}],"stateMutability":"view"},{"type":"function","name":"governanceContract","inputs":[],"outputs":[{"name":"","type":"bytes32","internalType":"bytes32"}],"stateMutability":"view"},{"type":"function","name":"isFork","inputs":[],"outputs":[{"name":"","type":"bool","internalType":"bool"}],"stateMutability":"view"},{"type":"function","name":"isInitialized","inputs":[{"name":"impl","type":"address","internalType":"address"}],"outputs":[{"name":"","type":"bool","internalType":"bool"}],"stateMutability":"view"},{"type":"function","name":"isProven","inputs":[{"name":"remoteChainId","type":"uint256","internalType":"uint256"},{"name":"remoteOracle","type":"bytes32","internalType":"bytes32"},{"name":"application","type":"bytes32","internalType":"bytes32"},{"name":"dataHash","type":"bytes32","internalType":"bytes32"}],"outputs":[{"name":"","type":"bool","internalType":"bool"}],"stateMutability":"view"},{"type":"function","name":"messageFee","inputs":[],"outputs":[{"name":"","type":"uint256","internalType":"uint256"}],"stateMutability":"view"},{"type":"function","name":"nextSequence","inputs":[{"name":"emitter","type":"address","internalType":"address"}],"outputs":[{"name":"","type":"uint64","internalType":"uint64"}],"stateMutability":"view"},{"type":"function","name":"owner","inputs":[],"outputs":[{"name":"","type":"address","internalType":"address"}],"stateMutability":"view"},{"type":"function","name":"parseAndVerifyVM","inputs":[{"name":"encodedVM","type":"bytes","internalType":"bytes"}],"outputs":[{"name":"emitterChainId","type":"uint16","internalType":"uint16"},{"name":"emitterAddress","type":"bytes32","internalType":"bytes32"},{"name":"payload","type":"bytes","internalType":"bytes"}],"stateMutability":"view"},{"type":"function","name":"parseVM","inputs":[{"name":"encodedVM","type":"bytes","internalType":"bytes"}],"outputs":[{"name":"emitterChainId","type":"uint16","internalType":"uint16"},{"name":"emitterAddress","type":"bytes32","internalType":"bytes32"},{"name":"guardianSetIndex","type":"uint32","internalType":"uint32"},{"name":"signatures","type":"bytes","internalType":"bytes"},{"name":"bodyHash","type":"bytes32","internalType":"bytes32"},{"name":"payload","type":"bytes","internalType":"bytes"}],"stateMutability":"view"},{"type":"function","name":"quorum","inputs":[{"name":"numGuardians","type":"uint256","internalType":"uint256"}],"outputs":[{"name":"numSignaturesRequiredForQuorum","type":"uint256","internalType":"uint256"}],"stateMutability":"pure"},{"type":"function","name":"receiveMessage","inputs":[{"name":"rawMessage","type":"bytes","internalType":"bytes"}],"outputs":[],"stateMutability":"nonpayable"},{"type":"function","name":"renounceOwnership","inputs":[],"outputs":[],"stateMutability":"nonpayable"},{"type":"function","name":"reverseChainIdMap","inputs":[{"name":"chainId","type":"uint256","internalType":"uint256"}],"outputs":[{"name":"protocolChainidentifier","type":"uint256","internalType":"uint256"}],"stateMutability":"view"},{"type":"function","name":"setChainMap","inputs":[{"name":"protocolChainIdentifier","type":"uint256","internalType":"uint256"},{"name":"chainId","type":"uint256","internalType":"uint256"}],"outputs":[],"stateMutability":"nonpayable"},{"type":"function","name":"submit","inputs":[{"name":"source","type":"address","internalType":"address"},{"name":"payloads","type":"bytes[]","internalType":"bytes[]"}],"outputs":[{"name":"refund","type":"uint256","internalType":"uint256"}],"stateMutability":"payable"},{"type":"function","name":"transferOwnership","inputs":[{"name":"newOwner","type":"address","internalType":"address"}],"outputs":[],"stateMutability":"nonpayable"},{"type":"function","name":"verifySignatures","inputs":[{"name":"hash","type":"bytes32","internalType":"bytes32"},{"name":"signatures","type":"bytes","internalType":"bytes"},{"name":"guardianSet","type":"tuple","internalType":"struct Structs.GuardianSet","components":[{"name":"keys","type":"address[]","internalType":"address[]"},{"name":"expirationTime","type":"uint32","internalType":"uint32"}]}],"outputs":[],"stateMutability":"pure"},{"type":"event","name":"ChainMapConfigured","inputs":[{"name":"protocolChainIdentifier","type":"uint256","indexed":false,"internalType":"uint256"},{"name":"chainId","type":"uint256","indexed":false,"internalType":"uint256"}],"anonymous":false},{"type":"event","name":"OutputProven","inputs":[{"name":"chainid","type":"uint256","indexed":false,"internalType":"uint256"},{"name":"remoteIdentifier","type":"bytes32","indexed":false,"internalType":"bytes32"},{"name":"application","type":"bytes32","indexed":false,"internalType":"bytes32"},{"name":"payloadHash","type":"bytes32","indexed":false,"internalType":"bytes32"}],"anonymous":false},{"type":"event","name":"OwnershipTransferred","inputs":[{"name":"previousOwner","type":"address","indexed":true,"internalType":"address"},{"name":"newOwner","type":"address","indexed":true,"internalType":"address"}],"anonymous":false},{"type":"error","name":"AlreadySet","inputs":[]},{"type":"error","name":"GuardianIndexOutOfBounds","inputs":[]},{"type":"error","name":"GuardianSetExpired","inputs":[]},{"type":"error","name":"InvalidGuardianSet","inputs":[]},{"type":"error","name":"InvalidSignatory","inputs":[]},{"type":"error","name":"NoQuorum","inputs":[]},{"type":"error","name":"NotAllPayloadsValid","inputs":[]},{"type":"error","name":"NotDivisible","inputs":[{"name":"value","type":"uint256","internalType":"uint256"},{"name":"divisor","type":"uint256","internalType":"uint256"}]},{"type":"error","name":"NotProven","inputs":[]},{"type":"error","name":"OwnableInvalidOwner","inputs":[{"name":"owner","type":"address","internalType":"address"}]},{"type":"error","name":"OwnableUnauthorizedAccount","inputs":[{"name":"account","type":"address","internalType":"address"}]},{"type":"error","name":"RefundFailed","inputs":[]},{"type":"error","name":"SignatureIndicesNotAscending","inputs":[]},{"type":"error","name":"TooLargePayload","inputs":[{"name":"size","type":"uint256","internalType":"uint256"}]},{"type":"error","name":"TooManyGuardians","inputs":[]},{"type":"error","name":"TooManyPayloads","inputs":[{"name":"size","type":"uint256","internalType":"uint256"}]},{"type":"error","name":"VMSignatureInvalid","inputs":[]},{"type":"error","name":"VMVersionIncompatible","inputs":[]},{"type":"error","name":"WormholeStateAddressZero","inputs":[]},{"type":"error","name":"ZeroValue","inputs":[]}],"bytecode":{"object":"0x60c0601f6124c038819003918201601f19168301916001600160401b038311848410176101545780849260409485528339810103126101505761004d602061004683610168565b9201610168565b6001600160a01b0390911690811561013d575f80546001600160a01b031981168417825560405193916001600160a01b03909116907f8be0079c531659141344cd1fd0a4f28419497f9722a3daafe3b4186f6b6457e09080a36001600160a01b0316801561012e578060805260a052612343908161017d82396080518181816101b6015281816106930152818161077e0152818161087e015281816109ab01528181610ca0015281816114f8015281816115c7015281816118d7015281816119c701528181611b8501526121a5015260a0518181816110f601526118390152f35b6323205fe760e01b5f5260045ffd5b631e4fbdf760e01b5f525f60045260245ffd5b5f80fd5b634e487b7160e01b5f52604160045260245ffd5b51906001600160a01b03821682036101505756fe6080806040526004361015610012575f80fd5b5f3560e01c9081631a90a21914611959575080631cfe7951146119135780632c3c02a41461185d57806335e78cfe146117ef5780633ff04aff1461177e57806343558667146116295780634cf842b51461153157806364d42b1714611487578063715018a6146113ed57806387d64b9214610e725780638da5cb5b14610e2257806394020bb414610d435780639509e26414610cfb5780639a8a059214610c2f5780639afd77a614610be7578063a9e1189314610b41578063ae0dd77014610a18578063b172b2221461093a578063c0fd8bde146108ba578063d60b347f146107e8578063e039f2241461070d578063eb8d3f1214610622578063f2fde38b14610536578063f8ce560a146104f2578063f951975a1461043a578063f953cec7146102315763fbe3c2cd14610145575f80fd5b3461022d575f7ffffffffffffffffffffffffffffffffffffffffffffffffffffffffffffffffc36011261022d576040517ffbe3c2cd00000000000000000000000000000000000000000000000000000000815260208160048173ffffffffffffffffffffffffffffffffffffffff7f0000000000000000000000000000000000000000000000000000000000000000165afa8015610222576020915f916101f5575b5061ffff60405191168152f35b6102159150823d841161021b575b61020d8183611a77565b810190611e00565b5f6101e8565b503d610203565b6040513d5f823e3d90fd5b5f80fd5b3461022d5760207ffffffffffffffffffffffffffffffffffffffffffffffffffffffffffffffffc36011261022d5760043567ffffffffffffffff811161022d57610283610289913690600401611a00565b9061200f565b91928135918360221161022d57602081013560f01c906102a882611ab8565b946102b66040519687611a77565b8286527fffffffffffffffffffffffffffffffffffffffffffffffffffffffffffffffe06102e384611ab8565b013660208801376022905f5b8481106103e95788888861ffff89165f52600160205260405f20549182156103c1578051925f5b84811061031f57005b807f0181a12666b7d0fe18268f2539395fe14c843ad334ea7210434eae4881d9de6b608061034f60019487611c07565b51855f52600360205260405f208a5f5260205260405f20885f5260205260405f20815f5260205260405f20857fffffffffffffffffffffffffffffffffffffffffffffffffffffffffffffff00825416179055604051908682528a60208301528860408301526060820152a101610316565b7f7c946ed7000000000000000000000000000000000000000000000000000000005f5260045ffd5b60019061042261041b60028087019661040d61040789838a8d611e1a565b90611ea2565b60f01c010180968689611e1a565b3691611e6c565b60208151910120610433828b611c07565b52016102ef565b3461022d5760207ffffffffffffffffffffffffffffffffffffffffffffffffffffffffffffffffc36011261022d5760043563ffffffff8116810361022d5761048290612142565b60405160208152606081018251906040602084015281518091526020608084019201905f5b8181106104c65750505063ffffffff6020839401511660408301520390f35b825173ffffffffffffffffffffffffffffffffffffffff168452602093840193909201916001016104a7565b3461022d5760207ffffffffffffffffffffffffffffffffffffffffffffffffffffffffffffffffc36011261022d57602061052e600435612104565b604051908152f35b3461022d5760207ffffffffffffffffffffffffffffffffffffffffffffffffffffffffffffffffc36011261022d5773ffffffffffffffffffffffffffffffffffffffff610582611ad0565b61058a6122c1565b1680156105f65773ffffffffffffffffffffffffffffffffffffffff5f54827fffffffffffffffffffffffff00000000000000000000000000000000000000008216175f55167f8be0079c531659141344cd1fd0a4f28419497f9722a3daafe3b4186f6b6457e05f80a3005b7f1e4fbdf7000000000000000000000000000000000000000000000000000000005f525f60045260245ffd5b3461022d575f7ffffffffffffffffffffffffffffffffffffffffffffffffffffffffffffffffc36011261022d576040517feb8d3f1200000000000000000000000000000000000000000000000000000000815260208160048173ffffffffffffffffffffffffffffffffffffffff7f0000000000000000000000000000000000000000000000000000000000000000165afa8015610222575f906106d3575b60209063ffffffff60405191168152f35b506020813d602011610705575b816106ed60209383611a77565b8101031261022d57610700602091611b31565b6106c2565b3d91506106e0565b3461022d575f7ffffffffffffffffffffffffffffffffffffffffffffffffffffffffffffffffc36011261022d576040517fe039f22400000000000000000000000000000000000000000000000000000000815260208160048173ffffffffffffffffffffffffffffffffffffffff7f0000000000000000000000000000000000000000000000000000000000000000165afa8015610222576020915f916107bb575b506040519015158152f35b6107db9150823d84116107e1575b6107d38183611a77565b810190611bef565b826107b0565b503d6107c9565b3461022d5760207ffffffffffffffffffffffffffffffffffffffffffffffffffffffffffffffffc36011261022d5761081f611ad0565b73ffffffffffffffffffffffffffffffffffffffff604051917fd60b347f00000000000000000000000000000000000000000000000000000000835216600482015260208160248173ffffffffffffffffffffffffffffffffffffffff7f0000000000000000000000000000000000000000000000000000000000000000165afa8015610222576020915f916107bb57506040519015158152f35b3461022d5760207ffffffffffffffffffffffffffffffffffffffffffffffffffffffffffffffffc36011261022d5760043567ffffffffffffffff811161022d5761093661091261028361ffff933690600401611a00565b90916040949394519586951685526020850152606060408501526060840191611af3565b0390f35b3461022d575f7ffffffffffffffffffffffffffffffffffffffffffffffffffffffffffffffffc36011261022d576040517fb172b22200000000000000000000000000000000000000000000000000000000815260208160048173ffffffffffffffffffffffffffffffffffffffff7f0000000000000000000000000000000000000000000000000000000000000000165afa8015610222575f906109e5575b602090604051908152f35b506020813d602011610a10575b816109ff60209383611a77565b8101031261022d57602090516109da565b3d91506109f2565b3461022d5760207ffffffffffffffffffffffffffffffffffffffffffffffffffffffffffffffffc36011261022d5760043567ffffffffffffffff811161022d57610a67903690600401611a00565b807fffffffffffffffffffffffffffffffffffffffffffffffffffffffffffffff80811603610b115781016001915b818110610acd578215610aa557005b7fa506d334000000000000000000000000000000000000000000000000000000005f5260045ffd5b80355f908152600360209081526040808320828501358452825280832081850135845282528083206060850135845290915290205490921660ff1691608001610a96565b7fa3ecc749000000000000000000000000000000000000000000000000000000005f52600452608060245260445ffd5b3461022d5760207ffffffffffffffffffffffffffffffffffffffffffffffffffffffffffffffffc36011261022d5760043567ffffffffffffffff811161022d57610bd461093663ffffffff610ba7610ba161ffff953690600401611a00565b90611f08565b96999490956040989298519b8c9b168b5260208b015216604089015260c0606089015260c0880191611af3565b92608086015284830360a0860152611af3565b3461022d5760207ffffffffffffffffffffffffffffffffffffffffffffffffffffffffffffffffc36011261022d576004355f526002602052602060405f2054604051908152f35b3461022d575f7ffffffffffffffffffffffffffffffffffffffffffffffffffffffffffffffffc36011261022d576040517f9a8a059200000000000000000000000000000000000000000000000000000000815260208160048173ffffffffffffffffffffffffffffffffffffffff7f0000000000000000000000000000000000000000000000000000000000000000165afa8015610222576020915f91610cde575061ffff60405191168152f35b610cf59150823d841161021b5761020d8183611a77565b826101e8565b3461022d5760207ffffffffffffffffffffffffffffffffffffffffffffffffffffffffffffffffc36011261022d576004355f526001602052602060405f2054604051908152f35b3461022d5760407ffffffffffffffffffffffffffffffffffffffffffffffffffffffffffffffffc36011261022d57600435602435610d806122c1565b81156103c15780156103c157815f52600160205260405f2054610dfa57805f52600260205260405f2054610dfa57816040917f1c1b83fdae50654df68bf48a41b76abc6e6ea28dc49b1b397a7904f27102711a935f52600160205280835f2055805f52600260205281835f205582519182526020820152a1005b7fa741a045000000000000000000000000000000000000000000000000000000005f5260045ffd5b3461022d575f7ffffffffffffffffffffffffffffffffffffffffffffffffffffffffffffffffc36011261022d57602073ffffffffffffffffffffffffffffffffffffffff5f5416604051908152f35b60407ffffffffffffffffffffffffffffffffffffffffffffffffffffffffffffffffc36011261022d57610ea4611ad0565b60243567ffffffffffffffff811161022d573660238201121561022d5780600401359067ffffffffffffffff821161022d578160051b90366024838301011161022d576040517ea2d1bd0000000000000000000000000000000000000000000000000000000081528360248201602060048401525280604480820194820101602484015f957fffffffffffffffffffffffffffffffffffffffffffffffffffffffffffffffbd86360301965b888110611373575050509080602092038173ffffffffffffffffffffffffffffffffffffffff89165afa908115610222575f91611354575b501561132c575f9361ffff8411611300576040519060208201527fffff0000000000000000000000000000000000000000000000000000000000008460f01b16604082015260228152610fdc604282611a77565b935f945b848610156110de5760248660051b840101358481121561022d57830160248101359067ffffffffffffffff821161022d57604401813603811361022d5761ffff82116110b25760026001936020846110aa9482966040519785899651918291018688015e8501917fffff0000000000000000000000000000000000000000000000000000000000008260f01b1685840152602283013701015f8382015203017fffffffffffffffffffffffffffffffffffffffffffffffffffffffffffffffe08101835282611a77565b950194610fe0565b507fd7297714000000000000000000000000000000000000000000000000000000005f5260045260245ffd5b9073ffffffffffffffffffffffffffffffffffffffff7f000000000000000000000000000000000000000000000000000000000000000016604051927f1a90a219000000000000000000000000000000000000000000000000000000008452602084600481855afa938415610222575f946112cb575b50601f7fffffffffffffffffffffffffffffffffffffffffffffffffffffffffffffffe09260208660848295604051978896879586937fb19a437e0000000000000000000000000000000000000000000000000000000085525f6004860152606060248601528051918291826064880152018686015e5f858286010152600f6044850152011681010301925af180156102225761129e575b508134116111ff57602090604051908152f35b503403348111611271575f80808084335af13d1561126c573d61122181611e32565b9061122f6040519283611a77565b81525f60203d92013e5b1561124457806109da565b7ff0c49d44000000000000000000000000000000000000000000000000000000005f5260045ffd5b611239565b7f4e487b71000000000000000000000000000000000000000000000000000000005f52601160045260245ffd5b6112bf9060203d6020116112c4575b6112b78183611a77565b810190611de0565b6111ec565b503d6112ad565b9093506020813d6020116112f8575b816112e760209383611a77565b8101031261022d575192601f611154565b3d91506112da565b837f75b8cf75000000000000000000000000000000000000000000000000000000005f5260045260245ffd5b7f0ef392ae000000000000000000000000000000000000000000000000000000005f5260045ffd5b61136d915060203d6020116107e1576107d38183611a77565b85610f88565b91937fffffffffffffffffffffffffffffffffffffffffffffffffffffffffffffffbc908492940301835283358781121561022d578601906044602483013592019167ffffffffffffffff811161022d57803603831361022d576113dd6020928392600195611af3565b9501930191019084939291610f50565b3461022d575f7ffffffffffffffffffffffffffffffffffffffffffffffffffffffffffffffffc36011261022d576114236122c1565b5f73ffffffffffffffffffffffffffffffffffffffff81547fffffffffffffffffffffffff000000000000000000000000000000000000000081168355167f8be0079c531659141344cd1fd0a4f28419497f9722a3daafe3b4186f6b6457e08280a3005b3461022d575f7ffffffffffffffffffffffffffffffffffffffffffffffffffffffffffffffffc36011261022d576040517f64d42b1700000000000000000000000000000000000000000000000000000000815260208160048173ffffffffffffffffffffffffffffffffffffffff7f0000000000000000000000000000000000000000000000000000000000000000165afa8015610222575f906109e557602090604051908152f35b3461022d5760207ffffffffffffffffffffffffffffffffffffffffffffffffffffffffffffffffc36011261022d57611568611ad0565b73ffffffffffffffffffffffffffffffffffffffff604051917f4cf842b500000000000000000000000000000000000000000000000000000000835216600482015260208160248173ffffffffffffffffffffffffffffffffffffffff7f0000000000000000000000000000000000000000000000000000000000000000165afa8015610222576020915f9161160c575b5067ffffffffffffffff60405191168152f35b6116239150823d84116112c4576112b78183611a77565b826115f9565b3461022d5760607ffffffffffffffffffffffffffffffffffffffffffffffffffffffffffffffffc36011261022d5760243567ffffffffffffffff811161022d57611678903690600401611a00565b6044359067ffffffffffffffff821161022d5760407ffffffffffffffffffffffffffffffffffffffffffffffffffffffffffffffffc833603011261022d57604051916116c483611a2e565b806004013567ffffffffffffffff811161022d5781013660238201121561022d5760048101356116f381611ab8565b916117016040519384611a77565b818352602060048185019360051b830101019036821161022d57602401915b818310611751575050508352602401359263ffffffff8416840361022d5761174f936020840152600435611c48565b005b823573ffffffffffffffffffffffffffffffffffffffff8116810361022d57815260209283019201611720565b3461022d5760807ffffffffffffffffffffffffffffffffffffffffffffffffffffffffffffffffc36011261022d576004355f52600360205260405f206024355f5260205260405f206044355f5260205260405f206064355f52602052602060ff60405f2054166040519015158152f35b3461022d575f7ffffffffffffffffffffffffffffffffffffffffffffffffffffffffffffffffc36011261022d57602060405173ffffffffffffffffffffffffffffffffffffffff7f0000000000000000000000000000000000000000000000000000000000000000168152f35b3461022d5760207ffffffffffffffffffffffffffffffffffffffffffffffffffffffffffffffffc36011261022d576040517f2c3c02a4000000000000000000000000000000000000000000000000000000008152600435600482015260208160248173ffffffffffffffffffffffffffffffffffffffff7f0000000000000000000000000000000000000000000000000000000000000000165afa8015610222576020915f916107bb57506040519015158152f35b3461022d575f7ffffffffffffffffffffffffffffffffffffffffffffffffffffffffffffffffc36011261022d57602061194b611b42565b63ffffffff60405191168152f35b3461022d575f7ffffffffffffffffffffffffffffffffffffffffffffffffffffffffffffffffc36011261022d577f1a90a21900000000000000000000000000000000000000000000000000000000815260208160048173ffffffffffffffffffffffffffffffffffffffff7f0000000000000000000000000000000000000000000000000000000000000000165afa8015610222575f906109e557602090604051908152f35b9181601f8401121561022d5782359167ffffffffffffffff831161022d576020838186019501011161022d57565b6040810190811067ffffffffffffffff821117611a4a57604052565b7f4e487b71000000000000000000000000000000000000000000000000000000005f52604160045260245ffd5b90601f7fffffffffffffffffffffffffffffffffffffffffffffffffffffffffffffffe0910116810190811067ffffffffffffffff821117611a4a57604052565b67ffffffffffffffff8111611a4a5760051b60200190565b6004359073ffffffffffffffffffffffffffffffffffffffff8216820361022d57565b601f82602094937fffffffffffffffffffffffffffffffffffffffffffffffffffffffffffffffe093818652868601375f8582860101520116010190565b519063ffffffff8216820361022d57565b6040517f1cfe795100000000000000000000000000000000000000000000000000000000815260208160048173ffffffffffffffffffffffffffffffffffffffff7f0000000000000000000000000000000000000000000000000000000000000000165afa908115610222575f91611bb8575090565b90506020813d602011611be7575b81611bd360209383611a77565b8101031261022d57611be490611b31565b90565b3d9150611bc6565b9081602091031261022d5751801515810361022d5790565b8051821015611c1b5760209160051b010190565b7f4e487b71000000000000000000000000000000000000000000000000000000005f52603260045260245ffd5b929190915f92815151908315611c1b57803560f81c95600195945f5b888110611c7657505050505050505050565b81881015611c1b578784019660205f608060428b3560f81c9c019a60216040519189835260ff601b604183013560f81c011686840152600181013560408401520135606082015282805260015afa156102225773ffffffffffffffffffffffffffffffffffffffff5f5116908115611db8578215908115611dab575b5015611d83578886811015611d5b57611d2173ffffffffffffffffffffffffffffffffffffffff918951611c07565b511603611d3357600101969596611c64565b7f08ada082000000000000000000000000000000000000000000000000000000005f5260045ffd5b7fba5b4315000000000000000000000000000000000000000000000000000000005f5260045ffd5b7f4fe17a6f000000000000000000000000000000000000000000000000000000005f5260045ffd5b60ff91501689115f611cf2565b7fba0e0fd5000000000000000000000000000000000000000000000000000000005f5260045ffd5b9081602091031261022d575167ffffffffffffffff8116810361022d5790565b9081602091031261022d575161ffff8116810361022d5790565b9093929384831161022d57841161022d578101920390565b67ffffffffffffffff8111611a4a57601f017fffffffffffffffffffffffffffffffffffffffffffffffffffffffffffffffe01660200190565b929192611e7882611e32565b91611e866040519384611a77565b82948184528183011161022d578281602093845f960137010152565b919091357fffff00000000000000000000000000000000000000000000000000000000000081169260028110611ed6575050565b7fffff000000000000000000000000000000000000000000000000000000000000929350829060020360031b1b161690565b91908060011161022d577fffffffffffffffffffffffffffffffffffffffffffffffffffffffffffffffff833560f81c01611fe7578060051161022d57600183013560e01c908060061161022d576005840192604260ff853560f81c160293846006018060051161022d57831061022d57916001850191611fe3611f9461041b8460068a01818c611e1a565b602081519101206040516020810191825260208152611fb4604082611a77565b51902092611fcd61040760108a01600e8b01848d611e1a565b60f01c9881603960108b840101359a0191611e1a565b9091565b7fbcd5ac7a000000000000000000000000000000000000000000000000000000005f5260045ffd5b9061201991611f08565b95949192909793979594969761202e83612142565b92835151156120dc5763ffffffff6020850151164211612098575b508115611c1b5761205b835151612104565b813560f81c106120705761206e93611c48565b565b7f2166ec35000000000000000000000000000000000000000000000000000000005f5260045ffd5b63ffffffff806120a6611b42565b169116036120b4575f612049565b7f11927a6e000000000000000000000000000000000000000000000000000000005f5260045ffd5b7f3d0cdd52000000000000000000000000000000000000000000000000000000005f5260045ffd5b61010081101561211a576003600191821b040190565b7f9308529b000000000000000000000000000000000000000000000000000000005f5260045ffd5b5f602060405161215181611a2e565b60608152015263ffffffff604051917ff951975a0000000000000000000000000000000000000000000000000000000083521660048201525f8160248173ffffffffffffffffffffffffffffffffffffffff7f0000000000000000000000000000000000000000000000000000000000000000165afa908115610222575f916121d8575090565b90503d805f833e6121e98183611a77565b81019060208183031261022d5780519067ffffffffffffffff821161022d570160408183031261022d576040519161222083611a2e565b815167ffffffffffffffff811161022d5782019080601f8301121561022d5781519061224b82611ab8565b926122596040519485611a77565b82845260208085019360051b82010191821161022d57602001915b81831061229457505050825261228c90602001611b31565b602082015290565b825173ffffffffffffffffffffffffffffffffffffffff8116810361022d57815260209283019201612274565b73ffffffffffffffffffffffffffffffffffffffff5f541633036122e157565b7f118cdaa7000000000000000000000000000000000000000000000000000000005f523360045260245ffdfea2646970667358221220817fcdd7f96255047c40a9e937c4de1d2a3660f60e7c2bbf12692eb81261542b64736f6c634300081e0033","linkReferences":{}},"methodIdentifiers":{"WORMHOLE()":"35e78cfe","chainId()":"9a8a0592","chainIdMap(uint256)":"9509e264","efficientRequireProven(bytes)":"ae0dd770","evmChainId()":"64d42b17","getCurrentGuardianSetIndex()":"1cfe7951","getGuardianSet(uint32)":"f951975a","getGuardianSetExpiry()":"eb8d3f12","governanceActionIsConsumed(bytes32)":"2c3c02a4","governanceChainId()":"fbe3c2cd","governanceContract()":"b172b222","isFork()":"e039f224","isInitialized(address)":"d60b347f","isProven(uint256,bytes32,bytes32,bytes32)":"3ff04aff","messageFee()":"1a90a219","nextSequence(address)":"4cf842b5","owner()":"8da5cb5b","parseAndVerifyVM(bytes)":"c0fd8bde","parseVM(bytes)":"a9e11893","quorum(uint256)":"f8ce560a","receiveMessage(bytes)":"f953cec7","renounceOwnership()":"715018a6","reverseChainIdMap(uint256)":"9afd77a6","setChainMap(uint256,uint256)":"94020bb4","submit(address,bytes[])":"87d64b92","transferOwnership(address)":"f2fde38b","verifySignatures(bytes32,bytes,(address[],uint32))":"43558667"},"id":160}