{"abi":[{"type":"constructor","inputs":[{"name":"_owner","type":"address","internalType":"address"},{"name":"crossL2Prover","type":"address","internalType":"address"}],"stateMutability":"nonpayable"},{"type":"function","name":"chainIdMap","inputs":[{"name":"protocolChainidentifier","type":"uint256","internalType":"uint256"}],"outputs":[{"name":"chainId","type":"uint256","internalType":"uint256"}],"stateMutability":"view"},{"type":"function","name":"efficientRequireProven","inputs":[{"name":"proofSeries","type":"bytes","internalType":"bytes"}],"outputs":[],"stateMutability":"view"},{"type":"function","name":"isProven","inputs":[{"name":"remoteChainId","type":"uint256","internalType":"uint256"},{"name":"remoteOracle","type":"bytes32","internalType":"bytes32"},{"name":"application","type":"bytes32","internalType":"bytes32"},{"name":"dataHash","type":"bytes32","internalType":"bytes32"}],"outputs":[{"name":"","type":"bool","internalType":"bool"}],"stateMutability":"view"},{"type":"function","name":"owner","inputs":[],"outputs":[{"name":"","type":"address","internalType":"address"}],"stateMutability":"view"},{"type":"function","name":"receiveMessage","inputs":[{"name":"proofs","type":"bytes[]","internalType":"bytes[]"}],"outputs":[],"stateMutability":"nonpayable"},{"type":"function","name":"receiveMessage","inputs":[{"name":"proof","type":"bytes","internalType":"bytes"}],"outputs":[],"stateMutability":"nonpayable"},{"type":"function","name":"renounceOwnership","inputs":[],"outputs":[],"stateMutability":"nonpayable"},{"type":"function","name":"reverseChainIdMap","inputs":[{"name":"chainId","type":"uint256","internalType":"uint256"}],"outputs":[{"name":"protocolChainidentifier","type":"uint256","internalType":"uint256"}],"stateMutability":"view"},{"type":"function","name":"setChainMap","inputs":[{"name":"protocolChainIdentifier","type":"uint256","internalType":"uint256"},{"name":"chainId","type":"uint256","internalType":"uint256"}],"outputs":[],"stateMutability":"nonpayable"},{"type":"function","name":"transferOwnership","inputs":[{"name":"newOwner","type":"address","internalType":"address"}],"outputs":[],"stateMutability":"nonpayable"},{"type":"event","name":"ChainMapConfigured","inputs":[{"name":"protocolChainIdentifier","type":"uint256","indexed":false,"internalType":"uint256"},{"name":"chainId","type":"uint256","indexed":false,"internalType":"uint256"}],"anonymous":false},{"type":"event","name":"OutputProven","inputs":[{"name":"chainid","type":"uint256","indexed":false,"internalType":"uint256"},{"name":"remoteIdentifier","type":"bytes32","indexed":false,"internalType":"bytes32"},{"name":"application","type":"bytes32","indexed":false,"internalType":"bytes32"},{"name":"payloadHash","type":"bytes32","indexed":false,"internalType":"bytes32"}],"anonymous":false},{"type":"event","name":"OwnershipTransferred","inputs":[{"name":"previousOwner","type":"address","indexed":true,"internalType":"address"},{"name":"newOwner","type":"address","indexed":true,"internalType":"address"}],"anonymous":false},{"type":"error","name":"AlreadySet","inputs":[]},{"type":"error","name":"CallOutOfRange","inputs":[]},{"type":"error","name":"ContextOutOfRange","inputs":[]},{"type":"error","name":"NotDivisible","inputs":[{"name":"value","type":"uint256","internalType":"uint256"},{"name":"divisor","type":"uint256","internalType":"uint256"}]},{"type":"error","name":"NotProven","inputs":[]},{"type":"error","name":"OwnableInvalidOwner","inputs":[{"name":"owner","type":"address","internalType":"address"}]},{"type":"error","name":"OwnableUnauthorizedAccount","inputs":[{"name":"account","type":"address","internalType":"address"}]},{"type":"error","name":"WrongEventSignature","inputs":[]},{"type":"error","name":"ZeroValue","inputs":[]}],"bytecode":{"object":"0x6080346100ea57601f610f6e38819003918201601f19168301916001600160401b038311848410176100ee5780849260409485528339810103126100ea57610052602061004b83610102565b9201610102565b6001600160a01b039091169081156100d7575f80546001600160a01b031981168417825560405193916001600160a01b03909116907f8be0079c531659141344cd1fd0a4f28419497f9722a3daafe3b4186f6b6457e09080a3600480546001600160a01b0319166001600160a01b0392909216919091179055610e5790816101178239f35b631e4fbdf760e01b5f525f60045260245ffd5b5f80fd5b634e487b7160e01b5f52604160045260245ffd5b51906001600160a01b03821682036100ea5756fe6080806040526004361015610012575f80fd5b5f3560e01c9081633ff04aff146105e857508063715018a61461054e5780638da5cb5b146104fe57806394020bb4146103f75780639509e264146103af5780639afd77a614610367578063ae0dd7701461027f578063e7d67e3714610196578063f2fde38b146100a75763f953cec71461008a575f80fd5b346100a3576100a161009b36610652565b9061084d565b005b5f80fd5b346100a35760207ffffffffffffffffffffffffffffffffffffffffffffffffffffffffffffffffc3601126100a35760043573ffffffffffffffffffffffffffffffffffffffff81168091036100a3576100ff6106c1565b801561016a5773ffffffffffffffffffffffffffffffffffffffff5f54827fffffffffffffffffffffffff00000000000000000000000000000000000000008216175f55167f8be0079c531659141344cd1fd0a4f28419497f9722a3daafe3b4186f6b6457e05f80a3005b7f1e4fbdf7000000000000000000000000000000000000000000000000000000005f525f60045260245ffd5b346100a35760207ffffffffffffffffffffffffffffffffffffffffffffffffffffffffffffffffc3601126100a35760043567ffffffffffffffff81116100a357366023820112156100a357806004013567ffffffffffffffff81116100a3573660248260051b840101116100a357905f907fffffffffffffffffffffffffffffffffffffffffffffffffffffffffffffffbd81360301915b838110156100a15760248160051b83010135838112156100a35782019060248201359167ffffffffffffffff83116100a35760440182360381136100a3576001926102799161084d565b0161022f565b346100a35761028d36610652565b807fffffffffffffffffffffffffffffffffffffffffffffffffffffffffffffff808116036103375781016001915b8181106102f35782156102cb57005b7fa506d334000000000000000000000000000000000000000000000000000000005f5260045ffd5b80355f908152600360209081526040808320828501358452825280832081850135845282528083206060850135845290915290205490921660ff16916080016102bc565b7fa3ecc749000000000000000000000000000000000000000000000000000000005f52600452608060245260445ffd5b346100a35760207ffffffffffffffffffffffffffffffffffffffffffffffffffffffffffffffffc3601126100a3576004355f526002602052602060405f2054604051908152f35b346100a35760207ffffffffffffffffffffffffffffffffffffffffffffffffffffffffffffffffc3601126100a3576004355f526001602052602060405f2054604051908152f35b346100a35760407ffffffffffffffffffffffffffffffffffffffffffffffffffffffffffffffffc3601126100a3576004356024356104346106c1565b81156104d65780156104d657815f52600160205260405f20546104ae57805f52600260205260405f20546104ae57816040917f1c1b83fdae50654df68bf48a41b76abc6e6ea28dc49b1b397a7904f27102711a935f52600160205280835f2055805f52600260205281835f205582519182526020820152a1005b7fa741a045000000000000000000000000000000000000000000000000000000005f5260045ffd5b7f7c946ed7000000000000000000000000000000000000000000000000000000005f5260045ffd5b346100a3575f7ffffffffffffffffffffffffffffffffffffffffffffffffffffffffffffffffc3601126100a357602073ffffffffffffffffffffffffffffffffffffffff5f5416604051908152f35b346100a3575f7ffffffffffffffffffffffffffffffffffffffffffffffffffffffffffffffffc3601126100a3576105846106c1565b5f73ffffffffffffffffffffffffffffffffffffffff81547fffffffffffffffffffffffff000000000000000000000000000000000000000081168355167f8be0079c531659141344cd1fd0a4f28419497f9722a3daafe3b4186f6b6457e08280a3005b346100a35760807ffffffffffffffffffffffffffffffffffffffffffffffffffffffffffffffffc3601126100a3576020906004355f526003825260405f206024355f52825260405f206044355f52825260405f206064355f52825260ff60405f20541615158152f35b9060207ffffffffffffffffffffffffffffffffffffffffffffffffffffffffffffffffc8301126100a35760043567ffffffffffffffff81116100a357826023820112156100a35780600401359267ffffffffffffffff84116100a357602484830101116100a3576024019190565b73ffffffffffffffffffffffffffffffffffffffff5f541633036106e157565b7f118cdaa7000000000000000000000000000000000000000000000000000000005f523360045260245ffd5b90601f7fffffffffffffffffffffffffffffffffffffffffffffffffffffffffffffffe0910116810190811067ffffffffffffffff82111761074e57604052565b7f4e487b71000000000000000000000000000000000000000000000000000000005f52604160045260245ffd5b519063ffffffff821682036100a357565b67ffffffffffffffff811161074e57601f017fffffffffffffffffffffffffffffffffffffffffffffffffffffffffffffffe01660200190565b81601f820112156100a3578051906107dd8261078c565b926107eb604051948561070d565b828452602083830101116100a357815f9260208093018386015e8301015290565b602081519101519060208110610820575090565b7fffffffffffffffffffffffffffffffffffffffffffffffffffffffffffffffff9060200360031b1b1690565b601f915f9181604473ffffffffffffffffffffffffffffffffffffffff60045416927fffffffffffffffffffffffffffffffffffffffffffffffffffffffffffffffe0604051978896879586947f0b9ca54a000000000000000000000000000000000000000000000000000000008652602060048701528160248701528686013788858286010152011681010301915afa908115610e16575f915f915f905f92610d82575b5080518060201081602018028082189114158102811890818103908111610d2d577ffef24569acf839f2b5cb23fd59d8a9bcc21650ff711ac1961ca3c5d4681ffe1291816109426109929361078c565b91610950604051938461070d565b818352602061095e8361078c565b917fffffffffffffffffffffffffffffffffffffffffffffffffffffffffffffffe08286019301368437870101905e61080c565b03610d5a57805180604010816040180218806020108160201802811890818103908111610d2d57610a159260206109c88361078c565b936109d6604051958661070d565b8385526109e28461078c565b927fffffffffffffffffffffffffffffffffffffffffffffffffffffffffffffffe083870194013685370101905e61080c565b90805181019160208301926080838203126100a357602083015193610a3c6040850161077b565b93606081015167ffffffffffffffff81116100a357019161010090839003126100a35760405190610100820182811067ffffffffffffffff82111761074e576040526020830151825260408301516020830152606083015160408301526080830151916060810192835260a0840151926080820193845260c08501519160a0810192835260e086015167ffffffffffffffff81116100a357846020610ae3928901016107c6565b9360c082019485526101008701519067ffffffffffffffff82116100a3576020610b119260e09901016107c6565b9586910152519251905191519161ffff835111610d055761ffff855111610cdd5782519185519460405198899860208a019b8c5260408a015260e01b7fffffffff000000000000000000000000000000000000000000000000000000001660608901526064880152608487015260a486015260f01b7fffff0000000000000000000000000000000000000000000000000000000000001660c48501528051602081920160c686015e83019060f01b7fffff0000000000000000000000000000000000000000000000000000000000001660c68201528151602081930160c883015e0160c601600281015f9052036002017fffffffffffffffffffffffffffffffffffffffffffffffffffffffffffffffe081018252610c30908261070d565b5190209163ffffffff165f52600160205260405f205480156104d6577f0181a12666b7d0fe18268f2539395fe14c843ad334ea7210434eae4881d9de6b92608092825f52600360205260405f20305f5260205260405f20815f5260205260405f20825f5260205260405f2060017fffffffffffffffffffffffffffffffffffffffffffffffffffffffffffffff0082541617905560405192835230602084015260408301526060820152a1565b7fd94d6ce6000000000000000000000000000000000000000000000000000000005f5260045ffd5b7f4fe9ad23000000000000000000000000000000000000000000000000000000005f5260045ffd5b7f4e487b71000000000000000000000000000000000000000000000000000000005f52601160045260245ffd5b7f49b4a8ba000000000000000000000000000000000000000000000000000000005f5260045ffd5b93505050503d805f833e610d96818361070d565b81016080828203126100a357610dab8261077b565b60208301519273ffffffffffffffffffffffffffffffffffffffff841684036100a357604081015167ffffffffffffffff81116100a35783610dee9183016107c6565b92606082015167ffffffffffffffff81116100a357610e0d92016107c6565b9092915f6108f2565b6040513d5f823e3d90fdfea26469706673582212200df273fb7b0e20d6581d5340cd98126ec9d1ac628c5b466db39e23408df622ca64736f6c634300081e0033","linkReferences":{}},"methodIdentifiers":{"chainIdMap(uint256)":"9509e264","efficientRequireProven(bytes)":"ae0dd770","isProven(uint256,bytes32,bytes32,bytes32)":"3ff04aff","owner()":"8da5cb5b","receiveMessage(bytes)":"f953cec7","receiveMessage(bytes[])":"e7d67e37","renounceOwnership()":"715018a6","reverseChainIdMap(uint256)":"9afd77a6","setChainMap(uint256,uint256)":"94020bb4","transferOwnership(address)":"f2fde38b"},"id":142}